:020000022000DC
:1000000078B1FE1F359E0300319C0300459E03001E
:10001000459E0300459E0300459E0300459E030048
:10002000000000000000000000000000459E0300EA
:10003000459E030000000000459E0300F1A8020059
:10004000E9660300356503009D670300E967030067
:10005000E9660300356503009D670300E967030057
:10006000E9660300356503009D670300E967030047
:10007000F18B030031950300F16F03000971030058
:1000800019790300617A0300757B0300817C03000A
:1000900025840300F18B0300F18B030000000000B6
:1000A0000000000000000000000000000000000050
:1000B0000000000000000000000000000000000040
:1000C0000000000000000000000000000000000030
:1000D0000000000000000000000000000000000020
:10040000FFFFFFFFFFFDFFFFFCFFFFFFFFFFFFFF01
:10041000FCFFFFFFFFFFFFFFFCFFFF00FFFFFF00F0
:10042000FCFF0F20FFFF0F20FCFF7F40FFFF7F40FE
:10043000FCFF0D40FFFF0D40FFFFFFFF80B56F4643
:10044000A4B0D7F80CC0D7F808C022902191209210
:100450001F9300200E9005210D910C900E9A501CB8
:100460000E900FA901910120885422981BF012FAD6
:1004700007F8610C21981BF00DFA07F8620C209820
:100480001BF008FA07F8630C1F981BF003FA0146EB
:1004900001988DF82C1017F8611C0E9A531C0E93BE
:1004A000815417F8621C0E9A531C0E93815417F84E
:1004B000631C0E9A531C0E9381549DF82C100E9AB7
:1004C000531C0E9381540E990844229917F8612CFD
:1004D0001BF0CEF9019817F8612C0E9911440E917A
:1004E0000E990844219917F8622C1BF0C1F9019864
:1004F00017F8622C0E9911440E910E990844209918
:1005000017F8632C1BF0B4F9019817F8632C0E99B7
:1005100011440E910E9908441F999DF82C201BF050
:10052000A7F99DF82C100E9808440E90FFE70C9840
:100530000D99884280F2CE80FFE703200FA915F0C5
:1005400093FC4BF60660C0F2030015F027FC642014
:1005500009F026FB00200A9045F61A41C1F6FE710B
:100560000870FFE70A9842F20F71884200F3A180F9
:10057000FFE740F27670C1F6FE700078012807D1DF
:10058000FFE74CF250300A900D9801300C90FFE7D5
:1005900045F61A40C1F6FE700078C007002800F04A
:1005A0008180FFE745F61B40C1F6FE700078012808
:1005B0004CD1FFE74BF67670C0F2030015F0EEFB6E
:1005C00045F61B40C1F6FE70407807F8690CB86824
:1005D000A8B1FFE717F8690C012810DBFFE7B8683E
:1005E00017F8692C45F61B41C1F6FE7102311BF06C
:1005F0003FF9B96817F8692C00208854FFE717F80D
:10060000690C0230089045F61B40C1F6FE701BF0E5
:1006100041F90899401A0790F86898B1FFE70798E0
:1006200001280FDBFFE7F868089A45F61B41C1F681
:10063000FE711144079A1BF01BF9F968079A002014
:100640008854FFE7C82027F8020C4EE045F61B400F
:10065000C1F6FE70007818BBFFE745F61B40C1F6F7
:10066000FE704178807840EA012027F8760C4CF241
:100670004F10C0F2030015F091FB37F8762C4CF2C6
:100680002C01C0F20301A7F18600009019F0F8FCDC
:10069000009815F083FB37F8760C27F8020C24E05D
:1006A000FFE7FFE70A2009F07BFA0A980A300A9070
:1006B00058E70A9842F21071884207DBFFE74BF6D1
:1006C0007950C0F2030015F069FBFFE70C98013088
:1006D0000C902CE74BF6EB60C0F2030015F05EFBCC
:1006E0004FF4FA7027F8020CFFE737F8020C24B039
:1006F00080BDFFFF80B56F46A0B01E901D91022007
:100700008DF834000DA8029001301E991BF0A4F85A
:10071000029945F61A42C1F6FE720020039010704D
:10072000032015F0A1FB4CF24D30C0F2030015F090
:1007300035FB642009F034FA03980C90FFE70C981D
:1007400042F20F71884200F3A980FFE740F2767011
:10075000C1F6FE700078012804D1FFE74CF250305A
:100760000C90FFE745F61A40C1F6FE700078C0070E
:10077000002800F08C80FFE745F61B40C1F6FE70B4
:100780000078012857D1FFE74CF27130C0F2030026
:1007900015F004FB45F61B42C1F6FE7212F8010F7C
:1007A00053789178D27840EA032041EA022140EA66
:1007B00001400B9005200A9000200990FFE70A985D
:1007C0000999014445F61B40C1F6FE70415C0020CA
:1007D0000D2901900DD0FFE70A980999014445F6CB
:1007E0001B40C1F6FE70405C002818BF012001903C
:1007F000FFE70198C00720B1FFE709980130099091
:10080000DDE71D9898B1FFE7099801280FDBFFE7A6
:100810001D980A9A45F61B41C1F6FE711144099ACA
:100820001BF026F81D99099A00208854FFE70B98C1
:1008300027F8020C3DE045F61B40C1F6FE7000783B
:1008400018BBFFE745F61B40C1F6FE704178807883
:1008500040EA012027F85E0C4CF2BA00C0F2030017
:1008600015F09CFA37F85E2C4CF22C01C0F2030113
:10087000A7F16E00009019F003FC009815F08EFAB5
:1008800037F85E0C27F8020C13E0FFE7FFE70A20B9
:1008900009F086F90C980A300C9050E74CF2412090
:1008A000C0F2030015F07AFA4FF4FA7027F8020C40
:1008B000FFE737F8020C20B080BDFFFF80B56F4620
:1008C000A6B02490239107F80D2C0020119005214B
:1008D00010910F90119A501C1190A7F14D010391A6
:1008E0000320885424981AF0D5FF07F85D0C23984C
:1008F0001AF0D0FF0146039807F85E1C17F80D1C8C
:10090000119A531C1193815417F85D1C119A531CB2
:100910001193815417F85E1C119A531C1193815442
:1009200011990844249917F85D2C1AF0A1FF039837
:1009300017F85D2C119911441191119908442399CC
:1009400017F85E2C1AF094FF17F85E1C11980844F3
:100950001190FFE70F981099884280F2AC80FFE772
:100960000320A7F14D0115F07FFA4BF6CC70C0F2D1
:10097000030015F013FA642009F012F900200D901D
:1009800045F61A41C1F6FE710870FFE70D9842F274
:100990000F7188427EDCFFE745F61A40C1F6FE7013
:1009A0000078C00700286ED0FFE745F61B40C1F66F
:1009B000FE700078012832D1FFE745F61B40C1F6F2
:1009C000FE704178807840EA012027F8660C37F8FD
:1009D000660CC8280AD1FFE74CF28300C0F203007E
:1009E00015F0DCF9C82027F8020C6FE04BF6DE307A
:1009F000C0F2030015F0D2F937F8662C4CF22C0146
:100A0000C0F20301A7F17600029019F039FB0298B9
:100A100015F0C4F937F8660C27F8020C56E045F6D5
:100A20001B40C1F6FE70007810BBFFE745F61B4087
:100A3000C1F6FE704178807840EA0120ADF82000D0
:100A40004BF6E670C0F2030015F0A8F9BDF82020BF
:100A50004CF22C01C0F2030104A8019019F010FB24
:100A6000019815F09BF9BDF8200027F8020C2DE045
:100A70004BF68E70C0F2030015F090F94FF4FA7047
:100A800027F8020C22E00A2009F08AF80D980A30B3
:100A90000D907BE70D9842F21071884207DBFFE76B
:100AA0004BF63F70C0F2030015F078F9FFE70F989E
:100AB00001300F904EE74CF29220C0F2030015F087
:100AC0006DF94FF4FA7027F8020CFFE737F8020CC3
:100AD00026B080BD82B00190019800790146009156
:100AE000012800F0E180FFE70098022800F0DD8097
:100AF000FFE70098042840F0DF80FFE70198826854
:100B000040F28001C1F6FE710B8840F28400C1F60C
:100B1000FE70C2540988405C0D2807D1FFE740F2FF
:100B20008301C1F6FE7101200870FFE740F28000EA
:100B3000C1F6FE70008840F28401C1F6FE710844DF
:100B400010F8080C5A285ED1FFE740F28000C1F689
:100B5000FE70008840F28401C1F6FE71084410F86E
:100B6000070CA5284FD1FFE740F28000C1F6FE70C8
:100B7000008840F28401C1F6FE71084410F8060CAA
:100B8000062840D1FFE740F28000C1F6FE700088E1
:100B900040F28401C1F6FE71084410F8050C832868
:100BA00031D1FFE740F28000C1F6FE70008840F2CC
:100BB0008401C1F6FE71084410F8040C502822D1BB
:100BC000FFE740F28000C1F6FE70028840F2840127
:100BD000C1F6FE718B1813F8013C8A5C42EA0322CD
:100BE00040F28413C1F6FE731A800088084410F89E
:100BF000041C10F8030C40EA012040F28611C1F6F3
:100C0000FE710880FFE740F28000C1F6FE700088A8
:100C100040F28401C1F6FE71084410F8020C8228EB
:100C200023D1FFE740F28000C1F6FE70008840F259
:100C30008401C1F6FE71084410F8010C4F2814D14C
:100C4000FFE740F28000C1F6FE70018840F28400A8
:100C5000C1F6FE70405C4B2807D1FFE740F28301EC
:100C6000C1F6FE7104200870FFE740F28000C1F673
:100C7000FE700188013101800088B0F5807F07DBBC
:100C8000FFE740F28001C1F6FE7100200880FFE717
:100C900040F28000C1F6FE70028840F28401C1F685
:100CA000FE710020885408E007E040F28201C1F69E
:100CB000FE710120087000E0FFE702B07047FFFFFF
:100CC00080B56F46E4B040F25C41C1F6FE71086841
:100CD0000130086040F28610C1F6FE70008845F2CF
:100CE0001201884207D1FFE744F2B001C1F6FE715C
:100CF00070200880FFE740F28610C1F6FE70008881
:100D000045F21601884207D1FFE744F2B001C1F66F
:100D1000FE7100200880FFE740F28610C1F6FE70E9
:100D20000088B0F5A04F40F02B81FFE740F284101F
:100D3000C1F6FE70008840F2113188420DD1FFE704
:100D400044F2B001C1F6FE710920088040F284111E
:100D5000C1F6FE7100200880FFE740F28410C1F662
:100D6000FE70008840F2123188420DD1FFE744F254
:100D7000B001C1F6FE710A20088040F28411C1F66C
:100D8000FE7100200880FFE740F28410C1F6FE707B
:100D9000008840F2133188420DD1FFE744F2B001E0
:100DA000C1F6FE710B20088040F28411C1F6FE717D
:100DB00000200880FFE740F28410C1F6FE70008832
:100DC000B0F5457F0DD1FFE744F2B001C1F6FE71E9
:100DD0000C20088040F28411C1F6FE7100200880CA
:100DE000FFE740F28410C1F6FE70008840F2153132
:100DF00088420DD1FFE744F2B001C1F6FE710D202B
:100E0000088040F28411C1F6FE7100200880FFE7DF
:100E100040F28410C1F6FE70008840F21141884211
:100E20000DD1FFE744F2B001C1F6FE710120088048
:100E300040F28411C1F6FE7100200880FFE740F205
:100E40008410C1F6FE70008840F2124188420DD134
:100E5000FFE744F2B001C1F6FE710220088040F2C3
:100E60008411C1F6FE7100200880FFE740F2841073
:100E7000C1F6FE70008840F2134188420DD1FFE7B1
:100E800044F2B001C1F6FE710320088040F28411E3
:100E9000C1F6FE7100200880FFE740F28410C1F621
:100EA000FE70008840F2144188420DD1FFE744F201
:100EB000B001C1F6FE710420088040F28411C1F631
:100EC000FE7100200880FFE740F28410C1F6FE703A
:100ED000008840F2154188420DD1FFE744F2B0018D
:100EE000C1F6FE710520088040F28411C1F6FE7142
:100EF00000200880FFE740F28410C1F6FE700088F1
:100F000040F2164188420DD1FFE744F2B001C1F62C
:100F1000FE710620088040F28411C1F6FE710020A7
:100F20000880FFE740F28410C1F6FE70008840F2AE
:100F3000174188420DD1FFE744F2B001C1F6FE71BE
:100F40000720088040F28411C1F6FE71002008805D
:100F5000FFE740F28410C1F6FE700088B0F5836FA1
:100F60000DD1FFE744F2B001C1F6FE710820088000
:100F700040F28411C1F6FE7100200880FFE7FFE710
:100F800040F28610C1F6FE70008845F201018842E9
:100F900043F07F80FFE740F28410C1F6FE700088C6
:100FA000502815DBFFE740F28410C1F6FE70008880
:100FB00065280DDCFFE740F28411C1F6FE710020C8
:100FC000088040F23041C1F6FE7101200870FFE751
:100FD00040F28410C1F6FE70008845F255518842F7
:100FE00018D1FFE740F23041C1F6FE7102200870CF
:100FF00040F27672C1F6FE720121117040F2841245
:10100000C1F6FE720021118040F6F441C1F6FE7176
:101010000880FFE740F28410C1F6FE7000884CF6AD
:10102000DA21884211D1FFE700205E900FF080FEA8
:101030005E9840F6F442C1F6FE720221118040F241
:101040008411C1F6FE710880FFE740F28410C1F6FA
:10105000FE70008841F2105188426CDBFFE740F2DD
:101060008410C1F6FE70008841F21951884262DC9A
:10107000FFE740F28410C1F6FE70008841F2105183
:10108000411A40F26600C1F6FE700170007800F16E
:10109000300140F26500C1F6FE70037840F2510263
:1010A000C1F6FE72D154037840F26802C1F6FE72B6
:1010B0002A21D15401780131017000780A2807DB18
:1010C000FFE740F26501C1F6FE7109200870FFE7F5
:1010D00040F26501C1F6FE710B7840F25102C1F693
:1010E000FE720020D054097840F26802C1F6FE7208
:1010F000505440F6F420C1F6FE705D904BF6A77197
:10110000C0F2030118F0BCFF5D981AF0C3FB014662
:1011100045F2407008F030F95D981AF0BBFB5D991C
:10112000024647F64C70C1F6FE7015F0C1F8032078
:1011300008F036FDFFE740F28410C1F6FE7000882B
:10114000B0F5A95F69D1FFE740F6F420C1F6FE7063
:101150005C904CF28631C0F2030140F25102C1F6BC
:10116000FE7218F08DFF5C981AF094FB014645F270
:10117000407008F001F95C981AF08CFB5C9902460B
:1011800047F64C70C1F6FE7015F092F8032008F097
:1011900007FD40F26500C1F6FE700078012808DB0B
:1011A000FFE740F26501C1F6FE710878013808706A
:1011B000FFE740F26500C1F6FE70037840F251028D
:1011C000C1F6FE720021D154017840F26802C1F6E6
:1011D000FE722A20505440F6F420C1F6FE705B9057
:1011E0004BF6A771C0F2030118F04AFF5B981AF0A2
:1011F00051FB014645F2407008F0BEF85B981AF0CA
:1012000049FB5B99024647F64C70C1F6FE7015F03B
:101210004FF8032008F0C4FCFFE740F28410C1F649
:10122000FE70008841F22151884240F01184FFE7AE
:1012300040F26701C1F6FE710020087040F25100D3
:10124000C1F6FE700078312876D1FFE740F25100F8
:10125000C1F6FE70407832286ED1FFE740F25100AF
:10126000C1F6FE708078332866D1FFE740F2510066
:10127000C1F6FE70C07834285ED1FFE740F251001D
:10128000C1F6FE700079002856D1FFE740F6F42041
:10129000C1F6FE7059904CF20231C0F2030140F2E7
:1012A0005102C1F6FE72579218F0EAFE59981AF0F0
:1012B000F1FA014645F24070589008F05DF85998EF
:1012C0001AF0E8FA5999024647F64C70C1F6FE70DA
:1012D0005A9014F0EDFF4FF47A7008F061FC579AC1
:1012E00059984CF28631C0F2030118F0C9FE5998A2
:1012F0001AF0D0FA0146589808F03EF859981AF0BA
:10130000C9FA599902465A9814F0D2FF032008F0FE
:1013100047FC40F6F441C1F6FE710520088040F21A
:101320008411C1F6FE710020088040F26701C1F609
:10133000FE7101200870FFE740F25100C1F6FE7017
:10134000007830285ED1FFE740F25100C1F6FE7010
:101350004078002856D1FFE740F6F420C1F6FE7031
:1013600055904CF2C011C0F2030140F25102C1F697
:10137000FE72539218F084FE55981AF08BFA0146CB
:1013800045F24070549007F0F7FF55981AF082FA32
:101390005599024647F64C70C1F6FE70569014F00F
:1013A00087FF4FF47A7008F0FBFB539A55984BF681
:1013B000C441C0F2030118F063FE55981AF06AFAAE
:1013C0000146549807F0D8FF55981AF063FA5599DA
:1013D0000246569814F06CFF032008F0E1FB40F63B
:1013E000F441C1F6FE711920088040F28411C1F663
:1013F000FE710020088040F26701C1F6FE710220F4
:101400000870FFE740F25100C1F6FE700078302806
:1014100067D1FFE740F25100C1F6FE7040783028F6
:101420005FD1FFE740F25100C1F6FE7080780028DE
:1014300057D1FFE740F6F420C1F6FE7050904CF211
:10144000CB11C0F2030140F25102C1F6FE724E927E
:1014500018F016FE50981AF01DFA014645F2407039
:101460004F9007F089FF50981AF014FA50990246ED
:1014700047F64C70C1F6FE70519014F019FF4FF40E
:101480007A7008F08DFB4E9A50984BF6C441C0F22A
:10149000030118F0F5FD50981AF0FCF901464F9839
:1014A00007F06AFF50981AF0F5F9509902465198E2
:1014B00014F0FEFE0320529008F072FB529840F6A2
:1014C000F442C1F6FE721021118040F28412C1F67E
:1014D000FE720021118040F26701C1F6FE710870B2
:1014E000FFE740F25100C1F6FE700078312840F06D
:1014F0009980FFE740F25100C1F6FE704078322833
:1015000040F09080FFE740F25100C1F6FE70807815
:10151000332840F08780FFE740F25100C1F6FE70AB
:10152000C07834287ED1FFE740F25100C1F6FE704A
:101530000079352876D1FFE740F25100C1F6FE7000
:10154000407936286ED1FFE740F25100C1F6FE70B7
:101550008079372866D1FFE740F25100C1F6FE706E
:10156000C07938285ED1FFE740F25100C1F6FE7025
:10157000007A002856D1FFE740F6F420C1F6FE704D
:101580004C904BF66361C0F2030140F25102C1F688
:10159000FE724A9218F074FD4C981AF07BF90146DD
:1015A00045F240704B9007F0E7FE4C981AF072F944
:1015B0004C99024647F64C70C1F6FE704D9014F0FF
:1015C00077FE4FF47A7008F0EBFA4A9A4C984BF693
:1015D0002861C0F2030118F053FD4C981AF05AF933
:1015E00001464B9807F0C8FE4C981AF053F94C99F5
:1015F00002464D9814F05CFE032008F0D1FA40F644
:10160000F441C1F6FE711120088040F28411C1F648
:10161000FE710020088040F26701C1F6FE710420CF
:101620000870FFE740F25100C1F6FE7000783128E3
:1016300040F09980FFE740F25100C1F6FE7040781B
:10164000322840F09080FFE740F25100C1F6FE7072
:101650008078332840F08780FFE740F25100C1F6E0
:10166000FE70C07834287ED1FFE740F25100C1F609
:10167000FE700079352876D1FFE740F25100C1F6BF
:10168000FE70407936286ED1FFE740F25100C1F676
:10169000FE708079372866D1FFE740F25100C1F62D
:1016A000FE70C07938285ED1FFE740F25100C1F6E4
:1016B000FE70007A002856D1FFE740F6F420C1F60C
:1016C000FE7048904BF66361C0F2030140F2510294
:1016D000C1F6FE72469218F0D3FC48981AF0DAF878
:1016E000014645F24070479007F046FE48981AF0D0
:1016F000D1F84899024647F64C70C1F6FE70499001
:1017000014F0D6FD4FF47A7008F04AFA469A4898D9
:101710004BF62861C0F2030118F0B2FC48981AF0A9
:10172000B9F80146479807F027FE48981AF0B2F832
:1017300048990246499814F0BBFD032008F030FA9E
:1017400040F6F441C1F6FE711120088040F2841188
:10175000C1F6FE710020088040F26701C1F6FE71FB
:1017600004200870FFE740F25100C1F6FE700078D7
:10177000332840F08680FFE740F25100C1F6FE704A
:10178000407830287DD1FFE740F25100C1F6FE706D
:101790008078352875D1FFE740F25100C1F6FE7020
:1017A000C07834286DD1FFE740F25100C1F6FE70D9
:1017B0000079332865D1FFE740F6F420C1F6FE70CA
:1017C00044904CF20D31C0F2030140F25102C1F6D7
:1017D000FE72429218F054FC44981AF05BF80146ED
:1017E00045F24070439007F0C7FD44981AF052F854
:1017F0004499024647F64C70C1F6FE70459014F0CD
:1018000057FD429A44984BF61851C0F2030118F064
:1018100037FC44981AF03EF84499024647F67C702B
:10182000C1F6FE7014F044FD429A44984BF62861CC
:10183000C0F2030118F024FC44981AF02BF801467A
:10184000439807F099FD44981AF024F84499024609
:10185000459814F02DFD032008F0A2F940F6F4415C
:10186000C1F6FE710220088040F28411C1F6FE71BB
:101870000020088040F26701C1F6FE710620087062
:10188000FFE740F25100C1F6FE700078332840F0C7
:101890008680FFE740F25100C1F6FE7040783428A0
:1018A0007DD1FFE740F25100C1F6FE708078352807
:1018B00075D1FFE740F25100C1F6FE70C0783028C4
:1018C0006DD1FFE740F25100C1F6FE700079332878
:1018D00065D1FFE740F6F420C1F6FE7040904CF26F
:1018E0002311C0F2030140F25102C1F6FE723E9292
:1018F00018F0C6FB409819F0CDFF014645F2407044
:101900003F9007F039FD409819F0C4FF4099024616
:1019100047F64C70C1F6FE70419014F0C9FC3E9A37
:1019200040984BF62C41C0F2030118F0A9FB4098F7
:1019300019F0B0FF4099024647F67C70C1F6FE7080
:1019400014F0B6FC3E9A40984BF62861C0F20301B1
:1019500018F096FB409819F09DFF01463F9807F05C
:101960000BFD409819F096FF40990246419814F0FB
:101970009FFC032008F014F940F6F441C1F6FE7113
:101980000220088040F28411C1F6FE710020088018
:1019900040F26701C1F6FE7107200870FFE740F2D0
:1019A0006700C1F6FE700078002850D1FFE740F6CE
:1019B000F420C1F6FE703C904BF63941C0F20301B1
:1019C00040F25102C1F6FE723A9218F059FB3C986F
:1019D00019F060FF014645F240703B9007F0CCFCE7
:1019E0003C9819F057FF3C99024647F64C70C1F6F7
:1019F000FE703D9014F05CFC4FF47A7008F0D0F863
:101A00003A9A3C984BF62861C0F2030118F038FB73
:101A10003C9819F03FFF01463B9807F0ADFC3C981D
:101A200019F038FF3C9902463D9814F041FC032020
:101A300008F0B6F840F6F441C1F6FE7102200880C5
:101A400040F28411C1F6FE7100200880FFE7FFE735
:101A500040F28410C1F6FE70008847F2010188420E
:101A600014D0FFE740F28410C1F6FE70008847F200
:101A7000020188420AD0FFE740F28410C1F6FE70EE
:101A8000008847F20301884211D1FFE744F2C020E9
:101A9000C1F6FE70008840F6F441C1F6FE71088080
:101AA00040F28411C1F6FE7100200880FFE740F289
:101AB0008410C1F6FE70008841F2107188426BD12B
:101AC000FFE740F6F420C1F6FE7037904BF6286130
:101AD000C0F2030118F0D4FA379819F0DBFE014682
:101AE00045F24070369007F047FC379819F0D2FE67
:101AF0003799024647F64C70C1F6FE70389014F0E4
:101B0000D7FB032008F04CF8379840F6F442C1F6B2
:101B1000FE724621118044F2ED22C1F6FE720021D0
:101B20003991117043F6AC71C1F6FE71098844F227
:101B3000C022C1F6FE72118040F60C51C1F6FE7152
:101B400001F10D0240F28811C1F6FE710A600968C8
:101B500018F096FA379819F09DFE0146379840F232
:101B60006502C1F6FE72117019F094FE01463698B6
:101B700007F002FC379819F08DFE37990246389825
:101B800014F096FB042008F00BF8399840F2841109
:101B9000C1F6FE710880FFE740F28410C1F6FE70C6
:101BA000008841F2167188426AD1FFE740F6F420BE
:101BB000C1F6FE7034904BF62861C0F2030118F0B4
:101BC0005FFA349819F066FE014645F24070339092
:101BD00007F0D2FB349819F05DFE3499024647F6BF
:101BE0004C70C1F6FE70359014F062FB032007F0D4
:101BF000D7FF349840F6F442C1F6FE7246211180B8
:101C000044F2ED22C1F6FE720621117043F6AC716A
:101C1000C1F6FE71098844F2C022C1F6FE7211803D
:101C200040F60C51C1F6FE7101F1800240F28811BC
:101C3000C1F6FE710A60096818F022FA349819F0AA
:101C400029FE0146349840F26502C1F6FE72117019
:101C500019F020FE0146339807F08EFB349819F0F6
:101C600019FE34990246359814F022FB042007F03F
:101C700097FF40F28411C1F6FE7100200880FFE753
:101C800040F28410C1F6FE70008841F2177188425C
:101C90006AD1FFE740F6F420C1F6FE7031904BF6B2
:101CA0002861C0F2030118F0EBF9319819F0F2FD48
:101CB000014645F24070309007F05EFB319819F014
:101CC000E9FD3199024647F64C70C1F6FE7032903C
:101CD00014F0EEFA032007F063FF319840F6F44267
:101CE000C1F6FE724621118044F2ED22C1F6FE7269
:101CF0000721117043F6AC71C1F6FE71098844F2F8
:101D0000C022C1F6FE72118040F60C51C1F6FE7180
:101D100001F1900240F28811C1F6FE710A60096873
:101D200018F0AEF9319819F0B5FD0146319840F23E
:101D30006502C1F6FE72117019F0ACFD01463098D3
:101D400007F01AFB319819F0A5FD31990246329837
:101D500014F0AEFA042007F023FF40F28411C1F61C
:101D6000FE7100200880FFE740F28410C1F6FE708B
:101D7000008847F210018842C0F2EF80FFE740F28E
:101D80008410C1F6FE70008847F21901884200F302
:101D9000E480FFE740F28410C1F6FE70008847F24D
:101DA0001001401A40F26601C1F6FE71087044F25B
:101DB000ED20C1F6FE70007890BBFFE740F26600B0
:101DC000C1F6FE70007800F1300240F26500C1F605
:101DD000FE70037840F60C51C1F6FE710D31CA5405
:101DE00040F28812C1F6FE72116001780131017073
:101DF0000078112807DBFFE740F26501C1F6FE71AC
:101E000010200870FFE740F26500C1F6FE7001780F
:101E100040F60C50C1F6FE70014400204873FFE705
:101E200044F2ED20C1F6FE700078062833D1FFE7BA
:101E300040F26600C1F6FE70007800F1300240F218
:101E40006500C1F6FE70037840F60C51C1F6FE71D4
:101E50008031CA5440F28812C1F6FE7211600178D6
:101E6000013101700078112807DBFFE740F26501BE
:101E7000C1F6FE7110200870FFE740F26500C1F660
:101E8000FE70017840F60C50C1F6FE70014400204F
:101E900081F88000FFE744F2ED20C1F6FE70007883
:101EA000072833D1FFE740F26600C1F6FE700078E4
:101EB00000F1300240F26500C1F6FE70037840F692
:101EC0000C51C1F6FE719031CA5440F28812C1F62D
:101ED000FE7211600178013101700078112807DB72
:101EE000FFE740F26501C1F6FE7110200870FFE7C0
:101EF00040F26500C1F6FE70017840F60C50C1F664
:101F0000FE700144002081F89000FFE740F2881045
:101F1000C1F6FE70026840F6F420C1F6FE702F9004
:101F20004BF6A771C0F2030118F0AAF82F9819F028
:101F3000B1FC014645F2407007F01EFA2F9819F0E7
:101F4000A9FC2F99024647F64C70C1F6FE7014F0BA
:101F5000AFF9032007F024FEFFE740F28410C1F63A
:101F6000FE70008847F241018842C0F2E880FFE736
:101F700040F28410C1F6FE70008847F25A01884290
:101F800000F3DD80FFE740F28410C1F6FE700088A8
:101F9000A0F5E04040F26601C1F6FE71087044F21F
:101FA000ED20C1F6FE70007880BBFFE740F26600CE
:101FB000C1F6FE70027840F26500C1F6FE7003784B
:101FC00040F60C51C1F6FE710D31CA5440F2881230
:101FD000C1F6FE721160017801310170007811289C
:101FE00007DBFFE740F26501C1F6FE7110200870C3
:101FF000FFE740F26500C1F6FE70017840F60C5034
:10200000C1F6FE70014400204873FFE744F2ED2062
:10201000C1F6FE700078062831D1FFE740F2660075
:10202000C1F6FE70027840F26500C1F6FE700378DA
:1020300040F60C51C1F6FE718031CA5440F288124C
:10204000C1F6FE721160017801310170007811282B
:1020500007DBFFE740F26501C1F6FE711020087052
:10206000FFE740F26500C1F6FE70017840F60C50C3
:10207000C1F6FE700144002081F88000FFE744F2C1
:10208000ED20C1F6FE700078072831D1FFE740F25D
:102090006600C1F6FE70027840F26500C1F6FE707F
:1020A000037840F60C51C1F6FE719031CA5440F2EB
:1020B0008812C1F6FE72116001780131017000785A
:1020C000112807DBFFE740F26501C1F6FE71102021
:1020D0000870FFE740F26500C1F6FE70017840F637
:1020E0000C50C1F6FE700144002081F89000FFE71B
:1020F00040F28810C1F6FE70026840F6F420C1F686
:10210000FE702E904BF6A771C0F2030117F0B8FFD6
:102110002E9819F0BFFB014645F2407007F02CF9EC
:102120002E9819F0B7FB2E99024647F64C70C1F66F
:10213000FE7014F0BDF8032007F032FDFFE740F217
:102140008410C1F6FE70008847F2210188421FD03A
:10215000FFE740F28410C1F6FE70008847F23A01B2
:10216000884215D0FFE740F28410C1F6FE70008867
:1021700047F23B0188420BD0FFE740F28410C1F6E2
:10218000FE70008847F24001884240F0EF80FFE790
:1021900040F28410C1F6FE70008847F221018842A7
:1021A0000DD0FFE740F28410C1F6FE700088A0F564
:1021B000E04040F26601C1F6FE71087006E040F2B0
:1021C0006601C1F6FE715F200870FFE744F2ED2062
:1021D000C1F6FE70007880BBFFE740F26600C1F6F2
:1021E000FE70027840F26500C1F6FE70037840F69A
:1021F0000C51C1F6FE710D31CA5440F28812C1F67D
:10220000FE7211600178013101700078112807DB3E
:10221000FFE740F26501C1F6FE7110200870FFE78C
:1022200040F26500C1F6FE70017840F60C50C1F630
:10223000FE70014400204873FFE744F2ED20C1F630
:10224000FE700078062831D1FFE740F26600C1F643
:10225000FE70027840F26500C1F6FE70037840F629
:102260000C51C1F6FE718031CA5440F28812C1F699
:10227000FE7211600178013101700078112807DBCE
:10228000FFE740F26501C1F6FE7110200870FFE71C
:1022900040F26500C1F6FE70017840F60C50C1F6C0
:1022A000FE700144002081F88000FFE744F2ED2039
:1022B000C1F6FE700078072831D1FFE740F26600D2
:1022C000C1F6FE70027840F26500C1F6FE70037838
:1022D00040F60C51C1F6FE719031CA5440F288129A
:1022E000C1F6FE7211600178013101700078112889
:1022F00007DBFFE740F26501C1F6FE7110200870B0
:10230000FFE740F26500C1F6FE70017840F60C5020
:10231000C1F6FE700144002081F89000FFE740F212
:102320008810C1F6FE70026840F6F420C1F6FE7017
:102330002D904BF6A771C0F2030117F0A1FE2D9866
:1023400019F0A8FA014645F2407007F015F82D98EB
:1023500019F0A0FA2D99024647F64C70C1F6FE70AE
:1023600013F0A6FF032007F01BFCFFE740F28410E8
:10237000C1F6FE70008847F22001884240F0A68036
:10238000FFE740F6F420C1F6FE702C904CF2863147
:10239000C0F2030117F074FE2C9819F07BFA014685
:1023A00045F2407006F0E8FF2C9819F073FA2C996A
:1023B000024647F64C70C1F6FE7013F079FF032019
:1023C00007F0EEFB40F26500C1F6FE7000780128D0
:1023D00008DBFFE740F26501C1F6FE7108780138BD
:1023E0000870FFE744F2ED20C1F6FE70007890B966
:1023F000FFE740F26500C1F6FE70027840F60C502F
:10240000C1F6FE700D300021815440F28811C1F6F2
:10241000FE710860FFE744F2ED20C1F6FE7000781F
:10242000062812D1FFE740F26500C1F6FE7002787F
:1024300040F60C50C1F6FE7080300021815440F20D
:102440008811C1F6FE710860FFE744F2ED20C1F685
:10245000FE700078072812D1FFE740F26500C1F650
:10246000FE70027840F60C50C1F6FE7090300021EC
:10247000815440F28811C1F6FE710860FFE740F216
:102480008810C1F6FE70026840F6F420C1F6FE70B6
:102490002B904BF6A771C0F2030117F0F1FD2B98BA
:1024A00019F0F8F9014645F2407006F065FF2B98E7
:1024B00019F0F0F92B99024647F64C70C1F6FE7000
:1024C00013F0F6FE032007F06BFBFFE740F28410E9
:1024D000C1F6FE70008840F20161884229D0FFE712
:1024E00040F28410C1F6FE70008841F2010188427A
:1024F0001FD0FFE740F28410C1F6FE70008841F261
:102500000151884215D0FFE740F28410C1F6FE70F9
:10251000008847F2010188420BD0FFE740F28410A7
:10252000C1F6FE70008847F20111884240F0A08099
:10253000FFE743F6AC70C1F6FE7000880A2820D091
:10254000FFE743F6AC70C1F6FE7000880B2818D088
:10255000FFE743F6AC70C1F6FE7000880C2810D07F
:10256000FFE743F6AC70C1F6FE7000880D2808D076
:10257000FFE743F6AC70C1F6FE7000880E280DD15F
:10258000FFE740F6F441C1F6FE710720088040F2F3
:102590008411C1F6FE710020088068E043F6AC703B
:1025A000C1F6FE7000880F2818D0FFE743F6AC7024
:1025B000C1F6FE700088102810D0FFE743F6AC701B
:1025C000C1F6FE700088192808D0FFE743F6AC700A
:1025D000C1F6FE70008811283BD1FFE740F6F441B8
:1025E000C1F6FE710220088043F6AC70C1F6FE70A1
:1025F00000880F2807D1FFE740F6F441C1F6FE71CD
:10260000022008801EE043F6AC70C1F6FE70008820
:1026100010280FD1FFE740F26700C1F6FE70007886
:10262000032807D1FFE740F6F441C1F6FE7102200E
:10263000088006E040F6F441C1F6FE7105200880EE
:10264000FFE7FFE740F28411C1F6FE710020088029
:102650000CE040F6F441C1F6FE710520088040F21E
:102660008411C1F6FE7100200880FFE7FFE7FFE755
:1026700040F28410C1F6FE70008841F202018842E7
:1026800065D0FFE740F28410C1F6FE70008842F288
:10269000013188425BD0FFE740F28410C1F6FE7042
:1026A000008842F20231884251D0FFE740F28410A4
:1026B000C1F6FE70008842F20151884247D0FFE720
:1026C00040F28410C1F6FE70008842F20251884246
:1026D0003DD0FFE740F28410C1F6FE70008841F65D
:1026E0000101884233D0FFE740F28410C1F6FE704A
:1026F000008840F20161884229D0FFE740F284104F
:10270000C1F6FE70008841F2017188421FD0FFE7D8
:1027100040F28410C1F6FE70008841F202718842D6
:1027200015D0FFE740F28410C1F6FE70008847F232
:10273000011188420BD0FFE740F28410C1F6FE7011
:10274000008847F20211884240F0CE80FFE743F64E
:10275000AC70C1F6FE7000880A2818D0FFE743F677
:10276000AC70C1F6FE7000880B2810D0FFE743F66E
:10277000AC70C1F6FE7000880C2808D0FFE743F665
:10278000AC70C1F6FE7000880D280ED1FFE740F254
:102790008C10C1F6FE70008807F070F840F6F44126
:1027A000C1F6FE7105200880FFE743F6AC70C1F664
:1027B000FE700088122848D0FFE743F6AC70C1F6DF
:1027C000FE700088062840D0FFE743F6AC70C1F6E3
:1027D000FE700088172838D0FFE743F6AC70C1F6CA
:1027E000FE700088382830D0FFE743F6AC70C1F6A1
:1027F000FE7000883B2828D0FFE743F6AC70C1F696
:10280000FE7000883C2820D0FFE743F6AC70C1F68C
:10281000FE7000883D2818D0FFE743F6AC70C1F683
:10282000FE700088412810D0FFE743F6AC70C1F677
:10283000FE700088472808D0FFE743F6AC70C1F669
:10284000FE70008849280FD1FFE706F085FF44F2AB
:10285000C020C1F6FE70008840F6F441C1F6FE715A
:10286000088005200880FFE743F6AC70C1F6FE70D3
:102870000088192818D0FFE743F6AC70C1F6FE7047
:1028800000880F2810D0FFE743F6AC70C1F6FE7049
:102890000088102808D0FFE743F6AC70C1F6FE7040
:1028A0000088112819D1FFE707F0F6F840F2670019
:1028B000C1F6FE700078022807D0FFE740F6F44129
:1028C000C1F6FE710520088006E040F6F441C1F62D
:1028D000FE7102200880FFE7FFE740F28411C1F695
:1028E000FE7100200880FFE740F28410C1F6FE7000
:1028F000008840F2036188423DD0FFE740F2841037
:10290000C1F6FE70008841F20301884233D0FFE730
:1029100040F28410C1F6FE70008841F6030188423F
:1029200029D0FFE740F28410C1F6FE70008842F221
:10293000033188421FD0FFE740F28410C1F6FE70D9
:10294000008842F20351884215D0FFE740F284101C
:10295000C1F6FE70008841F2037188420BD0FFE798
:1029600040F28410C1F6FE70008847F203118842DD
:1029700040F0EF80FFE747F63860C1F6FE7029901F
:102980004FF442712A91012214F056FC322007F0D4
:1029900007F929982A99002214F04EFC43F6AC70EE
:1029A000C1F6FE7000880A2820D0FFE743F6AC701D
:1029B000C1F6FE7000880B2818D0FFE743F6AC7014
:1029C000C1F6FE7000880C2810D0FFE743F6AC700B
:1029D000C1F6FE7000880D2808D0FFE743F6AC7002
:1029E000C1F6FE7000880E280ED1FFE740F28C1071
:1029F000C1F6FE70008806F0F1FE40F6F441C1F623
:102A0000FE7107200880FFE743F6AC70C1F6FE7048
:102A100000883A281CD1FFE744F2EC20C1F6FE7092
:102A200028900078800006F0D9FE28980078800071
:102A3000013006F0D3FE289800788000023006F0BE
:102A4000CDFE289800788000033006F0C7FEFFE72F
:102A500043F6AC70C1F6FE700088062818D0FFE778
:102A600043F6AC70C1F6FE700088122810D0FFE764
:102A700043F6AC70C1F6FE700088172808D0FFE757
:102A800043F6AC70C1F6FE700088472809D1FFE715
:102A900006F01CFE40F6F441C1F6FE7105200880E8
:102AA000FFE743F6AC70C1F6FE700088192808D025
:102AB000FFE743F6AC70C1F6FE700088112819D10B
:102AC000FFE706F0A9FF40F26700C1F6FE7000784C
:102AD000022807D0FFE740F6F441C1F6FE71052059
:102AE000088006E040F6F441C1F6FE71022008803D
:102AF000FFE7FFE743F6AC70C1F6FE70008844289C
:102B000007D1FFE740F6F441C1F6FE7105200880C9
:102B1000FFE743F6AC70C1F6FE7000883E2808D08F
:102B2000FFE743F6AC70C1F6FE7000883F2809D17C
:102B3000FFE706F071FF40F6F441C1F6FE71052093
:102B40000880FFE740F28411C1F6FE710020088082
:102B5000FFE740F28410C1F6FE70008841F20401E4
:102B600088420DD1FFE740F6F441C1F6FE710A201C
:102B7000088040F28411C1F6FE7100200880FFE752
:102B800040F28410C1F6FE70008841F205018842CF
:102B90000DD1FFE740F6F441C1F6FE710B2008802D
:102BA00040F28411C1F6FE7100200880FFE740F278
:102BB0008410C1F6FE70008841F2060188420DD1F2
:102BC000FFE740F6F441C1F6FE710C20088040F2A8
:102BD0008411C1F6FE7100200880FFE740F28410E6
:102BE000C1F6FE70008841F2070188420DD1FFE76F
:102BF00040F6F441C1F6FE710D20088040F28411C8
:102C0000C1F6FE7100200880FFE740F28410C1F693
:102C1000FE70008841F20801884215D1FFE740F2BA
:102C20003340C1F6FE70007838B9FFE740F6F44152
:102C3000C1F6FE710E200880FFE740F28411C1F654
:102C4000FE7100200880FFE740F28410C1F6FE709C
:102C5000008840F2012188420AD0FFE740F2841048
:102C6000C1F6FE70008842F2012188420DD1FFE7D3
:102C700044F2B001C1F6FE712820088040F28411B0
:102C8000C1F6FE7100200880FFE740F28410C1F613
:102C9000FE70008840F20341884217D1FFE740F6FA
:102CA0008010C1F6FE7090F84800012807D1FFE7B8
:102CB00044F2B001C1F6FE7129200880FFE740F21E
:102CC0008411C1F6FE7100200880FFE740F28410F5
:102CD000C1F6FE70008840F20221884262D1FFE70F
:102CE00040F6F441C1F6FE710F20088040F2510118
:102CF000C1F6FE71259100202790087048708870F9
:102D0000C870087148718871C871087248728872F9
:102D1000C87208734873887340F26502C1F6FE7288
:102D2000107040F27C02C1F6FE721070087048709C
:102D30008870C870087148718871C87108724872CB
:102D40008872C87208734873887344F2C220C1F64F
:102D5000FE70028840F6F420C1F6FE7026904BF615
:102D60006171C0F2030117F08BF9269818F092FDFB
:102D7000014645F2407006F0FFFA269818F08AFDE9
:102D80002699024647F64C70C1F6FE7013F090FA91
:102D9000032006F005FF279840F28411C1F6FE716A
:102DA0000880FFE740F28410C1F6FE70008840F210
:102DB000032188420DD1FFE740F6F441C1F6FE71D0
:102DC0000520088040F28411C1F6FE7100200880C1
:102DD000FFE740F28410C1F6FE700088B0F5017F75
:102DE00017D1FFE740F6F441C1F6FE7103200880D9
:102DF00040F28411C1F6FE710020088043F6AC70E9
:102E0000C1F6FE70008844F2C021C1F6FE71088050
:102E1000FFE740F28410C1F6FE70008840F2052101
:102E2000884217D1FFE740F6F441C1F6FE71042055
:102E3000088040F28411C1F6FE710020088043F63C
:102E4000AC70C1F6FE70008844F2C021C1F6FE717C
:102E50000880FFE740F28410C1F6FE70008840F25F
:102E60000251884217D1FFE740F6F441C1F6FE71E6
:102E70001020088040F28411C1F6FE710020088005
:102E800043F6AC70C1F6FE70008844F2C021C1F672
:102E9000FE710880FFE740F28410C1F6FE700088E2
:102EA00040F20351884217D1FFE740F6F441C1F6E2
:102EB000FE711120088040F28411C1F6FE710020DD
:102EC000088043F6AC70C1F6FE70008844F2C02161
:102ED000C1F6FE710880FFE740F28410C1F6FE7073
:102EE000008840F20551884217D1FFE740F6F441CF
:102EF000C1F6FE710720088040F28411C1F6FE7110
:102F00000020088043F6AC70C1F6FE70008844F2E1
:102F1000C021C1F6FE710880FFE740F28410C1F6BF
:102F2000FE70008840F20751884217D1FFE740F653
:102F3000F441C1F6FE711220088040F28411C1F6FE
:102F4000FE710020088043F6AC70C1F6FE70008868
:102F500044F2C021C1F6FE710880FFE740F2841000
:102F6000C1F6FE700088B0F5A16F17D1FFE740F6FB
:102F7000F441C1F6FE710620088040F28411C1F6CA
:102F8000FE710020088043F6AC70C1F6FE70008828
:102F900044F2C021C1F6FE710880FFE740F28410C0
:102FA000C1F6FE70008840F20951884217D1FFE750
:102FB00040F6F441C1F6FE711920088040F28411F8
:102FC000C1F6FE710020088043F6AC70C1F6FE70B9
:102FD000008844F2C021C1F6FE710880FFE740F28C
:102FE0008410C1F6FE70008840F20A51884217D161
:102FF000FFE740F6F441C1F6FE711720088040F269
:103000008411C1F6FE710020088043F6AC70C1F651
:10301000FE70008844F2C021C1F6FE710880FFE70F
:1030200040F28410C1F6FE70008840F20D518842D3
:1030300017D1FFE740F6F441C1F6FE714720088042
:1030400040F28411C1F6FE710020088043F6AC7096
:10305000C1F6FE70008844F2C021C1F6FE710880FE
:10306000FFE740F28410C1F6FE70008840F60101CF
:1030700088420AD0FFE740F28410C1F6FE70008853
:1030800040F60111884229D1FFE740F28410C1F6D1
:10309000FE70008840F60101884207D1FFE740F644
:1030A000F441C1F6FE7107200880FFE740F284106A
:1030B000C1F6FE70008840F60111884207D1FFE793
:1030C00040F6F441C1F6FE7107200880FFE740F2A8
:1030D0008411C1F6FE7100200880FFE740F28410E1
:1030E000C1F6FE70008840F6030188420AD0FFE76F
:1030F00040F28410C1F6FE70008840F60311884249
:1031000047D1FFE740F23340C1F6FE70007858B96E
:10311000FFE740F28E10C1F6FE70008840F28C117D
:10312000C1F6FE7108800BE040F28E10C1F6FE7011
:103130000088143040F28C11C1F6FE710880FFE760
:1031400040F28410C1F6FE70008840F60301884208
:1031500007D1FFE740F6F441C1F6FE710A2008806E
:10316000FFE740F28410C1F6FE70008840F60311BC
:10317000884207D1FFE740F6F441C1F6FE710A200C
:103180000880FFE740F28411C1F6FE71002008803C
:10319000FFE740F28410C1F6FE700088B0F5016FC1
:1031A00009D0FFE740F28410C1F6FE700088B0F548
:1031B000116F07D1FFE740F23341C1F6FE710020E5
:1031C0000870FFE740F28410C1F6FE70008840F6F8
:1031D000110188420AD0FFE740F28410C1F6FE7068
:1031E000008840F61111884207D1FFE740F23341D1
:1031F000C1F6FE7101200870FFE740F28410C1F6AD
:10320000FE700088B0F5016F1DD0FFE740F284101A
:10321000C1F6FE700088B0F5116F14D0FFE740F2E0
:103220008410C1F6FE70008840F6110188420AD071
:10323000FFE740F28410C1F6FE70008840F61111DD
:10324000884273D1FFE740F23340C1F6FE70007848
:1032500058B9FFE745F225100D2106F0B5F845F203
:1032600026100E2106F0B0F80AE045F225100C21D8
:1032700006F0AAF845F226100F2106F0A5F8FFE7A0
:1032800040F23340C1F6FE700078B8B9FFE740F273
:103290008E10C1F6FE70008800EB00114CF2A330D6
:1032A000C0F20300421840F6F420C1F6FE704BF65F
:1032B0003A61C0F2030116F0E3FE16E040F28E1010
:1032C000C1F6FE70008800EB00114CF2A330C0F292
:1032D0000300421840F6F420C1F6FE704CF26D1166
:1032E000C0F2030116F0CCFEFFE740F6F420C1F671
:1032F000FE70249018F0CEFA01464FF4AE4006F06E
:103300003BF8249818F0C6FA2499024647F64C7008
:10331000C1F6FE7012F0CCFF032006F041FC40F233
:103320008411C1F6FE7100200880FFE740F284108E
:10333000C1F6FE70008841F60111884232D0FFE7E5
:1033400040F28410C1F6FE70008841F602118842F6
:1033500028D0FFE740F28410C1F6FE70008842F2E8
:10336000013188421ED0FFE740F28410C1F6FE70A2
:10337000008842F20231884214D0FFE740F2841004
:10338000C1F6FE70008842F2015188420AD0FFE780
:1033900040F28410C1F6FE70008842F20251884269
:1033A00011D1FFE744F2C020C1F6FE70008840F65C
:1033B000F441C1F6FE71088040F28411C1F6FE713D
:1033C00000200880FFE740F28410C1F6FE700088FC
:1033D00041F60311884240F01681FFE744F2C02015
:1033E000C1F6FE70018840F6F442C1F6FE7211800B
:1033F00040F28412C1F6FE720021118000880A2872
:1034000018D1FFE744F2C220C1F6FE70008840F2F6
:103410008C11C1F6FE710A8840F6AC51C1F6FE71FE
:1034200001EB022144F2C422C1F6FE72128821F897
:103430001200FFE744F2C020C1F6FE7000880B289E
:1034400018D1FFE744F2C220C1F6FE70008840F2B6
:103450008C11C1F6FE710A8840F6AC51C1F6FE71BE
:1034600001EB022144F2C422C1F6FE72128821F857
:103470001200FFE744F2C020C1F6FE7000880C285D
:1034800018D1FFE744F2C220C1F6FE70008840F276
:103490008C11C1F6FE710A8840F6AC51C1F6FE717E
:1034A00001EB022144F2C422C1F6FE72128821F817
:1034B0001200FFE744F2C020C1F6FE7000880D281C
:1034C00018D1FFE744F2C220C1F6FE70008840F236
:1034D0008C11C1F6FE710A8840F6AC51C1F6FE713E
:1034E00001EB022144F2C422C1F6FE72128821F8D7
:1034F0001200FFE744F2C020C1F6FE7000880E28DB
:1035000035D1FFE744F2C420C1F6FE7000880128DF
:1035100012D1FFE744F2C220C1F6FE70008840F2EB
:103520008C11C1F6FE710A8840F6AC51C1F6FE71ED
:1035300001EB02218873FFE744F2C420C1F6FE705C
:103540000088022812D1FFE744F2C220C1F6FE70C3
:10355000008840F28C11C1F6FE710A8840F6AC5129
:10356000C1F6FE7101EB02210874FFE7FFE744F2A8
:10357000C020C1F6FE700088172829D1FFE744F269
:10358000C420C1F6FE70008801280CD1FFE744F288
:10359000C220C1F6FE70008840F68011C1F6FE71AF
:1035A00081F8AE00FFE744F2C420C1F6FE70008847
:1035B00002280CD1FFE744F2C220C1F6FE70008859
:1035C00040F68011C1F6FE71A1F8B000FFE7FFE7F9
:1035D00044F2C020C1F6FE700088192812D1FFE71E
:1035E00044F2C220C1F6FE70008844F2C421C1F644
:1035F000FE710A8840F60C51C1F6FE7101EB4201E2
:103600000884FFE7FFE740F28410C1F6FE700088EF
:1036100040F20131884214D0FFE740F28410C1F635
:10362000FE70008840F2014188420AD0FFE740F274
:103630008410C1F6FE70008840F2015188420ED11C
:10364000FFE740F24441C1F6FE714EF6612008608A
:1036500040F28411C1F6FE7100200880FFE740F2BD
:103660008410C1F6FE70008842F6010188420AD03B
:10367000FFE740F28410C1F6FE70008842F60201B6
:10368000884213D1FFE740F23141C1F6FE710220BA
:10369000087040F6F441C1F6FE710320088040F244
:1036A0008411C1F6FE7100200880FFE740F284100B
:1036B000C1F6FE70008842F6030188420DD1FFE793
:1036C00040F23141C1F6FE710120087040F28411D0
:1036D000C1F6FE7100200880FFE740F28410C1F6B9
:1036E000FE70008842F61001884207D1FFE740F2E1
:1036F0003241C1F6FE7100200870FFE740F28410ED
:10370000C1F6FE70008842F61101884207D1FFE73A
:1037100040F23241C1F6FE7101200870FFE740F22D
:103720008410C1F6FE70008842F6011188420AD06A
:10373000FFE740F28410C1F6FE70008842F60211E5
:10374000884213D1FFE740F23141C1F6FE710220F9
:10375000087040F6F441C1F6FE710420088040F282
:103760008411C1F6FE7100200880FFE740F284104A
:10377000C1F6FE70008842F6031188420DD1FFE7C2
:1037800040F23141C1F6FE710120087040F284110F
:10379000C1F6FE7100200880FFE740F28410C1F6F8
:1037A000FE70008842F61011884207D1FFE740F210
:1037B0003241C1F6FE7100200870FFE740F284102C
:1037C000C1F6FE70008842F61111884207D1FFE76A
:1037D00040F23241C1F6FE7101200870FFE740F26D
:1037E0008410C1F6FE70008842F6101188421FD086
:1037F000FFE740F28410C1F6FE70008842F6111116
:10380000884215D0FFE740F28410C1F6FE700088B0
:1038100042F6100188420BD0FFE740F28410C1F657
:10382000FE70008842F61101884240F08280FFE776
:1038300040F23240C1F6FE700078012839D1FFE72E
:1038400045F221100C2105F0BFFD45F222100F2199
:1038500005F0BAFD44F2B400C1F6FE70007B38B347
:10386000FFE744F2B400C1F6FE70027C40F6F4209B
:10387000C1F6FE7023904CF27811C0F2030116F0ED
:10388000FFFB239818F006F801464FF4B04005F00E
:1038900073FD239817F0FEFF2399024647F64C70FC
:1038A000C1F6FE7012F004FD032006F079F9FFE77F
:1038B00038E045F221100D2105F086FD45F2221079
:1038C0000E2105F081FD44F2B400C1F6FE70007BCC
:1038D00038B3FFE744F2B400C1F6FE70827B40F6D5
:1038E000F420C1F6FE7022904CF27811C0F2030170
:1038F00016F0C6FB229817F0CDFF01464FF4B040FA
:1039000005F03AFD229817F0C5FF2299024647F6C6
:103910004C70C1F6FE7012F0CBFC032006F040F9AB
:10392000FFE7FFE740F28411C1F6FE710020088036
:10393000FFE740F28410C1F6FE70008843F20121D7
:1039400088420DD1FFE740F23041C1F6FE710220FE
:10395000087040F28411C1F6FE7100200880FFE774
:1039600040F28410C1F6FE70008843F203218842C1
:103970000DD1FFE740F23041C1F6FE710120087021
:1039800040F28411C1F6FE7100200880FFE740F28A
:103990008410C1F6FE70008843F2013188420DD1D7
:1039A000FFE740F23041C1F6FE710220087040F29C
:1039B0008411C1F6FE7100200880FFE740F28410F8
:1039C000C1F6FE70008843F2033188420DD1FFE753
:1039D00040F23041C1F6FE710120087040F28411BE
:1039E000C1F6FE7100200880FFE740F28410C1F6A6
:1039F000FE70008840F2023188420AD0FFE740F2B0
:103A00008410C1F6FE70008840F20241884217D14E
:103A1000FFE740F21E00C1F6FE700078012807D1D2
:103A2000FFE740F21E01C1F6FE710020087006E0BB
:103A300040F21E01C1F6FE7101200870FFE7FFE7AA
:103A400040F28410C1F6FE70008801280DD1FFE716
:103A500040F6F441C1F6FE710720088040F284115F
:103A6000C1F6FE7100200880FFE740F28410C1F625
:103A7000FE70008802280DD1FFE740F6F441C1F640
:103A8000FE710220088040F28411C1F6FE71002010
:103A90000880FFE740F28410C1F6FE70008803281A
:103AA0002DD1FFE743F6AC70C1F6FE700088012807
:103AB00007D1FFE740F6F441C1F6FE71052008800A
:103AC000FFE743F6AC70C1F6FE700088072808D007
:103AD000FFE743F6AC70C1F6FE7000886B2807D193
:103AE000FFE740F6F441C1F6FE7105200880FFE7CC
:103AF00040F28411C1F6FE7100200880FFE740F219
:103B00008410C1F6FE70008804280DD1FFE740F64E
:103B1000F441C1F6FE710B20088040F28411C1F619
:103B2000FE7100200880FFE740F28410C1F6FE70AD
:103B3000008805280DD1FFE740F6F441C1F6FE717B
:103B40001420088040F28411C1F6FE710020088024
:103B5000FFE740F28410C1F6FE700088062840F0AE
:103B6000C880FFE744F2EC20C1F6FE70007801281F
:103B700008DBFFE744F2EC21C1F6FE71087801385A
:103B80000870FFE744F2EC20C1F6FE70007858B9E7
:103B9000FFE74FF4C2400F2105F016FC46F201107A
:103BA000642105F011FCFFE744F2EC20C1F6FE7041
:103BB0000078012813DBFFE744F2EC20C1F6FE7029
:103BC000007803280BDCFFE74FF4C2400F2105F01B
:103BD000FBFB46F20110102105F0F6FBFFE744F273
:103BE000EC20C1F6FE70007804280BD1FFE74FF4FB
:103BF000C240642105F0E8FB46F20110102105F0F7
:103C0000E3FBFFE744F2EC20C1F6FE70007800F120
:103C10003D0146F2021005F0D7FB40F25641C1F6D5
:103C2000FE7100200870FFE740F25640C1F6FE70BA
:103C30000078032856DCFFE740F25640C1F6FE70DC
:103C40001F9001784FF4B44000EB411010211D91FA
:103C500005F092FB1D9A47F64C70C1F6FE7040F6D7
:103C6000F421C1F6FE711E9112F022FB1E9817F08E
:103C700011FE1E99024647F61C70C1F6FE7012F046
:103C800017FB022005F08CFF1F98017801F5E14039
:103C900044F2EC22C1F6FE722092127801EB82020D
:103CA00044F2EE21C1F6FE71219101EBC211C979F6
:103CB00005F08AFB1F98209B2199027847F2840027
:103CC00010441B7802EB830201EBC211497A05F024
:103CD0007BFBFFE740F25641C1F6FE7108780130E8
:103CE0000870A1E740F28411C1F6FE71002008803F
:103CF000FFE740F28410C1F6FE700088072840F00C
:103D0000C880FFE744F2EC20C1F6FE70007803287B
:103D100008DCFFE744F2EC21C1F6FE7108780130BF
:103D20000870FFE744F2EC20C1F6FE70007858B945
:103D3000FFE74FF4C2400F2105F046FB46F20110A9
:103D4000642105F041FBFFE744F2EC20C1F6FE7070
:103D50000078012813DBFFE744F2EC20C1F6FE7087
:103D6000007803280BDCFFE74FF4C2400F2105F079
:103D70002BFB46F20110102105F026FBFFE744F271
:103D8000EC20C1F6FE70007804280BD1FFE74FF459
:103D9000C240642105F018FB46F20110102105F025
:103DA00013FBFFE744F2EC20C1F6FE70007800F14F
:103DB0003D0146F2021005F007FB40F25641C1F604
:103DC000FE7100200870FFE740F25640C1F6FE7019
:103DD0000078032856DCFFE740F25640C1F6FE703B
:103DE0001A9001784FF4B44000EB41101021189163
:103DF00005F0C2FA189A47F64C70C1F6FE7040F60C
:103E0000F421C1F6FE71199112F052FA199817F0C7
:103E100041FD1999024647F61C70C1F6FE7012F07A
:103E200047FA022005F0BCFE1A98017801F5E1403E
:103E300044F2EC22C1F6FE721B92127801EB820270
:103E400044F2EE21C1F6FE711C9101EBC211C97959
:103E500005F0BAFA1A981B9B1C99027847F2840065
:103E600010441B7802EB830201EBC211497A05F082
:103E7000ABFAFFE740F25641C1F6FE710878013017
:103E80000870A1E740F28411C1F6FE71002008809D
:103E9000FFE740F28410C1F6FE70008819280DD1AA
:103EA000FFE740F6F441C1F6FE716520088040F25C
:103EB0008411C1F6FE7100200880FFE740F28410F3
:103EC000C1F6FE70008820280DD1FFE740F6F441CE
:103ED000C1F6FE710320088040F28411C1F6FE7124
:103EE00000200880FFE740F28410C1F6FE700088D1
:103EF000212807D1FFE740F28411C1F6FE710020AE
:103F00000880FFE740F28410C1F6FE700088222886
:103F10000DD1FFE740F6F441C1F6FE71062008809E
:103F200040F28411C1F6FE7100200880FFE740F2E4
:103F30008410C1F6FE70008823280DD1FFE740F6FB
:103F4000F441C1F6FE710520088040F28411C1F6EB
:103F5000FE7100200880FFE740F28410C1F6FE7079
:103F6000008824280DD1FFE740F6F441C1F6FE7128
:103F70000320088040F28411C1F6FE710020088001
:103F8000FFE740F28410C1F6FE700088402811D18E
:103F9000FFE7002017900FF0B1FA179840F2841154
:103FA000C1F6FE71088040F6F441C1F6FE710220B0
:103FB0000880FFE740F28410C1F6FE7000884CF6DE
:103FC000FE21884225D1FFE740F6F741C1F6FE7198
:103FD0000120887240F28411C1F6FE710020088031
:103FE00045F61040C1F6FE700088022808D0FFE7B1
:103FF00045F61040C1F6FE700088042808D1FFE79E
:1040000045F61241C1F6FE71088801300880FFE7CD
:10401000FFE740F28410C1F6FE7000884AF2A55115
:1040200088420DD1FFE740F6F441C1F6FE710A2047
:10403000088040F28411C1F6FE7100200880FFE77D
:1040400040F28410C1F6FE7000884DF6FA61884295
:104050001ED1FFE745F61040C1F6FE700188013120
:10406000018040F28412C1F6FE72002111800088A6
:1040700006280CD1FFE745F61240C1F6FE70008815
:10408000022804D1FFE700200FF038FAFFE7FFE72E
:10409000FFE740F28610C1F6FE70008845F202018B
:1040A000884240F02881FFE740F28410C1F6FE709C
:1040B000008801280DD1FFE744F2B821C1F6FE7156
:1040C0006420088040F28411C1F6FE71002008804F
:1040D000FFE740F28410C1F6FE70008802280DD17F
:1040E000FFE744F2B821C1F6FE71C820088040F213
:1040F0008411C1F6FE7100200880FFE740F28410B1
:10410000C1F6FE70008803280DD1FFE744F2B82104
:10411000C1F6FE710120088040F28411C1F6FE71E3
:1041200000200880FFE740F28410C1F6FE7000888E
:1041300004280DD1FFE744F2B821C1F6FE71022038
:10414000088040F28411C1F6FE7100200880FFE76C
:1041500040F28410C1F6FE70008805280DD1FFE7FB
:1041600044F2B821C1F6FE710320088040F28411A8
:10417000C1F6FE7100200880FFE740F28410C1F60E
:10418000FE70008806280DD1FFE744F2B821C1F681
:10419000FE710420088040F28411C1F6FE710020F7
:1041A0000880FFE740F28410C1F6FE7000880728FF
:1041B0000DD1FFE744F2B821C1F6FE710520088059
:1041C00040F28411C1F6FE7100200880FFE740F242
:1041D0008410C1F6FE70008808280DD1FFE744F274
:1041E000B821C1F6FE710620088040F28411C1F6A4
:1041F000FE7100200880FFE740F28410C1F6FE70D7
:10420000008809280DD1FFE744F2B821C1F6FE71FC
:104210000720088040F28411C1F6FE71002008805A
:10422000FFE740F28410C1F6FE7000880A280DD125
:10423000FFE744F2B821C1F6FE710820088040F281
:104240008411C1F6FE7100200880FFE740F284105F
:10425000C1F6FE7000880B280DD1FFE744F2B821AB
:10426000C1F6FE710920088040F28411C1F6FE718A
:1042700000200880FFE740F28410C1F6FE7000883D
:104280000C280DD1FFE744F2B821C1F6FE710A20D7
:10429000088040F28411C1F6FE7100200880FFE71B
:1042A00040F28410C1F6FE70008821280DD1FFE78E
:1042B00044F2B821C1F6FE716420088040F28411F6
:1042C000C1F6FE7100200880FFE740F28410C1F6BD
:1042D000FE70008822280DD1FFE744F2B821C1F614
:1042E000FE71C820088040F28411C1F6FE710020E2
:1042F0000880FFE7FFE740F28610C1F6FE700088F5
:1043000045F20301884240F0DE80FFE740F284106E
:10431000C1F6FE700088B0F5807F07D1FFE740F658
:10432000F441C1F6FE7105200880FFE740F28410D9
:10433000C1F6FE70008840F2011188420DD1FFE7FE
:1043400040F6F441C1F6FE710F20088040F284115E
:10435000C1F6FE7100200880FFE740F28410C1F62C
:10436000FE700088B0F5817F0DD1FFE740F6F44183
:10437000C1F6FE716B20088040F28411C1F6FE7117
:1043800000200880FFE740F28410C1F6FE7000882C
:1043900040F2031188420DD1FFE740F6F441C1F627
:1043A000FE71CF20088040F28411C1F6FE7100201A
:1043B0000880FFE740F28410C1F6FE700088B0F577
:1043C000827F0DD1FFE740F6F441C1F6FE719C20DB
:1043D000088040F28411C1F6FE7100200880FFE7DA
:1043E00040F28410C1F6FE70008840F20511884248
:1043F0000ED1FFE740F6F441C1F6FE714FF4807034
:10440000088040F28411C1F6FE7100200880FFE7A9
:1044100040F28410C1F6FE700088012825DBFFE71A
:1044200040F28410C1F6FE7000880C281DDCFFE706
:1044300040F6F441C1F6FE713220088040F283015B
:10444000C1F6FE710020087040F28001C1F6FE71D5
:1044500008800A8840F28401C1F6FE71885440F257
:104460006841C1F6FE710870FFE740F28410C1F6A2
:10447000FE700088112825DBFFE740F28410C1F6AA
:10448000FE7000881C281DDCFFE740F6F441C1F6F1
:10449000FE713220088040F28301C1F6FE710020D7
:1044A000087040F28001C1F6FE7108800A8840F26F
:1044B0008401C1F6FE71885440F26841C1F6FE7174
:1044C0000870FFE7FFE740F28610C1F6FE70008833
:1044D00045F20401884240F0F084FFE740F2841086
:1044E000C1F6FE700088012818D1FFE740F2841160
:1044F000C1F6FE710020088044F2EB20C1F6FE7088
:10450000037844F2CB21C1F6FE713122CA540278FD
:104510000132027002785F208854FFE740F2841075
:10452000C1F6FE700088022818D1FFE740F284111E
:10453000C1F6FE710020088044F2EB20C1F6FE7047
:10454000037844F2CB21C1F6FE713222CA540278BC
:104550000132027002785F208854FFE740F2841035
:10456000C1F6FE700088032818D1FFE740F28411DD
:10457000C1F6FE710020088044F2EB20C1F6FE7007
:10458000037844F2CB21C1F6FE713322CA5402787B
:104590000132027002785F208854FFE740F28410F5
:1045A000C1F6FE700088042818D1FFE740F284119C
:1045B000C1F6FE710020088044F2EB20C1F6FE70C7
:1045C000037844F2CB21C1F6FE713422CA5402783A
:1045D0000132027002785F208854FFE740F28410B5
:1045E000C1F6FE700088052818D1FFE740F284115B
:1045F000C1F6FE710020088044F2EB20C1F6FE7087
:10460000037844F2CB21C1F6FE713522CA540278F8
:104610000132027002785F208854FFE740F2841074
:10462000C1F6FE700088062818D1FFE740F2841119
:10463000C1F6FE710020088044F2EB20C1F6FE7046
:10464000037844F2CB21C1F6FE713622CA540278B7
:104650000132027002785F208854FFE740F2841034
:10466000C1F6FE700088072818D1FFE740F28411D8
:10467000C1F6FE710020088044F2EB20C1F6FE7006
:10468000037844F2CB21C1F6FE713722CA54027876
:104690000132027002785F208854FFE740F28410F4
:1046A000C1F6FE700088082818D1FFE740F2841197
:1046B000C1F6FE710020088044F2EB20C1F6FE70C6
:1046C000037844F2CB21C1F6FE713822CA54027835
:1046D0000132027002785F208854FFE740F28410B4
:1046E000C1F6FE700088092818D1FFE740F2841156
:1046F000C1F6FE710020088044F2EB20C1F6FE7086
:10470000037844F2CB21C1F6FE713922CA540278F3
:104710000132027002785F208854FFE740F2841073
:10472000C1F6FE7000880A2818D1FFE740F2841114
:10473000C1F6FE710020088044F2EB20C1F6FE7045
:10474000037844F2CB21C1F6FE713022CA540278BC
:104750000132027002785F208854FFE740F2841033
:10476000C1F6FE7000880B2817D1FFE740F28410D5
:10477000C1F6FE700022028044F2EB20C1F6FE700A
:10478000037844F2CB21C1F6FE71CA540278013A93
:10479000027002785F208854FFE740F28410C1F66F
:1047A000FE7000880D2818D1FFE740F28411C1F691
:1047B000FE710020088044F2EB20C1F6FE70037801
:1047C00044F2CB21C1F6FE712E22CA540278013286
:1047D000027002785F208854FFE740F28410C1F62F
:1047E000FE7000880F2808D1FFE744F2C221C1F60D
:1047F000FE71088801300880FFE740F28410C1F69E
:10480000FE7000880E2808D1FFE744F2C221C1F6ED
:10481000FE71088801380880FFE740F28410C1F675
:10482000FE700088112808D1FFE744F2C221C1F6CA
:10483000FE7108880A300880FFE740F28410C1F654
:10484000FE700088102808D1FFE744F2C221C1F6AB
:10485000FE7108880A380880FFE744F2C220C1F6DA
:10486000FE7000884FF6F171884207DBFFE744F2E3
:10487000C221C1F6FE7100200880FFE744F2C22089
:10488000C1F6FE70008841F27171884208DBFFE7D3
:1048900044F2C221C1F6FE7141F270700880FFE758
:1048A00040F28410C1F6FE7000880E2818DCFFE785
:1048B00040F28410C1F6FE7000880C2810D0FFE78B
:1048C00044F2EB20C1F6FE70037844F2CB21C1F62E
:1048D000FE715F22CA540078014400204870FFE74F
:1048E00040F28410C1F6FE7000880C2811D0FFE75A
:1048F00040F28410C1F6FE700088222809D0FFE73C
:1049000040F28410C1F6FE700088232840F0A38294
:10491000FFE744F2C020C1F6FE70018840F6F44281
:10492000C1F6FE72118040F28412C1F6FE720021BF
:10493000118044F2EB22C1F6FE72137844F2CB22CE
:10494000C1F6FE72D154008832281AD1FFE744F232
:10495000C220C1F6FE70008840F26841C1F6FE71C7
:104960000A7844F2EE21C1F6FE7101EBC21144F265
:10497000C422C1F6FE72128801EB420121F8800CBC
:10498000FFE744F2C020C1F6FE70008833281AD138
:10499000FFE744F2C220C1F6FE70008840F2684191
:1049A000C1F6FE710A7844F2EE21C1F6FE7101EB08
:1049B000C21144F2C422C1F6FE72128801EB420118
:1049C00021F8600CFFE744F2C020C1F6FE700088B9
:1049D00034281AD1FFE744F2C220C1F6FE700088E5
:1049E00040F26841C1F6FE710A7844F2EE21C1F648
:1049F000FE7101EBC21144F2C422C1F6FE721288AC
:104A000001EB420121F8500CFFE744F2C020C1F64F
:104A1000FE70008835281AD1FFE744F2C220C1F6A3
:104A2000FE70008840F26841C1F6FE710A7844F2D7
:104A3000EE21C1F6FE7101EBC21144F2C422C1F6AF
:104A4000FE72128801EB420121F8300CFFE744F2BC
:104A5000C020C1F6FE70008836281AD1FFE744F264
:104A6000C220C1F6FE70008840F26841C1F6FE71B6
:104A70000A7844F2EE21C1F6FE7101EBC21144F254
:104A8000C422C1F6FE72128801EB420121F8240C07
:104A9000FFE744F2C020C1F6FE7000883A2840F0DB
:104AA000E180FFE744F2C420C1F6FE70008890B9AF
:104AB000FFE744F2C220C1F6FE70008844F2EC2108
:104AC000C1F6FE710A7844F2EE21C1F6FE7101EBE7
:104AD0004221C871FFE744F2C420C1F6FE7000888D
:104AE000012812D1FFE744F2C220C1F6FE7000880F
:104AF00044F2EC21C1F6FE710A7844F2EE21C1F6CF
:104B0000FE7101EB42214872FFE744F2C420C1F676
:104B1000FE700088022813D1FFE744F2C220C1F6DC
:104B2000FE70008844F2EC21C1F6FE710A7844F26E
:104B3000EE21C1F6FE7101EB422181F88700FFE70B
:104B400044F2C420C1F6FE700088032813D1FFE7A9
:104B500044F2C220C1F6FE70008844F2EC21C1F696
:104B6000FE710A7844F2EE21C1F6FE7101EB42219A
:104B700081F88900FFE744F2C420C1F6FE70008886
:104B8000042813D1FFE744F2C220C1F6FE7000886A
:104B900044F2EC21C1F6FE710A7844F2EE21C1F62E
:104BA000FE7101EB422181F80701FFE744F2C420C6
:104BB000C1F6FE700088052813D1FFE744F2C22039
:104BC000C1F6FE70008844F2EC21C1F6FE710A784D
:104BD00044F2EE21C1F6FE7101EB422181F8090198
:104BE000FFE744F2C420C1F6FE700088062813D106
:104BF000FFE744F2C220C1F6FE70008844F2EC21C7
:104C0000C1F6FE710A7844F2EE21C1F6FE7101EBA5
:104C1000422181F88701FFE744F2C420C1F6FE700B
:104C20000088072813D1FFE744F2C220C1F6FE70C6
:104C3000008844F2EC21C1F6FE710A7844F2EE21BC
:104C4000C1F6FE7101EB422181F88901FFE744F2D0
:104C5000EC20C1F6FE70007844F2B201C1F6FE719C
:104C60000870FFE744F2C020C1F6FE7000883B28C0
:104C70000BD1FFE744F2EC20C1F6FE70007844F25D
:104C8000B201C1F6FE710870FFE744F2C020C1F620
:104C9000FE7000883C2828D1FFE744F2C420C1F60A
:104CA000FE70008860B9FFE744F2C220C1F6FE70D2
:104CB000008840F68011C1F6FE71A1F8B000FFE750
:104CC00044F2C420C1F6FE70008801280CD1FFE731
:104CD00044F2C220C1F6FE70008840F68011C1F691
:104CE000FE7181F8AE00FFE7FFE744F2C020C1F695
:104CF000FE700088442840F0A280FFE744F2C42000
:104D0000C1F6FE70008858B9FFE744F2C220C1F630
:104D1000FE70008840F6D021C1F6FE71C860FFE742
:104D200044F2C420C1F6FE70008801280BD1FFE7D1
:104D300044F2C220C1F6FE70008840F6D021C1F6D0
:104D4000FE710861FFE744F2C420C1F6FE700088DE
:104D500002280BD1FFE744F2C220C1F6FE700088A2
:104D600040F6D021C1F6FE714861FFE744F2C4204D
:104D7000C1F6FE70008803280BD1FFE744F2C22081
:104D8000C1F6FE70008840F6D021C1F6FE71886041
:104D9000FFE744F2C420C1F6FE70008804280BD15E
:104DA000FFE744F2C220C1F6FE70008840F6D02131
:104DB000C1F6FE714860FFE744F2C420C1F6FE7000
:104DC000008805280BD1FFE744F2C220C1F6FE702F
:104DD000008840F6D021C1F6FE710860FFE747F673
:104DE000C060C1F6FE7040F6D021C1F6FE7116918A
:104DF00011F0EEFD1698C16847F2550004F0E4FA90
:104E00001698016947F2560004F0DEFA16984169D7
:104E100047F2570004F0D8FA1698816847F2580014
:104E200004F0D2FA1698416847F2590004F0CCFA1F
:104E30001698016847F25A0004F0C6FAFFE744F2F8
:104E4000CB20C1F6FE7015F096F844F2C221C1F6EF
:104E5000FE710880FFE744F2C220C1F6FE700188AF
:104E60004FF4E24004F0B0FA40F28410C1F6FE7054
:104E70000088012820DBFFE740F28410C1F6FE70B5
:104E800000880C2818DCFFE740F6F441C1F6FE71FB
:104E90003220088040F28301C1F6FE7100200870C4
:104EA00040F28001C1F6FE7108800A8840F2840158
:104EB000C1F6FE718854FFE7FFE740F28610C1F6A5
:104EC000FE70008845F20501884244F01782FFE732
:104ED00040F28410C1F6FE7000880E2818D1FFE75A
:104EE00040F28C11C1F6FE712720088040F28E112D
:104EF000C1F6FE71088040F6F441C1F6FE710B2048
:104F0000088040F28411C1F6FE7100200880FFE79E
:104F100040F28410C1F6FE700088012869DBFFE7CB
:104F200040F28410C1F6FE7000880E2861DCFFE7B5
:104F300040F23340C1F6FE70007898B9FFE740F2C6
:104F40008410C1F6FE70018840F64E20C1F6FE7056
:104F500000EB410030F8020C40F28C11C1F6FE71FA
:104F6000088013E040F28410C1F6FE70018840F61C
:104F70004E20C1F6FE7000EB410030F8020C1430F8
:104F800040F28C11C1F6FE710880FFE740F28410F8
:104F9000C1F6FE70028840F64E21C1F6FE7101EBAB
:104FA000420131F8021C40F28E12C1F6FE721180ED
:104FB0000088082807DCFFE740F6F441C1F6FE71DF
:104FC00009200880FFE740F28410C1F6FE700088D7
:104FD000092807DBFFE740F6F441C1F6FE7108201F
:104FE0000880FFE740F28411C1F6FE7100200880BE
:104FF000FFE740F28410C1F6FE700088022807D156
:10500000FFE740F28411C1F6FE7100200880FFE73F
:1050100040F28410C1F6FE700088032807D1FFE734
:1050200040F28411C1F6FE7100200880FFE740F2D3
:105030008410C1F6FE700088042807D1FFE740F213
:105040008411C1F6FE7100200880FFE740F2841051
:10505000C1F6FE700088052812D1FFE740F6F44142
:10506000C1F6FE714620088040F28411C1F6FE713F
:105070000020088040F25841C1F6FE710870FFE739
:1050800040F28410C1F6FE700088062807D1FFE7C1
:1050900040F28411C1F6FE7100200880FFE740F263
:1050A0008410C1F6FE700088072807D1FFE740F2A0
:1050B0008411C1F6FE7100200880FFE740F28410E1
:1050C000C1F6FE700088082807D1FFE740F284117E
:1050D000C1F6FE7100200880FFE740F28410C1F69F
:1050E000FE70008809280DD1FFE740F6F441C1F6B3
:1050F000FE714020088040F28411C1F6FE7100204C
:105100000880FFE740F28410C1F6FE7000880A288C
:105110000DD1FFE740F6F441C1F6FE71072008808B
:1051200040F28411C1F6FE7100200880FFE740F2D2
:105130008410C1F6FE7000880B280DD1FFE740F601
:10514000F441C1F6FE710720088040F28411C1F6D7
:10515000FE7100200880FFE740F28410C1F6FE7067
:10516000008810280DD1FFE740F6F441C1F6FE712A
:105170000720088040F28411C1F6FE7100200880EB
:10518000FFE740F28410C1F6FE70008811280DD1AF
:10519000FFE740F6F441C1F6FE710720088040F2B7
:1051A0008411C1F6FE7100200880FFE740F28410F0
:1051B000C1F6FE70008813280DD1FFE740F6F441D8
:1051C000C1F6FE713A20088040F28411C1F6FE71EA
:1051D00000200880FFE740F28410C1F6FE700088CE
:1051E00014280DD1FFE740F6F441C1F6FE714820C6
:1051F000088040F28411C1F6FE7100200880FFE7AC
:1052000040F28410C1F6FE70008815280DD1FFE72A
:1052100040F6F441C1F6FE714120088040F284114D
:10522000C1F6FE7100200880FFE740F28410C1F64D
:10523000FE70008816280DD1FFE740F6F441C1F654
:10524000FE710720088040F28411C1F6FE71002033
:105250000880FFE740F28410C1F6FE70008817282E
:105260000DD1FFE740F6F441C1F6FE71072008803A
:1052700040F28411C1F6FE7100200880FFE740F281
:105280008410C1F6FE700088182817D1FFE740F699
:10529000F441C1F6FE713C20088040F28411C1F651
:1052A000FE710020088043F6AC70C1F6FE700088E5
:1052B00044F2C021C1F6FE710880FFE740F284107D
:1052C000C1F6FE700088192817D1FFE740F6F441B7
:1052D000C1F6FE713D20088040F28411C1F6FE71D6
:1052E0000020088043F6AC70C1F6FE70008844F2DE
:1052F000C021C1F6FE710880FFE740F28410C1F6BC
:10530000FE7000881A2817D1FFE740F6F441C1F675
:10531000FE713E20088040F28411C1F6FE7100202B
:10532000088043F6AC70C1F6FE70008844F2C021DC
:10533000C1F6FE710880FFE740F28410C1F6FE70EE
:1053400000881B2817D1FFE740F6F441C1F6FE7133
:105350003F20088040F28411C1F6FE7100200880D1
:1053600043F6AC70C1F6FE70008844F2C021C1F66D
:10537000FE710880FFE740F28410C1F6FE700088DD
:105380001C2817D1FFE740F6F441C1F6FE71442016
:10539000088040F28411C1F6FE710020088043F6B7
:1053A000AC70C1F6FE70008844F2C021C1F6FE71F7
:1053B0000880FFE740F28410C1F6FE7000882028C4
:1053C00017D1FFE740F6F441C1F6FE7132200880A4
:1053D00040F28411C1F6FE710020088043F6AC70E3
:1053E000C1F6FE70008844F2C021C1F6FE7108804B
:1053F000FFE740F28410C1F6FE700088212817D123
:10540000FFE740F6F441C1F6FE713320088040F218
:105410008411C1F6FE710020088043F6AC70C1F61D
:10542000FE70008844F2C021C1F6FE710880FFE7DB
:1054300040F28410C1F6FE700088222817D1FFE7E1
:1054400040F6F441C1F6FE713420088040F2841128
:10545000C1F6FE710020088043F6AC70C1F6FE7004
:10546000008844F2C021C1F6FE710880FFE740F2D7
:105470008410C1F6FE700088232817D1FFE740F69C
:10548000F441C1F6FE713520088040F28411C1F666
:10549000FE710020088043F6AC70C1F6FE700088F3
:1054A00044F2C021C1F6FE710880FFE740F284108B
:1054B000C1F6FE700088242817D1FFE740F6F441BA
:1054C000C1F6FE713620088040F28411C1F6FE71EB
:1054D0000020088043F6AC70C1F6FE70008844F2EC
:1054E000C021C1F6FE710880FFE740F28410C1F6CA
:1054F000FE70008841F61001884249DBFFE740F268
:105500008410C1F6FE700088B0F5C15F40DAFFE795
:1055100040F28410C1F6FE70008841F61001411A75
:1055200040F27E00C1F6FE700180018840F68010D6
:10553000C1F6FE70084490F8270070B9FFE740F20A
:105540007E00C1F6FE70018840F68010C1F6FE7044
:105550000144012081F827000DE040F27E00C1F6F1
:10556000FE70018840F68010C1F6FE7001440020F4
:1055700081F82700FFE740F6F441C1F6FE711220E2
:10558000088040F28411C1F6FE7100200880FFE718
:1055900040F28410C1F6FE700088B0F5C15F49DBAF
:1055A000FFE740F28410C1F6FE70008841F62F013B
:1055B00088423FDCFFE740F28410C1F6FE700088AD
:1055C000A0F5C15140F27E00C1F6FE700180018855
:1055D00040F68010C1F6FE70084490F8370070B9AC
:1055E000FFE740F27E00C1F6FE70018840F68010B1
:1055F000C1F6FE700144012081F837000DE040F251
:105600007E00C1F6FE70018840F68010C1F6FE7083
:105610000144002081F83700FFE740F6F441C1F66D
:10562000FE711220088040F28411C1F6FE71002044
:105630000880FFE740F28410C1F6FE70008841F652
:105640001011884240F0B280FFE744F2C621C1F653
:10565000FE710120088044F2C420C1F6FE7000886B
:10566000132814DBFFE744F2C020C1F6FE70008867
:105670000A280CD1FFE744F2C420C1F6FE7000886E
:10568000133844F2C621C1F6FE710880FFE744F2E8
:10569000C420C1F6FE700088372814DBFFE744F20F
:1056A000C020C1F6FE7000880C280CD1FFE744F240
:1056B000C420C1F6FE700088373844F2C621C1F616
:1056C000FE710880FFE744F2C420C1F6FE70008836
:1056D0004F2814DBFFE744F2C020C1F6FE700088BB
:1056E0000D280CD1FFE744F2C420C1F6FE700088FB
:1056F0004F3844F2C621C1F6FE710880FFE744F23C
:10570000C620C1F6FE700078800798B9FFE744F222
:10571000C220C1F6FE700188013901800088062888
:1057200007DBFFE744F2C221C1F6FE7100200880CA
:10573000FFE73AE044F2C020C1F6FE700088192865
:1057400008D1FFE744F2C221C1F6FE710888013892
:10575000088018E044F2C020C1F6FE7000880E28D0
:1057600008D1FFE744F2C221C1F6FE710888013872
:10577000088007E044F2C221C1F6FE7108880A38A9
:105780000880FFE7FFE744F2C220C1F6FE70008800
:1057900041F27171884207DBFFE744F2C221C1F692
:1057A000FE7100200880FFE7FFE7FFE740F284106A
:1057B000C1F6FE70008841F61111884240F0B280B7
:1057C000FFE744F2C621C1F6FE710120088044F2D1
:1057D000C420C1F6FE700088132814DBFFE744F2F2
:1057E000C020C1F6FE7000880A280CD1FFE744F201
:1057F000C420C1F6FE700088133844F2C621C1F6F9
:10580000FE710880FFE744F2C420C1F6FE700088F4
:10581000372814DBFFE744F2C020C1F6FE70008891
:105820000C280CD1FFE744F2C420C1F6FE700088BA
:10583000373844F2C621C1F6FE710880FFE744F212
:10584000C420C1F6FE7000884F2814DBFFE744F245
:10585000C020C1F6FE7000880D280CD1FFE744F28D
:10586000C420C1F6FE7000884F3844F2C621C1F64C
:10587000FE710880FFE744F2C620C1F6FE70007892
:10588000800798B9FFE744F2C220C1F6FE70018894
:10589000013901800088062807DBFFE744F2C221B6
:1058A000C1F6FE7100200880FFE73AE044F2C02014
:1058B000C1F6FE700088192808D1FFE744F2C22122
:1058C000C1F6FE7108880A38088018E044F2C0204A
:1058D000C1F6FE7000880E2808D1FFE744F2C2210D
:1058E000C1F6FE7108880A38088007E044F2C22138
:1058F000C1F6FE71088864380880FFE7FFE744F2CC
:10590000C220C1F6FE70008841F27171884207DB47
:10591000FFE744F2C221C1F6FE7100200880FFE7D4
:10592000FFE7FFE740F28410C1F6FE70008841F601
:105930001211884240F0B380FFE744F2C621C1F65D
:10594000FE710120088044F2C420C1F6FE70008878
:10595000132814DBFFE744F2C020C1F6FE70008874
:105960000A280CD1FFE744F2C420C1F6FE7000887B
:10597000133844F2C621C1F6FE710880FFE744F2F5
:10598000C420C1F6FE700088372814DBFFE744F21C
:10599000C020C1F6FE7000880C280CD1FFE744F24D
:1059A000C420C1F6FE700088373844F2C621C1F623
:1059B000FE710880FFE744F2C420C1F6FE70008843
:1059C0004F2814DBFFE744F2C020C1F6FE700088C8
:1059D0000D280CD1FFE744F2C420C1F6FE70008808
:1059E0004F3844F2C621C1F6FE710880FFE744F249
:1059F000C620C1F6FE700078800798B9FFE744F230
:105A0000C220C1F6FE70018801310180008806289D
:105A100007DBFFE744F2C221C1F6FE7100200880D7
:105A2000FFE73BE044F2C020C1F6FE700088192871
:105A300008D1FFE744F2C221C1F6FE7108880A309E
:105A4000088018E044F2C020C1F6FE7000880E28DD
:105A500008D1FFE744F2C221C1F6FE7108880A307E
:105A6000088007E044F2C221C1F6FE710888643064
:105A70000880FFE7FFE744F2C220C1F6FE7000880D
:105A800041F27171884208DBFFE744F2C221C1F69E
:105A9000FE7141F270700880FFE7FFE7FFE740F218
:105AA0008410C1F6FE70008841F61311884240F060
:105AB000B380FFE744F2C621C1F6FE7101200880E1
:105AC00044F2C420C1F6FE700088132814DBFFE7FF
:105AD00044F2C020C1F6FE7000880A280CD1FFE70E
:105AE00044F2C420C1F6FE700088133844F2C62187
:105AF000C1F6FE710880FFE744F2C420C1F6FE70D3
:105B00000088372814DBFFE744F2C020C1F6FE709E
:105B100000880C280CD1FFE744F2C420C1F6FE70C7
:105B20000088373844F2C621C1F6FE710880FFE7CD
:105B300044F2C420C1F6FE7000884F2814DBFFE752
:105B400044F2C020C1F6FE7000880D280CD1FFE79A
:105B500044F2C420C1F6FE7000884F3844F2C621DA
:105B6000C1F6FE710880FFE744F2C620C1F6FE7060
:105B70000078800798B9FFE744F2C220C1F6FE70B2
:105B80000188013101800088062807DBFFE744F225
:105B9000C221C1F6FE7100200880FFE73BE044F21D
:105BA000C020C1F6FE700088192808D1FFE744F232
:105BB000C221C1F6FE710888013008802AE044F253
:105BC000C020C1F6FE7000880E2808D1FFE744F21D
:105BD000C221C1F6FE7108880130088007E044F256
:105BE000C221C1F6FE7108880A300880FFE744F23E
:105BF000C220C1F6FE70008841F27171884208DB54
:105C0000FFE744F2C221C1F6FE7141F270700880D4
:105C1000FFE7FFE7FFE7FFE740F28410C1F6FE7001
:105C2000008841F610118842C0F21881FFE740F267
:105C30008410C1F6FE70008841F61311884200F30B
:105C40000D81FFE744F2C220C1F6FE70028840F6E3
:105C5000F420C1F6FE7015904CF28D11C0F20301D4
:105C600014F00EFA159815F015FE014645F2207055
:105C700003F082FB159815F00DFE1599024647F6C4
:105C80004C70C1F6FE7010F013FB032003F088FF88
:105C900044F2C621C1F6FE710120088044F2C420FE
:105CA000C1F6FE700088132814DBFFE744F2C02021
:105CB000C1F6FE7000880A280CD1FFE744F2C42028
:105CC000C1F6FE700088133844F2C621C1F6FE7199
:105CD0000880FFE744F2C420C1F6FE700088372830
:105CE00014DBFFE744F2C020C1F6FE7000880C28E8
:105CF0000CD1FFE744F2C420C1F6FE7000883738AB
:105D000044F2C621C1F6FE710880FFE744F2C420C8
:105D1000C1F6FE7000884F2814DBFFE744F2C02074
:105D2000C1F6FE7000880D280CD1FFE744F2C420B4
:105D3000C1F6FE7000884F3844F2C621C1F6FE71EC
:105D40000880FFE744F2C620C1F6FE7000788007A5
:105D500080B9FFE744F2C220C1F6FE70028840F627
:105D6000F420C1F6FE704CF21531C0F2030114F0BC
:105D700087F958E044F2C221C1F6FE710A8845F65F
:105D80002940C0F28F20A2FB00320B88A3FB001039
:105D9000642100FB113340F6F420C1F6FE704BF68F
:105DA0004241C0F2030114F06BF944F2C020C1F685
:105DB000FE7000880E2810D1FFE744F2C220C1F621
:105DC000FE70028840F6F420C1F6FE704CF21531E8
:105DD000C0F2030114F054F9FFE744F2C020C1F609
:105DE000FE70008819281DD1FFE744F2C220C1F6D9
:105DF000FE70028849F69A11C1F69911A2FB013290
