:020000022000DC
:1000000078B1FE1F199E0300159C0300299E030072
:10001000299E0300299E0300299E0300299E0300B8
:10002000000000000000000000000000299E030006
:10003000299E030000000000299E0300D5A80200AD
:10004000CD6603001965030081670300CD670300D7
:10005000CD6603001965030081670300CD670300C7
:10006000CD6603001965030081670300CD670300B7
:10007000D58B030015950300D56F0300ED700300C9
:10008000FD780300457A0300597B0300657C03007B
:1000900009840300D58B0300D58B0300000000000A
:1000A0000000000000000000000000000000000050
:1000B0000000000000000000000000000000000040
:1000C0000000000000000000000000000000000030
:1000D0000000000000000000000000000000000020
:10040000FFFFFFFFFFFDFFFFFCFFFFFFFFFFFFFF01
:10041000FCFFFFFFFFFFFFFFFCFFFF00FFFFFF00F0
:10042000FCFF0F20FFFF0F20FCFF7F40FFFF7F40FE
:10043000FCFF0D40FFFF0D40FFFFFFFF80B56F4643
:10044000A4B0D7F80CC0D7F808C022902191209210
:100450001F9300200E9005210D910C900E9A501CB8
:100460000E900FA901910120885422981BF002FAE6
:1004700007F8610C21981BF0FDF907F8620C209831
:100480001BF0F8F907F8630C1F981BF0F3F901460D
:1004900001988DF82C1017F8611C0E9A531C0E93BE
:1004A000815417F8621C0E9A531C0E93815417F84E
:1004B000631C0E9A531C0E9381549DF82C100E9AB7
:1004C000531C0E9381540E990844229917F8612CFD
:1004D0001BF0BEF9019817F8612C0E9911440E918A
:1004E0000E990844219917F8622C1BF0B1F9019874
:1004F00017F8622C0E9911440E910E990844209918
:1005000017F8632C1BF0A4F9019817F8632C0E99C7
:1005100011440E910E9908441F999DF82C201BF050
:1005200097F99DF82C100E9808440E90FFE70C9850
:100530000D99884280F2CE80FFE703200FA915F0C5
:1005400085FC4BF6E650C0F2030015F019FC642060
:1005500009F018FB00200A9045F61A41C1F6FE7119
:100560000870FFE70A9842F20F71884200F3A180F9
:10057000FFE740F27670C1F6FE700078012807D1DF
:10058000FFE74CF250300A900D9801300C90FFE7D5
:1005900045F61A40C1F6FE700078C007002800F04A
:1005A0008180FFE745F61B40C1F6FE700078012808
:1005B0004CD1FFE74BF65670C0F2030015F0E0FB9C
:1005C00045F61B40C1F6FE70407807F8690CB86824
:1005D000A8B1FFE717F8690C012810DBFFE7B8683E
:1005E00017F8692C45F61B41C1F6FE7102311BF06C
:1005F0002FF9B96817F8692C00208854FFE717F81D
:10060000690C0230089045F61B40C1F6FE701BF0E5
:1006100031F90899401A0790F86898B1FFE70798F0
:1006200001280FDBFFE7F868089A45F61B41C1F681
:10063000FE711144079A1BF00BF9F968079A002024
:100640008854FFE7C82027F8020C4EE045F61B400F
:10065000C1F6FE70007818BBFFE745F61B40C1F6F7
:10066000FE704178807840EA012027F8760C4CF241
:100670002F10C0F2030015F083FB37F8762C4CF2F4
:100680000C01C0F20301A7F18600009019F0E8FC0C
:10069000009815F075FB37F8760C27F8020C24E06B
:1006A000FFE7FFE70A2009F06DFA0A980A300A907E
:1006B00058E70A9842F21071884207DBFFE74BF6D1
:1006C0005950C0F2030015F05BFBFFE70C980130B6
:1006D0000C902CE74BF6CB60C0F2030015F050FBFA
:1006E0004FF4FA7027F8020CFFE737F8020C24B039
:1006F00080BDFFFF80B56F46A0B01E901D91022007
:100700008DF834000DA8029001301E991BF094F86A
:10071000029945F61A42C1F6FE720020039010704D
:10072000032015F093FB4CF22D30C0F2030015F0BE
:1007300027FB642009F026FA03980C90FFE70C9839
:1007400042F20F71884200F3A980FFE740F2767011
:10075000C1F6FE700078012804D1FFE74CF250305A
:100760000C90FFE745F61A40C1F6FE700078C0070E
:10077000002800F08C80FFE745F61B40C1F6FE70B4
:100780000078012857D1FFE74CF25130C0F2030046
:1007900015F0F6FA45F61B42C1F6FE7212F8010F8B
:1007A00053789178D27840EA032041EA022140EA66
:1007B00001400B9005200A9000200990FFE70A985D
:1007C0000999014445F61B40C1F6FE70415C0020CA
:1007D0000D2901900DD0FFE70A980999014445F6CB
:1007E0001B40C1F6FE70405C002818BF012001903C
:1007F000FFE70198C00720B1FFE709980130099091
:10080000DDE71D9898B1FFE7099801280FDBFFE7A6
:100810001D980A9A45F61B41C1F6FE711144099ACA
:100820001BF016F81D99099A00208854FFE70B98D1
:1008300027F8020C3DE045F61B40C1F6FE7000783B
:1008400018BBFFE745F61B40C1F6FE704178807883
:1008500040EA012027F85E0C4CF29A00C0F2030037
:1008600015F08EFA37F85E2C4CF20C01C0F2030141
:10087000A7F16E00009019F0F3FB009815F080FAD4
:1008800037F85E0C27F8020C13E0FFE7FFE70A20B9
:1008900009F078F90C980A300C9050E74CF22120BE
:1008A000C0F2030015F06CFA4FF4FA7027F8020C4E
:1008B000FFE737F8020C20B080BDFFFF80B56F4620
:1008C000A6B02490239107F80D2C0020119005214B
:1008D00010910F90119A501C1190A7F14D010391A6
:1008E0000320885424981AF0C5FF07F85D0C23985C
:1008F0001AF0C0FF0146039807F85E1C17F80D1C9C
:10090000119A531C1193815417F85D1C119A531CB2
:100910001193815417F85E1C119A531C1193815442
:1009200011990844249917F85D2C1AF091FF039847
:1009300017F85D2C119911441191119908442399CC
:1009400017F85E2C1AF084FF17F85E1C1198084403
:100950001190FFE70F981099884280F2AC80FFE772
:100960000320A7F14D0115F071FA4BF6AC70C0F2FF
:10097000030015F005FA642009F004F900200D9039
:1009800045F61A41C1F6FE710870FFE70D9842F274
:100990000F7188427EDCFFE745F61A40C1F6FE7013
:1009A0000078C00700286ED0FFE745F61B40C1F66F
:1009B000FE700078012832D1FFE745F61B40C1F6F2
:1009C000FE704178807840EA012027F8660C37F8FD
:1009D000660CC8280AD1FFE74CF26300C0F203009E
:1009E00015F0CEF9C82027F8020C6FE04BF6BE30A8
:1009F000C0F2030015F0C4F937F8662C4CF20C0174
:100A0000C0F20301A7F17600029019F029FB0298C9
:100A100015F0B6F937F8660C27F8020C56E045F6E3
:100A20001B40C1F6FE70007810BBFFE745F61B4087
:100A3000C1F6FE704178807840EA0120ADF82000D0
:100A40004BF6C670C0F2030015F09AF9BDF82020ED
:100A50004CF20C01C0F2030104A8019019F000FB54
:100A6000019815F08DF9BDF8200027F8020C2DE053
:100A70004BF66E70C0F2030015F082F94FF4FA7075
:100A800027F8020C22E00A2009F07CF80D980A30C1
:100A90000D907BE70D9842F21071884207DBFFE76B
:100AA0004BF61F70C0F2030015F06AF9FFE70F98CC
:100AB00001300F904EE74CF27220C0F2030015F0A7
:100AC0005FF94FF4FA7027F8020CFFE737F8020CD1
:100AD00026B080BD82B00190019800790146009156
:100AE000012800F0E180FFE70098022800F0DD8097
:100AF000FFE70098042840F0DF80FFE70198826854
:100B000040F28001C1F6FE710B8840F28400C1F60C
:100B1000FE70C2540988405C0D2807D1FFE740F2FF
:100B20008301C1F6FE7101200870FFE740F28000EA
:100B3000C1F6FE70008840F28401C1F6FE710844DF
:100B400010F8080C5A285ED1FFE740F28000C1F689
:100B5000FE70008840F28401C1F6FE71084410F86E
:100B6000070CA5284FD1FFE740F28000C1F6FE70C8
:100B7000008840F28401C1F6FE71084410F8060CAA
:100B8000062840D1FFE740F28000C1F6FE700088E1
:100B900040F28401C1F6FE71084410F8050C832868
:100BA00031D1FFE740F28000C1F6FE70008840F2CC
:100BB0008401C1F6FE71084410F8040C502822D1BB
:100BC000FFE740F28000C1F6FE70028840F2840127
:100BD000C1F6FE718B1813F8013C8A5C42EA0322CD
:100BE00040F28413C1F6FE731A800088084410F89E
:100BF000041C10F8030C40EA012040F28611C1F6F3
:100C0000FE710880FFE740F28000C1F6FE700088A8
:100C100040F28401C1F6FE71084410F8020C8228EB
:100C200023D1FFE740F28000C1F6FE70008840F259
:100C30008401C1F6FE71084410F8010C4F2814D14C
:100C4000FFE740F28000C1F6FE70018840F28400A8
:100C5000C1F6FE70405C4B2807D1FFE740F28301EC
:100C6000C1F6FE7104200870FFE740F28000C1F673
:100C7000FE700188013101800088B0F5807F07DBBC
:100C8000FFE740F28001C1F6FE7100200880FFE717
:100C900040F28000C1F6FE70028840F28401C1F685
:100CA000FE710020885408E007E040F28201C1F69E
:100CB000FE710120087000E0FFE702B07047FFFFFF
:100CC00080B56F46E4B040F25C41C1F6FE71086841
:100CD0000130086040F28610C1F6FE70008845F2CF
:100CE0001201884207D1FFE744F2B001C1F6FE715C
:100CF00070200880FFE740F28610C1F6FE70008881
:100D000045F21601884207D1FFE744F2B001C1F66F
:100D1000FE7100200880FFE740F28610C1F6FE70E9
:100D20000088B0F5A04F40F02B81FFE740F284101F
:100D3000C1F6FE70008840F2113188420DD1FFE704
:100D400044F2B001C1F6FE710920088040F284111E
:100D5000C1F6FE7100200880FFE740F28410C1F662
:100D6000FE70008840F2123188420DD1FFE744F254
:100D7000B001C1F6FE710A20088040F28411C1F66C
:100D8000FE7100200880FFE740F28410C1F6FE707B
:100D9000008840F2133188420DD1FFE744F2B001E0
:100DA000C1F6FE710B20088040F28411C1F6FE717D
:100DB00000200880FFE740F28410C1F6FE70008832
:100DC000B0F5457F0DD1FFE744F2B001C1F6FE71E9
:100DD0000C20088040F28411C1F6FE7100200880CA
:100DE000FFE740F28410C1F6FE70008840F2153132
:100DF00088420DD1FFE744F2B001C1F6FE710D202B
:100E0000088040F28411C1F6FE7100200880FFE7DF
:100E100040F28410C1F6FE70008840F21141884211
:100E20000DD1FFE744F2B001C1F6FE710120088048
:100E300040F28411C1F6FE7100200880FFE740F205
:100E40008410C1F6FE70008840F2124188420DD134
:100E5000FFE744F2B001C1F6FE710220088040F2C3
:100E60008411C1F6FE7100200880FFE740F2841073
:100E7000C1F6FE70008840F2134188420DD1FFE7B1
:100E800044F2B001C1F6FE710320088040F28411E3
:100E9000C1F6FE7100200880FFE740F28410C1F621
:100EA000FE70008840F2144188420DD1FFE744F201
:100EB000B001C1F6FE710420088040F28411C1F631
:100EC000FE7100200880FFE740F28410C1F6FE703A
:100ED000008840F2154188420DD1FFE744F2B0018D
:100EE000C1F6FE710520088040F28411C1F6FE7142
:100EF00000200880FFE740F28410C1F6FE700088F1
:100F000040F2164188420DD1FFE744F2B001C1F62C
:100F1000FE710620088040F28411C1F6FE710020A7
:100F20000880FFE740F28410C1F6FE70008840F2AE
:100F3000174188420DD1FFE744F2B001C1F6FE71BE
:100F40000720088040F28411C1F6FE71002008805D
:100F5000FFE740F28410C1F6FE700088B0F5836FA1
:100F60000DD1FFE744F2B001C1F6FE710820088000
:100F700040F28411C1F6FE7100200880FFE7FFE710
:100F800040F28610C1F6FE70008845F201018842E9
:100F900043F07280FFE740F28410C1F6FE700088D3
:100FA000502815DBFFE740F28410C1F6FE70008880
:100FB00065280DDCFFE740F28411C1F6FE710020C8
:100FC000088040F23041C1F6FE7101200870FFE751
:100FD00040F28410C1F6FE70008845F255518842F7
:100FE00018D1FFE740F23041C1F6FE7102200870CF
:100FF00040F27672C1F6FE720121117040F2841245
:10100000C1F6FE720021118040F6F441C1F6FE7176
:101010000880FFE740F28410C1F6FE7000884CF6AD
:10102000DA21884211D1FFE700205E900FF072FEB6
:101030005E9840F6F442C1F6FE720221118040F241
:101040008411C1F6FE710880FFE740F28410C1F6FA
:10105000FE70008841F2105188426CDBFFE740F2DD
:101060008410C1F6FE70008841F21951884262DC9A
:10107000FFE740F28410C1F6FE70008841F2105183
:10108000411A40F26600C1F6FE700170007800F16E
:10109000300140F26500C1F6FE70037840F2510263
:1010A000C1F6FE72D154037840F26802C1F6FE72B6
:1010B0002A21D15401780131017000780A2807DB18
:1010C000FFE740F26501C1F6FE7109200870FFE7F5
:1010D00040F26501C1F6FE710B7840F25102C1F693
:1010E000FE720020D054097840F26802C1F6FE7208
:1010F000505440F6F420C1F6FE705D904BF68771B7
:10110000C0F2030118F0ACFF5D981AF0B3FB014682
:1011100045F2407008F022F95D981AF0ABFB5D993A
:10112000024647F64C70C1F6FE7015F0B3F8032086
:1011300008F028FDFFE740F28410C1F6FE70008839
:10114000B0F5A95F69D1FFE740F6F420C1F6FE7063
:101150005C904CF26631C0F2030140F25102C1F6DC
:10116000FE7218F07DFF5C981AF084FB014645F290
:10117000407008F0F3F85C981AF07CFB5C9902462A
:1011800047F64C70C1F6FE7015F084F8032008F0A5
:10119000F9FC40F26500C1F6FE700078012808DB1A
:1011A000FFE740F26501C1F6FE710878013808706A
:1011B000FFE740F26500C1F6FE70037840F251028D
:1011C000C1F6FE720021D154017840F26802C1F6E6
:1011D000FE722A20505440F6F420C1F6FE705B9057
:1011E0004BF68771C0F2030118F03AFF5B981AF0D2
:1011F00041FB014645F2407008F0B0F85B981AF0E8
:1012000039FB5B99024647F64C70C1F6FE7015F04B
:1012100041F8032008F0B6FCFFE740F28410C1F665
:10122000FE70008841F22151884240F00484FFE7BB
:1012300040F26701C1F6FE710020087040F25100D3
:10124000C1F6FE700078312876D1FFE740F25100F8
:10125000C1F6FE70407832286ED1FFE740F25100AF
:10126000C1F6FE708078332866D1FFE740F2510066
:10127000C1F6FE70C07834285ED1FFE740F251001D
:10128000C1F6FE700079002856D1FFE740F6F42041
:10129000C1F6FE7059904CF2E221C0F2030140F217
:1012A0005102C1F6FE72579218F0DAFE59981AF000
:1012B000E1FA014645F24070589008F04FF859980D
:1012C0001AF0D8FA5999024647F64C70C1F6FE70EA
:1012D0005A9014F0DFFF4FF47A7008F053FC579ADD
:1012E00059984CF26631C0F2030118F0B9FE5998D2
:1012F0001AF0C0FA0146589808F030F859981AF0D8
:10130000B9FA599902465A9814F0C4FF032008F01C
:1013100039FC40F6F441C1F6FE710520088040F228
:101320008411C1F6FE710020088040F26701C1F609
:10133000FE7101200870FFE740F25100C1F6FE7017
:10134000007830285ED1FFE740F25100C1F6FE7010
:101350004078002856D1FFE740F6F420C1F6FE7031
:1013600055904CF2A011C0F2030140F25102C1F6B7
:10137000FE72539218F074FE55981AF07BFA0146EB
:1013800045F24070549007F0E9FF55981AF072FA50
:101390005599024647F64C70C1F6FE70569014F00F
:1013A00079FF4FF47A7008F0EDFB539A55984BF69D
:1013B000A441C0F2030118F053FE55981AF05AFAEE
:1013C0000146549807F0CAFF55981AF053FA5599F8
:1013D0000246569814F05EFF032008F0D3FB40F657
:1013E000F441C1F6FE711920088040F28411C1F663
:1013F000FE710020088040F26701C1F6FE710220F4
:101400000870FFE740F25100C1F6FE700078302806
:1014100067D1FFE740F25100C1F6FE7040783028F6
:101420005FD1FFE740F25100C1F6FE7080780028DE
:1014300057D1FFE740F6F420C1F6FE7050904CF211
:10144000AB11C0F2030140F25102C1F6FE724E929E
:1014500018F006FE50981AF00DFA014645F2407059
:101460004F9007F07BFF50981AF004FA509902460B
:1014700047F64C70C1F6FE70519014F00BFF4FF41C
:101480007A7008F07FFB4E9A50984BF6A441C0F258
:10149000030118F0E5FD50981AF0ECF901464F9859
:1014A00007F05CFF50981AF0E5F950990246519800
:1014B00014F0F0FE0320529008F064FB529840F6BE
:1014C000F442C1F6FE721021118040F28412C1F67E
:1014D000FE720021118040F26701C1F6FE710870B2
:1014E000FFE740F25100C1F6FE700078312840F06D
:1014F0009980FFE740F25100C1F6FE704078322833
:1015000040F09080FFE740F25100C1F6FE70807815
:10151000332840F08780FFE740F25100C1F6FE70AB
:10152000C07834287ED1FFE740F25100C1F6FE704A
:101530000079352876D1FFE740F25100C1F6FE7000
:10154000407936286ED1FFE740F25100C1F6FE70B7
:101550008079372866D1FFE740F25100C1F6FE706E
:10156000C07938285ED1FFE740F25100C1F6FE7025
:10157000007A002856D1FFE740F6F420C1F6FE704D
:101580004C904BF64361C0F2030140F25102C1F6A8
:10159000FE724A9218F064FD4C981AF06BF90146FD
:1015A00045F240704B9007F0D9FE4C981AF062F962
:1015B0004C99024647F64C70C1F6FE704D9014F0FF
:1015C00069FE4FF47A7008F0DDFA4A9A4C984BF6AF
:1015D0000861C0F2030118F043FD4C981AF04AF973
:1015E00001464B9807F0BAFE4C981AF043F94C9913
:1015F00002464D9814F04EFE032008F0C3FA40F660
:10160000F441C1F6FE711120088040F28411C1F648
:10161000FE710020088040F26701C1F6FE710420CF
:101620000870FFE740F25100C1F6FE7000783128E3
:1016300040F09980FFE740F25100C1F6FE7040781B
:10164000322840F09080FFE740F25100C1F6FE7072
:101650008078332840F08780FFE740F25100C1F6E0
:10166000FE70C07834287ED1FFE740F25100C1F609
:10167000FE700079352876D1FFE740F25100C1F6BF
:10168000FE70407936286ED1FFE740F25100C1F676
:10169000FE708079372866D1FFE740F25100C1F62D
:1016A000FE70C07938285ED1FFE740F25100C1F6E4
:1016B000FE70007A002856D1FFE740F6F420C1F60C
:1016C000FE7048904BF64361C0F2030140F25102B4
:1016D000C1F6FE72469218F0C3FC48981AF0CAF898
:1016E000014645F24070479007F038FE48981AF0DE
:1016F000C1F84899024647F64C70C1F6FE70499011
:1017000014F0C8FD4FF47A7008F03CFA469A4898F5
:101710004BF60861C0F2030118F0A2FC48981AF0D9
:10172000A9F80146479807F019FE48981AF0A2F860
:1017300048990246499814F0ADFD032008F022FABA
:1017400040F6F441C1F6FE711120088040F2841188
:10175000C1F6FE710020088040F26701C1F6FE71FB
:1017600004200870FFE740F25100C1F6FE700078D7
:1017700033287CD1FFE740F25100C1F6FE7040787B
:10178000302874D1FFE740F25100C1F6FE70807836
:1017900035286CD1FFE740F25100C1F6FE70C078E9
:1017A000342864D1FFE740F25100C1F6FE700079A1
:1017B00033285CD1FFE740F6F420C1F6FE70449078
:1017C0004CF2ED21C0F2030118F04AFC44981AF0E3
:1017D00051F8014645F24070439007F0BFFD449830
:1017E0001AF048F84499024647F64C70C1F6FE706C
:1017F000459014F04FFD44984BF6F841C0F20301B8
:10180000429118F02DFC429947F67C70C1F6FE70AB
:101810000C2214F03FFD44984BF60861C0F203011E
:1018200018F01EFC44981AF025F80146439807F07A
:1018300095FD44981AF01EF844990246459814F014
:1018400029FD032008F09EF940F6F441C1F6FE712F
:101850000220088040F28411C1F6FE710020088049
:1018600040F26701C1F6FE7106200870FFE740F202
:101870005100C1F6FE700078332840F08380FFE706
:1018800040F25100C1F6FE70407834287AD1FFE76B
:1018900040F25100C1F6FE708078352872D1FFE722
:1018A00040F25100C1F6FE70C07830286AD1FFE7DF
:1018B00040F25100C1F6FE700079332862D1FFE793
:1018C00040F6F420C1F6FE7040904CF20311C0F2D5
:1018D000030140F25102C1F6FE723E9218F0C0FBC5
:1018E000409819F0C7FF014645F240703F9007F05D
:1018F00035FD409819F0BEFF4099024647F64C70FE
:10190000C1F6FE70419014F0C5FC40984BF60C41B6
:10191000C0F203013D9118F0A3FB3D9947F67C709E
:10192000C1F6FE700C2214F0B5FC3E9A40984BF6BE
:101930000861C0F2030118F093FB409819F09AFF78
:1019400001463F9807F00AFD409819F093FF40992F
:101950000246419814F09EFC032008F013F940F66B
:10196000F441C1F6FE710220088040F28411C1F6F4
:10197000FE710020088040F26701C1F6FE71072069
:101980000870FFE740F26700C1F6FE70007800289B
:1019900050D1FFE740F6F420C1F6FE703B904BF6C5
:1019A0001941C0F2030140F25102C1F6FE723992B0
:1019B00018F056FB3B9819F05DFF014645F2407068
:1019C0003A9007F0CBFC3B9819F054FF3B99024644
:1019D00047F64C70C1F6FE703C9014F05BFC4FF47F
:1019E0007A7008F0CFF8399A3B984BF60861C0F24C
:1019F000030118F035FB3B9819F03CFF01463A987B
:101A000007F0ACFC3B9819F035FF3B9902463C9837
:101A100014F040FC032008F0B5F840F6F441C1F69C
:101A2000FE710220088040F28411C1F6FE71002090
:101A30000880FFE7FFE740F28410C1F6FE700088DF
:101A400047F20101884214D0FFE740F28410C1F64A
:101A5000FE70008847F2020188420AD0FFE740F298
:101A60008410C1F6FE70008847F20301884211D14C
:101A7000FFE744F2C020C1F6FE70008840F6F44152
:101A8000C1F6FE71088040F28411C1F6FE7100209B
:101A90000880FFE740F28410C1F6FE70008841F232
:101AA000107188426BD1FFE740F6F420C1F6FE705A
:101AB00036904BF60861C0F2030118F0D1FA36985F
:101AC00019F0D8FE014645F24070359007F046FC0B
:101AD000369819F0CFFE3699024647F64C70C1F69B
:101AE000FE70379014F0D6FB032008F04BF83698C0
:101AF00040F6F442C1F6FE724621118044F2ED2216
:101B0000C1F6FE7200213891117043F6AC71C1F636
:101B1000FE71098844F2C022C1F6FE72118040F6BF
:101B20000C51C1F6FE7101F10D0240F28811C1F6AF
:101B3000FE710A60096818F093FA369819F09AFE57
:101B40000146369840F26502C1F6FE72117019F036
:101B500091FE0146359807F001FC369819F08AFE8F
:101B600036990246379814F095FB042008F00AF8DD
:101B7000389840F28411C1F6FE710880FFE740F208
:101B80008410C1F6FE70008841F2167188426AD155
:101B9000FFE740F6F420C1F6FE7033904BF6086183
:101BA000C0F2030118F05CFA339819F063FE0146A5
:101BB00045F24070329007F0D1FB339819F05AFE8D
:101BC0003399024647F64C70C1F6FE70349014F01B
:101BD00061FB032007F0D6FF339840F6F442C1F6CC
:101BE000FE724621118044F2ED22C1F6FE720621FA
:101BF000117043F6AC71C1F6FE71098844F2C0223F
:101C0000C1F6FE72118040F60C51C1F6FE7101F171
:101C1000800240F28811C1F6FE710A60096818F06E
:101C20001FFA339819F026FE0146339840F26502F8
:101C3000C1F6FE72117019F01DFE0146329807F0D0
:101C40008DFB339819F016FE33990246349814F040
:101C500021FB042007F096FF40F28411C1F6FE71CB
:101C600000200880FFE740F28410C1F6FE70008873
:101C700041F2177188426AD1FFE740F6F420C1F6BD
:101C8000FE7030904BF60861C0F2030118F0E8F9DD
:101C9000309819F0EFFD014645F240702F9007F0A3
:101CA0005DFB309819F0E6FD3099024647F64C701E
:101CB000C1F6FE70319014F0EDFA032007F062FFD8
:101CC000309840F6F442C1F6FE724621118044F28B
:101CD000ED22C1F6FE720721117043F6AC71C1F618
:101CE000FE71098844F2C022C1F6FE72118040F6EE
:101CF0000C51C1F6FE7101F1900240F28811C1F65B
:101D0000FE710A60096818F0ABF9309819F0B2FD5D
:101D10000146309840F26502C1F6FE72117019F06A
:101D2000A9FD01462F9807F019FB309819F0A2FD84
:101D300030990246319814F0ADFA042007F022FFE2
:101D400040F28411C1F6FE7100200880FFE740F2E6
:101D50008410C1F6FE70008847F210018842C0F27C
:101D6000EF80FFE740F28410C1F6FE70008847F272
:101D70001901884200F3E480FFE740F28410C1F6C5
:101D8000FE70008847F21001401A40F26601C1F669
:101D9000FE71087044F2ED20C1F6FE70007890BB31
:101DA000FFE740F26600C1F6FE70007800F13002F5
:101DB00040F26500C1F6FE70037840F60C51C1F6A2
:101DC000FE710D31CA5440F28812C1F6FE721160E4
:101DD0000178013101700078112807DBFFE740F23C
:101DE0006501C1F6FE7110200870FFE740F2650042
:101DF000C1F6FE70017840F60C50C1F6FE70014449
:101E000000204873FFE744F2ED20C1F6FE70007831
:101E1000062833D1FFE740F26600C1F6FE70007875
:101E200000F1300240F26500C1F6FE70037840F622
:101E30000C51C1F6FE718031CA5440F28812C1F6CD
:101E4000FE7211600178013101700078112807DB02
:101E5000FFE740F26501C1F6FE7110200870FFE750
:101E600040F26500C1F6FE70017840F60C50C1F6F4
:101E7000FE700144002081F88000FFE744F2ED206D
:101E8000C1F6FE700078072833D1FFE740F2660004
:101E9000C1F6FE70007800F1300240F26500C1F634
:101EA000FE70037840F60C51C1F6FE719031CA54B1
:101EB00040F28812C1F6FE721160017801310170A2
:101EC0000078112807DBFFE740F26501C1F6FE71DB
:101ED00010200870FFE740F26500C1F6FE7001783F
:101EE00040F60C50C1F6FE700144002081F89000CD
:101EF000FFE740F28810C1F6FE70026840F6F42059
:101F0000C1F6FE702E904BF68771C0F2030118F0F7
:101F1000A7F82E9819F0AEFC014645F2407007F084
:101F20001DFA2E9819F0A6FC2E99024647F64C7021
:101F3000C1F6FE7014F0AEF9032007F023FEFFE7B0
:101F400040F28410C1F6FE70008847F241018842D9
:101F5000C0F2E880FFE740F28410C1F6FE7000880E
:101F600047F25A01884200F3DD80FFE740F2841017
:101F7000C1F6FE700088A0F5E04040F26601C1F6AF
:101F8000FE71087044F2ED20C1F6FE70007880BB4F
:101F9000FFE740F26600C1F6FE70027840F265008D
:101FA000C1F6FE70037840F60C51C1F6FE710D319A
:101FB000CA5440F28812C1F6FE72116001780131F4
:101FC00001700078112807DBFFE740F26501C1F6D8
:101FD000FE7110200870FFE740F26500C1F6FE7048
:101FE000017840F60C50C1F6FE70014400204873A1
:101FF000FFE744F2ED20C1F6FE700078062831D1EB
:10200000FFE740F26600C1F6FE70027840F265001C
:10201000C1F6FE70037840F60C51C1F6FE718031B6
:10202000CA5440F28812C1F6FE7211600178013183
:1020300001700078112807DBFFE740F26501C1F667
:10204000FE7110200870FFE740F26500C1F6FE70D7
:10205000017840F60C50C1F6FE700144002081F872
:102060008000FFE744F2ED20C1F6FE7000780728FB
:1020700031D1FFE740F26600C1F6FE70027840F20F
:102080006500C1F6FE70037840F60C51C1F6FE7192
:102090009031CA5440F28812C1F6FE721160017884
:1020A000013101700078112807DBFFE740F265017C
:1020B000C1F6FE7110200870FFE740F26500C1F61E
:1020C000FE70017840F60C50C1F6FE70014400200D
:1020D00081F89000FFE740F28810C1F6FE700268B8
:1020E00040F6F420C1F6FE702D904BF68771C0F2D9
:1020F000030117F0B5FF2D9819F0BCFB014645F21E
:10210000407007F02BF92D9819F0B4FB2D99024679
:1021100047F64C70C1F6FE7014F0BCF8032007F0CF
:1021200031FDFFE740F28410C1F6FE70008847F2EF
:10213000210188421FD0FFE740F28410C1F6FE70F3
:10214000008847F23A01884215D0FFE740F2841038
:10215000C1F6FE70008847F23B0188420BD0FFE7D2
:1021600040F28410C1F6FE70008847F240018842B8
:1021700040F0EF80FFE740F28410C1F6FE70008867
:1021800047F2210188420DD0FFE740F28410C1F6EA
:10219000FE700088A0F5E04040F26601C1F6FE71D5
:1021A000087006E040F26601C1F6FE715F2008701B
:1021B000FFE744F2ED20C1F6FE70007880BBFFE738
:1021C00040F26600C1F6FE70027840F26500C1F68A
:1021D000FE70037840F60C51C1F6FE710D31CA5401
:1021E00040F28812C1F6FE7211600178013101706F
:1021F0000078112807DBFFE740F26501C1F6FE71A8
:1022000010200870FFE740F26500C1F6FE7001780B
:1022100040F60C50C1F6FE70014400204873FFE701
:1022200044F2ED20C1F6FE700078062831D1FFE7B8
:1022300040F26600C1F6FE70027840F26500C1F619
:10224000FE70037840F60C51C1F6FE718031CA541D
:1022500040F28812C1F6FE721160017801310170FE
:102260000078112807DBFFE740F26501C1F6FE7137
:1022700010200870FFE740F26500C1F6FE7001789B
:1022800040F60C50C1F6FE700144002081F8800039
:10229000FFE744F2ED20C1F6FE700078072831D147
:1022A000FFE740F26600C1F6FE70027840F265007A
:1022B000C1F6FE70037840F60C51C1F6FE71903104
:1022C000CA5440F28812C1F6FE72116001780131E1
:1022D00001700078112807DBFFE740F26501C1F6C5
:1022E000FE7110200870FFE740F26500C1F6FE7035
:1022F000017840F60C50C1F6FE700144002081F8D0
:102300009000FFE740F28810C1F6FE70026840F6C8
:10231000F420C1F6FE702C904BF68771C0F20301D9
:1023200017F09EFE2C9819F0A5FA014645F2407070
:1023300007F014F82C9819F09DFA2C99024647F6EC
:102340004C70C1F6FE7013F0A5FF032007F01AFCD5
:10235000FFE740F28410C1F6FE70008847F22001CA
:10236000884240F0A680FFE740F6F420C1F6FE70F8
:102370002B904CF26631C0F2030117F071FE2B98DE
:1023800019F078FA014645F2407006F0E7FF2B9805
:1023900019F070FA2B99024647F64C70C1F6FE70A0
:1023A00013F078FF032007F0EDFB40F26500C1F663
:1023B000FE700078012808DBFFE740F26501C1F6F6
:1023C000FE71087801380870FFE744F2ED20C1F68D
:1023D000FE70007890B9FFE740F26500C1F6FE702C
:1023E000027840F60C50C1F6FE700D300021815489
:1023F00040F28811C1F6FE710860FFE744F2ED205B
:10240000C1F6FE700078062812D1FFE740F26500A1
:10241000C1F6FE70027840F60C50C1F6FE708030B6
:102420000021815440F28811C1F6FE710860FFE777
:1024300044F2ED20C1F6FE700078072812D1FFE7C4
:1024400040F26500C1F6FE70027840F60C50C1F60D
:10245000FE7090300021815440F28811C1F6FE7167
:102460000860FFE740F28810C1F6FE70026840F68F
:10247000F420C1F6FE702A904BF68771C0F203017A
:1024800017F0EEFD2A9819F0F5F9014645F2407073
:1024900006F064FF2A9819F0EDF92A99024647F6EA
:1024A0004C70C1F6FE7013F0F5FE032007F06AFBD6
:1024B000FFE740F28410C1F6FE70008840F201612F
:1024C000884229D0FFE740F28410C1F6FE700088F0
:1024D00041F2010188421FD0FFE740F28410C1F6AB
:1024E000FE70008841F20151884215D0FFE740F2AA
:1024F0008410C1F6FE70008847F2010188420BD0BB
:10250000FFE740F28410C1F6FE70008847F2011127
:10251000884240F0A080FFE743F6AC70C1F6FE7041
:1025200000880A2820D0FFE743F6AC70C1F6FE70A1
:1025300000880B2818D0FFE743F6AC70C1F6FE7098
:1025400000880C2810D0FFE743F6AC70C1F6FE708F
:1025500000880D2808D0FFE743F6AC70C1F6FE7086
:1025600000880E280DD1FFE740F6F441C1F6FE7158
:102570000720088040F28411C1F6FE710020088017
:1025800068E043F6AC70C1F6FE7000880F2818D0E2
:10259000FFE743F6AC70C1F6FE700088102810D03B
:1025A000FFE743F6AC70C1F6FE700088192808D02A
:1025B000FFE743F6AC70C1F6FE70008811283BD1EE
:1025C000FFE740F6F441C1F6FE710220088043F6B1
:1025D000AC70C1F6FE7000880F2807D1FFE740F607
:1025E000F441C1F6FE71022008801EE043F6AC7093
:1025F000C1F6FE70008810280FD1FFE740F2670097
:10260000C1F6FE700078032807D1FFE740F6F441D9
:10261000C1F6FE710220088006E040F6F441C1F6E2
:10262000FE7105200880FFE7FFE740F28411C1F644
:10263000FE71002008800CE040F6F441C1F6FE7106
:102640000520088040F28411C1F6FE710020088048
:10265000FFE7FFE7FFE740F28410C1F6FE70008855
:1026600041F20201884265D0FFE740F28410C1F6D2
:10267000FE70008842F2013188425BD0FFE740F2F1
:102680008410C1F6FE70008842F20231884251D0B7
:10269000FFE740F28410C1F6FE70008842F201515B
:1026A000884247D0FFE740F28410C1F6FE700088F0
:1026B00042F2025188423DD0FFE740F28410C1F659
:1026C000FE70008841F60101884233D0FFE740F2F6
:1026D0008410C1F6FE70008840F20161884229D062
:1026E000FFE740F28410C1F6FE70008841F20171EC
:1026F00088421FD0FFE740F28410C1F6FE700088C8
:1027000041F20271884215D0FFE740F28410C1F611
:10271000FE70008847F2011188420BD0FFE740F2BB
:102720008410C1F6FE70008847F20211884240F022
:10273000CE80FFE743F6AC70C1F6FE7000880A2831
:1027400018D0FFE743F6AC70C1F6FE7000880B2886
:1027500010D0FFE743F6AC70C1F6FE7000880C287D
:1027600008D0FFE743F6AC70C1F6FE7000880D2874
:102770000ED1FFE740F28C10C1F6FE70008807F022
:102780006FF840F6F441C1F6FE7105200880FFE7BE
:1027900043F6AC70C1F6FE700088122848D0FFE7FF
:1027A00043F6AC70C1F6FE700088062840D0FFE703
:1027B00043F6AC70C1F6FE700088172838D0FFE7EA
:1027C00043F6AC70C1F6FE700088382830D0FFE7C1
:1027D00043F6AC70C1F6FE7000883B2828D0FFE7B6
:1027E00043F6AC70C1F6FE7000883C2820D0FFE7AD
:1027F00043F6AC70C1F6FE7000883D2818D0FFE7A4
:1028000043F6AC70C1F6FE700088412810D0FFE797
:1028100043F6AC70C1F6FE700088472808D0FFE789
:1028200043F6AC70C1F6FE70008849280FD1FFE76F
:1028300006F084FF44F2C020C1F6FE70008840F626
:10284000F441C1F6FE71088005200880FFE743F6D9
:10285000AC70C1F6FE700088192818D0FFE743F667
:10286000AC70C1F6FE7000880F2810D0FFE743F669
:10287000AC70C1F6FE700088102808D0FFE743F660
:10288000AC70C1F6FE700088112819D1FFE707F07F
:10289000F5F840F26700C1F6FE700078022807D014
:1028A000FFE740F6F441C1F6FE710520088006E01E
:1028B00040F6F441C1F6FE7102200880FFE7FFE711
:1028C00040F28411C1F6FE7100200880FFE740F25B
:1028D0008410C1F6FE70008840F2036188423DD04A
:1028E000FFE740F28410C1F6FE70008841F2030158
:1028F000884233D0FFE740F28410C1F6FE700088B2
:1029000041F60301884229D0FFE740F28410C1F666
:10291000FE70008842F2033188421FD0FFE740F288
:102920008410C1F6FE70008842F20351884215D02F
:10293000FFE740F28410C1F6FE70008841F2037197
:1029400088420BD0FFE740F28410C1F6FE70008889
:1029500047F20311884240F0EF80FFE747F6386006
:10296000C1F6FE7028904FF442712991012214F0B3
:1029700055FC322007F006F928982999002214F016
:102980004DFC43F6AC70C1F6FE7000880A2820D0DA
:10299000FFE743F6AC70C1F6FE7000880B2818D034
:1029A000FFE743F6AC70C1F6FE7000880C2810D02B
:1029B000FFE743F6AC70C1F6FE7000880D2808D022
:1029C000FFE743F6AC70C1F6FE7000880E280ED10A
:1029D000FFE740F28C10C1F6FE70008806F0F0FEB2
:1029E00040F6F441C1F6FE7107200880FFE743F688
:1029F000AC70C1F6FE7000883A281CD1FFE744F2A3
:102A0000EC20C1F6FE7027900078800006F0D8FE1A
:102A1000279800788000013006F0D2FE27980078D1
:102A20008000023006F0CCFE27980078800003304A
:102A300006F0C6FEFFE743F6AC70C1F6FE700088F4
:102A4000062818D0FFE743F6AC70C1F6FE70008888
:102A5000122810D0FFE743F6AC70C1F6FE70008874
:102A6000172808D0FFE743F6AC70C1F6FE70008867
:102A7000472809D1FFE706F01BFE40F6F441C1F6F6
:102A8000FE7105200880FFE743F6AC70C1F6FE70CA
:102A90000088192808D0FFE743F6AC70C1F6FE7035
:102AA0000088112819D1FFE706F0A8FF40F267005F
:102AB000C1F6FE700078022807D0FFE740F6F44127
:102AC000C1F6FE710520088006E040F6F441C1F62B
:102AD000FE7102200880FFE7FFE743F6AC70C1F605
:102AE000FE700088442807D1FFE740F6F441C1F6A4
:102AF000FE7105200880FFE743F6AC70C1F6FE705A
:102B000000883E2808D0FFE743F6AC70C1F6FE709F
:102B100000883F2809D1FFE706F070FF40F6F44136
:102B2000C1F6FE7105200880FFE740F28411C1F66E
:102B3000FE7100200880FFE740F28410C1F6FE70AD
:102B4000008841F2040188420DD1FFE740F6F441CC
:102B5000C1F6FE710A20088040F28411C1F6FE71B0
:102B600000200880FFE740F28410C1F6FE70008864
:102B700041F2050188420DD1FFE740F6F441C1F66C
:102B8000FE710B20088040F28411C1F6FE71002016
:102B90000880FFE740F28410C1F6FE70008841F221
:102BA000060188420DD1FFE740F6F441C1F6FE71FF
:102BB0000C20088040F28411C1F6FE7100200880CC
:102BC000FFE740F28410C1F6FE70008841F2070171
:102BD00088420DD1FFE740F6F441C1F6FE710D20A9
:102BE000088040F28411C1F6FE7100200880FFE7E2
:102BF00040F28410C1F6FE70008841F2080188425C
:102C000015D1FFE740F23340C1F6FE70007838B9C5
:102C1000FFE740F6F441C1F6FE710E200880FFE7A1
:102C200040F28411C1F6FE7100200880FFE740F2F7
:102C30008410C1F6FE70008840F2012188420AD05B
:102C4000FFE740F28410C1F6FE70008842F20121D5
:102C500088420DD1FFE744F2B001C1F6FE71282091
:102C6000088040F28411C1F6FE7100200880FFE761
:102C700040F28410C1F6FE70008840F203418842A1
:102C800017D1FFE740F68010C1F6FE7090F84800BB
:102C9000012807D1FFE744F2B001C1F6FE712920F7
:102CA0000880FFE740F28411C1F6FE710020088021
:102CB000FFE740F28410C1F6FE70008840F2022166
:102CC000884262D1FFE740F6F441C1F6FE710F2061
:102CD000088040F25101C1F6FE7124910020269037
:102CE000087048708870C870087148718871C87120
:102CF000087248728872C87208734873887340F209
:102D00006502C1F6FE72107040F27C02C1F6FE72DE
:102D10001070087048708870C870087148718871A8
:102D2000C871087248728872C872087348738873D1
:102D300044F2C220C1F6FE70028840F6F420C1F6CB
:102D4000FE7025904BF64171C0F2030117F088F92F
:102D5000259818F08FFD014645F2407006F0FEFA06
:102D6000259818F087FD2599024647F64C70C1F664
:102D7000FE7013F08FFA032006F004FF269840F24D
:102D80008411C1F6FE710880FFE740F28410C1F69D
:102D9000FE70008840F2032188420DD1FFE740F623
:102DA000F441C1F6FE710520088040F28411C1F69D
:102DB000FE7100200880FFE740F28410C1F6FE702B
:102DC0000088B0F5017F17D1FFE740F6F441C1F666
:102DD000FE710320088040F28411C1F6FE710020CC
:102DE000088043F6AC70C1F6FE70008844F2C02142
:102DF000C1F6FE710880FFE740F28410C1F6FE7054
:102E0000008840F20521884217D1FFE740F6F441DF
:102E1000C1F6FE710420088040F28411C1F6FE71F3
:102E20000020088043F6AC70C1F6FE70008844F2C2
:102E3000C021C1F6FE710880FFE740F28410C1F6A0
:102E4000FE70008840F20251884217D1FFE740F639
:102E5000F441C1F6FE711020088040F28411C1F6E1
:102E6000FE710020088043F6AC70C1F6FE70008849
:102E700044F2C021C1F6FE710880FFE740F28410E1
:102E8000C1F6FE70008840F20351884217D1FFE777
:102E900040F6F441C1F6FE711120088040F2841121
:102EA000C1F6FE710020088043F6AC70C1F6FE70DA
:102EB000008844F2C021C1F6FE710880FFE740F2AD
:102EC0008410C1F6FE70008840F20551884217D187
:102ED000FFE740F6F441C1F6FE710720088040F29A
:102EE0008411C1F6FE710020088043F6AC70C1F673
:102EF000FE70008844F2C021C1F6FE710880FFE731
:102F000040F28410C1F6FE70008840F207518842FA
:102F100017D1FFE740F6F441C1F6FE711220088098
:102F200040F28411C1F6FE710020088043F6AC70B7
:102F3000C1F6FE70008844F2C021C1F6FE7108801F
:102F4000FFE740F28410C1F6FE700088B0F5A16F73
:102F500017D1FFE740F6F441C1F6FE710620088064
:102F600040F28411C1F6FE710020088043F6AC7077
:102F7000C1F6FE70008844F2C021C1F6FE710880DF
:102F8000FFE740F28410C1F6FE70008840F209515C
:102F9000884217D1FFE740F6F441C1F6FE711920CF
:102FA000088040F28411C1F6FE710020088043F6CB
:102FB000AC70C1F6FE70008844F2C021C1F6FE710B
:102FC0000880FFE740F28410C1F6FE70008840F2EE
:102FD0000A51884217D1FFE740F6F441C1F6FE716D
:102FE0001720088040F28411C1F6FE71002008808D
:102FF00043F6AC70C1F6FE70008844F2C021C1F601
:10300000FE710880FFE740F28410C1F6FE70008870
:1030100040F20D51884217D1FFE740F6F441C1F666
:10302000FE714720088040F28411C1F6FE71002035
:10303000088043F6AC70C1F6FE70008844F2C021EF
:10304000C1F6FE710880FFE740F28410C1F6FE7001
:10305000008840F6010188420AD0FFE740F2841060
:10306000C1F6FE70008840F60111884229D1FFE7C1
:1030700040F28410C1F6FE70008840F601018842DB
:1030800007D1FFE740F6F441C1F6FE710720088042
:10309000FFE740F28410C1F6FE70008840F601118F
:1030A000884207D1FFE740F6F441C1F6FE710720E0
:1030B0000880FFE740F28411C1F6FE71002008800D
:1030C000FFE740F28410C1F6FE70008840F603016D
:1030D00088420AD0FFE740F28410C1F6FE700088F3
:1030E00040F60311884247D1FFE740F23340C1F672
:1030F000FE70007858B9FFE740F28E10C1F6FE70FE
:10310000008840F28C11C1F6FE7108800BE040F29D
:103110008E10C1F6FE700088143040F28C11C1F69A
:10312000FE710880FFE740F28410C1F6FE7000884F
:1031300040F60301884207D1FFE740F6F441C1F6AB
:10314000FE710A200880FFE740F28410C1F6FE708D
:10315000008840F60311884207D1FFE740F6F441AA
:10316000C1F6FE710A200880FFE740F28411C1F623
:10317000FE7100200880FFE740F28410C1F6FE7067
:103180000088B0F5016F09D0FFE740F28410C1F666
:10319000FE700088B0F5116F07D1FFE740F23341B0
:1031A000C1F6FE7100200870FFE740F28410C1F6FE
:1031B000FE70008840F6110188420AD0FFE740F215
:1031C0008410C1F6FE70008840F61111884207D1C4
:1031D000FFE740F23341C1F6FE7101200870FFE7BE
:1031E00040F28410C1F6FE700088B0F5016F1DD06A
:1031F000FFE740F28410C1F6FE700088B0F5116F51
:1032000014D0FFE740F28410C1F6FE70008840F64B
:10321000110188420AD0FFE740F28410C1F6FE7027
:10322000008840F61111884273D1FFE740F2334025
:10323000C1F6FE70007858B9FFE745F225100D2160
:1032400006F0B4F845F226100E2106F0AFF80AE0B9
:1032500045F225100C2106F0A9F845F226100F21A1
:1032600006F0A4F8FFE740F23340C1F6FE700078A4
:10327000B8B9FFE740F28E10C1F6FE70008800EB8F
:1032800000114CF28330C0F20300421840F6F420E3
:10329000C1F6FE704BF61A61C0F2030116F0E0FEB3
:1032A00016E040F28E10C1F6FE70008800EB0011AF
:1032B0004CF28330C0F20300421840F6F420C1F60D
:1032C000FE704CF24D11C0F2030116F0C9FEFFE78B
:1032D00040F6F420C1F6FE70239018F0CBFA0146B8
:1032E0004FF4AE4006F03AF8239818F0C3FA239949
:1032F000024647F64C70C1F6FE7012F0CBFF032079
:1033000006F040FC40F28411C1F6FE7100200880F6
:10331000FFE740F28410C1F6FE70008841F601110B
:10332000884232D0FFE740F28410C1F6FE70008878
:1033300041F60211884228D0FFE740F28410C1F61E
:10334000FE70008842F2013188421ED0FFE740F251
:103350008410C1F6FE70008842F20231884214D017
:10336000FFE740F28410C1F6FE70008842F201517E
:1033700088420AD0FFE740F28410C1F6FE70008850
:1033800042F20251884211D1FFE744F2C020C1F657
:10339000FE70008840F6F441C1F6FE71088040F2EC
:1033A0008411C1F6FE7100200880FFE740F284100E
:1033B000C1F6FE70008841F60311884240F0168184
:1033C000FFE744F2C020C1F6FE70018840F6F442E7
:1033D000C1F6FE72118040F28412C1F6FE72002125
:1033E000118000880A2818D1FFE744F2C220C1F6F4
:1033F000FE70008840F28C11C1F6FE710A8840F61A
:10340000AC51C1F6FE7101EB022144F2C422C1F6B7
:10341000FE72128821F81200FFE744F2C020C1F6C4
:10342000FE7000880B2818D1FFE744F2C220C1F6D5
:10343000FE70008840F28C11C1F6FE710A8840F6D9
:10344000AC51C1F6FE7101EB022144F2C422C1F677
:10345000FE72128821F81200FFE744F2C020C1F684
:10346000FE7000880C2818D1FFE744F2C220C1F694
:10347000FE70008840F28C11C1F6FE710A8840F699
:10348000AC51C1F6FE7101EB022144F2C422C1F637
:10349000FE72128821F81200FFE744F2C020C1F644
:1034A000FE7000880D2818D1FFE744F2C220C1F653
:1034B000FE70008840F28C11C1F6FE710A8840F659
:1034C000AC51C1F6FE7101EB022144F2C422C1F6F7
:1034D000FE72128821F81200FFE744F2C020C1F604
:1034E000FE7000880E2835D1FFE744F2C420C1F6F3
:1034F000FE700088012812D1FFE744F2C220C1F615
:10350000FE70008840F28C11C1F6FE710A8840F608
:10351000AC51C1F6FE7101EB02218873FFE744F262
:10352000C420C1F6FE700088022812D1FFE744F2E1
:10353000C220C1F6FE70008840F28C11C1F6FE7107
:103540000A8840F6AC51C1F6FE7101EB0221087405
:10355000FFE7FFE744F2C020C1F6FE70008817289D
:1035600029D1FFE744F2C420C1F6FE70008801288B
:103570000CD1FFE744F2C220C1F6FE70008840F68D
:103580008011C1F6FE7181F8AE00FFE744F2C4205D
:10359000C1F6FE70008802280CD1FFE744F2C22079
:1035A000C1F6FE70008840F68011C1F6FE71A1F8E8
:1035B000B000FFE7FFE744F2C020C1F6FE700088CC
:1035C000192812D1FFE744F2C220C1F6FE7000882C
:1035D00044F2C421C1F6FE710A8840F60C51C1F6CE
:1035E000FE7101EB42010884FFE7FFE740F284101F
:1035F000C1F6FE70008840F20131884214D0FFE726
:1036000040F28410C1F6FE70008840F20141884209
:103610000AD0FFE740F28410C1F6FE70008840F245
:10362000015188420ED1FFE740F24441C1F6FE71DC
:103630004EF66120086040F28411C1F6FE71002050
:103640000880FFE740F28410C1F6FE70008842F661
:10365000010188420AD0FFE740F28410C1F6FE70F3
:10366000008842F60201884213D1FFE740F231415F
:10367000C1F6FE710220087040F6F441C1F6FE71F9
:103680000320088040F28411C1F6FE7100200880FA
:10369000FFE740F28410C1F6FE70008842F6030195
:1036A00088420DD1FFE740F23141C1F6FE710120A1
:1036B000087040F28411C1F6FE7100200880FFE717
:1036C00040F28410C1F6FE70008842F61001884274
:1036D00007D1FFE740F23241C1F6FE7100200870C9
:1036E000FFE740F28410C1F6FE70008842F6110137
:1036F000884207D1FFE740F23241C1F6FE71012056
:103700000870FFE740F28410C1F6FE70008842F6B0
:10371000011188420AD0FFE740F28410C1F6FE7022
:10372000008842F60211884213D1FFE740F231418E
:10373000C1F6FE710220087040F6F441C1F6FE7138
:103740000420088040F28411C1F6FE710020088038
:10375000FFE740F28410C1F6FE70008842F60311C4
:1037600088420DD1FFE740F23141C1F6FE710120E0
:10377000087040F28411C1F6FE7100200880FFE756
:1037800040F28410C1F6FE70008842F610118842A3
:1037900007D1FFE740F23241C1F6FE710020087008
:1037A000FFE740F28410C1F6FE70008842F6111166
:1037B000884207D1FFE740F23241C1F6FE71012095
:1037C0000870FFE740F28410C1F6FE70008842F6F0
:1037D000101188421FD0FFE740F28410C1F6FE703E
:1037E000008842F61111884215D0FFE740F284109C
:1037F000C1F6FE70008842F6100188420BD0FFE748
:1038000040F28410C1F6FE70008842F61101884231
:1038100040F08280FFE740F23240C1F6FE7000784F
:10382000012839D1FFE745F221100C2105F0BEFD3A
:1038300045F222100F2105F0B9FD44F2B400C1F6A3
:10384000FE70007B38B3FFE744F2B400C1F6FE70AF
:10385000027C40F6F420C1F6FE7022904CF2581122
:10386000C0F2030116F0FCFB229818F003F80146A1
:103870004FF4B04005F072FD229817F0FBFF22993B
:10388000024647F64C70C1F6FE7012F003FD0320AD
:1038900006F078F9FFE738E045F221100D2105F038
:1038A00085FD45F222100E2105F080FD44F2B400A2
:1038B000C1F6FE70007B38B3FFE744F2B400C1F6F6
:1038C000FE70827B40F6F420C1F6FE7021904CF22F
:1038D0005811C0F2030116F0C3FB219817F0CAFF7C
:1038E00001464FF4B04005F039FD219817F0C2FFB2
:1038F0002199024647F64C70C1F6FE7012F0CAFCE0
:10390000032006F03FF9FFE7FFE740F28411C1F61C
:10391000FE7100200880FFE740F28410C1F6FE70BF
:10392000008843F2012188420DD1FFE740F2304187
:10393000C1F6FE710220087040F28411C1F6FE71DA
:1039400000200880FFE740F28410C1F6FE70008876
:1039500043F2032188420DD1FFE740F23041C1F626
:10396000FE710120087040F28411C1F6FE71002042
:103970000880FFE740F28410C1F6FE70008843F231
:10398000013188420DD1FFE740F23041C1F6FE71AE
:103990000220087040F28411C1F6FE7100200880F8
:1039A000FFE740F28410C1F6FE70008843F2033155
:1039B00088420DD1FFE740F23041C1F6FE7101208F
:1039C000087040F28411C1F6FE7100200880FFE704
:1039D00040F28410C1F6FE70008840F20231884245
:1039E0000AD0FFE740F28410C1F6FE70008840F272
:1039F0000241884217D1FFE740F21E00C1F6FE7077
:103A00000078012807D1FFE740F21E01C1F6FE71E0
:103A10000020087006E040F21E01C1F6FE71012090
:103A20000870FFE7FFE740F28410C1F6FE700088DF
:103A300001280DD1FFE740F6F441C1F6FE710720E1
:103A4000088040F28411C1F6FE7100200880FFE773
:103A500040F28410C1F6FE70008802280DD1FFE705
:103A600040F6F441C1F6FE710220088040F2841154
:103A7000C1F6FE7100200880FFE740F28410C1F615
:103A8000FE70008803282DD1FFE743F6AC70C1F625
:103A9000FE700088012807D1FFE740F6F441C1F627
:103AA000FE7105200880FFE743F6AC70C1F6FE709A
:103AB0000088072808D0FFE743F6AC70C1F6FE7017
:103AC00000886B2807D1FFE740F6F441C1F6FE718C
:103AD00005200880FFE740F28411C1F6FE71002046
:103AE0000880FFE740F28410C1F6FE7000880428C9
:103AF0000DD1FFE740F6F441C1F6FE710B200880BE
:103B000040F28411C1F6FE7100200880FFE740F208
:103B10008410C1F6FE70008805280DD1FFE740F63D
:103B2000F441C1F6FE711420088040F28411C1F600
:103B3000FE7100200880FFE740F28410C1F6FE709D
:103B40000088062840F0C880FFE744F2EC20C1F668
:103B5000FE700078012808DBFFE744F2EC21C1F693
:103B6000FE71087801380870FFE744F2EC20C1F6D6
:103B7000FE70007858B9FFE74FF4C2400F2105F0FE
:103B800015FC46F20110642105F010FCFFE744F239
:103B9000EC20C1F6FE700078012813DBFFE744F249
:103BA000EC20C1F6FE70007803280BDCFFE74FF431
:103BB000C2400F2105F0FAFB46F20110102105F07A
:103BC000F5FBFFE744F2EC20C1F6FE700078042814
:103BD0000BD1FFE74FF4C240642105F0E7FB46F24A
:103BE0000110102105F0E2FBFFE744F2EC20C1F6E2
:103BF000FE70007800F13D0146F2021005F0D6FBA0
:103C000040F25641C1F6FE7100200870FFE740F215
:103C10005640C1F6FE700078032856DCFFE740F2FC
:103C20005640C1F6FE701E9001784FF4B44000EB90
:103C3000411010211C9105F091FB1C9A47F64C7025
:103C4000C1F6FE7040F6F421C1F6FE711D9112F02E
:103C500021FB1D9817F00EFE1D99024647F61C70B9
:103C6000C1F6FE7012F016FB022005F08BFF1E98C5
:103C7000017801F5E14044F2EC22C1F6FE721F9298
:103C8000127801EB820244F2EE21C1F6FE7120911E
:103C900001EBC211C97905F089FB1E981F9B209981
:103CA000027847F2840010441B7802EB830201EB98
:103CB000C211497A05F07AFBFFE740F25641C1F69E
:103CC000FE71087801300870A1E740F28411C1F656
:103CD000FE7100200880FFE740F28410C1F6FE70FC
:103CE0000088072840F0C880FFE744F2EC20C1F6C6
:103CF000FE700078032808DCFFE744F2EC21C1F6EF
:103D0000FE71087801300870FFE744F2EC20C1F63C
:103D1000FE70007858B9FFE74FF4C2400F2105F05C
:103D200045FB46F20110642105F040FBFFE744F239
:103D3000EC20C1F6FE700078012813DBFFE744F2A7
:103D4000EC20C1F6FE70007803280BDCFFE74FF48F
:103D5000C2400F2105F02AFB46F20110102105F0A8
:103D600025FBFFE744F2EC20C1F6FE700078042842
:103D70000BD1FFE74FF4C240642105F017FB46F278
:103D80000110102105F012FBFFE744F2EC20C1F610
:103D9000FE70007800F13D0146F2021005F006FBCE
:103DA00040F25641C1F6FE7100200870FFE740F274
:103DB0005640C1F6FE700078032856DCFFE740F25B
:103DC0005640C1F6FE70199001784FF4B44000EBF4
:103DD00041101021179105F0C1FA179A47F64C705F
:103DE000C1F6FE7040F6F421C1F6FE71189112F092
:103DF00051FA189817F03EFD1899024647F61C70C4
:103E0000C1F6FE7012F046FA022005F0BBFE1998CA
:103E1000017801F5E14044F2EC22C1F6FE721A92FB
:103E2000127801EB820244F2EE21C1F6FE711B9181
:103E300001EBC211C97905F0B9FA19981A9B1B99BF
:103E4000027847F2840010441B7802EB830201EBF6
:103E5000C211497A05F0AAFAFFE740F25641C1F6CD
:103E6000FE71087801300870A1E740F28411C1F6B4
:103E7000FE7100200880FFE740F28410C1F6FE705A
:103E8000008819280DD1FFE740F6F441C1F6FE7114
:103E90006520088040F28411C1F6FE710020088080
:103EA000FFE740F28410C1F6FE70008820280DD193
:103EB000FFE740F6F441C1F6FE710320088040F2AE
:103EC0008411C1F6FE7100200880FFE740F28410E3
:103ED000C1F6FE700088212807D1FFE740F2841167
:103EE000C1F6FE7100200880FFE740F28410C1F6A1
:103EF000FE70008822280DD1FFE740F6F441C1F69C
:103F0000FE710620088040F28411C1F6FE71002087
:103F10000880FFE740F28410C1F6FE700088232875
:103F20000DD1FFE740F6F441C1F6FE71052008808F
:103F300040F28411C1F6FE7100200880FFE740F2D4
:103F40008410C1F6FE70008824280DD1FFE740F6EA
:103F5000F441C1F6FE710320088040F28411C1F6DD
:103F6000FE7100200880FFE740F28410C1F6FE7069
:103F70000088402811D1FFE7002016900FF0B0FA1A
:103F8000169840F28411C1F6FE71088040F6F441A3
:103F9000C1F6FE7102200880FFE740F28410C1F6EE
:103FA000FE7000884CF6FE21884225D1FFE740F6DE
:103FB000F741C1F6FE710120887240F28411C1F60A
:103FC000FE710020088045F61040C1F6FE700088A2
:103FD000022808D0FFE745F61040C1F6FE700088C1
:103FE000042808D1FFE745F61241C1F6FE710888A2
:103FF00001300880FFE7FFE740F28410C1F6FE7051
:1040000000884AF2A55188420DD1FFE740F6F441FD
:10401000C1F6FE710A20088040F28411C1F6FE71DB
:1040200000200880FFE740F28410C1F6FE7000888F
:104030004DF6FA6188421ED1FFE745F61040C1F601
:10404000FE7001880131018040F28412C1F6FE72D7
:1040500000211180008806280CD1FFE745F61240A8
:10406000C1F6FE700088022804D1FFE700200FF09F
:1040700037FAFFE7FFE7FFE740F28610C1F6FE7070
:10408000008845F20201884240F02881FFE740F2B3
:104090008410C1F6FE70008801280DD1FFE744F2BC
:1040A000B821C1F6FE716420088040F28411C1F687
:1040B000FE7100200880FFE740F28410C1F6FE7018
:1040C000008802280DD1FFE744F2B821C1F6FE7145
:1040D000C820088040F28411C1F6FE7100200880DB
:1040E000FFE740F28410C1F6FE70008803280DD16E
:1040F000FFE744F2B821C1F6FE710120088040F2CA
:104100008411C1F6FE7100200880FFE740F28410A0
:10411000C1F6FE70008804280DD1FFE744F2B821F3
:10412000C1F6FE710220088040F28411C1F6FE71D2
:1041300000200880FFE740F28410C1F6FE7000887E
:1041400005280DD1FFE744F2B821C1F6FE71032026
:10415000088040F28411C1F6FE7100200880FFE75C
:1041600040F28410C1F6FE70008806280DD1FFE7EA
:1041700044F2B821C1F6FE710420088040F2841197
:10418000C1F6FE7100200880FFE740F28410C1F6FE
:10419000FE70008807280DD1FFE744F2B821C1F670
:1041A000FE710520088040F28411C1F6FE710020E6
:1041B0000880FFE740F28410C1F6FE7000880828EE
:1041C0000DD1FFE744F2B821C1F6FE710620088048
:1041D00040F28411C1F6FE7100200880FFE740F232
:1041E0008410C1F6FE70008809280DD1FFE744F263
:1041F000B821C1F6FE710720088040F28411C1F693
:10420000FE7100200880FFE740F28410C1F6FE70C6
:1042100000880A280DD1FFE744F2B821C1F6FE71EB
:104220000820088040F28411C1F6FE710020088049
:10423000FFE740F28410C1F6FE7000880B280DD114
:10424000FFE744F2B821C1F6FE710920088040F270
:104250008411C1F6FE7100200880FFE740F284104F
:10426000C1F6FE7000880C280DD1FFE744F2B8219A
:10427000C1F6FE710A20088040F28411C1F6FE7179
:1042800000200880FFE740F28410C1F6FE7000882D
:1042900021280DD1FFE744F2B821C1F6FE71642058
:1042A000088040F28411C1F6FE7100200880FFE70B
:1042B00040F28410C1F6FE70008822280DD1FFE77D
:1042C00044F2B821C1F6FE71C820088040F2841182
:1042D000C1F6FE7100200880FFE7FFE740F286107C
:1042E000C1F6FE70008845F20301884240F0DE808E
:1042F000FFE740F28410C1F6FE700088B0F5807FC1
:1043000007D1FFE740F6F441C1F6FE7105200880B1
:10431000FFE740F28410C1F6FE70008840F2011100
:1043200088420DD1FFE740F6F441C1F6FE710F203F
:10433000088040F28411C1F6FE7100200880FFE77A
:1043400040F28410C1F6FE700088B0F5817F0DD177
:10435000FFE740F6F441C1F6FE716B20088040F2A1
:104360008411C1F6FE7100200880FFE740F284103E
:10437000C1F6FE70008840F2031188420DD1FFE7BC
:1043800040F6F441C1F6FE71CF20088040F284115E
:10439000C1F6FE7100200880FFE740F28410C1F6EC
:1043A000FE700088B0F5827F0DD1FFE740F6F44142
:1043B000C1F6FE719C20088040F28411C1F6FE71A6
:1043C00000200880FFE740F28410C1F6FE700088EC
:1043D00040F2051188420ED1FFE740F6F441C1F6E4
:1043E000FE714FF48070088040F28411C1F6FE71B6
:1043F00000200880FFE740F28410C1F6FE700088BC
:10440000012825DBFFE740F28410C1F6FE7000882A
:104410000C281DDCFFE740F6F441C1F6FE713220A6
:10442000088040F28301C1F6FE710020087040F25E
:104430008001C1F6FE7108800A8840F28401C1F64D
:10444000FE71885440F26841C1F6FE710870FFE7C2
:1044500040F28410C1F6FE700088112825DBFFE7CA
:1044600040F28410C1F6FE7000881C281DDCFFE7B6
:1044700040F6F441C1F6FE713220088040F283011B
:10448000C1F6FE710020087040F28001C1F6FE7195
:1044900008800A8840F28401C1F6FE71885440F217
:1044A0006841C1F6FE710870FFE7FFE740F2861031
:1044B000C1F6FE70008845F20401884240F0F084A5
:1044C000FFE740F28410C1F6FE700088012818D181
:1044D000FFE740F28411C1F6FE710020088044F22B
:1044E000EB20C1F6FE70037844F2CB21C1F6FE71D9
:1044F0003122CA5402780132027002785F20885457
:10450000FFE740F28410C1F6FE700088022818D13F
:10451000FFE740F28411C1F6FE710020088044F2EA
:10452000EB20C1F6FE70037844F2CB21C1F6FE7198
:104530003222CA5402780132027002785F20885415
:10454000FFE740F28410C1F6FE700088032818D1FE
:10455000FFE740F28411C1F6FE710020088044F2AA
:10456000EB20C1F6FE70037844F2CB21C1F6FE7158
:104570003322CA5402780132027002785F208854D4
:10458000FFE740F28410C1F6FE700088042818D1BD
:10459000FFE740F28411C1F6FE710020088044F26A
:1045A000EB20C1F6FE70037844F2CB21C1F6FE7118
:1045B0003422CA5402780132027002785F20885493
:1045C000FFE740F28410C1F6FE700088052818D17C
:1045D000FFE740F28411C1F6FE710020088044F22A
:1045E000EB20C1F6FE70037844F2CB21C1F6FE71D8
:1045F0003522CA5402780132027002785F20885452
:10460000FFE740F28410C1F6FE700088062818D13A
:10461000FFE740F28411C1F6FE710020088044F2E9
:10462000EB20C1F6FE70037844F2CB21C1F6FE7197
:104630003622CA5402780132027002785F20885410
:10464000FFE740F28410C1F6FE700088072818D1F9
:10465000FFE740F28411C1F6FE710020088044F2A9
:10466000EB20C1F6FE70037844F2CB21C1F6FE7157
:104670003722CA5402780132027002785F208854CF
:10468000FFE740F28410C1F6FE700088082818D1B8
:10469000FFE740F28411C1F6FE710020088044F269
:1046A000EB20C1F6FE70037844F2CB21C1F6FE7117
:1046B0003822CA5402780132027002785F2088548E
:1046C000FFE740F28410C1F6FE700088092818D177
:1046D000FFE740F28411C1F6FE710020088044F229
:1046E000EB20C1F6FE70037844F2CB21C1F6FE71D7
:1046F0003922CA5402780132027002785F2088544D
:10470000FFE740F28410C1F6FE7000880A2818D135
:10471000FFE740F28411C1F6FE710020088044F2E8
:10472000EB20C1F6FE70037844F2CB21C1F6FE7196
:104730003022CA5402780132027002785F20885415
:10474000FFE740F28410C1F6FE7000880B2817D1F5
:10475000FFE740F28410C1F6FE700022028044F2AE
:10476000EB20C1F6FE70037844F2CB21C1F6FE7156
:10477000CA540278013A027002785F208854FFE739
:1047800040F28410C1F6FE7000880D2818D1FFE7B2
:1047900040F28411C1F6FE710020088044F2EB2043
:1047A000C1F6FE70037844F2CB21C1F6FE712E22D1
:1047B000CA5402780132027002785F208854FFE701
:1047C00040F28410C1F6FE7000880F2808D1FFE780
:1047D00044F2C221C1F6FE71088801300880FFE76B
:1047E00040F28410C1F6FE7000880E2808D1FFE761
:1047F00044F2C221C1F6FE71088801380880FFE743
:1048000040F28410C1F6FE700088112808D1FFE73D
:1048100044F2C221C1F6FE7108880A300880FFE721
:1048200040F28410C1F6FE700088102808D1FFE71E
:1048300044F2C221C1F6FE7108880A380880FFE7F9
:1048400044F2C220C1F6FE7000884FF6F171884232
:1048500007DBFFE744F2C221C1F6FE7100200880A9
:10486000FFE744F2C220C1F6FE70008841F2717188
:10487000884208DBFFE744F2C221C1F6FE7141F233
:1048800070700880FFE740F28410C1F6FE70008867
:104890000E2818DCFFE740F28410C1F6FE70008895
:1048A0000C2810D0FFE744F2EB20C1F6FE7003782D
:1048B00044F2CB21C1F6FE715F22CA540078014454
:1048C00000204870FFE740F28410C1F6FE700088B7
:1048D0000C2811D0FFE740F28410C1F6FE7000886A
:1048E000222809D0FFE740F28410C1F6FE7000884C
:1048F000232840F0A382FFE744F2C020C1F6FE70F7
:10490000018840F6F442C1F6FE72118040F2841232
:10491000C1F6FE720021118044F2EB22C1F6FE7254
:10492000137844F2CB22C1F6FE72D15400883228AB
:104930001AD1FFE744F2C220C1F6FE70008840F2AF
:104940006841C1F6FE710A7844F2EE21C1F6FE71AB
:1049500001EBC21144F2C422C1F6FE72128801EBCF
:10496000420121F8800CFFE744F2C020C1F6FE703E
:10497000008833281AD1FFE744F2C220C1F6FE7046
:10498000008840F26841C1F6FE710A7844F2EE21D7
:10499000C1F6FE7101EBC21144F2C422C1F6FE72EF
:1049A000128801EB420121F8600CFFE744F2C020BD
:1049B000C1F6FE70008834281AD1FFE744F2C22005
:1049C000C1F6FE70008840F26841C1F6FE710A78B7
:1049D00044F2EE21C1F6FE7101EBC21144F2C42291
:1049E000C1F6FE72128801EB420121F8500CFFE77C
:1049F00044F2C020C1F6FE70008835281AD1FFE7C6
:104A000044F2C220C1F6FE70008840F26841C1F64F
:104A1000FE710A7844F2EE21C1F6FE7101EBC2117B
:104A200044F2C422C1F6FE72128801EB420121F861
:104A3000300CFFE744F2C020C1F6FE700088362833
:104A40001AD1FFE744F2C220C1F6FE70008840F29E
:104A50006841C1F6FE710A7844F2EE21C1F6FE719A
:104A600001EBC21144F2C422C1F6FE72128801EBBE
:104A7000420121F8240CFFE744F2C020C1F6FE7089
:104A800000883A2840F0E180FFE744F2C420C1F6F4
:104A9000FE70008890B9FFE744F2C220C1F6FE70B4
:104AA000008844F2EC21C1F6FE710A7844F2EE214E
:104AB000C1F6FE7101EB4221C871FFE744F2C42048
:104AC000C1F6FE700088012812D1FFE744F2C2202F
:104AD000C1F6FE70008844F2EC21C1F6FE710A783E
:104AE00044F2EE21C1F6FE7101EB42214872FFE76C
:104AF00044F2C420C1F6FE700088022813D1FFE7FB
:104B000044F2C220C1F6FE70008844F2EC21C1F6E6
:104B1000FE710A7844F2EE21C1F6FE7101EB4221EA
:104B200081F88700FFE744F2C420C1F6FE700088D8
:104B3000032813D1FFE744F2C220C1F6FE700088BB
:104B400044F2EC21C1F6FE710A7844F2EE21C1F67E
:104B5000FE7101EB422181F88900FFE744F2C42095
:104B6000C1F6FE700088042813D1FFE744F2C2208A
:104B7000C1F6FE70008844F2EC21C1F6FE710A789D
:104B800044F2EE21C1F6FE7101EB422181F80701EA
:104B9000FFE744F2C420C1F6FE700088052813D157
:104BA000FFE744F2C220C1F6FE70008844F2EC2117
:104BB000C1F6FE710A7844F2EE21C1F6FE7101EBF6
:104BC000422181F80901FFE744F2C420C1F6FE70DA
:104BD0000088062813D1FFE744F2C220C1F6FE7018
:104BE000008844F2EC21C1F6FE710A7844F2EE210D
:104BF000C1F6FE7101EB422181F88701FFE744F223
:104C0000C420C1F6FE700088072813D1FFE744F2E4
:104C1000C220C1F6FE70008844F2EC21C1F6FE719C
:104C20000A7844F2EE21C1F6FE7101EB422181F8CF
:104C30008901FFE744F2EC20C1F6FE70007844F2EF
:104C4000B201C1F6FE710870FFE744F2C020C1F660
:104C5000FE7000883B280BD1FFE744F2EC20C1F640
:104C6000FE70007844F2B201C1F6FE710870FFE7F1
:104C700044F2C020C1F6FE7000883C2828D1FFE72E
:104C800044F2C420C1F6FE70008860B9FFE744F228
:104C9000C220C1F6FE70008840F68011C1F6FE7198
:104CA000A1F8B000FFE744F2C420C1F6FE7000880E
:104CB00001280CD1FFE744F2C220C1F6FE70008843
:104CC00040F68011C1F6FE7181F8AE00FFE7FFE704
:104CD00044F2C020C1F6FE700088442840F0A28053
:104CE000FFE744F2C420C1F6FE70008858B9FFE720
:104CF00044F2C220C1F6FE70008840F6D021C1F611
:104D0000FE71C860FFE744F2C420C1F6FE7000885F
:104D100001280BD1FFE744F2C220C1F6FE700088E3
:104D200040F6D021C1F6FE710861FFE744F2C420CD
:104D3000C1F6FE70008802280BD1FFE744F2C220C2
:104D4000C1F6FE70008840F6D021C1F6FE714861C0
:104D5000FFE744F2C420C1F6FE70008803280BD19F
:104D6000FFE744F2C220C1F6FE70008840F6D02171
:104D7000C1F6FE718860FFE744F2C420C1F6FE7000
:104D8000008804280BD1FFE744F2C220C1F6FE7070
:104D9000008840F6D021C1F6FE714860FFE744F27A
:104DA000C420C1F6FE70008805280BD1FFE744F24D
:104DB000C220C1F6FE70008840F6D021C1F6FE7117
:104DC0000860FFE747F6C060C1F6FE7040F6D021EC
:104DD000C1F6FE71159111F0EDFD1598C16847F20D
:104DE000550004F0E3FA1598016947F2560004F003
:104DF000DDFA1598416947F2570004F0D7FA159883
:104E0000816847F2580004F0D1FA1598416847F2DA
:104E1000590004F0CBFA1598016847F25A0004F0E3
:104E2000C5FAFFE744F2CB20C1F6FE7015F095F805
:104E300044F2C221C1F6FE710880FFE744F2C220AD
:104E4000C1F6FE7001884FF4E24004F0AFFA40F280
:104E50008410C1F6FE700088012820DBFFE740F2D5
:104E60008410C1F6FE7000880C2818DCFFE740F6BD
:104E7000F441C1F6FE713220088040F28301C1F690
:104E8000FE710020087040F28001C1F6FE710880BA
:104E90000A8840F28401C1F6FE718854FFE7FFE7FB
:104EA00040F28610C1F6FE70008845F20501884286
:104EB00044F01782FFE740F28410C1F6FE700088CC
:104EC0000E2818D1FFE740F28C11C1F6FE712720A1
:104ED000088040F28E11C1F6FE71088040F6F44160
:104EE000C1F6FE710B20088040F28411C1F6FE71FC
:104EF00000200880FFE740F28410C1F6FE700088B1
:104F0000012869DBFFE740F28410C1F6FE700088DB
:104F10000E2861DCFFE740F23340C1F6FE700078F6
:104F200098B9FFE740F28410C1F6FE70018840F6A0
:104F30004E20C1F6FE7000EB410030F8020C40F24A
:104F40008C11C1F6FE71088013E040F28410C1F6A6
:104F5000FE70018840F64E20C1F6FE7000EB410065
:104F600030F8020C143040F28C11C1F6FE7108804A
:104F7000FFE740F28410C1F6FE70028840F64E2131
:104F8000C1F6FE7101EB420131F8021C40F28E12B3
:104F9000C1F6FE7211800088082807DCFFE740F6A2
:104FA000F441C1F6FE7109200880FFE740F2841049
:104FB000C1F6FE700088092807DBFFE740F6F441E0
:104FC000C1F6FE7108200880FFE740F28411C1F6A7
:104FD000FE7100200880FFE740F28410C1F6FE70E9
:104FE0000088022807D1FFE740F28411C1F6FE7164
:104FF00000200880FFE740F28410C1F6FE700088B0
:10500000032807D1FFE740F28411C1F6FE710020AA
:105010000880FFE740F28410C1F6FE700088042883
:1050200007D1FFE740F28411C1F6FE71002008802D
:10503000FFE740F28410C1F6FE700088052812D107
:10504000FFE740F6F441C1F6FE714620088040F2C9
:105050008411C1F6FE710020088040F25841C1F66B
:10506000FE710870FFE740F28410C1F6FE70008800
:10507000062807D1FFE740F28411C1F6FE71002037
:105080000880FFE740F28410C1F6FE700088072810
:1050900007D1FFE740F28411C1F6FE7100200880BD
:1050A000FFE740F28410C1F6FE700088082807D19F
:1050B000FFE740F28411C1F6FE7100200880FFE78F
:1050C00040F28410C1F6FE70008809280DD1FFE778
:1050D00040F6F441C1F6FE714020088040F2841190
:1050E000C1F6FE7100200880FFE740F28410C1F68F
:1050F000FE7000880A280DD1FFE740F6F441C1F6A2
:10510000FE710720088040F28411C1F6FE71002074
:105110000880FFE740F28410C1F6FE7000880B287B
:105120000DD1FFE740F6F441C1F6FE71072008807B
:1051300040F28411C1F6FE7100200880FFE740F2C2
:105140008410C1F6FE70008810280DD1FFE740F6EC
:10515000F441C1F6FE710720088040F28411C1F6C7
:10516000FE7100200880FFE740F28410C1F6FE7057
:10517000008811280DD1FFE740F6F441C1F6FE7119
:105180000720088040F28411C1F6FE7100200880DB
:10519000FFE740F28410C1F6FE70008813280DD19D
:1051A000FFE740F6F441C1F6FE713A20088040F274
:1051B0008411C1F6FE7100200880FFE740F28410E0
:1051C000C1F6FE70008814280DD1FFE740F6F441C7
:1051D000C1F6FE714820088040F28411C1F6FE71CC
:1051E00000200880FFE740F28410C1F6FE700088BE
:1051F00015280DD1FFE740F6F441C1F6FE714120BC
:10520000088040F28411C1F6FE7100200880FFE79B
:1052100040F28410C1F6FE70008816280DD1FFE719
:1052200040F6F441C1F6FE710720088040F2841177
:10523000C1F6FE7100200880FFE740F28410C1F63D
:10524000FE70008817280DD1FFE740F6F441C1F643
:10525000FE710720088040F28411C1F6FE71002023
:105260000880FFE740F28410C1F6FE70008818281D
:1052700017D1FFE740F6F441C1F6FE713C200880EB
:1052800040F28411C1F6FE710020088043F6AC7034
:10529000C1F6FE70008844F2C021C1F6FE7108809C
:1052A000FFE740F28410C1F6FE700088192817D17C
:1052B000FFE740F6F441C1F6FE713D20088040F260
:1052C0008411C1F6FE710020088043F6AC70C1F66F
:1052D000FE70008844F2C021C1F6FE710880FFE72D
:1052E00040F28410C1F6FE7000881A2817D1FFE73B
:1052F00040F6F441C1F6FE713E20088040F2841170
:10530000C1F6FE710020088043F6AC70C1F6FE7055
:10531000008844F2C021C1F6FE710880FFE740F228
:105320008410C1F6FE7000881B2817D1FFE740F6F5
:10533000F441C1F6FE713F20088040F28411C1F6AD
:10534000FE710020088043F6AC70C1F6FE70008844
:1053500044F2C021C1F6FE710880FFE740F28410DC
:10536000C1F6FE7000881C2817D1FFE740F6F44113
:10537000C1F6FE714420088040F28411C1F6FE712E
:105380000020088043F6AC70C1F6FE70008844F23D
:10539000C021C1F6FE710880FFE740F28410C1F61B
:1053A000FE700088202817D1FFE740F6F441C1F6CF
:1053B000FE713220088040F28411C1F6FE71002097
:1053C000088043F6AC70C1F6FE70008844F2C0213C
:1053D000C1F6FE710880FFE740F28410C1F6FE704E
:1053E0000088212817D1FFE740F6F441C1F6FE718D
:1053F0003320088040F28411C1F6FE71002008803D
:1054000043F6AC70C1F6FE70008844F2C021C1F6CC
:10541000FE710880FFE740F28410C1F6FE7000883C
:10542000222817D1FFE740F6F441C1F6FE7134207F
:10543000088040F28411C1F6FE710020088043F616
:10544000AC70C1F6FE70008844F2C021C1F6FE7156
:105450000880FFE740F28410C1F6FE700088232820
:1054600017D1FFE740F6F441C1F6FE713520088000
:1054700040F28411C1F6FE710020088043F6AC7042
:10548000C1F6FE70008844F2C021C1F6FE710880AA
:10549000FFE740F28410C1F6FE700088242817D17F
:1054A000FFE740F6F441C1F6FE713620088040F275
:1054B0008411C1F6FE710020088043F6AC70C1F67D
:1054C000FE70008844F2C021C1F6FE710880FFE73B
:1054D00040F28410C1F6FE70008841F61001884247
:1054E00049DBFFE740F28410C1F6FE700088B0F59A
:1054F000C15F40DAFFE740F28410C1F6FE70008819
:1055000041F61001411A40F27E00C1F6FE700180A2
:10551000018840F68010C1F6FE70084490F827001C
:1055200070B9FFE740F27E00C1F6FE70018840F6D8
:105530008010C1F6FE700144012081F827000DE0C3
:1055400040F27E00C1F6FE70018840F68010C1F680
:10555000FE700144002081F82700FFE740F6F44187
:10556000C1F6FE711220088040F28411C1F6FE716E
:1055700000200880FFE740F28410C1F6FE7000882A
:10558000B0F5C15F49DBFFE740F28410C1F6FE7061
:10559000008841F62F0188423FDCFFE740F284108B
:1055A000C1F6FE700088A0F5C15140F27E00C1F640
:1055B000FE700180018840F68010C1F6FE7008443C
:1055C00090F8370070B9FFE740F27E00C1F6FE7038
:1055D000018840F68010C1F6FE700144012081F878
:1055E00037000DE040F27E00C1F6FE70018840F603
:1055F0008010C1F6FE700144002081F83700FFE7FB
:1056000040F6F441C1F6FE711220088040F2841188
:10561000C1F6FE7100200880FFE740F28410C1F659
:10562000FE70008841F61011884240F0B280FFE71A
:1056300044F2C621C1F6FE710120088044F2C42064
:10564000C1F6FE700088132814DBFFE744F2C02087
:10565000C1F6FE7000880A280CD1FFE744F2C4208E
:10566000C1F6FE700088133844F2C621C1F6FE71FF
:105670000880FFE744F2C420C1F6FE700088372896
:1056800014DBFFE744F2C020C1F6FE7000880C284E
:105690000CD1FFE744F2C420C1F6FE700088373811
:1056A00044F2C621C1F6FE710880FFE744F2C4202F
:1056B000C1F6FE7000884F2814DBFFE744F2C020DB
:1056C000C1F6FE7000880D280CD1FFE744F2C4201B
:1056D000C1F6FE7000884F3844F2C621C1F6FE7153
:1056E0000880FFE744F2C620C1F6FE70007880070C
:1056F00098B9FFE744F2C220C1F6FE700188013973
:1057000001800088062807DBFFE744F2C221C1F6CA
:10571000FE7100200880FFE73AE044F2C020C1F6A5
:10572000FE700088192808D1FFE744F2C221C1F6B3
:10573000FE7108880138088018E044F2C020C1F6E4
:10574000FE7000880E2808D1FFE744F2C221C1F69E
:10575000FE7108880138088007E044F2C221C1F6D2
:10576000FE7108880A380880FFE7FFE744F2C2208C
:10577000C1F6FE70008841F27171884207DBFFE7D5
:1057800044F2C221C1F6FE7100200880FFE7FFE766
:10579000FFE740F28410C1F6FE70008841F6111157
:1057A000884240F0B280FFE744F2C621C1F6FE71A4
:1057B0000120088044F2C420C1F6FE70008813283E
:1057C00014DBFFE744F2C020C1F6FE7000880A280F
:1057D0000CD1FFE744F2C420C1F6FE7000881338F4
:1057E00044F2C621C1F6FE710880FFE744F2C420EE
:1057F000C1F6FE700088372814DBFFE744F2C020B2
:10580000C1F6FE7000880C280CD1FFE744F2C420DA
:10581000C1F6FE700088373844F2C621C1F6FE7129
:105820000880FFE744F2C420C1F6FE7000884F28CC
:1058300014DBFFE744F2C020C1F6FE7000880D289B
:105840000CD1FFE744F2C420C1F6FE7000884F3847
:1058500044F2C621C1F6FE710880FFE744F2C6207B
:10586000C1F6FE700078800798B9FFE744F2C220C5
:10587000C1F6FE700188013901800088062807DB27
:10588000FFE744F2C221C1F6FE7100200880FFE765
:105890003AE044F2C020C1F6FE700088192808D111
:1058A000FFE744F2C221C1F6FE7108880A38088079
:1058B00018E044F2C020C1F6FE7000880E2808D11E
:1058C000FFE744F2C221C1F6FE7108880A38088059
:1058D00007E044F2C221C1F6FE71088864380880EE
:1058E000FFE7FFE744F2C220C1F6FE70008841F2F4
:1058F0007171884207DBFFE744F2C221C1F6FE71F5
:1059000000200880FFE7FFE7FFE740F28410C1F6C0
:10591000FE70008841F61211884240F0B380FFE724
:1059200044F2C621C1F6FE710120088044F2C42071
:10593000C1F6FE700088132814DBFFE744F2C02094
:10594000C1F6FE7000880A280CD1FFE744F2C4209B
:10595000C1F6FE700088133844F2C621C1F6FE710C
:105960000880FFE744F2C420C1F6FE7000883728A3
:1059700014DBFFE744F2C020C1F6FE7000880C285B
:105980000CD1FFE744F2C420C1F6FE70008837381E
:1059900044F2C621C1F6FE710880FFE744F2C4203C
:1059A000C1F6FE7000884F2814DBFFE744F2C020E8
:1059B000C1F6FE7000880D280CD1FFE744F2C42028
:1059C000C1F6FE7000884F3844F2C621C1F6FE7160
:1059D0000880FFE744F2C620C1F6FE700078800719
:1059E00098B9FFE744F2C220C1F6FE700188013188
:1059F00001800088062807DBFFE744F2C221C1F6D8
:105A0000FE7100200880FFE73BE044F2C020C1F6B1
:105A1000FE700088192808D1FFE744F2C221C1F6C0
:105A2000FE7108880A30088018E044F2C020C1F6F0
:105A3000FE7000880E2808D1FFE744F2C221C1F6AB
:105A4000FE7108880A30088007E044F2C221C1F6DE
:105A5000FE71088864300880FFE7FFE744F2C22047
:105A6000C1F6FE70008841F27171884208DBFFE7E1
:105A700044F2C221C1F6FE7141F270700880FFE766
:105A8000FFE7FFE740F28410C1F6FE70008841F6A0
:105A90001311884240F0B380FFE744F2C621C1F6FB
:105AA000FE710120088044F2C420C1F6FE70008817
:105AB000132814DBFFE744F2C020C1F6FE70008813
:105AC0000A280CD1FFE744F2C420C1F6FE7000881A
:105AD000133844F2C621C1F6FE710880FFE744F294
:105AE000C420C1F6FE700088372814DBFFE744F2BB
:105AF000C020C1F6FE7000880C280CD1FFE744F2EC
:105B0000C420C1F6FE700088373844F2C621C1F6C1
:105B1000FE710880FFE744F2C420C1F6FE700088E1
:105B20004F2814DBFFE744F2C020C1F6FE70008866
:105B30000D280CD1FFE744F2C420C1F6FE700088A6
:105B40004F3844F2C621C1F6FE710880FFE744F2E7
:105B5000C620C1F6FE700078800798B9FFE744F2CE
:105B6000C220C1F6FE70018801310180008806283C
:105B700007DBFFE744F2C221C1F6FE710020088076
:105B8000FFE73BE044F2C020C1F6FE700088192810
:105B900008D1FFE744F2C221C1F6FE710888013046
:105BA00008802AE044F2C020C1F6FE7000880E286A
:105BB00008D1FFE744F2C221C1F6FE710888013026
:105BC000088007E044F2C221C1F6FE7108880A305D
:105BD0000880FFE744F2C220C1F6FE70008841F25F
:105BE0007171884208DBFFE744F2C221C1F6FE7101
:105BF00041F270700880FFE7FFE7FFE7FFE740F240
:105C00008410C1F6FE70008841F610118842C0F27F
:105C10001881FFE740F28410C1F6FE70008841F65B
:105C20001311884200F30D81FFE744F2C220C1F650
:105C3000FE70028840F6F420C1F6FE7014904CF21B
:105C40006D11C0F2030114F00BFA149815F012FE56
:105C5000014645F2207003F081FB149815F00AFE0E
:105C60001499024647F64C70C1F6FE7010F012FB14
:105C7000032003F087FF44F2C621C1F6FE71012024
:105C8000088044F2C420C1F6FE700088132814DB9B
:105C9000FFE744F2C020C1F6FE7000880A280CD14C
:105CA000FFE744F2C420C1F6FE700088133844F2C6
:105CB000C621C1F6FE710880FFE744F2C420C1F698
:105CC000FE700088372814DBFFE744F2C020C1F6DD
:105CD000FE7000880C280CD1FFE744F2C420C1F606
:105CE000FE700088373844F2C621C1F6FE71088084
:105CF000FFE744F2C420C1F6FE7000884F2814DB91
:105D0000FFE744F2C020C1F6FE7000880D280CD1D8
:105D1000FFE744F2C420C1F6FE7000884F3844F219
:105D2000C621C1F6FE710880FFE744F2C620C1F625
:105D3000FE700078800780B9FFE744F2C220C1F608
:105D4000FE70028840F6F420C1F6FE704CF2F52198
:105D5000C0F2030114F084F958E044F2C221C1F604
:105D6000FE710A8845F62940C0F28F20A2FB00325E
:105D70000B88A3FB0010642100FB113340F6F420D4
:105D8000C1F6FE704BF62241C0F2030114F068F92F
:105D900044F2C020C1F6FE7000880E2810D1FFE743
:105DA00044F2C220C1F6FE70028840F6F420C1F62B
:105DB000FE704CF2F521C0F2030114F051F9FFE737
:105DC00044F2C020C1F6FE70008819281DD1FFE7FB
:105DD00044F2C220C1F6FE70028849F69A11C1F65B
:105DE0009911A2FB01320088A0FB013101EB810176
:105DF000A0EB410340F6F420C1F6FE704BF62241C1
