:020000040802F0
:1000000000000824B9820408B9720408C172040807
:10001000D1720408D9720408E172040800000000DB
:10002000000000000000000000000000E972040869
:10003000F772040800000000057304081573040833
:100040000983040809830408098304080983040850
:100050000983040809830408098304080983040840
:100060000983040809830408098304080983040830
:100070000983040809830408098304080983040820
:100080000983040809830408098304080983040810
:100090000983040809830408098304080983040800
:1000A00009830408098304080983040809830408F0
:1000B0004D73040809830408657304080983040860
:1000C00009830408098304080983040809830408D0
:1000D00009830408797304088D730408A173040864
:1000E0000983040809830408000000000983040848
:1000F00009830408098304080983040809830408A0
:1001000009830408B57304080983040809830408F3
:1001100009830408C97304080983040809830408CF
:10012000098304080983040809830408098304086F
:1001300009830408DD73040809830408098304089B
:1001400000000000000000000000000000000000AF
:10015000098304080983040809830408F173040867
:10016000098304080983040809830408098304082F
:1001700009830408098304080983040800000000B7
:100180000983040809830408057404080983040822
:1001900009830408098304080983040809830408FF
:1001A000000000000000000009830408098304081F
:1001B00009830408098304080983040809830408DF
:1001C00009830408098304080983040809830408CF
:1001D00009830408098304080983040809830408BF
:1001E00009830408098304080983040809830408AF
:1001F000098304080983040809830408098304089F
:10020000098304080983040809830408098304088E
:10021000197404080983040809830408098304087D
:10022000098304080000000009830408000000009E
:1002300009830408098304080000000009830408F6
:10024000098304080983040809830408098304084E
:10025000098304080983040809830408098304083E
:10026000098304080983040809830408098304082E
:1002700009830408098304080983040800000000B6
:1002800009830408098304080983040800000000A6
:080290000000000009830408CE
:1002A00010B5054C237833B9044B13B10448AFF3B0
:1002B00000800123237010BD3803002400000000DB
:1002C00060520A0808B5034B1BB103490348AFF35A
:1002D000008008BD000000003C03002460520A08B2
:1002E00010F8012B11F8013B012A28BF9A42F7D0E0
:1002F000D01A70470000000000000000000000005D
:1003000001F0FF01102A2BDB10F0070F08D010F8C6
:10031000013B013A8B422DD010F0070F42B3F6D1CA
:10032000F0B441EA012141EA014122F007047FF0E3
:1003300000070023F0E80256083C85EA010586EA3A
:10034000010685FA47F5A3FA87F586FA47F6A5FA76
:1003500087F68EB9EED1F0BC01F0FF0102F0070282
:1003600032B110F8013B013A83EA010313B1F8D12D
:100370000020704701387047002D06BF354603380E
:10038000073815F0010F07D1013015F4807F02BF47
:10039000013015F4C03F0130F0BC0138704700BF98
:1003A000034613F8012B002AFBD1181A01387047B5
:1003B00081F0004102E000BF83F0004330B54FEA16
:1003C00041044FEA430594EA050F08BF90EA020F83
:1003D0001FBF54EA000C55EA020C7FEA645C7FEA16
:1003E000655C00F0E2804FEA5454D4EB5555B8BF39
:1003F0006D420CDD2C4480EA020281EA030382EAAA
:10040000000083EA010180EA020281EA0303362D3B
:1004100088BF30BD11F0004F4FEA01314FF4801C0E
:100420004CEA113102D0404261EB410113F0004F20
:100430004FEA03334CEA133302D0524263EB4303D7
:1004400094EA050F00F0A780A4F10104D5F1200E75
:100450000DDB02FA0EFC22FA05F2801841F10001D0
:1004600003FA0EF2801843FA05F359410EE0A5F1A4
:1004700020050EF1200E012A03FA0EFC28BF4CF0D5
:10048000020C43FA05F3C01851EBE37101F000458B
:1004900007D54FF0000EDCF1000C7EEB00006EEB98
:1004A0000101B1F5801F1BD3B1F5001F0CD3490822
:1004B0005FEA30004FEA3C0C04F101044FEA445279
:1004C00012F5800F80F09A80BCF1004F08BF5FEA00
:1004D000500C50F1000041EB045141EA050130BDE0
:1004E0005FEA4C0C404141EB0101013C28BFB1F5F2
:1004F000801FE9D291F0000F04BF01460020B1FA3D
:1005000081F308BF2033A3F10B03B3F120020CDA0F
:100510000C3208DD02F1140CC2F10C0201FA0CF0ED
:1005200021FA02F10CE002F11402D8BFC2F1200C52
:1005300001FA02F120FA0CFCDCBF41EA0C01904008
:10054000E41AA2BF01EB0451294330BD6FEA040451
:100550001F3C1CDA0C340EDC04F11404C4F120023C
:1005600020FA04F001FA02F340EA030021FA04F34E
:1005700045EA030130BDC4F10C04C4F1200220FAA5
:1005800002F001FA04F340EA0300294630BD21FAE3
:1005900004F0294630BD94F0000F83F4801306BFA9
:1005A00081F480110134013D4EE77FEA645C18BF9D
:1005B0007FEA655C29D094EA050F08BF90EA020F34
:1005C00005D054EA000C04BF1946104630BD91EA2C
:1005D000030F1EBF0021002030BD5FEA545C05D12F
:1005E0004000494128BF41F0004130BD14F580046E
:1005F0003CBF01F5801130BD01F0004545F0FE41E2
:1006000041F470014FF0000030BD7FEA645C1ABF16
:10061000194610467FEA655C1CBF0B46024650EA4D
:10062000013406BF52EA033591EA030F41F4002179
:1006300030BD00BF90F0000F04BF0021704730B5FF
:100640004FF4806404F132044FF000054FF00001D4
:1006500050E700BF90F0000F04BF0021704730B595
:100660004FF4806404F1320410F0004548BF40426A
:100670004FF000013EE700BF42004FEAE2014FEABF
:1006800031014FEA02701FBF12F07F4393F07F4F9A
:1006900081F06051704732F07F4208BF704793F09D
:1006A0007F4F04BF41F40021704730B54FF46074B0
:1006B00001F0004521F000411CE700BF50EA0102B3
:1006C00008BF704730B54FF000050AE050EA01025C
:1006D00008BF704730B511F0004502D5404261EBCC
:1006E00041014FF4806404F132045FEA915C3FF40D
:1006F000D8AE4FF003025FEADC0C18BF03325FEAAA
:10070000DC0C18BF033202EBDC02C2F1200300FA5A
:1007100003FC20FA02F001FA03FE40EA0E0021FA7F
:1007200002F11444BDE600BF7BB972B90029BEBF17
:1007300000204FF0004106E008BF00281CBF6FF00A
:1007400000414FF0FF3000F00BBAADF1080C6DE93D
:1007500004CE002909DB002B1ADB00F085F8DDF858
:1007600004E0DDE9022304B07047404261EB41013F
:10077000002B1BDB00F078F8DDF804E0DDE9022354
:1007800004B0404261EB4101524263EB43037047C6
:10079000524263EB430300F067F8DDF804E0DDE963
:1007A000022304B0404261EB41017047524263EBC7
:1007B000430300F059F8DDF804E0DDE9022304B05A
:1007C000524263EB4303704753B94AB9002908BF4B
:1007D00000281CBF4FF0FF314FF0FF3000F0C0B9D0
:1007E000ADF1080C6DE904CE00F03EF8DDF804E050
:1007F000DDE9022304B0704708B502460B4643EC1E
:10080000172BB5EEC07BF1EE10FA03D4BDE808401B
:1008100000F00AB8B1EE477B51EC170B00F004F87A
:10082000404261EB410108BD9FED0B6B41EC170BA2
:100830009FED0B5B27EE066BBCEEC66BB8EE464B2E
:10084000A4EE457BFCEEC77B16EE101A17EE900A5D
:10085000704700BFAFF30080000000000000F03DD3
:10086000000000000000F0412DE9F047089D0F4610
:1008700004468C46002B48D18A42164661D9B2FA0A
:1008800082F34BB1C3F1200201FA03FC20FA02F219
:100890009E4042EA0C0C9C404FEA164EB7B2BCFB9D
:1008A000FEF1220C0EFB11CC42EA0C4201FB07F0D8
:1008B000904209D9B21801F1FF3C80F0EE809042DD
:1008C00040F2EB8002393244121AA4B2B2FBFEF0BD
:1008D0000EFB102244EA024400FB07F7A74209D9A5
:1008E000341900F1FF3280F0DA80A74240F2D7805D
:1008F0003444023840EA0140E41B00211DB1DC40D1
:100900000023C5E90043BDE8F0878B4206D90DB14D
:10091000C5E9000100210846BDE8F087B3FA83F17C
:10092000002948D1BB4202D3824200F20781841AD7
:1009300067EB030201209446002DE4D0C5E9004C8A
:10094000E1E7002A00F09280B2FA82F3002B40F037
:10095000A8808A1A4FEA164E1FFA86FC0121200C45
:10096000B2FBFEF70EFB172240EA02420CFB07F037
:10097000904207D9B21807F1FF3802D2904200F234
:10098000E2804746121AA4B2B2FBFEF00EFB102220
:1009900044EA02440CFB00FCA44507D9341900F1D9
:1009A000FF3202D2A44500F2CB801046A4EB0C0427
:1009B00040EA0740A2E7C1F120068B4022FA06FC7C
:1009C0004CEA030C07FA01F420FA06F3F7404FEA69
:1009D0001C49234300FA01F81FFA8CFEB7FBF9F01B
:1009E0001C0C09FB107744EA074400FB0EF7A742F2
:1009F00002FA01F20AD91CEB040400F1FF3A80F07C
:100A00009B80A74240F2988002386444E41B9FB266
:100A1000B4FBF9F309FB134447EA044403FB0EFE5D
:100A2000A64509D91CEB040403F1FF3780F082804E
:100A3000A6457FD9023B644443EA0040A4EB0E0480
:100A4000A0FB02E7BC427346B94663D360D05DB1F8
:100A5000B8EB030264EB090404FA06F622FA01F388
:100A60001E43CC40C5E9006400214CE762084808F9
:100A700042EAC1710B0C43EA00438AB242EA0342E4
:100A8000B3FBF6F1E407B4463746B6461F23B0FB86
:100A9000F6F0D21B41EA004161E7614614E71046D7
:100AA00028E7C3F1200120FA01F29E4027FA01F164
:100AB0009F403A434FEA164E1FFA86FCB1FBFEF701
:100AC0000EFB1710110C41EA004107FB0CF888459A
:100AD00004FA03F43AD9711807F1FF3001D28845BE
:100AE0001FD8A1EB0801B1FBFEF808FB0CF70EFBC9
:100AF000181192B242EA0142BA422FD2B21808F15A
:100B0000FF31C6D2BA42C4D2A8F102013244C0E7D2
:100B1000F0459CD2BEEB020367EB0C070138B946E7
:100B200095E7A6EB08084144B81EB1FBFEF808FBA8
:100B30000CF7DCE73B467FE7504667E70846FBE6F5
:100B40003444023832E7023F32441BE7A1EB08018C
:100B50003846B1FBFEF808FB0CF7C8E7414698E7BA
:100B6000704700BF80B400AF034B1B781846BD46EA
:100B70005DF8047B704700BF5E04002480B400AFC2
:100B8000024B1846BD465DF8047B70475C030024A9
:100B900080B400AF034B1B78DBB21846BD465DF84E
:100BA000047B70475803002480B500AF074B012237
:100BB0001A70074B01221A7036F0A6F90346054A4F
:100BC000136005487FF024FD00BF80BD580300245A
:100BD000000000247C44002478520A0880B400AF4E
:100BE0000F4B00221A700F4B00221A700E4B00227E
:100BF0001A700E4B00221A700D4B00221A700D4B0A
:100C000000221A600C4B00221A700B4B00229A70C3
:100C10000A4B00221A7000BFBD465DF8047B704786
:100C200056030024570300245803002459030024CA
:100C3000BC170124C857012424AD00244CB400245F
:100C400080B592B000AFF860B9603B601346FB809E
:100C500000237B64BB6D00221A703B6800221A805F
:100C6000BB6800221A703B6D00221A7006228D4963
:100C7000F8687FF082FE0346002B0AD1BB6D01228B
:100C80001A703B6840F2BB121A80FB6806337B6423
:100C900015E005228449F8687FF06FFE0346002BBB
:100CA0000AD1BB6D00221A703B6842F228321A80CA
:100CB000FB6805337B6402E04FF0FF33EDE07B6CB3
:100CC0001B78002B02D16FF00103E6E02F21786C36
:100CD0007FF033FEF862FB6A002B06D1786CFFF7D9
:100CE0005FFB02467B6C134400E0FB6ABB6200239F
:100CF0003B647B6CFB6309E0FB6B1B783A2B02D1F6
:100D0000FB6B3B6406E0FB6B0133FB63FA6BBB6A76
:100D10009A42F1D37B6C7B623B6C002B01D03B6C25
:100D200000E0BB6A3B623A6A7B6AD31AFB83FB8BA7
:100D3000002B04D0FB8B5A1CFB889A4202D96FF01F
:100D40000203AAE0FB8B1A46796AB86880F071FD4D
:100D5000FB8BBA68134400221A703B6C002B3BD00B
:100D60000023BB63012387F837303B6C01333B63BF
:100D700023E03B6B1B7801334C4A13441B7803F090
:100D80000403002B03D1002387F8373019E0BA6B36
:100D900013469B0013445B001A463B6B1B781344BD
:100DA000303BBB63BB6BB3F5803F03D3002387F8B5
:100DB000373006E03B6B01333B633A6BBB6A9A42C8
:100DC000D7D397F83730002B06D0BB6B002B03D05E
:100DD000BB6B9AB23B681A80FB6A002B01D0FB6A9E
:100DE00000E0334BBB61B869FFF7DAFA0346FB82D8
:100DF000FB6D002B09D0FB6D1B78002B05D0F86D27
:100E0000FFF7CEFA03469BB200E00023BB82FB8AC9
:100E1000002B08D0FB8A013BBA6913441B782F2BA7
:100E200001D0012300E00023FB74FB7C9AB2FB8A13
:100E300013449AB2BB8A13449BB201333B823A8A71
:100E4000B7F854309A4202D96FF0030325E0FB8AC9
:100E50001A46B969386D80F0ECFCFB7C002B04D09D
:100E6000FB8A3A6D13442F221A70BB8A002B09D0DB
:100E7000FA8AFB7C13443A6D1344BA8AF96D18461A
:100E800080F0D7FCFA8AFB7C1A44BB8A13441A46CA
:100E90003B6D134400221A70002318464837BD46A4
:100EA00080BD00BF98520A08A0520A08B7420C0839
:100EB000A8520A0880B5A4B000AF78600B467B80CA
:100EC000204B1B78002B1CD07B881A4679681E4863
:100ED0007AF01EFEC7F88800D7F88830002B2CDA8D
:100EE00007F1080380221946D7F888005CF0D6FB8A
:100EF00007F10803194615487FF022FB6FF00C0339
:100F00001CE0134B18687A880123796840F0DEFCF6
:100F1000034687F88F3097F98F30002B08D097F968
:100F20008F3019460B487FF00BFB97F98F3005E0A7
:100F3000074B1B68184641F0B3FA00231846903758
:100F4000BD4680BD5E04002428600124AC520A081E
:100F5000C8570124C8520A0880B586B000AF78602F
:100F60000B467B8013467B705E4B1B68002B05D0C5
:100F70007B68002B02D07B88002B02D16FF00F031F
:100F8000ACE07B880E33B3F5805F02D94FF0FF33BE
:100F9000A4E0554B3B610023FB827B7803F00F03F9
:100FA000DAB2FB8A591CF98219463B690B4462F09C
:100FB0007F02D2B21A70FB8A3A69134480221A70F7
:100FC0007B887D2B0FD8FB8A5A1CFA8219463A6916
:100FD0000A4411787A88D2B218463B6903440A431E
:100FE000D2B21A7021E0FB8A5A1CFA8219463A6979
:100FF0000A44127819463B690B4442F07E02D2B291
:101000001A707B881B0A9AB2FB8A591CF98219460E
:101010003B690B44D2B21A70FB8A5A1CFA821A46F8
:101020003B6913447A88D2B21A7007F10C0319464F
:101030002E482EF0EDFCFB68DBB23B72FB681B0A0E
:10104000DBB27B72FB681B0CDBB2BB72FB681B0E56
:10105000DBB2FB72FB8A5A1CFA821A463B691344C4
:101060003A7A1A70FB8A5A1CFA821A463B69134470
:101070007A7A1A70FB8A5A1CFA821A463B69134420
:10108000BA7A1A70FB8A5A1CFA821A463B691344D0
:10109000FA7A1A700023BB8216E0BB8A7A6813447E
:1010A0001978BB8A03F0030318333B4413F8102C60
:1010B000FB8A581CF88218463B6903444A40D2B266
:1010C0001A70BB8A0133BB82BA8A7B889A42E4D306
:1010D000FB8A19463869FFF7EDFE034618461837B4
:1010E000BD4680BDC8570124600400240067012468
:1010F00080B5ADF54C7D02AF834BC7F82433D7F8EC
:10110000243303F58E73C7F82033D7F8243303F163
:1011100080007E4B7E4A80217FF082FAD7F824330C
:10112000581C7C4B7A4A7F217FF07AFA07F52570AC
:10113000764B774A80217FF073FA07F525733A21C1
:1011400018467FF0FAFBC7F81C03D7F81C33002BB6
:1011500003D0D7F81C3300221A7007F525730093CB
:101160006C4B6D4A4FF4C051D7F820037FF058FA0A
:10117000D7F8243303F5805393F86839002B02D055
:10118000012B0FD01DE0D7F82003FFF709F9024625
:1011900041F2FF739B1A1A466049D7F820037FF08B
:1011A000D9FB12E0D7F82003FFF7FAF8024641F224
:1011B000FF739B1A1A465A49D7F820037FF0CAFBDF
:1011C00003E058487FF024FA00BFD7F824331B7897
:1011D000002B2ED1544B9B7A03F00103DBB2002B82
:1011E00027D0524B93F8F831002B22D04F4B93F875
:1011F0003832002B1DD03A1D4FF480734C494D48B6
:1012000020F0F8FC3B1D07F582704B4A4FF4A071AB
:101210007FF006FAD7F82003FFF7C2F8024641F242
:10122000FF739B1A07F582711A46D7F820037FF0E7
:1012300091FBD7F8243303F58073184620F07AFB2E
:10124000D7F8243303F5807307F511703B4A50211A
:101250007FF0E6F9D7F82003FFF7A2F8024641F243
:10126000FF739B1A07F511711A46D7F820037FF018
:1012700071FBD7F82003FFF793F80346A7F81A335A
:10128000B7F81A3319462E487FF05AF9D7F82013C9
:101290001F487FF055F92B4B1B78002B15D0B7F862
:1012A0001A331A46D7F8201327487AF031FCC7F8CA
:1012B0001403D7F81433002B1FDAD7F8141323487C
:1012C0007FF03EF96FF00C0318E0214B1868B7F877
:1012D0001A230123D7F8201340F0F8FA034687F8C1
:1012E000193397F91933002B02D097F9193305E018
:1012F000174B1B68184641F0D3F80023184607F532
:101300004A77BD4680BD00BF68D400245C0300243A
:1013100024530A08DC03002428530A0898530A08B7
:10132000D8530A0818540A089CCC00248050002482
:10133000B85200247852002434540A0850540A0841
:101340006C540A085E0400242860012490540A08A2
:10135000C857012480B582B000AF264B1B68002B14
:1013600042D0254B1B78DBB2002B3DD035F0CCFDB5
:101370007860224B1B687A68D31A42F20F7293424C
:1013800034D91F4B1B7883F00103DBB2002B03D051
:101390001C487FF03DF915E0194B00221A70174ADE
:1013A0007B681360092204211748FFF7D5FD034627
:1013B000002B03D015487FF02BF903E014487FF091
:1013C00027F914E00B4B1B6818463CF0E9F9094B70
:1013D00000221A600F4B00221A70074B00221A706D
:1013E0000D4B00221A7002E000BF00E000BF08377A
:1013F000BD4680BDC8570124580300247C44002406
:1014000000000024B0540A08D0540A08D8540A082E
:10141000FC540A0857030024BC17012480B582B08D
:1014200000AF78600B467B807B6803F58053B3F890
:1014300000387A889A4206D37B6803F580530022ED
:10144000A3F800281BE078687A687B88D1187B684D
:1014500003F58053B3F800381A467B88D31A1A462E
:101460007FF04AFA7B6803F58053B3F800287B8845
:10147000D31A9AB27B6803F58053A3F80028083783
:10148000BD4680BD80B584B000AF786039607B68B0
:1014900003F58053B3F80038012B01D80023D8E0BE
:1014A0000023FB81FB895A1CFA811A467B689B5CEE
:1014B000FB72FB895A1CFA811A467B689B5CBB72E3
:1014C000FB7ADB09DAB27B6803F5805383F80328E3
:1014D000FB7A03F00F03DAB27B6803F5805383F8DD
:1014E0000428BB7ADB09DAB27B6803F5805383F802
:1014F0000528BB7A03F07F037B720023BB817B7AD4
:101500007D2B02D87B7ABB8131E07B7A7E2B1DD18B
:101510007B6803F58053B3F80028FB8902339BB244
:101520009A4201D2002394E0FB897A68D35C1BB213
:101530001B021AB2FB8901337968CB5C1BB21343DF
:101540001BB2BB81FB890233FB8110E043487FF073
:101550005FF87B6803F580530022A3F800287B68BE
:1015600003F58053002283F80228002371E0BB8931
:10157000B3F5C05F12D3BB89194639487EF0E0FF4E
:101580007B6803F580530022A3F800287B6803F5ED
:101590008053002283F8022800235AE07B6803F579
:1015A000805393F80538002B37D07B6803F58053C0
:1015B000B3F80028FB8904339BB29A4201D200237E
:1015C00047E07A6841F60A031344FA8979680A44C5
:1015D00012681A607B6803F5805393F80A381A067C
:1015E0007B6803F5805393F80B381B041A437B6820
:1015F00003F5805393F80C381B0213437A6802F505
:10160000805292F80D2813433A6802F58052C2F8CE
:101610002039FB890433FB8106E03B6803F58053E6
:101620001A460023C2F820397B6803F580531A4616
:10163000BB89A2F806387B6803F580531A46FB89FC
:10164000A2F808387B6803F58053012283F802284A
:10165000012318461037BD4680BD00BF0C550A084F
:1016600034550A0880B586B000AFB9607A603B6037
:101670000346FB737B6803F58053B3F800381A46C2
:101680003B8C1344B3F5C05F0FD994487EF0C0FF84
:101690007B6803F580530022A3F800287B6803F5DC
:1016A0008053002283F8022814E17B6803F58053FD
:1016B000B3F800381A467B6813443A8C39681846E8
:1016C00080F0B7F87B6803F58053B3F800283B8CB3
:1016D00013449AB27B6803F58053A3F800287B6813
:1016E00003F5805393F8023883F00103DBB2002B3B
:1016F0000AD0B9687868FFF7C5FE034683F0010396
:10170000DBB2002B40F0E1807B6803F58053B3F837
:1017100008287B6803F58053B3F806381344BB826E
:101720007B6803F58053B3F80038BA8A9A4200F216
:10173000CE807B6803F5805393F80428BB6803F5DB
:10174000805383F81C297B6803F5805393F8053890
:10175000002B01D0802200E00022BB6803F58053FB
:1017600083F81D297B6803F58053B3F80628BB680E
:1017700003F58053A3F81E297B6803F58053B3F863
:1017800008381A467B6813443B617B6803F5805335
:1017900093F80538002B23D00023FB8217E0FB8A47
:1017A0003A6913441978FB8A03F003037A681A44F0
:1017B00041F60A0313441A78FB8A4A40D1B2BA6848
:1017C00013440A4683F81C21FB8A0133FB827B68A1
:1017D00003F58053B3F80638FA8A9A42DFD30BE058
:1017E000BB6803F58E707B6803F58053B3F8063849
:1017F0001A46396980F01DF87B6803F58053B3F809
:101800000638B3F5C05F0AD27B6803F58053B3F89E
:1018100006381A46BB681344002283F81C21BB68B3
:1018200003F5805393F81C39013B092B30D801A2F2
:1018300052F823F05D180208911802089118020866
:1018400091180208911802089118020891180208CC
:10185000811802086518020873180208B86815F0A4
:10186000BDFA1FE01E487EF0D3FEB86820F092FE5D
:1018700018E01C487EF0CCFE1B4B01221A7011E0D0
:101880001A487EF0C5FEFB7B184610F0E5FA09E029
:10189000BB6803F5805393F81C39194614487EF051
:1018A0004FFE00BFBB8A19467868FFF7B7FD7B681B
:1018B00003F58053002283F802287B6803F58053E8
:1018C000B3F80038002B04D009E700BF02E000BFE6
:1018D00000E000BF1837BD4680BD00BF60550A0854
:1018E00080550A0894550A0800000024A8550A08E3
:1018F000C4550A0880B584B002AF78600B467B807F
:101900007B8800937B68044A04490020FFF7AAFE05
:1019100000BF0837BD4680BD6014002468D4002491
:1019200080B58AB002AFF860B9607A60FB707B68FE
:10193000002B0DD13A487EF06BFE3A4B00221A6024
:10194000394B00221A70394B00221A70002363E0D1
:1019500097F90330002B05D078683BF00BF897F926
:10196000033059E07B681B891946B8683CF000F9E0
:101970000023FB837B68BB611DE0BB695B89FB8245
:10198000FA8BFB8A1344B3F5006F04D3FB8BC3F5CA
:10199000FF630733FB82FB8B254A9818BB695B68A2
:1019A000FA8A19467FF045FFFA8BFB8A1344FB83C2
:1019B000BB691B68BB61BB69002B04D0FB8B40F289
:1019C000FE729342D9D9FB8B194A0021D154786811
:1019D0003AF0D0FF154B1B78DBB2002B11D1154923
:1019E00013487EF0EFFF0346002B02D0FFF7DCF830
:1019F00005E0FB8B0E4A19460F487EF0A1FD00233F
:101A00000AE0FB8B00930A4B0C4A0D490020FFF7BC
:101A100029FEFFF79FFC002318462037BD4680BDF6
:101A2000E0550A08C857012457030024580300242E
:101A30009C440024FC550A080C560A086014002433
:101A400068D4002480B586B000AFF860B9607A60D1
:101A5000FB70FB687B617B68002B10D12E487EF009
:101A6000D7FD2E4B00221A702D4B00221A602D4BF1
:101A700000221A702C4B00221A70002348E097F9BC
:101A80000330002B05D078683AF074FF97F90330E3
:101A90003EE07B681B891946B8683CF069F87B69B1
:101AA00003F580439B88C3F580437B827B681B8959
:101AB0007A8A9A420FD27B681B8919461B487EF0AE
:101AC0003FFD7B6903F5804300229A8078683AF0F5
:101AD00051FF00231CE07B6904337A6902F58042E0
:101AE000928899187B681A89002378683BF03CF942
:101AF0007B6903F580439A887B681B8913449AB2FB
:101B00007B6903F580439A8078683AF033FF0023BD
:101B100018461837BD4680BD30560A08BC17012448
:101B2000C857012457030024580300244C560A08C0
:101B300080B586B000AFF860B9607A60324B0022A1
:101B40001A70BB68002B04D1304931487EF0F8FC94
:101B500057E0B86845F0A0FE03461A462B492D48C9
:101B60007EF0EEFC3CF0D6FF03462B4A13602A4B76
:101B70001B68002B03D129487EF04AFD41E0264B2B
:101B80001B680022264918463BF000FF0346002B45
:101B90000BD024487EF03CFD1F4B1B6818463BF0E1
:101BA000FFFD1D4B00221A602BE01B4B1B681E49DA
:101BB00018463CF0EBFFB86845F06EFE03461B4A42
:101BC000128819461A487EF0BBFC134B1868174B55
:101BD0001A88184BB9683CF061F80346FB7597F911
:101BE0001730002B0DD097F91730194612487EF0A8
:101BF000A7FC094B1B6818463BF0D2FD064B0022A0
:101C00001A601837BD4680BD560300245C030024CB
:101C100078560A0898560A08C8570124A8560A0890
:101C200024ED0B08C0560A08B96404085C040024BB
:101C3000D4560A08C9630408F0560A0880B588B06B
:101C400004AF444B0393444B029380230193434BD3
:101C50000093434B802243494348FEF7F1FF03467C
:101C6000002B04DA404941487EF06AFC6EE03A4BB2
:101C70001B78002B0DD03E4B1B78002B09D124F094
:101C8000F1F93B4B1B78042B03D13A487EF0C0FCA2
:101C90005CE041F60E02002137487EF046FE374BED
:101CA00001221A702C4B1B78002B01D0344900E024
:101CB00034492B4B1B881A46284B00931346294A5C
:101CC00031487EF03DFCFA23FB730023BB601AE031
:101CD000391D00232D4A234839F0F6F90346FB73DA
:101CE00097F90F30002B11D097F90F3013F1050F32
:101CF0000CD0BB6801330322194625487EF020FC36
:101D0000BB680133BB60BB68022BE1DD97F90F3084
:101D1000002B09D11F4B00221A703B1D00221946CF
:101D20001048FFF705FF11E097F90F3013F1050F89
:101D300006D1184B01221A7017487EF069FC05E0A5
:101D400097F90F30194615487EF0FAFB1037BD465B
:101D500080BD00BFC85000245E040024DC030024C2
:101D60005C0400245C030024F85000240C570A088B
:101D7000BC17012428570A0860140024000000241E
:101D800050570A0854570A0858570A08311B0208C6
:101D900074570A085603002488570A089C570A08F3
:101DA00080B59CB000AF3B466422002118467EF00F
:101DB000BCFD0023FB660023BB66444826F024FBE1
:101DC0007866434B1B78002B1ED07B6E012B1BDCEF
:101DD00040487EF01DFC404827F0D2FC3F4843F0CD
:101DE00039FA3E4B00225A603C4B00229A603B4B32
:101DF0000022DA6039483AF09FF938483AF006FA9A
:101E0000334B00221A705EE0314B1B78002B5AD105
:101E10007B6E012B57DD7B6E023B032B52D801A258
:101E200052F823F0351E0208431E02084F1E020816
:101E30005B1E02084FF48043FB664FF40053BB6601
:101E400010E04FF48043FB660023BB660AE00023EA
:101E5000FB664FF40053BB6604E00023FB660023DF
:101E6000BB6600BFFB6EB3F5804F01D11C4900E09B
:101E70001C49BB6EB3F5005F01D11B4B00E01B4B4F
:101E80001A461B487EF05CFB3B461946124828F078
:101E900095F8FB6E7B61BB6EBB613B4619460E48F5
:101EA00028F060FA0C4827F0F7FB0C483AF0D8F815
:101EB0000A483AF073F9094842F072FC044B0122D7
:101EC0001A7000E000BF7037BD4680BD94720124D7
:101ED00055030024B0570A08AC7101246071012435
:101EE000C4570A08CC570A08D0570A08D8570A0816
:101EF000E0570A0880B500AFFEF770FE0B4B1B6879
:101F0000002B07D0094B1B6818463BF049FC074BD8
:101F100000221A60064B06221A7026F083FB034645
:101F200003F5FA63034A136000BF80BDC85701245C
:101F3000540300248044002490B583B000AFAA4825
:101F400034F07AFF41F028FBA74B93F831309B081F
:101F5000DBB203F00103FB71FB79002B24D1A34B0F
:101F60001B78002B00F0B681A1487EF051FBA14BFD
:101F700000221A709C4843F06DF9FEF72FFE9E4B2D
:101F80001B68002B07D09C4B1B6818463BF008FCD5
:101F9000994B00221A60954B00221A7026F042FBE2
:101FA0000346964A136095E1904B1B78062B00F28E
:101FB000888101A252F823F0D51F0208F91F0208F8
:101FC0007B200208B32002082321020865220208B0
:101FD000892202088A487EF01BFB834842F0E0FB1E
:101FE000844B00221A70814B01221A7026F01AFBD2
:101FF0000346824A13607CE17B4843F0F7FE0346C8
:10200000002B12D07F4845F047FC04467E4845F03F
:1020100043FC03461A4621467C487EF091FA7C48F0
:102020007EF0F6FA00F09AFAFCE726F0FBFA024698
:10203000784B1B68D31AB3F57A7F07D926F0F2FAEA
:102040000346744A136074487EF0E2FA26F0EAFA16
:1020500002466A4B1B68D31A47F22F52934240F252
:102060003B816E487EF0D4FA5F4843F0F3F8614B51
:1020700000221A70FFF73EFF2EE1694B1B78DBB29E
:10208000002B40F02B81664B01221A701FF012FECC
:10209000FFF7D4FD634B1B78002B01D0032200E037
:1020A0000422524B1A7026F0BDFA0346534A1360BD
:1020B00014E124F0C9F85C4B1B78022B16D15B4865
:1020C0007EF0A6FAFFF714F80346002B05D0584817
:1020D0007EF09EFAFFF70EFF0BE1444B04221A70CC
:1020E00026F0A0FA0346454A136002E14E4B1B78E6
:1020F000042B05D14F487EF08BFAFFF7FBFEF8E08A
:1021000026F090FA02463D4B1B68D31A43F69722FD
:10211000934240F2E58048487EF07AFAFFF7EAFE03
:10212000DEE0404B1B78002B01D024F0CFF8434B6E
:102130001B78DBB2002B0ED041487EF069FA2B4BA6
:1021400005221A703F4B01221A7026F06BFA0346E3
:102150002A4A1360CDE03C4B1B78DBB2002B10D039
:1021600026F060FA0246254B1B68D31A43F69722E5
:10217000934240F2B78035487EF04AFAFFF7BAFE44
:10218000B0E01D4B1B68002B0AD1314B1B78DBB232
:10219000002B05D12F487EF03BFAFFF7ABFEA8E0FD
:1021A00026F040FA0246154B1B68D31A43F69722D5
:1021B000934205D928487EF02BFAFFF79BFE93E067
:1021C00026F030FA0246254B1B68D31AB3F5FA6F96
:1021D00040F28A8026F026FA0346204A13602048FF
:1021E0007EF016FA80E000BF6071012454030024E1
:1021F000FC570A0823600124C85701249C4C002482
:102200000C580A08647101246C7101242C580A08C6
:1022100048580A08A04C002464580A0878580A084C
:10222000590300245E040024BC17012488580A08BE
:10223000AC580A08C0580A08CC580A0858030024A9
:10224000E4580A084CB4002456030024F0580A0845
:102250005703002400590A0818590A08A44C0024FE
:1022600030590A08244B1B78002B01D024F02EF89B
:10227000FFF770F8214B1B68002B37D120487EF008
:10228000C7F9FFF737FE31E026F0CCF902461D4BC7
:102290001B68D31A002B2BDB1B487EF0B9F91B48B7
:1022A00042F0D8FF194842F07BFA194B00221A700D
:1022B000184B01221A7026F0B5F90346164A13602E
:1022C00016E0144B00221A7026F0ACF90346124AAD
:1022D00013600EE000BF0CE000BF0AE000BF08E0A2
:1022E00000BF06E000BF04E000BF02E000BF00E066
:1022F00000BF0C37BD4690BD5E040024C8570124C2
:1023000050590A088044002468590A086071012461
:1023100023600124540300249C4C002480B5A8B001
:1023200002AFF860B9601346FB7197F90730002BD4
:102330000BD097F90730194636487EF001F9364B35
:1023400000221A6097F907305FE0344B01221A60CF
:1023500033487EF05DF9304ABB6813603149B86894
:102360003CF014FC3049B8683CF0DCFB2F49B868FD
:102370003CF0EAFB2E4878F048FEC7F89400D7F806
:102380009430002B10D007F1140380221946D7F89F
:1023900094005BF083F907F11403194625487EF099
:1023A000CFF86FF00C0330E0234B1B681946204830
:1023B00078F0E6FEC7F89400D7F89430002B10D0E0
:1023C00007F1140380221946D7F894005BF066F9F0
:1023D00007F11403194619487EF0B2F86FF00C03A8
:1023E00013E0114ABB6813600F4B03F580430022D2
:1023F0009A8000230093124B124A0B490C4878F044
:1024000065FE11487EF004F9002318469837BD4652
:1024100080BD00BFAC590A08C85701249444002469
:10242000C8590A08B9640408C0170124451A0208EB
:1024300028600124D8590A0808000024F8590A081D
:10244000DD5F0408755F0408185A0A0890B587B064
:1024500000AFF860B9607A60BB68002B06D1334BDF
:102460001B68194632487EF06BF85CE02F4B1C6805
:10247000B86845F011FA03461A4621462D487EF009
:102480005FF82D4B01221A603CF044FB03462B4AB7
:1024900013602A4B1B68002B03D129487EF0B8F843
:1024A00041E0264B1B680022264918463BF06EFA95
:1024B0000346002B0BD024487EF0AAF81F4B1B6864
:1024C00018463BF06DF91D4B00221A602BE01B4BA8
:1024D0001B681E4918463CF059FBB86845F0DCF90A
:1024E000034640F2BB12194619487EF029F8134BF7
:1024F0001868184B40F2BB12B9683BF0CFFB03469B
:10250000FB7597F91730002B0DD097F91730194646
:1025100011487EF015F8094B1B6818463BF040F94E
:10252000064B00221A601C37BD4690BD08000024EF
:1025300078560A0898560A0898440024C857012477
:10254000A8560A0824ED0B08C0560A08B964040806
:10255000D4560A081D230208F0560A082DE9B04F88
:10256000ADF52F6D00AF002387F8EF3A23F07AFD29
:1025700007F6B4019F4BA04A9E4838F0A5FD0346DC
:1025800087F8CF3A97F9CF3A002B0BD097F9CF3A8B
:1025900013F1050F03D199487EF03AF802E098480C
:1025A0007EF036F8974834F047FC40F0F5FF964847
:1025B0007EF02EF8954B1B68002BF3D0914834F039
:1025C0003BFC40F0E9FF924B1B68002B00D1F5E784
:1025D00000BF90487EF01CF88A4834F02DFC40F093
:1025E000DBFF8D4878F01EFFC7F8C80AD7F8C83A55
:1025F00013F5D24FF0D0D7F8C83A13F5D14FEBD03E
:10260000D7F8C83A002B19D007F1180380221946D1
:10261000D7F8C80A5BF042F8D7F8C83A5B4207F12E
:10262000180219467D487DF08BFF7D4B1B681846CC
:102630003BF0B6F87A4B00221A60DAE279487DF076
:10264000E7FF794BC7F8C43AD7F8C40AFDF7A8FEEC
:1026500003461A46D7F8C41A6F4879F059FAC7F8F2
:10266000C80AD7F8C83A002B08DDD7F8C81A6F484F
:102670007DF066FF6E4B01221A6010E0D7F8C83A71
:1026800013F5D14F0BD0D7F8C83A13F5D24F06D077
:10269000D7F8C83A5B42194666487DF051FF664B51
:1026A00000221A60654B00221A60654B4FF0FF3222
:1026B0001A60644B00221A60634B00221A604FF4C8
:1026C0008072FF2161487EF030F961487DF0A0FF03
:1026D0000023C7F8E83A4B4834F0AEFB40F05CFF0B
:1026E00007F50B63012219464B4878F0C5FFC7F880
:1026F000C80A444834F0A0FB40F04EFFD7F8C83A6F
:10270000002B3BDDD7F8E83A002B0AD107F52F6301
:10271000A3F510731B780D2B03D10123C7F8E83AFA
:102720004BE0D7F8E83A012B0AD107F52F63A3F560
:1027300010731B780A2B03D10223C7F8E83A3CE058
:10274000D7F8E83A022B0AD107F52F63A3F51073E7
:102750001B780D2B03D10323C7F8E83A2DE0D7F8F7
:10276000E83A032B06D107F52F63A3F510731B7806
:102770000A2B23D00023C7F8E83AB1E7D7F8C83AC4
:10278000002B03D133487DF043FFA9E7D7F8C83ABF
:1027900013F5D24F10D0D7F8C83A13F5F14F03D143
:1027A0002D487DF035FF9BE7D7F8C83A5B421946C4
:1027B0002A487DF0C5FE01E000BF91E70EF07EFAE9
:1027C00027487DF025FF0023C7F8E43A0023C7F827
:1027D000E03A0023C7F8DC3A0023C7F8D83A0023D0
:1027E00087F8D73A1F4B1B68002B3DD01D4B1B6849
:1027F0003BE000BF90590A084D240208445A0A08D9
:10280000545A0A08607101245C5A0A08984400244A
:1028100094440024605A0A0828600124845A0A0853
:10282000C8570124AC5A0A08C85A0A08605B0A084B
:10283000A84C0024805B0A08884400248C440024AF
:102840000400002490440024846A00247C6800244E
:102850009C5B0A08C45B0A08E05B0A08F85B0A088C
:10286000145C0A08886A0024C04BC7F8C03A07F510
:1028700096634FF480621946BD4878F0FDFEC7F8B4
:10288000C80AD7F8C83A002B40F34B81D7F8C81ACA
:10289000B8487DF055FED7F8E02AD7F8C83A134477
:1028A000C7F8E03AD7F8DC3A0133C7F8DC3AB24B64
:1028B0001B78002B06D0D7F8C82AD7F8DC1AAF4807
:1028C0007DF03EFED7F8E03ADA1798469146424648
:1028D0004B46911839605B417B60D7E9002312EBCE
:1028E000080443EB09054FF000024FF000036B01B1
:1028F00043EAD463620114EB020A45EB030B1AEBC3
:1029000008033B614BEB09037B61D7F8C03A002217
:10291000BB60FA60D7E90223D7E90401FDF754FF51
:1029200002460B46D3B2C7F8BC3A97F8D73AD7F865
:10293000BC2A9A4218DDD7F8BC3A642B0DDC07F1AB
:102940009C03D7F8BC2A8E4918467DF09FFED7F825
:10295000BC1A8C487DF0F4FD02E08B487DF0F0FD60
:10296000D7F8BC3A87F8D73A0023C7F8D03ACBE07B
:1029700007F52F63A3F5C862D7F8D03A13441B7844
:1029800087F8BB3AD7F8E43A40F2FE32934211D8C6
:10299000D7F8E41A4B1CC7F8E43A07F52F63A3F500
:1029A000246297F8BB3A535497F8BB3A0A2B40F08D
:1029B000A6800AE0D7F8D02AD7F8DC1A73487DF051
:1029C000BFFD012387F8EF3AA5E007F52F63A3F5D4
:1029D0002462D7F8E43A1A4400231370D7F8E43A93
:1029E000012B17DDD7F8E43A5A1E07F52F63A3F53C
:1029F00024639B5C0D2B0DD1D7F8E43A591E07F5E3
:102A00002F63A3F5246200235354D7F8E43A013B23
:102A1000C7F8E43AD7F8E43A012B03DC0023C7F8FF
:102A2000E43A6CE0544B1B78002B16D007F1B0034E
:102A3000D7F8E42A194656487DF082FD0DE0D7F814
:102A4000E43A013BC7F8E43A07F52F63A3F52462A3
:102A5000D7F8E43A1A4400231370D7F8E43A002B6D
:102A60000FDDD7F8E43A5A1E07F52F63A3F5246368
:102A70009B5C0133474A13441B7803F00803002B87
:102A8000DDD107F1B003184600F026F9034687F8B8
:102A9000BA3AD7F8D83A0133C7F8D83A0023C7F87A
:102AA000E43A97F8BA3A002B06D13B487DF0B0FDE6
:102AB000012387F8EF3A2EE097F8BA3A022B1ED19D
:102AC00036487DF0A5FD07F52F63A3F658230022B5
:102AD0001A6007F198030422002118460DF09DFBAF
:102AE00007F52F63A3F658231B6819462C487DF081
:102AF00027FD2C487DF024FD00F0EEFA0BE0D7F81E
:102B0000D03A0133C7F8D03AD7F8D02AD7F8C83A24
:102B10009A42FFF62DAF97F8EF3A002B3FF4A7AE9D
:102B20004AE0D7F8C83A002B03D11F487DF070FD6A
:102B300042E0D7F8C83A13F5D24F05D11B4834F01C
:102B40007BF940F029FD10E0D7F8C83A13F5F14FB2
:102B500003D117487DF05CFD2EE0D7F8C83A5B4200
:102B6000194614487DF0ECFC26E080E66666160007
:102B7000286001243C5C0A0884440024505C0A0854
:102B8000745C0A08885C0A08A45C0A08C45C0A0829
:102B9000F45C0A08B7420C08185D0A084C5D0A0884
:102BA000645D0A08885D0A08C45B0A086071012434
:102BB000E05B0A08F85B0A08D7F8D82AD7F8E01AC9
:102BC0000E487DF0BDFC0E4878F0D4FF0C4879F03B
:102BD00030F90C4879F0C2FB0B4851F0D3F80B48A0
:102BE0005AF04AFB97F8EF3A002B02D008487DF0E4
:102BF0000FFD07F52F67BD46BDE8B08FB05D0A0831
:102C00002860012440610124446301248864012474
:102C1000E85D0A0880B588B000AFF860B9607A60F6
:102C2000BA687B681344B3F5001F4CD900234EE00B
:102C3000BB68DBB27B617B69C3F580733B613A693A
:102C40007B68934228BF1346FB61FB69B3F5807F25
:102C500002D94FF48073FB610DF007FA0346002B95
:102C600001D1002333E00DF06BF9BB6843F0007332
:102C7000202118460DF088F90023BB610AE0FA68AC
:102C8000BB6913441B78082118460DF07DF9BB6918
:102C90000133BB61BA69FB699A42F0D30DF062F966
:102CA0000DF0F9F90346002B01D100230FE0BA68BB
:102CB000FB691344BB60FA68FB691344FB607A68E4
:102CC000FB69D31A7B607B68002BB1D101231846C6
:102CD0002037BD4680BD000080B58EB000AF786063
:102CE00002E07B6801337B607B681B78002B09D096
:102CF0007B681B7801339C4A13441B7803F008035C
:102D0000002BEED17868FDF74BFB786307E07B6B17
:102D1000013B7B637A687B6B134400221A707B6BE8
:102D2000002B0CD07B6B013B7A6813441B7801337A
:102D30008D4A13441B7803F00803002BE7D17B6B0B
:102D4000002B01D1012394E17B681B783A2B05D03D
:102D5000796886487DF0F4FB00238AE17B680133C3
:102D60003B6200233B6300233B610023FB6007F1D0
:102D700018031A467E49386A7DF0AAFC0346012BE7
:102D800001D0002375E1BB695B00BB61BB690A33FD
:102D9000BB610023FB6214E03A6AFB6A134407F14B
:102DA0001402734918467DF093FC0346012B01D0B1
:102DB00000235EE17B693A6B13443B63FB6A023399
:102DC000FB62BB69FA6A9A42E6D33B6BDBB23B63B8
:102DD0003B6B002B04D067487DF01AFC002348E1D0
:102DE0003B6A981C07F10C0307F1100262497DF061
:102DF0006FFCFB68002B40F093803B699BB2DBB219
:102E00009BB204339AB25D4B1A800823BB6279E00F
:102E10003A6ABB6A134407F11402554918467DF01B
:102E200057FC7969554B1B885A1C90B2534A108045
:102E30001A46C9B2524B9954504B1B88FF2B5ED98E
:102E4000002387F82730002387F826302CE04D4BED
:102E50001B684FF48072194649480DF0ADF9012006
:102E600025F0ECFB474B1B684FF48072194646482F
:102E70000DF0D3F94FF48072414943487DF02CFDA9
:102E80000346002B03D1012387F826300CE097F886
:102E90002730013387F827303A4B1B6897F82720F3
:102EA00019463A487DF04CFB97F82730632B06D83B
:102EB00097F8263083F00103DBB2002BC7D197F8D7
:102EC000263083F00103DBB2002B09D097F82730BE
:102ED0002C4A126819462E487DF032FB0023C8E0C8
:102EE000284B1B6803F58073264A13604FF48072E9
:102EF000FF2123487DF019FD204B00221A80BB6A78
:102F00000233BB62BB69023BBA6A9A4280D3214B4F
:102F10001B78002B02D020487DF07AFB0123A8E02B
:102F2000FB68012B7DD1174B1B684FF4807219464B
:102F300013480DF041F9134B1B684FF4807219468A
:102F400011480DF06AF94FF480720D490E487DF07A
:102F5000C3FC0346002B23D00A4B1B6819460F48BD
:102F60007DF0EEFA002384E0B7420C08185E0A08F0
:102F7000345E0A083C5E0A08545E0A08AC4C002421
:102F80007C680024846A002480690024605E0A084A
:102F9000845E0A0884440024B45E0A08C85E0A08F5
:102FA000364B1B881A46364B1B68D118334B1B888F
:102FB0001A46334B1B6813441A4632487DF0C0FA58
:102FC0002F4B1B6803F580732D4A136004220021E8
:102FD0002B48FFF71FFE0346002B04D12A487DF043
:102FE00017FB002345E00422002128480DF015F9C5
:102FF000264B1B68FB61224B1B68FA699A4208D07A
:103000001F4B1B68FA69194621487DF099FA002385
:103010002FE01B4B1B6819461E487DF091FA0223D6
:1030200027E0FB68042B16D13B6A083307F1100236
:10303000194918467DF04CFB3B6940F60202934269
:1030400004D10DF03BFE15487DF0E2FA14487DF006
:10305000DFFA01230DE0FB68052B04D111487DF058
:10306000D7FA012305E0FB6819460F487DF068FA9E
:10307000012318463837BD4680BD00BFAC4C002444
:10308000846A0024E85E0A08105F0A088069002448
:10309000305F0A08585F0A08905F0A08145C0A0843
:1030A000985F0A08B45F0A08DC5F0A0880B400AFC2
:1030B000BFF34F8F00BF064BDB6803F4E0620449A7
:1030C000044B1343CB60BFF34F8F00BF00BFFDE73E
:1030D00000ED00E00400FA0580B500AFFFF7E6FF61
:1030E00080B500AF384B1B889BB201339AB2364B88
:1030F0001A80364B1B889BB201339AB2334B1A802D
:10310000334B1B8801339AB2314B1A80314B1B88E9
:10311000002B05D02F4B1B8801339AB22D4B1A8000
:10312000294B1B889BB2B3F57A7F3FD3264B0022F5
:103130001A80294B1B78002B05D0274B1B78013BAD
:10314000DAB2254B1A70254B5B899BB2002B06D057
:10315000224B5B899BB2013B9AB2204B5A811F4B99
:103160009B899BB2002B06D01C4B9B899BB2013BD9
:103170009AB21A4B9A81194B5B69002B04D0174BFA
:103180005B690133154A5361144B9B69002B04D0D2
:10319000124B9B690133114A9361114B1B68002B41
:1031A00004D00F4B1B6801330D4A1360074B1B887B
:1031B0009BB2B3F5FA7F02D1044B00221A8010F0C3
:1031C00035FD00BF80BD00BF9E4E00249C4E0024F4
:1031D0001AD10024DC6A0024A04E0024784E00247A
:1031E000104F002480B400AF2D4B9B8B3C2B02D89A
:1031F0002B4B3C229A832A4B9A8B2A4BDA80284B02
:103200009A8B294BDA80264B9B7D012B03D1274BD0
:1032100001229A7102E0254B08229A71234BFF226A
:103220001A70234B01229A71214BFF221A701F4BF7
:10323000FF225A701E4BFF225A701C4B01229A70BB
:103240001A4B0122DA70194B00229A81194B002285
:103250009A81194B00229A81164B00225A72164B02
:1032600000225A72154B164A1A60144B154A5A60BE
:10327000154BFF22DA71144BFF221A72124BFF22F8
:103280005A72124B00221A72114BDB7A012B02D8B0
:103290000F4B0222DA7200BFBD465DF8047B704717
:1032A0008050002424AD00242CAD0024B04C002418
:1032B000FC4C0024484D0024E04D002450680024BC
:1032C000222222111111112290CC002418CD0024A9
:1032D0009CCC002480B500AF00F070F800F06CFBCF
:1032E00000F002F800BF80BD80B59AB000AF07F1D2
:1032F0001C03002219462D482CF000FD07F1300375
:103300000022194629482CF0DDFD3B7FFB637B7FC3
:10331000BB63BB7F7B6397F832303B6497F83130F7
:103320007B6497F83330BB64BB6C6433BB647B6CE9
:10333000013B7B6407F1340318467DF047FD0246EC
:103340000B46C7E9162307F1580318467DF050FBDA
:1033500078663B4600221A605A609A60DA601A6109
:103360005A611A763B467A6E114918467DF08EF9FD
:1033700001F064FED7E916231046194601F008FF54
:1033800001F054FE0B4B1B78002B08D00A4B5B7EE0
:10339000022B04D1084B01225A760DF015FB02F0E6
:1033A0000DF9002318466837BD4680BD1467012417
:1033B00014600A081ED100248050002480B500AF9C
:1033C0008B4BDB6A03F00103002B6DD0894B9B789C
:1033D000DBB2002B68D1884B9B78092B0AD9844B30
:1033E000DB6A23F00103824AD36284487DF010F93E
:1033F0000023D2E2804B5A787D4B1A727E4B9A782A
:103400007B4B9A717C4B1B69794A13617A4B5B69E0
:10341000774A5361784B93ED0E7BF7EEC77B744B85
:10342000C3ED097A744BDB69714AD361724B1B6A35
:103430006F4A1362704B9B696D4A93616E4BDB78E8
:10344000002B03D06C4BDA78694B5A726A4B5A786E
:103450006B4B1A72684B9A78694B9A71664B1B6971
:10346000674A1361644B5B69654A5361624B93ED34
:103470000E7BF7EEC77B624BC3ED097A5E4BDB69CF
:103480005F4AD3615C4B1B6A5D4A13625A4B9B696E
:103490005B4A9361584BDA78594B5A72544BDB6A4A
:1034A00023F00103524AD362514BD3ED097AF5EE72
:1034B000407AF1EE10FA1BD04D4B9B79032B07D0CD
:1034C0004B4B9B79042B03D0494B9B79062B0FD197
:1034D0004C4B93ED0C7A464BD3ED097A77EE277A75
:1034E000494BC3ED0C7A484B1B6B484A13601AE0FA
:1034F0003F4B9B79032B16D0434B93ED0C7A414BFA
:10350000D3ED0C7AB4EE677AF1EE10FA0BD03E4BA5
:103510001B6B3C4A13630CF039F80BF049FF394B35
:103520001B6B3A4A1360324BDB6A03F00203002B39
:1035300000F094802E4B9B79032B12D12C4BDB6A2D
:1035400023F002032A4AD362314B9B6843F0010304
:103550002F4A93602F4B00221A702F4B01221A70B2
:10356000A2E02E4B5B899BB2012B22D8204B9B798A
:10357000012B40F09980002104201CF033FF03460A
:10358000002B00F091801A4BDB6A23F00203184AEB
:10359000D36204201CF002FF21487DF039F8214855
:1035A0001DF0A8FF1B4B00221A701B4B01221A7042
:1035B0007AE00F4B9B79022B36D102201CF0EEFEF5
:1035C000144B1B78002B02D0124B00221A70134BA5
:1035D0005B899BB2002B02D0104B00225A810E4B0C
:1035E0001B78002B60D10C4B01221A705CE000BFED
:1035F000484D002424AD002418CD002418600A088A
:10360000944D00249CCC0024D8CC0024C8CE0024A7
:1036100034AD0024984E00244D000024784E002440
:1036200060600A089C600A08A14B1B781A46A14BEF
:103630005B899BB29A4237D09F4B9B79012B33D148
:103640009C4B5B899BB2DAB2994B1A70994B5B89A0
:103650009BB2194699487CF073FF25E0964BDB6AD4
:1036600003F00403002B1FD0934B9B79032B07D04F
:10367000914B9B79042B03D08F4B9B79052B03D166
:1036800004201CF08BFE0FE08D4B5B68002B05D0F7
:103690008B4B9B6843F00203894A9360864BDB6A3D
:1036A00023F00403844AD362864B93F8403003F03E
:1036B0000103002B40F07081834B1B78032B40F0FB
:1036C0006B817D4B93F83030002B00F024817A4BD6
:1036D0009B79032B29D17D497D487DF073F9034601
:1036E000002B12D07B487CF093FF182200217748F2
:1036F0007DF01BF9704BDB6A43F004036E4AD36222
:103700006F4B03221A70002347E173487CF080FF5F
:1037100072481DF0EFFE182200216C487DF005F97B
:10372000032012F035FD002337E16D4B9B7D012B0B
:1037300040F0E6806A4BDB7D012B40F0E180684B76
:103740001B7B012B26D1614811F0FEFF0346002BA5
:1037500020D05E4A63495E487CF098FF564BDB6A96
:1037600043F00203544AD3621822002157487DF0E7
:10377000DCF85D4B01221A70594B5B8C01339AB215
:103780004C4B5A81022012F003FD58487CF040FF58
:10379000012302E1524B5B79012B26D14B4812F0F9
:1037A00019F80346002B20D0484A4E4948487CF07F
:1037B0006DFF414BDB6A43F002033F4AD36218229C
:1037C000002142487DF0B1F8454B5B8C01339AB241
:1037D000384B5A81444B01221A70022012F0D8FC57
:1037E00043487CF015FF0123D7E03D4BDB79012BEB
:1037F00026D1364811F0A8FF0346002B20D0334ACB
:10380000384933487CF042FF2B4BDB6A43F002031C
:10381000294AD362182200212C487DF086F8324BC9
:1038200001221A702E4B5B8C01339AB2214B5A81C4
:10383000022012F0ADFC2D487CF0EAFE0123ACE042
:10384000274B1B79012B27D1204A264920487CF0A1
:103850001DFF194BDB6A43F00203174AD36218229B
:1038600000211A487DF061F81D4B5B8C01339AB240
:10387000104B5A811C4B01221A70022012F088FC56
:103880001C487CF0C5FE0B4B5B899BB219461A485D
:103890007CF056FE012380E0032012F079FC182210
:1038A00000210A487DF041F814487CF0B1FE32E076
:1038B0009A4E0024784E0024484D0024B4600A0833
:1038C00034AD0024906A002480000024784D002448
:1038D00040AD0024E8600A0818610A084C610A0833
:1038E0008050002414600A08984E002464610A087D
:1038F0009C610A08D4610A0810620A083C620A083E
:10390000032012F045FC1822002125487DF00DF817
:1039100024487CF07DFE244B5B7E012B26D1234B7B
:103920009B79022B0FD1224B1B78002B0BD11F4B05
:10393000DB6A43F002031D4AD3621B4B5B8C0133ED
:103940009AB21C4B5A81194B9B79062B06D1174B07
:10395000DB6A43F00403154AD3621DE0134B9B79E5
:10396000012B19D1124B00221A7015E00E4B5B7E11
:10397000002B11D00D4B9B79062B06D10B4BDB6A2C
:1039800043F00403094AD36206E0084B9B79012BFC
:1039900002D1074B00221A700023184680BD00BFD9
:1039A000784D00246C620A0880500024484D0024A1
:1039B0004D000024784E002480B500AF8F4BDB6AA9
:1039C00003F00103002B6DD08D4B9B78DBB2002BF5
:1039D00068D18C4B9B78092B0AD9884BDB6A23F082
:1039E0000103864AD36288487CF012FE0023DAE2A3
:1039F000844B5A78814B1A72824B9A787F4B9A711A
:103A0000804B1B697D4A13617E4B5B697B4A536126
:103A10007C4B93ED0E7BF7EEC77B784BC3ED097AB9
:103A2000784BDB69754AD361764B1B6A734A136224
:103A3000744B9B69714A9361724BDB78002B03D006
:103A4000704BDA786D4B5A726E4B5A786F4B1A7214
:103A50006C4B9A786D4B9A716A4B1B696B4A136178
:103A6000684B5B69694A5361664B93ED0E7BF7EED9
:103A7000C77B664BC3ED097A624BDB69634AD3614E
:103A8000604B1B6A614A13625E4B9B695F4A93619C
:103A90005C4BDA785D4B5A72584BDB6A23F00103BA
:103AA000564AD362554BD3ED097AF5EE407AF1EEE2
:103AB00010FA1BD0514B9B79032B07D04F4B9B79AE
:103AC000042B03D04D4B9B79062B0FD1504B93ED1C
:103AD0000D7A4A4BD3ED097A77EE277A4D4BC3ED39
:103AE0000D7A4C4B5B6B4C4A53601AE0434B9B790D
:103AF000032B16D0474B93ED0D7A454BD3ED0D7A42
:103B0000B4EE677AF1EE10FA0BD0424B5B6B404A91
:103B100053630BF03BFD0BF04BFC3D4B5B6B3E4AA4
:103B20005360364BDB6A03F00203002B00F09C80ED
:103B3000324B9B79032B07D0304B9B79042B03D05E
:103B40002E4B9B79052B12D12C4BDB6A23F0020301
:103B50002A4AD362314B9B6843F001032F4A93609A
:103B60002F4B00221A702F4B01221A70A2E02E4B0D
:103B70009B899BB2012B22D8204B9B79012B40F0D3
:103B80009980002154201CF051FC0346002B00F0CA
:103B900091801A4BDB6A23F00203184AD362542047
:103BA0001CF00EFC21487CF033FD21481DF0A2FCE6
:103BB0001B4B00221A701B4B01221A707AE00F4B2C
:103BC0009B79022B36D152201CF0FAFB144B1B7848
:103BD000002B02D0124B00221A70134B9B899BB210
:103BE000002B02D0104B00229A810E4B1B78002B29
:103BF00060D10C4B01221A705CE000BFE04D002444
:103C000024AD002460CD002498620A082C4E0024C4
:103C10009CCC0024D8CC0024C8CE00245CAD002469
:103C2000994E00244E000024784E0024E0620A08D9
:103C30001C630A08A14B1B781A46A14B9B899BB2B7
:103C40009A4237D09F4B9B79012B33D19C4B9B8958
:103C50009BB2DAB2994B1A70994B9B899BB2194669
:103C600099487CF06DFC25E0964BDB6A03F0040379
:103C7000002B1FD0934B9B79032B07D0914B9B7943
:103C8000042B03D08F4B9B79052B03D154201CF0C0
:103C900097FB0FE08B4BDB6A23F00403894AD36266
:103CA0008A4B5B68002B05D0884B9B6843F002036E
:103CB000864A9360864B93F8403003F00103002B53
:103CC00040F07081834B1B78032B40F06B817D4B60
:103CD00093F83030002B00F024817A4B9B79032B32
:103CE00029D17D497D487CF06DFE0346002B12D022
:103CF0007B487CF08DFC1822002177487CF015FE73
:103D0000704BDB6A43F004036E4AD3626F4B0322AD
:103D10001A70002347E173487CF07AFC72481DF06A
:103D2000E9FB182200216C487CF0FFFD032012F013
:103D30002FFA002337E16D4B9B7D012B40F0E6808D
:103D40006A4B1B7E012B40F0E180684B1B7B012BF3
:103D500026D1614811F0F8FC0346002B20D05E4AC2
:103D600063495E487CF092FC564BDB6A43F00203E9
:103D7000544AD3621822002157487CF0D6FD022015
:103D800012F006FA5B4B01221A70584B5B8C013320
:103D90009AB24B4B9A8158487CF03AFC012302E1DD
:103DA000524B5B79012B26D14B4811F013FD034692
:103DB000002B20D0484A4E4948487CF067FC414BD4
:103DC000DB6A43F002033F4AD362182200214248D3
:103DD0007CF0ABFD022012F0DBF9464B01221A7099
:103DE000424B5B8C01339AB2354B9A8143487CF04D
:103DF0000FFC0123D7E03D4BDB79012B26D1364860
:103E000011F0A2FC0346002B20D0334A3849334836
:103E10007CF03CFC2B4BDB6A43F00203294AD36263
:103E2000182200212C487CF080FD022012F0B0F90D
:103E3000304B01221A702D4B5B8C01339AB2204B10
:103E40009A812D487CF0E4FB0123ACE0274B1B79E1
:103E5000012B27D1204A264920487CF017FC194B1A
:103E6000DB6A43F00203174AD362182200211A4882
:103E70007CF05BFD022012F08BF91E4B01221A70C0
:103E80001A4B5B8C01339AB20D4B9A811C487CF023
:103E9000BFFB0B4B9B899BB219461A487CF050FB29
:103EA000012380E0032012F073F9182200210A4850
:103EB0007CF03BFD14487CF0ABFB32E09B4E0024D1
:103EC000784E0024E04D002434630A085CAD0024E1
:103ED000906A002480000024104E002468AD002465
:103EE000E8600A0818610A084C610A08805000243A
:103EF00014600A08994E002464610A089C610A084B
:103F000068630A0810620A083C620A08032012F07B
:103F10003FF91822002125487CF007FD24487CF059
:103F200077FB244B5B7E012B26D1234B9B79022B05
:103F30000FD1224B1B78002B0BD11F4BDB6A43F0B8
:103F400002031D4AD3621B4B5B8C01339AB21C4B9C
:103F50009A81194B9B79062B06D1174BDB6A43F0EC
:103F60000403154AD3621DE0134B9B79012B19D131
:103F7000124B00221A7015E00E4B5B7E002B11D005
:103F80000D4B9B79062B06D10B4BDB6A43F00403E8
:103F9000094AD36206E0084B9B79012B02D1074BFB
:103FA00000221A700023184680BD00BF104E002466
:103FB0006C620A0880500024E04D00244E0000246A
:103FC000784E002480B500AF8A4BDA79894B5B7854
:103FD0009A4205D1884B1B7803F02003002B08D0B0
:103FE000854B1B7823F02003DAB2834B1A7005232C
:103FF0007FE1804BDA787F4B9B789A4205D17E4BEC
:104000001B7803F04003002B08D07B4B1B7823F078
:104010004003DAB2784B1A7006236AE1754B9A793D
:10402000744B1B789A4201D0002362E1734B5B7E94
:10403000002B03D000F0CEFA03465AE1704B9A7978
:104040006F4B1B789A4200F097806B4B1B7803F004
:104050000103002B08D0684B1B7823F00103DAB270
:10406000654B1A70012344E1654B1B78032B61D12A
:10407000634B9B79092B06D1614BDB6A43F0040348
:104080005F4AD36262E05E4B9B79062B06D15C4BA4
:10409000DB6A43F004035A4AD36257E0584B9B79DA
:1040A000082B09D1574B9B6843F00203554A936094
:1040B000544B04221A7049E0514B9B79042B45D193
:1040C0004E4B5B7A012B24D14F487CF0A1FA4C4B2C
:1040D000DB6A03F01003002B0AD0494BDB6A23F0A4
:1040E0001003474AD362464B06229A71012300E12E
:1040F000444B01221A70434B9B6843F00203414A30
:1041000093603F4BDB6A43F010033D4AD362FF23C9
:10411000EFE03E487CF07CFA394B04229A71394B2F
:1041200001221A70374B00221A73364B00225A6054
:104130000123DEE0324B9B79042B01D10123D8E02F
:104140002F4B1B78042B01D10123D2E02C4B9B7900
:10415000032B0FD12A4BDB6A03F01003002B07D08F
:10416000274BDB6A23F01003254AD3620123C0E00A
:10417000FF23BEE00123BCE0254B9A79244B1B783A
:104180009A4200F0B5801C4B1B7803F00203002B11
:1041900008D0194B1B7823F00203DAB2164B1A70C1
:1041A0000423A6E01A4B1B78032B73D1184B9B7981
:1041B000092B06D1164BDB6A43F00403144AD36281
:1041C00080E0134B9B79062B06D1114BDB6A43F041
:1041D00004030F4AD36275E00D4B9B79082B1BD16A
:1041E0000C4B9B6843F002030A4A9360094B04227C
:1041F0001A7067E0B04C0024944E002480500024D4
:10420000484D002434AD0024A4630A08D8630A088A
:10421000E04D00245CAD0024374B9B79042B51D139
:10422000364B5B7A012B24D135487CF0F1F9324BC7
:10423000DB6A03F01003002B0AD02F4BDB6A23F05C
:1042400010032D4AD3622C4B06229A71042350E0AE
:104250002C4B01221A702B4B9B6843F00203294A16
:104260009360254BDB6A43F01003234AD362FF239C
:104270003FE025487CF0CCF91F4B04229A71214B7A
:1042800001221A701F4B00221A731E4B00225A6023
:1042900004232EE0184B9B79042B01D1042328E042
:1042A000154B1B78042B01D1042322E0124B9B7980
:1042B000052B01D104231CE00F4B1B78052B01D1EA
:1042C000042316E00C4B9B79032B0FD10A4BDB6ABE
:1042D00003F01003002B07D0074BDB6A23F0100319
:1042E000054AD362042304E0FF2302E0042300E034
:1042F000FF23184680BD00BFE04D002480500024FD
:10430000A4630A085CAD0024D8630A0880B400AF37
:10431000164BDA79154B5B789A4201D0052320E0E1
:10432000124BDA78114B9B789A4201D0062318E0A1
:104330000E4B9A790D4B1B789A4201D0002310E066
:104340000B4B9A790A4B1B789A4201D0012308E063
:10435000084B9A79074B1B789A4201D0042300E05E
:10436000FF231846BD465DF8047B7047FC4C0024D3
:10437000944D00242C4E002480B582B000AF03463B
:10438000FB71FB79013B112B7AD801A252F823F083
:10439000D9430208EF430208054402088144020899
:1043A00081440208814402088144020881440208D1
:1043B00081440208814402088144020881440208C1
:1043C0001B4402084F440208814402088144020849
:1043D0006544020873440208334B9A79324B1B78C8
:1043E0009A4253D0304B9A792F4B1A704EE02F4B94
:1043F0009A792E4B1B789A424AD02C4B9A792B4BA8
:104400001A7045E02A4B9A79294B1B789A4241D081
:10441000274B9A79264B1A703CE0234BDA79224BD2
:104420005B789A4238D0204BDA791F4B5A701E4B7A
:104430005B78072B03D11C4BFF22DA712CE01A4B5F
:104440005B78062B28D1184BFF22DA7124E0164B3B
:10445000DA78154B9B789A4220D0134BDA78124BBE
:104460009A701BE0134B9B6823F40043114A93603E
:1044700015E0114B9B6823F480330F4A93600EE0E4
:10448000FB7919460D487CF05BF808E000BF06E0B8
:1044900000BF04E000BF02E000BF00E000BF00BFBB
:1044A0000837BD4680BD00BFB04C0024484D0024F5
:1044B000E04D002434AD00245CAD00240C640A08F7
:1044C00080B582B000AF0346FB71FB79013B0D2B39
:1044D00064D801A252F823F01145020827450208CA
:1044E0003D4502089D4502089D4502089D4502087C
:1044F0009D4502089D4502089D4502089D4502080C
:104500009D4502089D45020853450208874502085B
:104510002C4B9A792B4B1B789A4245D0294B9A7990
:10452000284B1A7040E0284B9A79274B1B789A4207
:104530003CD0254B9A79244B1A7037E0234B9A795B
:10454000224B1B789A4233D0204B9A791F4B1A701A
:104550002EE01C4BDA791B4B5B789A422AD0194B20
:10456000DA79184B5A70174B5B78072B03D1154B30
:10457000FF22DA711EE0134B5B78062B1AD1114B28
:10458000FF22DA7116E00F4BDA780E4B9B789A42D5
:1045900012D00C4BDA780B4B9A700DE0FB79194670
:1045A0000B487BF0CDFF08E000BF06E000BF04E051
:1045B00000BF02E000BF00E000BF00BF0837BD46FB
:1045C00080BD00BFFC4C0024944D00242C4E0024E0
:1045D0000C640A0880B500AF8F4B5B7E012B00F0A6
:1045E000C880022B40F002828C4B1B78022B46D0F5
:1045F000022B54DC002B02D0012B23D04FE0884B40
:104600009B79032B16D1864B9A79854B1B789A425E
:1046100047D084487BF0FCFF834B9B6843F0010349
:10462000814A93607D4B1B780133DAB27B4B1A7061
:104630000123DDE17A4B9A79794B1B789A4230D08D
:104640000123D5E1764B9B79032B10D077487BF083
:10465000DFFF754B9B6843F00203734A93606F4B17
:104660001B780133DAB26D4B1A700123C0E16C4B39
:104670009A796B4B1B789A4215D00123B8E1684BAD
:104680001B78032B03D0654B00221A700DE0644B9E
:104690009A79634B1B789A4207D00123A8E100BFA7
:1046A00004E000BF02E000BF00E000BF604B1B78E9
:1046B000022B46D0022B54DC002B02D0012B23D03E
:1046C0004FE05C4B9B79032B16D15A4B9A79594B8F
:1046D0001B789A4247D058487BF09AFF574B9B680B
:1046E00043F00103554A9360514B1B780133DAB212
:1046F0004F4B1A7004237BE14E4B9A794D4B1B783C
:104700009A4230D0042373E14A4B9B79032B10D09B
:104710004B487BF07DFF494B9B6843F00203474ABF
:104720009360434B1B780133DAB2414B1A70042378
:104730005EE1404B9A793F4B1B789A4215D0042397
:1047400056E13C4B1B78032B03D0394B00221A70E7
:104750000DE0384B9A79374B1B789A4207D00423E7
:1047600046E100BF43E100BF41E100BF3FE100BFC0
:104770003DE12A4B1B78022B00F09680022B00F3C0
:104780009E80002B02D0012B33D098E0244B9A79E5
:10479000234B1B789A4201D0012329E1204B9B79BE
:1047A000022B13D1274B1B78002B0FD11C4BDB6A3C
:1047B00043F002031A4AD362234B01221A70164BAC
:1047C0005B8C01339AB2214B5A817AE0144B9B796E
:1047D000032B06D1114B1B780133DAB20F4B1A7041
:1047E0006FE00F4B9B79012B6BD1164B00221A7097
:1047F00067E00B4B9B79062B2AD10B4B9B6843F050
:104800000203094A9360054B1B780133DAB2034B6C
:104810001A700123ECE000BF80500024A14E002458
:10482000484D002438640A0834AD002470640A0836
:10483000A24E0024E04D0024A8640A085CAD0024C8
:10484000E0640A084D000024984E0024784E0024AD
:10485000684B9B79042B0DD1674B9B6843F0020397
:10486000654A9360654B1B780133DAB2634B1A706B
:104870000123BDE05F4B9B79092B0DD15E4B9B68FB
:1048800043F002035C4A93605C4B1B780133DAB25D
:104890005A4B1A700123ABE0564B9A79554B1B7853
:1048A0009A4210D00123A3E0524B9A79514B1B78C6
:1048B0009A420AD0514B00221A70012398E000BF9F
:1048C00004E000BF02E000BF00E000BF4C4B1B78DB
:1048D000022B78D0022B00F38180002B02D0012B19
:1048E00033D07BE0474B9A79464B1B789A4201D0F4
:1048F00004237DE0434B9B79022B13D1424B1B7861
:10490000002B0FD13F4BDB6A43F002033D4AD362D9
:104910003E4B01221A703E4B5B8C01339AB23D4BE9
:104920009A815DE0374B9B79032B06D1344B1B7882
:104930000133DAB2324B1A7052E0324B9B79012BC1
:104940004ED1314B00221A704AE02E4B9B79062B38
:104950000DD1314B9B6843F002032F4A9360284BE3
:104960001B780133DAB2264B1A70042340E0254B42
:104970009B79042B0DD1284B9B6843F00203264AF8
:1049800093601F4B1B780133DAB21D4B1A7004235E
:104990002EE01C4B9B79092B0DD11F4B9B6843F0DC
:1049A00002031D4A9360164B1B780133DAB2144B95
:1049B0001A7004231CE0134B9A79124B1B789A420D
:1049C00010D0042314E00F4B9A790E4B1B789A42B7
:1049D0000AD00B4B00221A70042309E000BF06E046
:1049E00000BF04E000BF02E000BF00E000BFFF2303
:1049F000184680BD484D002434AD0024A14E00244B
:104A0000A24E0024E04D00244E000024994E0024C4
:104A100080500024784E00245CAD002480B483B024
:104A200000AF0346FB71FB790F2B43D801A252F86C
:104A300023F000BF8D4A0208754A0208794A02082D
:104A40007D4A0208814A0208854A0208894A02080A
:104A5000914A0208954A0208994A02089D4A0208AA
:104A6000A14A0208A54A0208A94A0208AD4A02085A
:104A7000B14A0208134B1EE0134B1CE0134B1AE023
:104A8000134B18E0134B16E0134B14E0134B12E0DA
:104A9000134B10E0134B0EE0134B0CE0134B0AE0EA
:104AA000134B08E0134B06E0134B04E0134B02E0FA
:104AB000134B00E00A4B18460C37BD465DF8047BEB
:104AC000704700BF18650A0830650A0848650A087B
:104AD00058650A0868650A0878650A088C650A0836
:104AE00094650A08A0650A08B4650A08C0650A0842
:104AF000D4650A08E8650A08F8650A0808660A081D
:104B000018660A0880B582B000AF03460A46FB71FA
:104B10001346BB71BB79002B02D0012B2ED05BE07A
:104B2000FB79013B082B27D801A252F823F000BFE4
:104B3000554B0208594B02085D4B0208614B0208B5
:104B4000654B0208694B02086D4B0208714B020865
:104B5000754B0208244B43E0244B41E0244B3FE0DB
:104B6000244B3DE0244B3BE0244B39E0244B37E021
:104B7000244B35E0244B33E0224B31E0FB79013B01
:104B8000082B27D801A252F823F000BFB14B02082E
:104B9000B54B0208B94B0208BD4B0208C14B0208D5
:104BA000C54B0208C94B0208CD4B0208D14B020885
:104BB0000D4B15E0154B13E0144B11E0134B0FE0B8
:104BC000124B0DE0114B0BE00D4B09E00D4B07E0D4
:104BD0000D4B05E00B4B03E00D487BF019FD094B35
:104BE00018460837BD4680BD24660A0830660A08A4
:104BF0003C660A0848660A0854660A0864660A0899
:104C000070660A087C660A0888660A0890660A08C0
:104C10009C660A0880B483B000AF0346FB71FB7941
:104C20000A2B2FD801A252F823F000BF594C0208DA
:104C30005D4C0208614C0208654C0208694C020890
:104C40006D4C0208714C0208754C0208794C020840
:104C50007D4C0208814C02080E4B14E00E4B12E012
:104C60000E4B10E00E4B0EE00E4B0CE00E4B0AE02C
:104C70000E4B08E00E4B06E00E4B04E00E4B02E03C
:104C80000E4B00E0074B18460C37BD465DF8047B21
:104C9000704700BF40670A0850670A0860670A0843
:104CA0006C670A0874670A087C670A0888670A083C
:104CB00090670A0898670A08A4670A08B4670A0890
:104CC00080B483B000AF0346FB71FB79072B15DC82
:104CD000002B24DD013B062B21D801A252F823F042
:104CE000034D0208074D02080B4D02081F4D020834
:104CF000134D0208174D02081B4D0208FF2B06D06A
:104D00000DE00A4B0CE00A4B0AE00A4B08E00A4BA4
:104D100006E00A4B04E00A4B02E00A4B00E0064BB7
:104D200018460C37BD465DF8047B7047C4670A0817
:104D3000D0670A08E0670A08EC670A08F4670A08FF
:104D400000680A0814680A0880B483B000AF0346FC
:104D5000FB71FB79013B032B12D801A252F823F01F
:104D6000714D0208794D02087D4D0208754D02080B
:104D7000074B06E0074B04E0074B02E0074B00E05F
:104D8000034B18460C37BD465DF8047B704700BFE7
:104D9000EC670A0820680A082C680A0838680A08BC
:104DA00080B483B000AF0346FB71FB79052B0AD0BA
:104DB000052B0ADC032B02D0042B02D005E0064BA6
:104DC00004E0064B02E0064B00E0064B18460C37A9
:104DD000BD465DF8047B704748680A0850680A08B9
:104DE0005C680A0874670A0880B483B000AF0346A1
:104DF000FB71FB79013B0E2B2CD801A252F823F05A
:104E00003D4E0208554E0208554E0208554E020806
:104E1000554E0208554E0208554E0208554E0208DE
:104E2000554E0208554E0208414E0208454E0208F2
:104E3000494E02084D4E0208514E0208094B0AE045
:104E4000094B08E0094B06E0094B04E0094B02E07E
:104E5000094B00E0074B18460C37BD465DF8047B54
:104E6000704700BF64680A0870680A087C680A080E
:104E70008C680A089C680A08A4680A0880B582B091
:104E800000AF0346FB80FB88194654487BF058FB73
:104E9000FB880F2B6ADC002B42DA9AE0A3F69F0313
:104EA0001C2B00F2968001A252F823F0CB4F02088F
:104EB000C74F0208D34F0208D34F0208D34F02084E
:104EC000D34F0208D34F0208C34F0208D34F020842
:104ED000D34F0208D34F0208D34F0208D34F020822
:104EE000D34F0208D34F0208D34F0208D34F020812
:104EF000D34F0208D34F0208D34F0208BF4F020816
:104F0000D34F0208D34F0208D34F0208D34F0208F1
:104F1000D34F0208D34F0208D34F0208CF4F0208E5
:104F20000F2B56D801A252F823F000BF974F02086A
:104F30007F4F0208834F0208874F02088B4F0208F9
:104F40008F4F0208934F02089B4F02089F4F0208A1
:104F5000A34F0208A74F0208AB4F0208AF4F020849
:104F6000B34F0208B74F0208BB4F020840F6BB021E
:104F700093422EDC40F69F0293428FDA29E0184BD1
:104F800028E0184B26E0184B24E0184B22E0184B81
:104F900020E0184B1EE0184B1CE0184B1AE0184B91
:104FA00018E0184B16E0184B14E0184B12E0184BA1
:104FB00010E0184B0EE0184B0CE0184B0AE0184BB1
:104FC00008E0184B06E0184B04E0114B02E0104BD0
:104FD00000E00A4B18460837BD4680BDB0680A0895
:104FE00018650A0830650A0848650A0858650A08FD
:104FF00068650A0878650A088C650A0894650A08D5
:10500000A0650A08B4650A08C0650A08D4650A08DC
:10501000E8650A08F8650A0808660A0818660A08B2
:10502000D8680A08E8680A08FC680A0880B400AF73
:1050300000BFBD465DF8047B7047000080B500AF3F
:105040004C4BDB6A03F04003002B4CD04A4B5B789F
:10505000002B48D1494B1B78082B25D1484B1B7896
:10506000082B21D10CF00EF90AF076FBFEF734F88C
:10507000444B1B7C013BDAB2424B1A74414B1B7C04
:10508000002B2ED13B4B5B7A002B2AD1394B0922C6
:105090009A71384B0D225A72364B40F69A029A8119
:1050A000384B02221A741CE0344B1B78032B5CD063
:1050B000334B1B78032B58D02E4B08229A712F4B61
:1050C00008229A712E4B08229A712F4B93F83E308A
:1050D000022B4AD1294B08221A70294B08221A7038
:1050E00043E000BF41E0234BDB6A03F02003002BC9
:1050F0001AD0224B1B78032B38D0214B1B78032B63
:1051000034D0224B00221A701A4B00221A701B4B0B
:1051100000221A701A4B00221A70164BDB6A23F019
:105120002003144AD36221E0124BDB6A03F08003B0
:10513000002B1BD0114B1B78032B17D0104B1B7867
:10514000032B13D0114B00221A700A4B00221A7045
:105150000A4B00221A700A4B00221A70054BDB6AB8
:1051600023F08003034AD36200E000BF0023184607
:1051700080BD00BFB04C00242C560024484D0024B4
:10518000E04D002480500024906A002424AD0024C7
:1051900080B582B000AFC7E900018E49D1F8C416CE
:1051A00000200A460346D7E90001904271EB030351
:1051B000C0F2A481874B5B78012B40F09F81864B26
:1051C000DB79072B18DC002B40F38D81013B062B8C
:1051D00000F2898101A252F823F000BF7552020843
:1051E000ED530208BD530208E75402088154020837
:1051F000E7540208E7540208FF2B40F07481774B14
:105200009B79092B0AD1764B9B79092B06D1724BDE
:105210000122DA71734B0122DA712AE06F4B9B791C
:10522000082B0AD16E4B9B79082B06D16A4B0122C1
:10523000DA716C4B0122DA711BE0684B9B79012B10
:105240000AD1674B9B79012B06D1634B0122DA719E
:10525000644B0122DA710CE01BF09CFD0346002B2D
:1052600000F043815C4B0122DA715E4B0122DA715E
:105270003BE13AE1584B5B78012B32D1574B1B781D
:10528000082B2ED1564B1B78082B2AD1514B1B785B
:10529000012B02D0022B0FD022E0012152480EF048
:1052A0006FFC0346002B03D04B4B0322DA7117E04F
:1052B000494B0222DA7113E04B480DF051FB0346D3
:1052C000002B06D0444B0322DA71464B0322DA71DD
:1052D00005E0414B0222DA71424B0222DA7100BF33
:1052E0006BE03D4B5B78012B32D13C4B1B78092B9B
:1052F0002ED13B4B1B78092B2AD1364B1B78012B27
:1053000002D0022B12D022E0012137480EF038FCE7
:105310000346002B03D0304B0322DA7117E02E4BEB
:105320000222DA712F4B0222DA7110E02E480DF0C2
:1053300017FB0346002B03D0274B0322DA7105E04D
:10534000254B0222DA71274B0222DA7100BF34E0CA
:10535000214B5B78012B40F0CA8000F0FBF803463C
:10536000002B00F0C4801B4B1B78012B02D0022BBA
:1053700012D022E001211C480EF002FC0346002B53
:1053800003D0154B0322DA7117E0134B0222DA71B6
:10539000144B0222DA7110E013480DF0E1FA0346D3
:1053A000002B03D00C4B0322DA7105E00A4B0222DA
:1053B000DA710C4B0222DA7100BF98E0064B5B7881
:1053C000032B40F09680044B0522DA71054B052231
:1053D000DA718EE02C560024B04C0024484D002495
:1053E000E04D0024FC4C0024325600244F4B9B78A7
:1053F000002B2BD04E4B1B781A464C4B9B889A4265
:105400000ED34C4B0122DA714B4B0122DA71474B20
:105410009B78013BDAB2454B9A70454B00221A70DB
:10542000464B1A78424B1B789A4264D0404B1A780C
:10543000424B1A703D4B9B7819463C4B9B881A4651
:105440003B4B1B783E487BF07BF854E0374B9B7816
:10545000002B50D1354B00225A70364B00225A7027
:10546000344BFF22DA71334B01229A71354B012202
:105470009A71354B01229A7134487BF0C9F83AE0B1
:105480002A4B5B78012B38D12A4B5B78052B34D122
:10549000284B9B79082B03D0264B08229A712CE0CD
:1054A000284B9B79082B03D0264B08229A7124E0C5
:1054B000254B9B79082B03D0234B08229A711CE0C3
:1054C0001D4BDB79052B03D01B4B0522DA7114E051
:1054D000184B1B78082B10D10BF0D4FE0AF028F9DA
:1054E000FDF7FAFD09E000BF08E000BF06E000BFDD
:1054F00004E000BF02E000BF00E000BF144B1B78D7
:10550000002B0ED0094B01225A70084B14229A80AE
:10551000064B02221A70054B03229A700C4B002294
:105520001A70002318460837BD4680BD2C5600244B
:10553000964E0024B04C0024FC4C0024974E0024CE
:105540000C690A08484D0024E04D002468690A08E7
:1055500057CC002480B483B000AF0023FB71154BFF
:105560001B78092B03D1FB790133FB7106E0114B4A
:105570001B78082B02D1FB790133FB710E4B1B7892
:10558000092B03D1FB790133FB7106E00A4B1B7831
:10559000082B02D1FB790133FB71FB79022B01D17E
:1055A000012300E0002318460C37BD465DF8047B5C
:1055B000704700BF484D0024E04D002480B400AF88
:1055C000354B9B78DBB2002B4DD1344B1B78002B35
:1055D00024D0334B9B79032B06D0324BDB7D012B40
:1055E00002D1304B0022DA752F4B9B79032B06D06A
:1055F0002C4B1B7E012B02D12A4B00221A76284B02
:105600009B79032B2FD0284B9B79032B2BD0254B39
:1056100000229A75214B00221A7024E0234B1B783C
:10562000002B0ED01E4B9B79032B1CD01D4BDB7D1A
:10563000012B18D11B4B0022DA751C4B00221A706B
:1056400011E01B4B1B78002B0DD0174B9B79032BC4
:1056500009D0144B1B7E012B05D1124B00221A7668
:10566000134B00221A700F4B9B7D002B0ED1114B58
:105670009B79082B0AD00F4B9B79092B03D10D4B3B
:1056800009229A7102E00B4B08229A7100BFBD46B5
:105690005DF8047B704700BF24AD002454CC002487
:1056A000484D002480500024E04D002455CC0024B7
:1056B00056CC0024B04C002480B58EB000AF78608A
:1056C00007F1140300221A605A609A60DA601A61C6
:1056D0005A611A7600233B820023BB8100233B8161
:1056E000002387F83730002387F83630002387F807
:1056F000353000233B6307F114037A6824491846C8
:105700007AF0C4FFFB7F3B7497F820307B7497F8E6
:1057100022303B7397F823307B7397F825303B7228
:1057200097F826307B7207F11003184679F0A4FD34
:10573000034687F8373007F10C03184679F09CFDD3
:10574000034687F8363007F10803184679F094FDD0
:10575000034687F8353097F8372013461B019B1A0C
:105760009B003B6397F836303A6B13443B633A6BCC
:1057700013461B019B1A9B003B6397F835303A6B2D
:1057800013443B633B6B18463837BD4680BD00BFB2
:1057900094690A0880B500AF214B1B78042B3CD8D4
:1057A00001A252F823F000BFBD570208C9570208F2
:1057B000D5570208E1570208ED57020802F094FBA2
:1057C000174B01221A7029E000F02EF8144B022228
:1057D0001A7023E000F0CEFB114B03221A701DE07B
:1057E00001F028FC0E4B04221A7017E022F01AFF79
:1057F00002460C4B1B68D31AB3F5167F09D303F08E
:105800002BF922F00FFF0346064A1360044B0022D7
:105810001A70034B00221A7000E000BF00BF80BD69
:10582000E44E0024DC4E00242DE9B04F9AB000AFC6
:1058300007F13C03002219463D482AF05FFA07F1C0
:105840005003002219463A482AF03CFB97F83C30B6
:105850001A46384B9A6097F83D301A46354B5A60D5
:1058600097F83E301A46334B1A6097F852301A4672
:10587000304BDA6097F851301A462E4B1A6197F880
:1058800053301A462B4B5A612A4B5B6903F1640271
:10589000284B5A61274B1B695A1E264B1A61254813
:1058A0007BF094FA02460B462349C1E900232248C3
:1058B0007BF09EF8386607F12002002313605360E6
:1058C0009360D36013615361137607F120033A6E3E
:1058D0001A4918467AF0DAFE002387F86730184B29
:1058E0001B78FF2B40F09681164B1B78FF2B40F066
:1058F0009181154B1B78FF2B40F08C81002387F89A
:10590000673081E197F8672010491346DB009B1A46
:105910001B010B4403331B78032B00F03781032B4F
:1059200000F33681012B13D0022B00F033812FE1DD
:1059300014670124B84E0024B04E002494690A086C
:105940000D0000241000002411000024245F002416
:105950000023FB650023BB6597F83C301A461346CD
:105960001B019B1A9B00FB6597F83D301A46FB6DA7
:105970001344FB6500237B65FA6D13461B019B1ADC
:105980009B00FB6597F83E301A46FB6D1344FB65A0
:1059900097F86720A1491346DB009B1A1B010B44B3
:1059A00060331B680022984691469D4BD3E9002343
:1059B000424573EB0903C0F2EF8097F867209749DF
:1059C0001346DB009B1A1B010B4464331B68002247
:1059D0009A469346924BD3E9002392457BEB03030F
:1059E000C0F2DA8097F867208C491346DB009B1AD7
:1059F0001B010B446833186897F8672087491346E2
:105A0000DB009B1A1B010B442C331B680344BB6552
:105A100097F8672081491346DB009B1A1B010B4452
:105A20006833186897F867207C491346DB009B1A97
:105A30001B010B4408331B6803447B6597F8672000
:105A400076491346DB009B1A1B010B4468331B6825
:105A50000022BB61FA61724BD3E90023D7E9064506
:105A600021469142294671EB030380F29580BB6D7C
:105A7000013B00223B617A61694BD3E90023D7E9FE
:105A8000044521468A4229468B4180F285807B6D00
:105A9000013B0022BB60FA60614BD3E90023D7E9E8
:105AA000024521468A4229468B4175DB97F86720DB
:105AB0005A491346DB009B1A1B010B442C331B680D
:105AC0004FF47A7202FB03F3564A1360564A0023DE
:105AD000137097F8672051491346DB009B1A1B018E
