:020000040802F0
:1000000000000824C9AC0208019D0208099D0208ED
:10001000199D0208219D0208299D02080000000088
:10002000000000000000000000000000E18F030855
:10003000319D0208000000003192030899920308E4
:1000400019AD020819AD020819AD020819AD020870
:1000500019AD020819AD020819AD020819AD020860
:1000600019AD020819AD020819AD020819AD020850
:1000700019AD020819AD020819AD020819AD020840
:1000800019AD020819AD020819AD020819AD020830
:1000900019AD020819AD020819AD020819AD020820
:1000A00019AD020819AD020819AD020819AD020810
:1000B00019AD020819AD020819AD020819AD020800
:1000C00019AD020819AD020819AD0208419D0208D8
:1000D00019AD0208559D0208F99D02080D9E0208FF
:1000E00019AD020819AD02080000000019AD0208A0
:1000F00019AD020819AD020819AD020819AD0208C0
:1001000019AD020819AD020819AD020819AD0208AF
:10011000219E02088D9E0208A19E020819AD0208C8
:1001200019AD020819AD020819AD020819AD02088F
:1001300019AD0208C19E020819AD020819AD0208E6
:1001400000000000000000000000000000000000AF
:1001500019AD020819AD020819AD0208D10C020848
:1001600019AD020819AD020819AD020819AD02084F
:1001700019AD020819AD020819AD0208000000000F
:1001800019AD020819AD0208D59E020819AD020882
:1001900019AD020819AD020819AD020819AD02081F
:1001A000000000000000000019AD020819AD0208AF
:1001B00019AD020819AD020819AD020819AD0208FF
:1001C00019AD020819AD020819AD020819AD0208EF
:1001D00019AD020819AD020819AD020819AD0208DF
:1001E00019AD020819AD020819AD020819AD0208CF
:1001F00019AD020819AD020819AD020819AD0208BF
:1002000019AD020819AD020819AD020819AD0208AE
:1002100019AD020819AD020819AD020819AD02089E
:1002200019AD02080000000019AD0208000000002E
:1002300019AD020819AD02080000000019AD02084E
:1002400019AD020819AD020819AD020819AD02086E
:1002500019AD020819AD020819AD020819AD02085E
:1002600019AD020819AD020819AD020819AD02084E
:1002700019AD020819AD020819AD0208000000000E
:1002800019AD020819AD020819AD020800000000FE
:080290000000000019AD020896
:1002A00010B5054C237833B9044B13B10448AFF3B0
:1002B00000800123237010BDB00200240000000064
:1002C0002C88080808B5034B1BB103490348AFF35A
:1002D000008008BD00000000B40200242C8808083B
:1002E00010F8012B11F8013B012A28BF9A42F7D0E0
:1002F000D01A70470000000000000000000000005D
:1003000001F0FF01102A2BDB10F0070F08D010F8C6
:10031000013B013A8B422DD010F0070F42B3F6D1CA
:10032000F0B441EA012141EA014122F007047FF0E3
:1003300000070023F0E80256083C85EA010586EA3A
:10034000010685FA47F5A3FA87F586FA47F6A5FA76
:1003500087F68EB9EED1F0BC01F0FF0102F0070282
:1003600032B110F8013B013A83EA010313B1F8D12D
:100370000020704701387047002D06BF354603380E
:10038000073815F0010F07D1013015F4807F02BF47
:10039000013015F4C03F0130F0BC0138704700BF98
:1003A000034613F8012B002AFBD1181A01387047B5
:1003B00081F0004102E000BF83F0004330B54FEA16
:1003C00041044FEA430594EA050F08BF90EA020F83
:1003D0001FBF54EA000C55EA020C7FEA645C7FEA16
:1003E000655C00F0E2804FEA5454D4EB5555B8BF39
:1003F0006D420CDD2C4480EA020281EA030382EAAA
:10040000000083EA010180EA020281EA0303362D3B
:1004100088BF30BD11F0004F4FEA01314FF4801C0E
:100420004CEA113102D0404261EB410113F0004F20
:100430004FEA03334CEA133302D0524263EB4303D7
:1004400094EA050F00F0A780A4F10104D5F1200E75
:100450000DDB02FA0EFC22FA05F2801841F10001D0
:1004600003FA0EF2801843FA05F359410EE0A5F1A4
:1004700020050EF1200E012A03FA0EFC28BF4CF0D5
:10048000020C43FA05F3C01851EBE37101F000458B
:1004900007D54FF0000EDCF1000C7EEB00006EEB98
:1004A0000101B1F5801F1BD3B1F5001F0CD3490822
:1004B0005FEA30004FEA3C0C04F101044FEA445279
:1004C00012F5800F80F09A80BCF1004F08BF5FEA00
:1004D000500C50F1000041EB045141EA050130BDE0
:1004E0005FEA4C0C404141EB0101013C28BFB1F5F2
:1004F000801FE9D291F0000F04BF01460020B1FA3D
:1005000081F308BF2033A3F10B03B3F120020CDA0F
:100510000C3208DD02F1140CC2F10C0201FA0CF0ED
:1005200021FA02F10CE002F11402D8BFC2F1200C52
:1005300001FA02F120FA0CFCDCBF41EA0C01904008
:10054000E41AA2BF01EB0451294330BD6FEA040451
:100550001F3C1CDA0C340EDC04F11404C4F120023C
:1005600020FA04F001FA02F340EA030021FA04F34E
:1005700045EA030130BDC4F10C04C4F1200220FAA5
:1005800002F001FA04F340EA0300294630BD21FAE3
:1005900004F0294630BD94F0000F83F4801306BFA9
:1005A00081F480110134013D4EE77FEA645C18BF9D
:1005B0007FEA655C29D094EA050F08BF90EA020F34
:1005C00005D054EA000C04BF1946104630BD91EA2C
:1005D000030F1EBF0021002030BD5FEA545C05D12F
:1005E0004000494128BF41F0004130BD14F580046E
:1005F0003CBF01F5801130BD01F0004545F0FE41E2
:1006000041F470014FF0000030BD7FEA645C1ABF16
:10061000194610467FEA655C1CBF0B46024650EA4D
:10062000013406BF52EA033591EA030F41F4002179
:1006300030BD00BF90F0000F04BF0021704730B5FF
:100640004FF4806404F132044FF000054FF00001D4
:1006500050E700BF90F0000F04BF0021704730B595
:100660004FF4806404F1320410F0004548BF40426A
:100670004FF000013EE700BF42004FEAE2014FEABF
:1006800031014FEA02701FBF12F07F4393F07F4F9A
:1006900081F06051704732F07F4208BF704793F09D
:1006A0007F4F04BF41F40021704730B54FF46074B0
:1006B00001F0004521F000411CE700BF50EA0102B3
:1006C00008BF704730B54FF000050AE050EA01025C
:1006D00008BF704730B511F0004502D5404261EBCC
:1006E00041014FF4806404F132045FEA915C3FF40D
:1006F000D8AE4FF003025FEADC0C18BF03325FEAAA
:10070000DC0C18BF033202EBDC02C2F1200300FA5A
:1007100003FC20FA02F001FA03FE40EA0E0021FA7F
:1007200002F11444BDE600BF53B94AB9002908BF1D
:1007300000281CBF4FF0FF314FF0FF3000F0C0B970
:10074000ADF1080C6DE904CE00F03EF8DDF804E0F0
:10075000DDE9022304B0704708B502460B4643ECBE
:10076000172BB5EEC07BF1EE10FA03D4BDE80840BC
:1007700000F00AB8B1EE477B51EC170B00F004F81B
:10078000404261EB410108BD9FED0B6B41EC170B43
:100790009FED0B5B27EE066BBCEEC66BB8EE464BCF
:1007A000A4EE457BFCEEC77B16EE101A17EE900AFE
:1007B000704700BFAFF30080000000000000F03D74
:1007C000000000000000F0412DE9F047089D8E4632
:1007D00004468846002B4AD18A42174662D9B2FAAB
:1007E00082F64EB1C6F1200301FA06F820FA03F3AF
:1007F000B74043EA0808B4404FEA174E1FFA87FC97
:10080000B8FBFEF1230C0EFB118843EA084301FB01
:100810000CF29A4209D9FB1801F1FF3080F0EA800E
:100820009A4240F2E78002393B449A1AA3B2B2FBE3
:10083000FEF00EFB102243EA024300FB0CFC9C4539
:1008400009D9FB1800F1FF3280F0D6809C4540F2B8
:10085000D3803B44023840EA0140A3EB0C03002163
:100860001DB1F3400022C5E90032BDE8F0878B429C
:1008700005D90DB1C5E9000100210846F5E7B3FA35
:1008800083F1002946D1734502D3824200F20581EB
:10089000841A6EEB030201209046002DE5D0C5E9D5
:1008A0000048E2E7002A00F09080B2FA82F6002EBB
:1008B00040F0A4808A1A030C4FEA174E80B2BCB2F3
:1008C0000121B2FBFEFC0EFB1C2243EA024304FBA7
:1008D0000CF29A4207D9FB180CF1FF3802D29A4267
:1008E00000F2E080C4469B1AB3FBFEF20EFB12330B
:1008F00040EA034302FB04F49C4207D9FB1802F1CF
:10090000FF3002D29C4200F2CA8002461B1B42EA20
:100910000C40A5E7C1F120068B4022FA06F71F43E1
:100920000EFA01F420FA06F32EFA06FE4FEA1749F2
:10093000234300FA01F81FFA87FCBEFBF9F01C0CF8
:1009400009FB10EE44EA0E4400FB0CFEA64502FA39
:1009500001F209D93C1900F1FF3A80F09C80A645CC
:1009600040F2998002383C44A4EB0E041FFA83FE47
:10097000B4FBF9F309FB13444EEA044403FB0CFCFB
:10098000A44508D93C1903F1FF3E80F08280A445BC
:100990007FD9023B3C4443EA0040A4EB0C04A0FB9B
:1009A00002EC64457346E14662D35FD05DB1B8EBBB
:1009B000030264EB090404FA06F622FA01F31E436B
:1009C000CC40C5E9006400214FE7B1FBF2FC010C0B
:1009D00041EA0E4180B240EA01423B4638463C467D
:1009E000B846BE462026B1FBF7F1A2EB080241EA69
:1009F0000C4166E7014618E710462CE7C6F12002D5
:100A00002EFA02F3B740B14020FA02F24FEA174E35
:100A10000A43B3FBFEF8BCB20EFB1833110C41EADB
:100A2000034108FB04F9B04089454FEA104380B206
:100A30003ED9791808F1FF3C01D289451FD8A1EBB6
:100A40000901B1FBFEF909FB04F80EFB191192B282
:100A500042EA0142424529D2BA1809F1FF31C4D213
:100A60004245C2D2A9F102013A44BEE7F0459DD207
:100A7000BEEB02036CEB070C0138E14696E7A7EBEF
:100A800009094944A8F1020CB1FBFEF909FB04F87D
:100A9000DBE773467FE7504666E70846FDE63B44E2
:100AA000023A33E7ACF1020C3B441CE749469CE7B1
:100AB000A1EB0901C446B1FBFEF909FB04F8C4E748
:100AC000704700BF80B400AF044BDB681B0A03F023
:100AD00007031846BD465DF8047B704700ED00E053
:100AE00080B483B000AF0346FB80B7F90630002B1B
:100AF0000BDBFB8803F01F020749B7F906305B09DF
:100B0000012000FA02F241F8232000BF0C37BD4655
:100B10005DF8047B704700BF00E100E080B483B063
:100B200000AF0346FB80B7F90630002B12DBFB88D1
:100B300003F01F020A49B7F906305B09012000FAE9
:100B400002F2203341F82320BFF34F8F00BFBFF3E1
:100B50006F8F00BF00BF0C37BD465DF8047B704748
:100B600000E100E080B483B000AF03463960FB8051
:100B7000B7F90630002B0ADB3B68DAB20C49B7F94B
:100B800006301201D2B20B4483F800230AE03B681E
:100B9000DAB20849FB8803F00F03043B1201D2B21A
:100BA0000B441A7600BF0C37BD465DF8047B7047D6
:100BB00000E100E000ED00E080B489B000AFF86033
:100BC000B9607A60FB6803F00703FB61FB69C3F15E
:100BD0000703042B28BF0423BB61FB690433062BE6
:100BE00002D9FB69033B00E000237B614FF0FF3239
:100BF000BB6902FA03F3DA43BB681A407B699A4087
:100C00004FF0FF317B6901FA03F3D9437B680B4056
:100C1000134318462437BD465DF8047B7047000037
:100C200080B5C8B008AF3B464FF48072002118462B
:100C300064F0C2F83846194B0793194B0693194BC9
:100C40000593194B0493194B0393194B0293194BBA
:100C50000193194B0093194B194A4FF4807163F0BB
:100C600023FF1849202000F07BFD0346002B03D111
:100C7000154863F011FF0CE03B461846FFF790FB68
:100C800002463B460F49184600F090FD0F4863F0BE
:100C900003FF07F58077BD4680BD00BFD804002460
:100CA00098040024900400247004002450040024BC
:100CB0003004002410040024F0030024D003002496
:100CC0005088080800103E0094880808AC8808087E
:100CD00080B582B000AF1C4B1B68DB6903F02003BA
:100CE000202B21D1184B1B685B6AFB71174B1B88AB
:100CF000FE2B0FD8154B1B885A1C91B2134A11803A
:100D00001946134AFB795354104B1B881A46104B53
:100D1000002199540F490E4864F0E4F80346002B73
:100D200002D00D4B01221A70074B1B68DB6903F0E0
:100D30000803082B03D1044B1B6808221A6200BF6A
:100D40000837BD4680BD00BF08580024CC030024EE
:100D5000CC020024CC880808CE03002480B500AF64
:100D6000FFF7B0FE0346002205211846FFF724FFD7
:100D7000034619464720FFF7F5FE4720FFF7B0FE70
:100D800001220549054811F095FD0346002B01D0CD
:100D900008F030FC00BF80BDCC02002408580024BD
:100DA00080B5B0B002AF78607B68002B00F0EF81B7
:100DB0007B681B78002B00F0EA813D21786864F0A5
:100DC00003F8C7F8B000D7F8B030002B04D1796829
:100DD000B74863F0F1FDDBE1D7F8B0207B68D31AA8
:100DE000C7F8B430D7F8B4300F2B02D90F23C7F8A7
:100DF000B43007F1A003D7F8B4207968184664F03E
:100E000002F807F1A002D7F8B430134400221A7098
:100E1000D7F8B030591C07F120037F22184663F041
:100E2000F2FF002387F89F3007F1A003A14918467D
:100E3000FFF756FA0346002B0AD107F120031F22C1
:100E400019469D4863F0DFFF9B4B0022DA7769E18A
:100E500007F1A00399491846FFF742FA0346002B11
:100E60000AD107F120031F221946954863F0CBFFF2
:100E7000934B0022DA7755E107F1A0039149184618
:100E8000FFF72EFA0346002B0AD107F120031F2299
:100E900019468D4863F0B7FF8B4B0022DA7741E1AA
:100EA00007F1A00389491846FFF71AFA0346002BF9
:100EB0000AD107F120031F221946854863F0A3FFDA
:100EC000834B0022DA772DE107F1A0038149184610
:100ED000FFF706FA0346002B0AD107F120031F2271
:100EE00019467D4863F08FFF7B4B0022DA7719E1CA
:100EF00007F1A00379491846FFF7F2F90346002BE2
:100F00000AD107F120031F221946754863F07BFFC1
:100F1000734B0022DA7705E107F1A0037149184607
:100F2000FFF7DEF90346002B0AD107F12003052263
:100F300019466D4863F067FF6B4B00225A71F1E070
:100F400007F1A00369491846FFF7CAF90346002BC9
:100F50000BD107F120033D221946654863F053FF8A
:100F6000634B002283F83D20DCE007F1A0036149D8
:100F70001846FFF7B5F90346002B0AD107F1200305
:100F80001F2219465C4863F03EFF5B4B0022DA7774
:100F9000C8E007F1A00359491846FFF7A1F9034635
:100FA000002B40D107F120031946554863F004FD9A
:100FB0000023FB610023BB6100237B6107F1180163
:100FC00007F11C0207F1200007F1140300930B4600
:100FD0004C4963F0C1FD0346032B1DD1FB69002B77
:100FE0001ADBFB69172B17DCBB69002B14DBBB6911
:100FF0003B2B11DC7B69002B0EDB7B693B2B0BDC75
:10100000FB69DBB21846BB69DBB219467B69DBB210
:101010001A4601F04DFB85E007F1200319463A48D6
:1010200063F0CAFC7EE007F1A00338491846FFF7D9
:1010300057F90346002B6FD107F1200319463448B6
:1010400063F0BAFC00233B610023FB600023BB601C
:1010500007F10C0107F1080207F1200007F1100366
:1010600000930B46274963F077FD0346032B18D105
:101070003B69002B15DB3B69632B12DCFB68002B03
:101080000FDDFB680C2B0CDCBB68002B09DDBB689B
:101090001F2B06DC3B69F968BA68184601F036FB7D
:1010A00040E007F1200319461A4863F085FC39E057
:1010B000D4880808F4880808D0030024F8880808B1
:1010C000F0030024FC8808081004002400890808A4
:1010D0003004002404890808500400240889080802
:1010E0007004002410890808900400241889080856
:1010F0009804002420890808D804002424890808BA
:101100002C89080838890808448908086C89080867
:10111000748908088089080807F1A00319461E4849
:1011200063F04AFC1D4863F047FC1D491D4863F00D
:1011300043FC1D491D4863F03FFC1D491D4863F0F9
:101140003BFC1D491D4863F037FC1D491D4863F0F9
:1011500033FC1D4B124A1A601C4B134A1A601C4B7D
:10116000134A1A601B4B144A1A601B4B144A1A602C
:101170001A4B1B4A1A601B4B1B4A1A601B4B1C4A1A
:101180001A60FFF74DFD002000F0B0F800E000BF4E
:10119000B837BD4680BD00BFA0890808B4890808DB
:1011A000D0030024CC890808F0030024E089080853
:1011B00010040024F489080830040024088A080870
:1011C000500400241C8A08080000002404000024A5
:1011D000080000240C0000243C00002444000024EB
:1011E0007004002448000024900400244C000024D3
:1011F0009804002480B582B000AF324B1B78DBB27C
:10120000002B5AD04720FFF789FC4FF48072002151
:101210002D4863F0D1FD2D4B1B881A462C492A48D6
:1012200063F005FF2B49284863F05CFE78602A498B
:10123000254863F057FE38607B68002B2BD03B6855
:10124000002B28D03A687B689A4224D93B68002258
:101250001A707B6808337B607968204863F0ACFBC8
:1012600006221F49786863F0BCFD0346002B03D1BA
:10127000012000F03BF811E006221A49786863F07B
:10128000B0FD0346002B02D100F08CFB06E078682D
:10129000FFF786FD02E0144863F08EFB4FF4807286
:1012A00000210B4863F088FD084B00221A80054B93
:1012B00000221A704720FFF713FC00BF0837BD4615
:1012C00080BD00BFCE030024F8040024CC0300241A
:1012D000CC020024448A0808CC880808508A0808F0
:1012E000648A08086C8A0808748A080880B5CAB03D
:1012F00008AF024607F58473A3F201131A7007F1D1
:1013000008034FF480720021184663F055FD07F181
:101310000803FF223E49184600F0DDF907F5847303
:10132000A3F58073002283F8FF2007F58473A3F2EE
:1013300001131B78012B05D007F108031946354826
:1013400063F03AFB07F10800334B0693334B0593E8
:10135000334B0493334B0393334B0293334B01933F
:10136000334B0093334B344A344963F0F5FB344B31
:10137000314A1A60334B2F4A1A60334B2C4A1A6099
:10138000324B2A4A1A60324B274A1A60314B254A9F
:101390001A60314B224A1A60304B204A1A602C4B9B
:1013A0001B6819462E4863F007FB254B1B6819463E
:1013B0002C4863F001FB234B1B6819462A4863F055
:1013C000FBFA214B1B681946284863F0F5FA1F4BBE
:1013D0001B681946264863F0EFFA1E4B1B68194636
:1013E000244863F0E9FA1C4B1B681946224863F055
:1013F000E3FA1A4B1B681946204863F0DDFA0649E8
:101400001F4863F0D9FA00BF07F58477BD4680BD59
:1014100000103E00A08A0808D80400249804002484
:10142000900400247004002450040024300400249C
:1014300010040024F0030024D0030024C08A08080C
:101440000000002404000024080000240C000024F4
:101450003C00002444000024480000244C000024E8
:10146000188B0808288B0808388B0808488B080850
:10147000588B08086C8B0808808B0808948B080828
:10148000A88B080880B400AFBFF34F8F00BF064B96
:10149000DB6803F4E0620449044B1343CB60BFF301
:1014A0004F8F00BF00BFFDE700ED00E00400FA052C
:1014B00080B500AF0022102102480CF0A9FB00BF4C
:1014C00080BD00BF0000025880B500AF012210218E
:1014D00002480CF09DFB00BF80BD00BF0000025819
:1014E00080B483B000AF0346FB71FB79072B0AD9A8
:1014F000FB79202B07D8FB7903F00703DBB2002B25
:1015000001D1012300E0002303F00103DBB2184600
:101510000C37BD465DF8047B7047000080B588B08D
:1015200002AF78600B46FB70FB781846FFF7D8FFD8
:10153000034683F00103DBB2002B01D0002347E018
:1015400000237B610023FB600023BB60FB78083B2A
:10155000FB740023BB7410E0FB7C7A68DA40BB7C30
:10156000DB08DBB2D2B218333B4403F80C2CFB7C13
:10157000083BFB74BB7C0833BB74BA7CFB789A4293
:10158000EAD3FB78DB08DBB2184607F1080207F163
:101590000C016423009303460F480FF0DBFE002389
:1015A0007B7410E07B691B027B617B7CDB08DBB218
:1015B00018333B4413F8103C1A467B6913437B6194
:1015C0007B7C08337B747A7CFB789A42EAD37B6914
:1015D00018461837BD4680BDB853002480B582B088
:1015E00000AF00237B60FFF763FF10214FF4A06082
:1015F000FFF794FF7860FFF767FF7B68DBB2184660
:101600000837BD4680BD80B582B000AF09F0DCFC74
:1016100078600AE009F0D8FC02467B68D31A41F2F0
:101620008832934201D9002307E0FFF7D7FF034632
:1016300003F00103002BEDD1012318460837BD4606
:1016400080BD80B500AFFFF733FF08210620FFF70C
:1016500065FFFFF739FFFFF7C1FF034603F0020301
:10166000002B01D0012300E00023184680BD80B587
:1016700086B000AFF860B9601346FB800023FB82A0
:101680000023FB821EE0FFF7DCFF0346002B16D091
:10169000FFF70EFFFA8ABB68134443F00073202162
:1016A0001846FFF73BFFFB8AFA6813441B780821B2
:1016B0001846FFF733FFFFF707FFFFF7A4FFFB8A8A
:1016C0000133FB82FA8AFB889A42DCD300BF00BF59
:1016D0001837BD4680BD80B586B000AFF860B960F0
:1016E0001346FB800023FB82FFF7E2FEBB6843F05A
:1016F000407320211846FFF711FF0023FB820CE006
:1017000008210020FFF70AFF0146FB8AFA6813440C
:10171000CAB21A70FB8A0133FB82FA8AFB889A42AA
:10172000EED3FFF7D1FE00BF1837BD4680BD80B5B0
:1017300082B000AF00237B60FFF7BAFE08219F2034
:10174000FFF7ECFE786018210020FFF7E7FE7860D5
:10175000FFF7BAFE7B6818460837BD4680BD00001B
:1017600080B582B000AF03463960FB71FFF769FFB7
:101770000346002B10D0FFF79BFEFB79082118468B
:10178000FFF7CCFE18213868FFF7C8FEFFF79CFE74
:10179000FFF739FF012303E0034863F07DF90023DD
:1017A00018460837BD4680BD8C8C080880B586B0C9
:1017B00000AFF860B9601346FB800023FB82FFF79F
:1017C00040FF0346002B1ED0FFF772FEBB6843F0BC
:1017D000007320211846FFF7A1FE0023FB820AE0D8
:1017E000FB8AFA6813441B7808211846FFF796FE17
:1017F000FB8A0133FB82FA8AFB889A42F0D3FFF717
:1018000063FEFFF700FF00BF1837BD4680BD000034
:1018100080B582B000AFFFF78AFF78607B68124A1C
:10182000934203D07B68114A934217D1FFF709FF17
:101830000346002B0ED0FFF73BFE18214FF48030FB
:10184000FFF76CFEFFF740FEFFF7DDFE084863F090
:1018500023F906E0074863F01FF902E0054863F04A
:101860001BF90837BD4680BD01871F001740EF00F8
:10187000A08C0808B48C080880B588B000AFF86068
:10188000B9607A60BA687B681344B3F5001F4CD91D
:1018900000234EE0BB68DBB27B617B69C3F58073DC
:1018A0003B613A697B68934228BF1346FB61FB6941
:1018B000B3F5807F02D94FF48073FB61FFF7C1FE5F
:1018C0000346002B01D1002333E0FFF7F1FDBB6895
:1018D00043F0007320211846FFF720FE0023BB6170
:1018E0000AE0FA68BB6913441B7808211846FFF721
:1018F00015FEBB690133BB61BA69FB699A42F0D33B
:10190000FFF7E2FDFFF77FFE0346002B01D1002326
:101910000FE0BA68FB691344BB60FA68FB691344C3
:10192000FB607A68FB69D31A7B607B68002BB1D1BE
:10193000012318462037BD4680BD000080B582B027
:1019400000AF00237B6000237B6007E079682020E4
:10195000FFF706FF7B6803F580537B607B68B3F578
:10196000001FF3D34FF48072FF21094863F024FA7B
:10197000084B00221A60084B00221A60074B002215
:101980001A60074B00221A7000BF0837BD4680BDA1
:10199000FC050024FC07002400080024040800249F
:1019A000F805002480B500AFFFF76CFD2DE9F04F7E
:1019B000ADF6946D02AF07F68863A3F66463186012
:1019C00007F68863A3F66863196007F68863A3F6D1
:1019D0006C631A60BE4863F05FF8BE4B1B68184624
:1019E00015F0CCFDBB4B00221A6007F68863A3F606
:1019F00064631968B84862F0DFFF07F68863A3F6EE
:101A000068631968B54862F0D7FF07F68863A3F6E4
:101A10006C631968B24862F0CFFF002387F8873EF5
:101A2000B04B00221A60B04B00221A60AF4B4FF04F
:101A3000FF321A60AE4B00221A60AE4B00221A60D1
:101A40004FF48072FF21AC4863F0B6F9AB4807F061
:101A5000F5FDAB485DF0E6FAAA485EF040FCAA4806
:101A600036F023FAA9483FF0F1FCA94BC7F85C3ED9
:101A7000D7F85C0EFEF794FC03460093D7F85C3E63
:101A8000A24AA449A04836F05FFAC7F8580ED7F822
:101A9000583E002B05D0D7F8581E9F4862F08CFFA7
:101AA00097E3D7F8581E9D4862F086FF07F68863D3
:101AB000A3F6686207F68863A3F6646100231268E0
:101AC00009688E4807F0C4FDC7F8580ED7F8583E8D
:101AD000002B05D0D7F8581E914862F06DFF78E3CF
:101AE000D7F8581E8F4862F067FF002300220021BC
:101AF00084485EF001FCC7F8580ED7F8583E002B1A
:101B000005D0D7F8581E884862F056FF61E3D7F831
:101B1000581E864862F050FF00217A485DF046FC6E
:101B2000794A834977485DF057FC764974485DF0FF
:101B3000B9FAC7F8580ED7F8583E002B05D0D7F899
:101B4000581E7C4862F038FF43E3D7F8581E7A48A5
:101B500062F032FF07F68863A3F664631968684889
:101B60005DF0B8FCC7F8580ED7F8583E002B05D0EA
:101B7000D7F8581E714862F01FFF2AE3D7F8581EA5
:101B80006F4862F019FF002300936E4B6E4A5B4969
:101B90005B485DF045FC0023C7F8803E0523C7F88D
:101BA000543E2CE0D7F8583E13F5D24F24D0D7F846
:101BB000583E13F5D14F1FD0D7F8583E5B42194617
:101BC000624862F0F9FED7F8803E0133C7F8803EE4
:101BD000D7F8802ED7F8543E9A4205DBD7F8541E2A
:101BE0005B4862F0E9FEF4E24FF47A7015F056FDBE
:101BF00043485DF0A2FB02E00023C7F8803E404866
:101C00005DF0D6FDC7F8580ED7F8583E002BC9D165
:101C1000504862F041FF07F68863A3F66C6207F64E
:101C2000484007F68863A3F664631B680093136853
:101C3000494A4FF4007162F037FF0023C7F87C3E39
:101C400025E007F64842D7F87C3ED41807F648430B
:101C50001846FEF7A5FB0246D7F87C3ED31A1A4673
:101C6000214627485EF01AF9C7F8580ED7F8583EB3
:101C7000002B05DAD7F8581E384862F09DFEA8E21E
:101C8000D7F8583ED7F87C2E1344C7F87C3E07F6A9
:101C900048431846FEF784FB0246D7F87C3E934241
:101CA000CFD32F4862F0F8FE0023C7F8783E85E0D6
:101CB000D7F8783E002B55D107F68863A3F511734A
:101CC0001B780D2B4ED10123C7F8783E76E000BF7C
:101CD000F48C0808FC2800240C8D0808208D0808C6
:101CE000348D0808080800240C0800241000002483
:101CF00010080024FC070024FC050024AC0C002480
:101D0000A84C0024C04D0024C44F002408510024D6
:101D1000488D080845170608548D0808788D08086E
:101D2000988D0808B88D0808DC8D0808048E08080E
:101D3000F9860508308E0808508E0808708E08084D
:101D4000988E080875970208F1970208C08E080857
:101D5000E08E0808088F0808208F0808608F0808A0
:101D6000788F0808D7F8783E012B0AD107F68863E8
:101D7000A3F511731B780A2B03D10223C7F8783E11
:101D80001CE0D7F8783E022B0AD107F68863A3F54A
:101D900011731B780D2B03D10323C7F8783E0DE098
:101DA000D7F8783E032B06D107F68863A3F51173A5
:101DB0001B780A2B0DD00023C7F8783E07F6444362
:101DC00001221946CD485DF01DFE0346002B3FF76A
:101DD0006FAFFFF7B3FD4FF4054003F069F8C84952
:101DE0004FF4054003F082F8C64862F055FE002328
:101DF000C7F8743E0023C7F8703E0023C7F86C3E56
:101E00000023C7F8683E002387F8673EBE4B1B6877
:101E1000002B02D0BC4B1B6800E0BC4BC7F8503E07
:101E2000A6E1D7F8702ED7F8583E1344C7F8703E95
:101E3000D7F86C3E0133C7F86C3EB54B1B78002BCE
:101E400006D0D7F8582ED7F86C1EB24862F0B4FD11
:101E5000D7F8703EDA179A46934652465B46911879
:101E600039605B417B60D7E9002312EB0A0843EB42
:101E70000B094FF000024FF000034FEA491343EA09
:101E8000D8634FEA481218EB020549EB030615EB3D
:101E90000A033B6146EB0B037B61D7F8503E0022FF
:101EA000BB60FA60D7E90223D7E90401FEF73CFCE6
:101EB00002460B46D3B2C7F84C3E97F8673ED7F8B8
:101EC0004C2E9A422CD9D7F84C3E642B18D84FF49C
:101ED000054002F0EDFF07F13003D7F84C2E8E4994
:101EE000184662F017FE07F1300319464FF405401B
:101EF00002F0FCFFD7F84C1E884862F05DFD0BE055
:101F00004FF4054002F0D4FF85494FF4054002F03C
:101F1000EDFF844862F050FDD7F84C3E87F8673EED
:101F20000023C7F8603E18E107F68863A3F6442251
:101F3000D7F8603E13441B7887F84B3ED7F8743EC1
:101F400040F2FE32934211D8D7F8741E4B1CC7F8EA
:101F5000743E07F68863A3F6446297F84B3E5354E9
:101F600097F84B3E0A2B40F0F3800AE0D7F8602E3A
:101F7000D7F86C1E6C4862F01FFD012387F8873E7E
:101F8000F2E007F68863A3F64462D7F8743E1A4479
:101F900000231370D7F8743E012B17DDD7F8743E79
:101FA0005A1E07F68863A3F644639B5C0D2B0DD184
:101FB000D7F8743E591E07F68863A3F644620023DF
:101FC0005354D7F8743E013BC7F8743ED7F8743EBB
:101FD000012B03DC0023C7F8743EB9E04C4B1B789F
:101FE000002B16D007F14403D7F8742E19464F483A
:101FF00062F0E2FC0DE0D7F8743E013BC7F8743E96
:1020000007F68863A3F64462D7F8743E1A440023A7
:102010001370D7F8743E002B0FDDD7F8743E5A1EAC
:1020200007F68863A3F644639B5C0133404A13447C
:102030001B7803F00803002BDDD107F14403184699
:1020400000F0DAF8034687F84A3ED7F8683E0133D5
:10205000C7F8683E0023C7F8743E97F84A3E002B45
:1020600006D1344862F018FD012387F8873E7BE0F3
:1020700097F84A3E022B6BD12F4862F00DFD07F610
:102080008863A3F65C6300221A602C4B1B684FF038
:10209000FF31184613F07EFD07F12C0304220021C6
:1020A0001846FFF718FB254B1B68184613F0C0FDB8
:1020B00007F68863A3F65C631B681946204862F044
:1020C0007BFC4FF4054002F0F3FE1E494FF405403F
:1020D00002F00CFF4FF47A7015F0E0FA4FF405406F
:1020E00002F0E6FE18494FF4054002F0FFFE1748E3
:1020F00062F062FCFFF756FC36E000BFA84C0024FB
:10210000A08F0808B08F0808000800246666160033
:1021100014080024D88F0808FC8F080810900808BD
:102120002C900808409008086090080890900808D3
:10213000593C0A08B4900808E8900808384400247C
:102140000091080824910808389108084891080867
:10215000D7F8603E0133C7F8603ED7F8602ED7F855
:10216000583E9A42FFF6E0AE97F8873E002B0FD11B
:1021700007F244434FF40062194618485DF042FCF0
:10218000C7F8580ED7F8583E002B3FF74AAE00E08C
:1021900000BFD7F8682ED7F8701E114862F00CFC0B
:1021A0000E485DF0ADFE0F4807F060FB0B485EF097
:1021B00006F80D485EF098FA0C4835F0DBFE0C4846
:1021C0003FF06AF997F8873E002B02D0094862F089
:1021D00063FC07F68C67BD46BDE8F08FA84C002471
:1021E00070910808AC0C0024C04D0024C44F00249A
:1021F00008510024A891080880B58EB000AF78601F
:1022000002E07B6801337B607B681B78002B09D080
:102210007B681B780133954A13441B7803F008034D
:10222000002BEED17868FEF7BBF8786307E07B6B94
:10223000013B7B637A687B6B134400221A707B6BD3
:10224000002B0CD07B6B013B7A6813441B78013365
:10225000864A13441B7803F00803002BE7D17B6BFD
:10226000002B01D10123CBE17B681B783A2B05D0F1
:1022700079687F4862F0A0FB0023C1E17B680133ED
:102280003B6200233B6300233B610023FB6007F1BB
:1022900018031A467749386A62F05EFC0346012B40
:1022A00001D00023ACE1BB695B00BB61BB690A33B1
:1022B000BB610023FB6214E03A6AFB6A134407F136
:1022C00014026C49184662F047FC0346012B01D00A
:1022D000002395E17B693A6B13443B63FB6A02334D
:1022E000FB62BB69FA6A9A42E6D33B6BDBB23B63A3
:1022F0003B6B002B04D0604862F0CEFB00237FE1F3
:102300003B6A981C07F10C0307F110025B4962F06D
:1023100023FCFB68002B40F0C9803B699BB2DBB219
:102320009BB204339AB2564B1A800823BB628EE0EC
:102330003A6ABB6A134407F114024E49184662F028
:102340000BFC79694E4B1B885A1C90B24C4A10808A
:102350001A46C9B24B4B9954494B1B88FF2B73D972
:10236000002387F82730002387F8263041E0464BCA
:102370001B684FF0FF31184613F00CFC434B1B68F1
:102380004FF4807219463F48FFF710FA3F4B1B6825
:102390004FF4807219463E48FFF79DF93A4B1B688F
:1023A000184613F045FC4FF480723649384862F005
:1023B000D9FC0346002B03D1012387F8263018E00F
:1023C00097F82730013387F82730304B1B6897F890
:1023D000272019462F4862F0EFFA4FF480722949FE
:1023E0002D4800F02FF94FF4807229492B4800F056
:1023F00029F997F82730132B06D897F8263083F061
:102400000103DBB2002BB2D197F8263083F0010331
:10241000DBB2002B09D097F827301C4A1268194606
:102420001F4862F0C9FA0023EAE0184B1B6803F565
:102430008073164A13604FF48072FF21114862F0D6
:10244000BBFC0F4B00221A80BB6A0233BB62BB6924
:10245000023BBA6A9A42FFF46BAF124B1B78002B17
:1024600002D0114862F018FB0123C9E0593C0A0868
:10247000D8910808F4910808FC91080814920808FB
:1024800016080024FC05002438440024FC0700241E
:10249000FC06002420920808449208085C92080870
:1024A0007492080814080024A4920808FB68012B01
:1024B0007ED1554B1B684FF0FF31184613F06AFB75
:1024C000524B1B684FF4807219465148FFF76EF962
:1024D0004E4B1B684FF4807219464E48FFF7FBF8CD
:1024E000494B1B68184613F0A3FB4FF48072484910
:1024F000484862F037FC0346002B07D0434B1B686B
:102500001946454862F058FA002379E0434B1B888E
:102510001A463E4B1B68D118404B1B881A463B4B52
:102520001B6813441A463E4862F046FA374B1B6854
:1025300003F58073354A1360334B1B684FF0FF314E
:10254000184613F027FB042200213048FFF794F9C6
:102550000346002B09D12C4B1B68184613F068FB6F
:10256000304862F099FA00234AE004220021294809
:10257000FFF7B1F8244B1B68184613F059FB254BA5
:102580001B68FB61214B1B68FA699A4208D01F4BFC
:102590001B68FA691946244862F00EFA00232FE0FE
:1025A0001A4B1B681946214862F006FA022327E0FD
:1025B000FB68042B16D13B6A083307F110021C4953
:1025C000184662F0C9FA3B6940F60202934204D110
:1025D000FFF7B4F9174862F05FFA174862F05CFA47
:1025E00001230DE0FB68052B04D1144862F054FA76
:1025F000012305E0FB681946114862F0DDF901236B
:1026000018463837BD4680BD38440024FC070024F6
:10261000FC050024FC060024B892080816080024D3
:10262000D8920808FC9208081C93080844930808EC
:102630007C930808B08F080884930808A0930808C2
:10264000C893080880B586B000AFF860B9607A60BA
:102650007A68F968144862F0AFF900237B6113E0EF
:10266000BA687B6913441B781946104862F0A4F9D4
:102670007B69013303F00F03002B02D10A2062F0C3
:10268000ADF97B6901337B617A697B689A42E7D354
:102690007B6803F00F03002B02D00A2062F09EF942
:1026A00000BF1837BD4680BDE4930808F8930808BA
:1026B00080B588B000AF0346FB710B46BB71134673
:1026C0007B7107F10C0300221A605A609A60DA608D
:1026D0001A61FB793B73BB797B737B79BB730023F6
:1026E000BB610023FB6107F10C0300221946064879
:1026F0000EF054FA0346002B01D006F07BFF00BF1A
:102700002037BD4680BD00BF9453002480B584B0FF
:1027100000AF0346FB710B46BB7113467B71002370
:10272000FB60BB797B737B79BB73FB79FB7307F130
:102730000C030022194609480EF02AFB0346002B21
:1027400001D006F057FF42F24532012103480EF056
:10275000C5FC00BF1037BD4680BD00BF94530024A8
:1027600080B584B002AF7860396000221149124808
:102770000EF0B2FA002211490F480EF091FB0D4BFA
:102780001B781A460B4B5B780D49786862F0C2F9EA
:102790000A4B5B781A46094B9B781946074BDB7846
:1027A00000930B460749386862F0B4F900BF083758
:1027B000BD4680BD1C080024945300241808002442
:1027C000009408080C94080880B586B000AF3A461B
:1027D00007F10C0311461846FFF7C2FF07F10C037F
:1027E0001946064862F0E8F83B461946044862F08C
:1027F000E3F800BF1837BD4680BD00BF1C94080831
:102800003094080880B582B000AF7860391D4FF071
:10281000FF33012203480FF0F7FE7B6818460837A4
:10282000BD4680BD0858002480B582B000AF7860F6
:102830007868FDF7B5FD03469AB24FF0FF3379682B
:1028400003480FF0E1FE00BF0837BD4680BD00BF62
:102850004C56002480B582B000AF78600E4862F01C
:102860001BF90E4B01221A700D494FF4054002F07E
:102870003DFB0C4B1B680C4A11680C4A1268184649
:10288000FFF794F8054B00221A70FFF78BF800BF92
:102890000837BD4680BD00BF44940808480800249E
:1028A0005494080844000024480000244C000024EC
:1028B00090B595B002AF894B1B68012B02D1874BB5
:1028C00000221A60864B1B780133DAB2844B1A70EF
:1028D000844B1B8840F20112934220D12022002118
:1028E000814862F069FA10214FF4054002F0B6FA0F
:1028F000042200217D4862F05FFA7D4B00221A70AD
:102900006423102278497B480FF07EFE042002F0F9
:102910005DFA744B00221A80774B04221A70714BB7
:102920001B88B3F5817F08D10E2002F04FFA6D4B62
:1029300000221A80704B0E221A706A4B1B88B3F566
:10294000A87F0BD1042002F041FA664B00221A80C6
:10295000694B04221A70694B01221A70614B1B8863
:1029600040F20312934253D1654B00221A60654B2B
:1029700000221A6017E0634B1B6898B2604B1B681B
:1029800003F5C0639BB21B019BB21A46012102F002
:102990001FF95B4B1B680133594A1360594B1B6885
:1029A0000133584A1360574B1B681F2BE3D945F678
:1029B000C01002F07DFA202200214B4862F0FCF9A1
:1029C0005149494862F0A6F84749504862F027FB50
:1029D0004E48FDF7E5FC0346DBB2194645F6C0104C
:1029E00002F03CFA4948FDF7DBFC03469AB2C823E3
:1029F000464940480FF008FE052002F0E7F9394B40
:102A000000221A803C4B05221A70414B00221A709A
:102A1000344B1B88B3F5827F53D1394B00221A60A7
:102A2000384B00221A6017E0364B1B6898B2344BC3
:102A30001B6803F5C0639BB21B019BB21A460221BF
:102A400002F0C6F82E4B1B6801332D4A13602D4B44
:102A50001B6801332B4A13602A4B1B681F2BE3D9D9
:102A600045F6C01002F024FA202200211E4862F030
:102A7000A3F928491C4862F04DF81B49234862F02D
:102A8000CEFA2248FDF78CFC0346DBB2194645F628
:102A9000C01002F0E3F91D48FDF782FC03469AB22C
:102AA000C8231A4913480FF0AFFD052002F08EF934
:102AB0000C4B00221A80104B05221A70144B002276
:102AC0001A70084B1B8840F20512934271D10C4BCF
:102AD00000221A600B4B00221A6035E044440024A7
:102AE000500A0024740C00244C080024800C00249C
:102AF000850C0024B85500240D0C0024A80C0024DB
:102B0000FC0B0024F80B002478270024480900243B
:102B100014000024B8270024854B1B6898B2854B0D
:102B20001B6803F5C0639BB21B019BB21A460321CD
:102B300002F04EF87F4B1B6801337E4A13607C4BDA
:102B40001B6801337A4A1360794B1B681F2BE3D94A
:102B500045F6C01002F0ACF920220021764862F060
:102B60002BF97649744861F0D5FF7349744862F0D7
:102B700056FA7348FDF714FC0346DBB2194645F6D6
:102B8000C01002F06BF96E48FDF70AFC03469AB2DA
:102B9000C8236B496B480FF037FD052002F016F98A
:102BA000694B00221A80694B05221A70684B00227B
:102BB0001A70654B1B88B3F5837F53D15D4B0022A0
:102BC0001A605B4B00221A6017E0594B1B6898B2E1
:102BD000584B1B6803F5C0639BB21B019BB21A469E
:102BE000042101F0F5FF534B1B680133514A136078
:102BF0004F4B1B6801334E4A13604D4B1B681F2B14
:102C0000E3D945F6C01002F053F9202200214A48CA
:102C100062F0D2F84F49484861F07CFF4649484885
:102C200062F0FDF94648FDF7BBFB0346DBB21946EF
:102C300045F6C01002F012F94148FDF7B1FB03461A
:102C40009AB2C8233E493F480FF0DEFC052002F04F
:102C5000BDF83D4B00221A803C4B05221A703C4BBC
:102C600000221A70384B1B8840F20712934253D14E
:102C7000304B00221A602E4B00221A6017E02C4BBA
:102C80001B6898B22B4B1B6803F5C0639BB21B01FA
:102C90009BB21A46052101F09BFF264B1B680133AE
:102CA000244A1360224B1B680133214A1360204BD6
:102CB0001B681F2BE3D945F6C01002F0F9F820225B
:102CC00000211D4862F078F823491B4861F022FF7B
:102CD00019491B4862F0A3F91948FDF761FB034647
:102CE000DBB2194645F6C01002F0B8F81448FDF7FB
:102CF00057FB03469AB2C823114912480FF084FCCF
:102D0000052002F063F8104B00221A800F4B0522B9
:102D10001A700F4B00221A700B4B1B88B3F5847F7F
:102D200069D1044B00221A60014B00221A602DE089
:102D3000F80B0024FC0B00244C080024F827002486
:102D400048090024B8550024740C00240D0C0024FC
:102D5000140000243828002478280024A84B1B687D
:102D600098B2A84B1B6803F5C0639BB21B019BB2D2
:102D70001A46062101F02CFFA24B1B680133A14A21
:102D800013609F4B1B6801339D4A13609C4B1B686B
:102D90001F2BE3D945F6C01002F08AF8202200214B
:102DA000994862F009F89949974861F0B3FE96494D
:102DB000974862F034F99648FDF7F2FA0346DBB221
:102DC000194645F6C01002F049F89148FDF7E8FAB7
:102DD00003469AB2C8238E498E480FF015FC052091
:102DE00001F0F4FF8C4B00221A808C4B05221A70E4
:102DF0008B4B00221A70884B1B8840F20B129342B7
:102E00000DD1884B1A68884B1B6800931346052226
:102E10008649874802F050FF7F4B00221A807E4B84
:102E20001B88B3F5907F5FD37B4B1B88B3F5937FF3
:102E30005AD2804B01221A70774B1B88DBB2203BA1
:102E4000DAB27D4B1A707C4B1B7819467B4A0B46D5
:102E5000DB005B1A13441A78744B1A70764B1B789C
:102E60001946764A0B46DB005B1A134401331A7885
:102E70006E4B5A70704B1B781946704A0B46DB003C
:102E80005B1A134402331A78684B9A706A4B1B78AA
:102E900019466A4A0B46DB005B1A134403331A785F
:102EA000624BDA70644B1B781946644A0B46DB00B0
:102EB0005B1A134404331A785C4B1A715E4B1B780F
:102EC00019465E4A0B46DB005B1A134405331A7839
:102ED000564B5A71504B1B88DBB21F3BDAB2564B34
:102EE0001A704D4B00221A804B4B1B88B3F5A05F24
:102EF0005ED9494B1B8841F20642934258D84D4B4C
:102F000001221A70444B1B88DBB2013BDAB24A4BF8
:102F10001A70494B1B781946484A0B46DB005B1A6E
:102F200013441A78414B1A70434B1B781946434A95
:102F30000B46DB005B1A134401331A783B4B5A7083
:102F40003D4B1B7819463D4A0B46DB005B1A134488
:102F500002331A78354B9A70374B1B781946374A2B
:102F60000B46DB005B1A134403331A782F4BDA70DD
:102F7000314B1B781946314A0B46DB005B1A134470
:102F800004331A78294B1A712B4B1B7819462B4A9C
:102F90000B46DB005B1A134405331A78234B5A7136
:102FA0001D4B1B88DAB2244B1A701B4B00221A806F
:102FB000194B1B8841F2114293420DD1204B002244
:102FC0001A8001F0D3FF0F2001F000FF134B0F22F6
:102FD0001A70114B00221A800F4B1B8841F21152BC
:102FE000934235D00C4B1B8841F2125293422FD0A2
:102FF000094B1B8841F21162934229D022E000BFA5
:10300000F80B0024FC0B00244C080024B8280024F2
:1030100048090024B8550024740C00240D0C002429
:103020001400002404000024000000245C0A002492
:10303000905400240E0C0024030C0024640A002485
:1030400016000024AD4B1B8841F2126293420BD153
:10305000AB4B00221A800E2001F0B8FEA94B0E22C5
:103060001A70A64B00221A80A44B1B8841F21352FF
:10307000934205D0A14B1B8841F21452934252D186
:103080009F4B00221A8048F2403001F011FF4FF4AC
:10309000034001F00DFF4FF4044001F009FF48F236
:1030A000803001F005FF48F2C03001F001FF48F226
:1030B000404001F0FDFE944B1B6819464FF403405D
:1030C00001F014FF914B1B68194648F2403001F0A3
:1030D0000DFF8F4B1B688F4A13608F4B1B688F4A05
:1030E00013608F4B1B688F4A13608C4B1A688D4B93
:1030F0001B6807F11C008C4961F00CFD07F11C03F3
:10310000194648F2803001F0F1FE884948F2C0309B
:1031100001F0ECFE102001F059FE7A4B10221A70DB
:10312000764B00221A80754B1B8841F21362934242
:1031300005D0724B1B8841F2146293420DD1704B43
:1031400000221A8001F012FF0F2001F03FFE6D4BAC
:103150000F221A70694B00221A80684B1B8840F2BC
:10316000025293420BD1664B00221A80012001F0DB
:103170002DFE644B01221A70604B00221A80614BB5
:103180001B78042B40F07A81694B1B78002B16D0FA
:103190005A4B1B8840F20C42934240F06F814FF42F
:1031A000054001F085FE63494FF4054001F09EFEA5
:1031B0004FF47A7014F072FAFEF7F4FB5EE14F4BB5
:1031C0001B8840F20B42934228D14C4B00221A80BC
:1031D000594B1B78002B0BD0574B1B78013BDAB2B5
:1031E000554B1A70544B1B781A46544B0021995476
:1031F0004FF4054001F05CFE50494FF4054001F0EA
:1032000075FE4E494E4861F0D7FB4C48FDF7C8F8B3
:10321000034619464B4861F0CFFB2FE1374B1B8823
:1032200040F20C42934256D147494448FDF758F8C2
:103230000346002B23D1324B00221A80012001F0DB
:10324000C5FD304B01221A70404861F025FC042274
:1032500000213A4861F0B0FD374B00221A704FF45C
:10326000D24001F025FE3A494FF4D24001F03EFE33
:10327000384B01221A70384B00221A7027E0374968
:103280002E48FDF72DF80346002B0CD1344B0122BC
:103290001A70002300934FF4C05300223149324882
:1032A00029F04CFB13E0164B00221A80012001F09C
:1032B0008DFD144B01221A70042200211F4861F079
:1032C0007BFD1D4B00221A70284861F0E5FB0B4B7B
:1032D00000221A80D2E0094B1B8840F2134293422D
:1032E00046D1074B00221A80012001F06FFD054BEB
:1032F00001221A70014B00221A80BFE0740C0024D6
:10330000160000240D0C00240000002404000024FA
:1033100000E8F11F440A002404E8F11F480A0024D1
:1033200008E8F11F4C0A0024649408087094080807
:10333000A80C002478940808850C0024800C002434
:10334000849408089494080824000024A094080891
:10335000B49408087C0C00247D0C00242C0000246C
:103360000F0C002455280208C0940808CC940808C3
:103370007C4B1B8840F2144293420CD17A4B0022C2
:103380001A80012001F022FD784B01221A70754B42
:1033900000221A8072E04FF0FF337B64714B1B8870
:1033A000A3F20143092B35D801A252F823F000BF44
:1033B000D9330208DF330208E5330208EB33020891
:1033C000F1330208F7330208FD3302080334020820
:1033D000093402080F34020801237B641BE0022336
:1033E0007B6418E003237B6415E004237B6412E014
:1033F00005237B640FE006237B640CE007237B64DA
:1034000009E008237B6406E009237B6403E00023D2
:103410007B6400E000BF534B1B88002B2BD07B6CE0
:10342000002B17DB524B1B78032B13D87B6CDAB2C3
:103430004F4B1B78591CC8B24D490870194602F110
:103440003003DAB24B4B5A54494B1B781A46494B5E
:103450000021995447494FF4054001F047FD454983
:10346000454861F0A9FA4348FCF79AFF034619461C
:10347000424861F0A1FA3B4B00221A80404B1B7876
:10348000002B00F0A3803F4B1B78002B19D145F295
:103490000811052001F0BEFC3B48FCF781FF034604
:1034A0001A460021384861F087FC002001F03EFEFA
:1034B00045F20811112001F0ADFC324B01221A70C7
:1034C00084E0304B1B78012B0BD1012001F02EFE44
:1034D00045F20811212001F09DFC2A4B02221A70AE
:1034E00074E0284B1B78022B0BD1022001F01EFE4A
:1034F00045F20811312001F08DFC224B03221A7095
:1035000064E0204B1B78032B0BD1032001F00EFE4F
:1035100045F20811422001F07DFC1A4B04221A707A
:1035200054E0184B1B78042B0BD1042001F0FEFD56
:1035300045F20811532001F06DFC124B05221A7060
:1035400044E0104B1B78052B20D1052001F0EEFD47
:1035500045F20811642001F05DFC0A4B06221A7046
:1035600034E000BF740C0024160000240D0C00246D
:10357000850C0024800C0024849408089494080886
:103580007C0C00247D0C00246C230024B54B1B789C
:10359000062B1BD1B44B00221A70B24B00221A70BA
:1035A000B2494FF4D24001F0A1FC4FF4781003F07F
:1035B0006FFF4FF47A7014F071F845F20811002093
:1035C00001F028FC4FF4D24001F072FCA84B1B889C
:1035D00040F20132934208D10E2001F0F7FBA44BD8
:1035E00000221A80A34B0E221A70A14B1B8840F2B6
:1035F0000232934208D1032001F0E8FB9C4B0022E9
:103600001A809C4B03221A70994B1B8840F203329C
:10361000934208D1032001F0D9FB954B00221A8078
:10362000944B03221A70924B1B8840F20152934232
:1036300008D10E2001F0CAFB8D4B00221A808D4B61
:103640000E221A708A4B1B8840F20252934205D117
:10365000052001F0BBFB864B00221A80844B1B889F
:1036600040F20352934205D1052001F0AFFB804B9D
:1036700000221A807E4B1B8841F2124293420BD1EA
:10368000012001F0A3FB7A4B00221A80794B012222
:103690001A70794B00221A80764B1B78062B00F0AB
:1036A000CC80764B1B78012B40F0C780744B1B7885
:1036B0001946744861F080F920220021724861F0B7
:1036C0007BFB724B1B681A4671496F4861F022FA06
:1036D0006D49704861F0A3FC6E48FCF761FE03463B
:1036E000DBB219464FF4EA4001F0B8FB6948FCF739
:1036F00057FE03469AB26423664967480EF084FF7A
:1037000020220021604861F057FB644B1B681A4679
:103710005F495D4861F0FEF95B495E4861F07FFCFE
:103720005C48FCF73DFE0346DBB2194647F21050F9
:1037300001F094FB5748FCF733FE03469AB264232A
:10374000544955480EF060FF202200214E4861F098
:1037500033FB4B4B1B781A4651494B4861F0DAF961
:1037600049494C4861F05BFC4A48FCF719FE0346A6
:10377000DBB2194647F2205001F070FB4548FCF7D8
:103780000FFE03469AB26423424943480EF03CFFC1
:10379000202200213C4861F00FFB424A3C493A4854
:1037A00061F0B8F938493B4861F039FC3948FCF719
:1037B000F7FD0346DBB2194647F2305001F04EFBED
:1037C0003448FCF7EDFD03469AB264233149324890
:1037D0000EF01AFF402200212B4861F0EDFA284B31
:1037E0001B78013B322202FB03F32F4A1A442D4B74
:1037F0002E49254861F08EF92349264861F00FFCD7
:103800002448FCF7CDFD0346DBB219464FF4EC40EB
:1038100001F024FB1F48FCF7C3FD03469AB2642362
:103820001C491D480EF0F0FE062001F0CFFA124BA5
:1038300000221A800F4B06221A700E4B1B78062BA3
:103840000AD10E4B1B78012B06D10B4B1B8845F27E
:103850000611184601F0DEFA054B1B8840F20162A2
:1038600026E000BF7D0C00247C0C0024E0940808B6
:10387000740C00240D0C0024160000240E0C0024EF
:10388000030C0024EC9408084C08002404000024D5
:103890002C95080848090024B8550024000000248D
:1038A000309508085C0A0024980A0024349508081A
:1038B00093420BD10E2001F089FAB24B00221A80FC
:1038C000B14B0E221A70B14B00221A70B04B1B88FC
:1038D000642B14D9AF4B1B7883F00103DBB2002BB0
:1038E0000DD0AD4948F2405001F000FB0E2001F030
:1038F0006DFAA54B0E221A70A44B00221A70A14B30
:103900001B8840F2026293421DD1A44B1B781946DA
:10391000A34B1A68A34B1B68009313460A46A2499F
:10392000A24802F0C9F90E2001F050FA954B00228E
:103930001A80954B0E221A70944B00221A70944BE9
:103940004FF47A721A809A4B1B8801339AB2984BC3
:103950001A80974B1B88052B08D98D4B1B88013388
:103960009AB28B4B1A80924B00221A80914B1B7893
:103970000A2B40F25884904B1B780133DAB28E4BFD
:103980001A708E4B1B780133DAB28C4B1A70894B4C
:1039900000221A70884B1B78122B00F2108401A2AF
:1039A00052F823F0F1390208213A0208C74102080F
:1039B000C7410208853A0208153B02085F3B02082E
:1039C000F53B0208593C0208A33C0208ED3C020802
:1039D000B13D02085F3E0208E13F0208C74102080C
:1039E00025400208AD400208B7400208E540020841
:1039F000684B1B7883F00103DBB2002B00F0E583FA
:103A000048F2405001F054FA634948F2405001F046
:103A10006DFA0E2001F0DAF95B4B0E221A70D4E336
:103A2000674B1B6842F21072934205D94FF4A241D2
:103A3000002001F0EFF904E04FF4A241012001F071
:103A4000E9F9604B1B68002B05D145F202110220F9
:103A500001F0E0F904E045F20211032001F0DAF987
:103A6000574B1B6842F21072934205D945F204117C
:103A7000042001F0CFF9D6E345F20411052001F04E
:103A8000C9F9D0E3202200214F4861F095F94D4B50
:103A90001B681B0EDAB24D4B1A704A4B1B681B0C8D
:103AA000DAB24B4B1A70474B1B681B0ADAB2494B10
:103AB0001A70444B1B68DAB2474B1A70464B1B789E
:103AC0001946444B1B781846414B1B781A463F4B0E
:103AD0001B780193009203460A4640493A4861F038
:103AE00019F839493E4861F09AFA3748FCF758FC12
:103AF0000346DBB219464FF4D14001F0AFF932482A
:103B0000FCF74EFC03469AB26423354935480EF063
:103B10007BFD88E3202200212B4861F04DF9324BD8
:103B20001B681A463149284860F0F4FF26492C48A2
:103B300061F075FA2448FCF733FC0346DBB2194602
:103B400046F6C00001F08AF91F48FCF729FC03463D
:103B50009AB26423224923480EF056FD63E30D4BCD
:103B60001B7883F00103DBB2002B00F030834FF4AD
:103B7000D24001F09DF91E494FF4D24001F0B6F950
:103B800025E300BF740C00240D0C00240E0C00244F
:103B9000160000247C0C0024D8040024030C00240C
:103BA00004000024000000245C0A00249054002437
:103BB000520A0024500A002414000024510A002450
:103BC00018000024E81D00244C080024EC1D0024EB
:103BD000ED1D0024EE1D0024EF1D0024489508086B
:103BE00048090024B85500243C00002454950808D6
:103BF0005C950808AB4B1B68AB4A1360AB4B1B686A
:103C0000AB4A1360AB4B1B68AB4A13602022002108
:103C1000AA4861F0D1F8A64B1A68A74B1B68A849BF
:103C2000A64860F077FFA549A64861F0F8F9A348D7
:103C3000FCF7B6FB0346DBB2194647F2200001F061
:103C40000DF99E48FCF7ACFB03469AB264239D49EC
:103C50009D480EF0D9FCE6E220220021974861F051
:103C6000ABF89A4B1B681A469949944860F052FF8A
:103C70009249944861F0D3F99048FCF791FB0346D0
:103C8000DBB2194647F2700001F0E8F88B48FCF708
:103C900087FB03469AB264238A498B480EF0B4FC32
:103CA000C1E220220021854861F086F8894B1B681B
:103CB0001A468749814860F02DFF8049814861F0AC
:103CC000AEF97E48FCF76CFB0346DBB2194647F2BF
:103CD000600001F0C3F87948FCF762FB03469AB232
:103CE0006423784978480EF08FFC9CE22022002162
:103CF000724861F061F8784B1B78784A78496F48D0
:103D000060F008FF6D496F4861F089F96B48FCF776
:103D100047FB0346DBB219464FF4E14001F09EF841
:103D20006648FCF73DFB03469AB264236549664842
:103D30000EF06AFC00233B6436E06A4A3B6C52F8A2
:103D40002330002B2CD0202200215C4861F034F875
:103D50003A6C1346DB009B1A634A13441A466349C4
:103D6000564860F0D7FE5549564861F058F93B6C0B
:103D700003F5E4631B011C465048FCF711FB0346A6
:103D8000DBB21946204601F069F84C48FCF708FB05
:103D900003469AB264234B494B480EF035FC00E0D1
:103DA00000BF3B6C01333B643B6C052BC5DD3AE245
:103DB000FA220021414860F0FFFF0023FB6300234B
:103DC000BB632EE0474ABB6B52F82330002B2CD04C
:103DD000BB6B002B11D1FB6B384A9818444ABB6B64
:103DE00032F81330C3F120031A46424960F092FEC4
:103DF0000246FB6B1344FB6310E0FB6B2F4A9818E1
:103E00003B4ABB6B32F81330C3F120031A463A49E0
:103E100060F080FE0246FB6B1344FB63BB6B013317
:103E2000BB63BB6B052BCDDD00E000BF23492548FC
:103E300061F0F5F82148FCF7B3FA0346DBB2194606
:103E400047F2900001F00AF81C48FCF7A9FA034673
:103E50009AB264231B491C480EF0D6FBE3E1FA2218
:103E60000021164860F0A8FF0023FB6300237B635A
:103E700056E01C4A7B6B52F82330002B54D07B6BEE
:103E8000002B3BD1FB6B0D4A9818194A7B6B32F81B
:103E900013301A46174960F03DFE0246FB6B13448F
:103EA000FB633AE000E8F11F440A002404E8F11F34
:103EB000480A002408E8F11F4C0A00244C0800249A
:103EC0006494080848090024B85500240000002420
:103ED0006495080804000024030C00245C0A0024F4
:103EE0006895080830080024640A00242C95080806
:103EF0009C4C00247095080874950808FB6BB64A22
:103F00009818B64A7B6B32F813301A46B44960F001
:103F100001FE0246FB6B1344FB637B6B01337B6347
:103F20007B6B052BA5DD00E000BFAB49AD4861F020
:103F300076F8A948FCF734FA0346DBB2194647F293
:103F4000B00000F08BFFA448FCF72AFA03469AB2AF
:103F50006423A449A4480EF057FB00233B633BE0D5
:103F6000A24A3B6B52F82330002B31D02022002193
:103F7000994860F021FF994A3B6B32F8133019469B
:103F8000964A3B6B32F81330C3F120030A46984936
:103F9000914860F0BFFD9049924861F040F83B6B5A
:103FA00003F5E6631B011C468B48FCF7F9F9034651
:103FB000DBB21946204600F051FF8748FCF7F0F9C4
:103FC00003469AB26423874987480EF01DFB00E040
:103FD00000BF3B6B01333B633B6B052BC0DD22E134
:103FE000202200217C4860F0E7FE82497A4860F098
:103FF00091FD79497B4861F012F87748FCF7D0F9D8
:104000000346DBB2194646F6400000F027FF72482F
:10401000FCF7C6F903469AB26423724972480EF05F
:10402000F3FA00E107F10C023B4611461846FEF791
:1040300097FB20220021684860F0BEFE07F10C03C8
:104040001946654860F066FD6349664860F0E7FF21
:10405000092146F6401000F001FF6423092261495E
:1040600061480EF0D1FA202200215B4860F0A4FEE6
:104070003B461946584860F04DFD5749594860F095
:10408000CEFF5848FCF78CF90346DBB219464FF4D3
:10409000D34000F0E3FE5348FCF782F903469AB29E
:1040A0006423504950480EF0AFFABCE04FF478104A
:1040B00003F06AF8B7E0504B1B78132B0ED84F4B28
:1040C0001B7883F00103DBB2002B00F082800E200E
:1040D00000F07CFE4A4B0E221A707AE0464B162204
:1040E0001A7076E0454B1B7883F00103DBB2002B9E
:1040F00000F0988002F014F90346002B3ED002F045
:1041000093F90346002B18D03E4860F0C5FC2022EE
:1041100000213D4860F050FE3C4A20213A4860F0C2
:10412000C3FC10214FF4D24000F098FE64232022FB
:1041300035492D480EF068FA74E002F075F903462F
:1041400083F00103DBB2002B6CD0314860F034FC0B
:10415000202200212C4860F02FFE2E4A20212A48E0
:1041600060F0A2FC10214FF4D24000F077FE6423EF
:10417000202225491C480EF047FA53E002F0D0F8FF
:10418000034683F00103DBB2002B4BD0224860F0E2
:1041900013FC202200211C4860F00EFE1F4A202143
:1041A000194860F081FC10214FF4D24000F056FE17
:1041B0006423202214490C480EF026FA32E0184BF2
:1041C00000221A702FE000BF2DE000BF2BE000BFDF
:1041D00029E000BF27E000BF4C0800249C4C0024CD
:1041E0007495080848090024B855002430080024B4
:1041F0007895080880950808510A00247C0C002452
:104200000D0C00248C950808880C0024AC95080837
:10421000B8950808D4950808E09508081496080889
:104220001400002400BFAB48FCF7BAF80346DAB22A
:10423000A94B1A70A74B1B78152B06D0A64B1B78E1
:10424000013BA44AD35C152B28D1A44B15221A702C
:10425000A24B00225A70A148FEF7E6FA00F06EFD6C
:104260009F4B00221A709F4B00221A709E4B002217
:104270001A709E4B00221A709D4B00221A709D4BA3
:1042800000221A709C4B00221A709C4B00221A705C
:104290009B4B00221A709B4B00221A708D4B1B788F
:1042A000042B0ED08B4B5B78042B0AD0894B9B7868
:1042B000042B06D0884B1B78013B864AD35C042B29
:1042C00053D18E4B1B78002B18D1864B1B78002BBB
:1042D00014D1884B1B78002B10D1844B1B78002BFA
:1042E0000CD1884B1B78002B08D17C4B04221A7010
:1042F0007A4B00225A707948FEF796FA794B1B7870
:10430000012B05D1764B01221A70764B00221A70D0
:104310007C4B1B78012B05D1794B01221A70794B0C
:1043200000221A70714B1B78012B05D16E4B0122B4
:104330001A706E4B00221A706E4B1B78012B05D140
:104340006B4B01221A706B4B00221A706B4B1B785F
:10435000002B05D0684B01221A70684B00221A709E
:10436000694B00221A6000F0E9FC5F4B1B78012BBF
:1043700029D15A4B02221A70584B30225A70574B8F
:1043800038229A70554B3222DA70544B35221A710A
:10439000524B34225A71514B37229A714F4B0322A0
:1043A000DA714E4B0F221A724FF0FF3309224B493C
:1043B00056480EF029F900F0C1FC4C4B00221A704F
:1043C000494B00221A704A4B1B78012B4AD1434BB0
:1043D00002221A70414B55225A70404B4E229A705D
:1043E0003E4B4922DA703D4B54221A713B4B452219
:1043F0005A713A4B43229A71384B2022DA71374B6B
:1044000020221A72354B50225A72344B4F229A7224
:10441000324B5322DA72314B34221A732F4B302233
:104420005A732E4B30229A732C4B3022DA732B4B5B
:1044300030221A74294B20225A74284B03229A7472
:10444000264B6B22DA744FF0FF33142223492F4896
:104450000EF0DAF800F072FC264B00221A70244BA2
:1044600000221A701E4B1B78012B2ED11B4B0222EF
:104470001A701A4B00225A704FF0FF33012217496D
:1044800022480EF0C1F8154B00221A70134B00227F
:104490005A704FF0FF33022210491C480EF0B4F856
:1044A0000E4B03221A700D4B03225A704FF0FF334C
:1044B00002220A4915480EF0A7F800F03FFC094B0C
:1044C00000221A70064B00221A700D4B1B78012B2C
:1044D0004DD11DE0B42900240C0C0024100C002444
:1044E000050C0024040C0024070C0024060C0024F6
:1044F000090C0024080C0024010C0024000C0024EA
:104500000B0C00240A0C0024180000244C56002434
:10451000774B02221A70764B00225A704FF0FF330D
:104520000122734973480EF06FF8714B00221A7024
:104530006F4B00225A704FF0FF3302226C496D48D6
:104540000EF062F86A4B03221A70694B03225A700C
:104550004FF0FF330222664966480EF055F800F02E
:10456000EDFB654B00221A70644B00221A70644BFD
:104570001B78002B00F08B815D4B02221A704FF0EC
:10458000FF3301225A495B480EF03EF85D4B1B7821
:10459000013B052B3AD801A252F823F0B545020899
:1045A000C3450208D3450208E1450208EF45020869
:1045B000FD450208544B554A1A60554B01221A70AA
:1045C0002BE0514B4FF47D121A60514B02221A70AE
:1045D00023E04D4B4F4A1A604D4B03221A701CE0EA
:1045E000494B4D4A1A604A4B04221A7015E0464B5B
:1045F0004A4A1A60464B05221A700EE0424B4FF4AD
:104600007E121A60424B06221A7006E03E4B3F4A69
:104610001A603F4B01221A7000BF3B4B1968394B9F
:104620001B78013B3E4A32F813301A463D4803F0EE
:1046300000F8344B1B785A1E1346DB009B1A3A4A8B
:104640009818314B19682F4B1B78013B344A32F8CC
:1046500013301A4602F0EDFF2B4B1968294B1B78DB
:10466000013B2F4A32F813301A46304802F0E1FF7E
:104670002C4B1A781E4B1A702A4B5A781C4B5A70C6
:10468000284B9A781A4B9A70264BDA78184BDA70C6
:10469000244B1A79164B1A71224B5A79144B5A71C2
:1046A000134B20229A71124B2022DA71104B2022D8
:1046B0001A720F4B20225A720D4B30229A720C4BF9
:1046C0003122DA720A4B30221A73094B30225A73A4
:1046D000074B30229A73064B0322DA73044B0022F5
:1046E0001A74034B00225A74114B00221A6030E0F6
:1046F000100C00244C5600240A0C00240B0C00243F
:10470000010C0024020C0024780C002400303F002F
:10471000860C002400503F0000603F0000703F0006
:104720009C4C0024540A0024640A00245C0A0024DF
:10473000F80B0024AE4B1A7CAE4B1B68AC49CB5C2B
:104740005340DAB2AA4B1A74AA4B1B680133A94A28
:104750001360A84B1B680F2BECD94FF0FF331122CD
:10476000A349A5480DF050FF00F0E8FAA34B1B88C1
:10477000A34AA449184602F0E9FFA04B1B88A14AAE
:104780001946A14860F018F9A04B1B78013BA04ADC
:1047900032F813309A4A9B49184602F0D7FF9B4BD8
:1047A0001B78013B9A4A32F813301946974B1B7815
:1047B000944A984860F000F9904B1B8801339AB2F4
:1047C0008E4B1A80914B1B78013B914A32F8132093
:1047D000013291B28E4A22F813100021002002F01B
:1047E00045FF8A4B1B781946884B1B78013B884A4A
:1047F00032F813301846854B1B78013B844A32F857
:104800001330C3F12003009303467E4A824860F0D0
:10481000D3F8824B00221A70814B00221A707B4B16
:1048200000221A707A4B1B88013B1A467D497E484C
:1048300002F0FFFE764B5B88013B1A464FF47D1178
:104840007A4802F0F6FE724B9B88013B1A46784983
:10485000784802F0EEFE6E4BDB88013B1A46764943
:10486000764802F0E6FE6A4B1B89013B1A46744902
:10487000744802F0DEFE664B5B89013B1A464FF43A
:104880007E11714802F0D5FE704B01221A70704BF8
:104890001B78102B12D16E4B5B78302B03D06C4BF6
:1048A0005B78312B0AD1524B04221A70504B0022F4
:1048B0005A704F48FDF7B8FF00F040FA6549644868
:1048C00060F010FB0346002B13D0494B10221A70E6
:1048D000474B30225A70464B00229A704448FDF7ED
:1048E000A3FF00F02BFA5C4B01221A705B4B0022F5
:1048F0001A705B49564860F0F5FA0346002B13D056
:104900003B4B10221A703A4B30225A70384B00221F
:104910009A703748FDF788FF00F010FA514B0122DA
:104920001A70514B00221A705049494860F0DAFA67
:104930000346002B13D02E4B10221A702C4B302222
:104940005A702B4B00229A702948FDF76DFF00F03A
:10495000F5F9474B01221A70464B00221A7046495E
:104960003B4860F0BFFA0346002B13D0204B1022C7
:104970001A701F4B30225A701D4B00229A701C482F
:10498000FDF752FF00F0DAF93C4B01221A703C4B64
:1049900000221A703B492E4860F0A4FA0346002B0F
:1049A0000BD01E4B01221A701D4B01221A70174B9F
:1049B00001221A70344B01221A703449244860F0E5
:1049C00091FA0346002B0BD0144B02221A70144BA1
:1049D00002221A700D4B02221A702B4B02221A70FF
:1049E0002B491B4860F07EFA0346002B52E000BFC3
:1049F000100C0024F80B00244C5600248C4C00248E
:104A00001C000024540A002420960808020C0024EC
:104A10009C4C00243C96080860960808000C002472
:104A2000010C002400303F00640A00246B0A0024BB
:104A300000503F00720A002400603F00790A002401
:104A400000703F00800A0024870A00240E0C002416
:104A5000B4290024A09608080A0C00240B0C00249A
:104A6000A4960808040C0024050C0024A896080845
:104A7000060C0024070C0024AC960808080C00243F
:104A8000090C0024B0960808030C0024B49608080A
:104A9000BC9608080BD0434B03221A70424B0322EA
:104AA0001A70424B03221A70414B03221A7041497B
:104AB000414860F017FA0346002B0BD0394B042213
:104AC0001A70394B04221A70384B04221A70384B72
:104AD00004221A703949384860F004FA0346002B62
:104AE0000BD0304B05221A702F4B05221A702F4B1A
:104AF00005221A702E4B05221A7031492E4860F09B
:104B0000F1F90346002B0BD0264B06221A70264BD8
:104B100006221A70254B06221A70254B06221A709F
:104B20002849254860F0DEF90346002B0BD01D4BC9
:104B300007221A701C4B07221A701C4B07221A708E
:104B40001B4B07221A7020491B4860F0CBF9034623
:104B5000002B0BD0134B08221A70134B08221A702B
:104B6000124B08221A70124B08221A700E4B1B7837
:104B7000002B10D0154B10221A70144B30225A7093
:104B8000124B00229A701148FDF74EFE00F0D6F845
:104B9000054B00221A700A2012F080FD00BF4C372E
:104BA000BD4690BD000C0024010C0024020C002422
:104BB000030C0024C4960808B4290024CC960808E5
:104BC000D4960808E0960808EC960808100C002413
:104BD00090B583B000AF0346FB800B46BB80134605
:104BE0007B80BB88012B05D1FB881A4638493948A0
:104BF00002F01FFDBB88022B06D1FB881A464FF43A
:104C00007D11344802F015FDBB88032B05D1FB88CC
:104C10001A4631492F4802F00CFDBB88042B05D100
:104C2000FB881A462D492B4802F003FDBB88052B53
:104C300005D1FB881A462A49264802F0FAFCBB88AF
:104C4000062B06D1FB881A464FF47E11214802F04C
:104C5000F0FC20220021234860F0AEF8BB88013B25
:104C6000214A32F81330FA889A4207D2FB885A1C3C
:104C7000184B1E491B485FF04DFF06E0FB885A1C8D
:104C8000144B1B4917485FF045FF1649194860F05F
:104C9000C6F97C881348FBF783FB0346DBB2194651
:104CA000204600F0DBF80F48FBF77AFB03469AB288
:104CB0004FF496730F4910480DF0A6FC20220021F6
:104CC000084860F079F800BF0C37BD4690BD00BFC2
:104CD00000303F00540A002400503F0000603F00B5
:104CE00000703F004C0800249C4C0024F8960808F3
:104CF0000897080848090024B855002480B483B0F8
:104D000000AF0C4B00221A8000237B6007E00A4AA8
:104D10007B68134400221A707B6801337B607B68D8
:104D2000962BF4DD00BF00BF0C37BD465DF8047B59
:104D3000704700BF7A2B00241C29002480B483B064
:104D400000AF0C4B00221A8000237B6007E00A4A68
:104D50007B68134400221A707B6801337B607B6898
:104D6000962BF4DD00BF00BF0C37BD465DF8047B19
:104D7000704700BF7C2B0024B429002480B582B08A
:104D800000AF786039603B689AB24FF496737968E7
:104D900003480DF039FC00BF0837BD4680BD00BF99
:104DA000B855002480B584B000AF074A3B1D07CA40
:104DB00003C31A803B1D0A211846FFF7DFFF00BF1F
:104DC0001037BD4680BD00BF1897080880B586B073
:104DD00000AF0346FB715A233B73A5237B73072364
:104DE000BB738223FB7300233B7484237B745A239D
:104DF000BB740123FB7400233B75FB797B7507F1C2
:104E00000C030A211846FFF7B9FF00BF1837BD464B
:104E100080BD000080B584B000AF786039600E4B73
:104E2000BB600023FB603B681B0ADBB23B733B6843
:104E3000DBB27B737B681B0ADBB2BB737B68DBB2C4
:104E4000FB7307F1080308211846FFF797FF00BF1F
:104E50001037BD4680BD00BF5AA5058280B586B01B
:104E600000AF78600B46FB705A233B73A5237B731E
:104E7000FB780333DBB2BB738223FB737B681B0AB3
:104E8000DBB23B747B68DBB27B740023BB7407F13D
:104E90000C0306211846FFF771FF07F10C030A22E5
:104EA000002118465FF088FF00BF1837BD4680BD5F
:104EB00080B582B000AF0346FB8020220021094864
:104EC0005FF07AFFFB8810211846FFF7C7FF6423C5
:104ED0001022044904480DF097FB00BF0837BD4677
:104EE00080BD00BF4C080024B855002490B583B0A5
:104EF00000AF03463960FB80FA22002117485FF0BB
:104F00005BFFFA22002116485FF056FF3B68154A06
:104F1000FA2112485FF0C8FD1048FBF741FA03463A
:104F20001A460E490E4860F082F8FC880B48FBF7E1
:104F300037FA0346DBB219462046FFF78FFF0748D2
:104F4000FBF72EFA03469AB26423054906480DF092
:104F50005BFB00BF0C37BD4690BD00BF4C08002472
:104F60004809002464950808B8550024F0B599B0A4
:104F700004AF48F24030FFF79BFF4FF40340FFF7C8
:104F800097FF4FF40440FFF793FF48F28030FFF79C
:104F90008FFF48F2C030FFF78BFF48F24040FFF729
:104FA00087FF554B1B681B0EDAB2544B1A70524BDD
:104FB0001B681B0CDAB2524B1A704F4B1B681B0A52
:104FC000DAB2504B1A704C4B1B68DAB24E4B1A7067
:104FD0004D4B1B7819464B4B1B781C46484B1B7896
:104FE0001A46464B1B7807F1340001930092234682
:104FF0000A4646495FF08EFD07F13403194648F230
:105000004030FFF773FF07F13403194640485FF063
:10501000D3FC404B1B6819464FF40340FFF766FF73
:105020003D4BDB68FB64FB6C1B0E87F84B30FB6C65
:105030001B0C87F84A30FB6C1B0A87F84930FB6C65
:1050400087F8483097F8481097F8494097F84A3061
:1050500097F84B2007F120000192009323460A465F
:105060002A495FF057FD07F1200319464FF4044029
:10507000FFF73CFF294948F28030FFF737FF284906
:1050800048F2C030FFF732FF00233B7180237B7171
:10509000E123BB71C023FB7100233B7223237B728E
:1050A0003B791D467B791E46BB79FA79397A787A45
:1050B000044607F10C0003940291019200933346D9
:1050C0002A4618495FF026FD07F10C03194648F2FD
:1050D0004040FFF70BFF07F10C031846FBF760F9A0
:1050E000024607F10C0319460F485FF065FC00BF4C
:1050F0005437BD46F0BD00BFE81D0024EC1D002460
:10510000ED1D0024EE1D0024EF1D00244895080825
:10511000249708083C000024484C002434970808D1
:105120003C970808449708086497080880B584B03D
:1051300000AF786007F1080300221A609A80494B9B
:105140001B68494A12681146184601F095F9034652
:10515000002B7ED0454B1B88DBB2C3F12003DAB2B3
:10516000434B1A70434B1B68184601F0A1FF796846
:1051700041485FF021FC7B68002B0CD13F4B1A6843
:1051800007F108033E4918465FF0C4FC3B4B1B681F
:10519000002B57D162E07B68012B0CD1374B1A6C86
:1051A00007F10803364918465FF0B4FC334B1B6C1B
:1051B000002B47D152E07B68022B0ED12F4BD3F846
:1051C000802007F108032E4918465FF0A3FC2B4B03
:1051D000D3F88030002B35D140E07B68032B0ED113
:1051E000264BD3F8C02007F10803254918465FF085
:1051F00091FC224BD3F8C030002B23D12EE07B68EA
:10520000042B0ED11D4BD3F8002107F108031C49D4
:1052100018465FF07FFC194BD3F80031002B11D1F9
:105220001CE07B68052B0DD1144BD3F8402107F10E
:105230000803134918465FF06DFC104BD3F840315A
:10524000002B0AD007F108031946202001F044FA88
:1052500004E00C485FF020FC00E000BF1037BD46C2
:1052600080BD00BF54000024500000248C4C00245A
:10527000F11D0024000000247C97080874270024F6
:1052800070950808A097080880B586B002AFF8604E
:10529000B9607A603B60BB6900933B687A680549F6
:1052A000F8685FF059FBF8685FF09EFA00BF1037AE
:1052B000BD4680BD8498080880B500AF4FF47810D3
:1052C00001F062FF5D4B1B7883F00103DBB2002B22
:1052D00002D000F0D3F83BE0594B1B78002B37D0BD
:1052E0005848FBF75DF803461A46002155485FF021
:1052F00063FD554B1B68554A12681146184601F06C
:10530000BBF80346002B23D04D4B1B78002B08D055
:105310004F485FF0C1FB4F4B1B68184601F0C8FEB9
:1053200002E04D485FF0B8FB4C4B1B88DBB2C3F189
:105330002003DAB24A4B1A704A4B1B6819464A4896
:105340005FF03AFB474B1B681946202001F0C4F977
:10535000464B1B88013B464A128893420ADC414B6C
:105360001B68444A1268444918465FF0D3FB344B2B
:1053700001221A703D4B5B88013B3D4A52889342A3
:105380000ADC384B1B683B4A126C3B4918465FF0FD
:10539000C1FB2B4B01221A70344B9B88013B344AD2
:1053A000928893420BDC2F4B1B68324AD2F8802044
:1053B000314918465FF0AEFB214B01221A702B4B8E
:1053C000DB88013B2A4AD28893420BDC254B1B68C1
:1053D000284AD2F8C020284918465FF09BFB184B9A
:1053E00001221A70214B1B89013B214A12899342E9
:1053F0000BDC1C4B1B681F4AD2F800211E491846C3
:105400005FF088FB0E4B01221A70184B5B89013B41
:10541000174A528993420BDC124B1B68154AD2F88B
:105420004021154918465FF075FB054B01221A70A3
:105430004FF4FA7012F032F944E700BFF01D002477
:10544000F21D00246C23002454000024500000248A
:10545000A498080800000024D89808088C4C002460
:10546000F11D00246852090810990808904C002486
:105470009C4C0024742700243499080890B5A1B0EE
:1054800002AF01237B6799485FF096FA984B1B683F
:105490009B6818465FF0A8F996483BF0D7FF964BFB
:1054A0001C68954B1B681846FAF77AFF0346009371
:1054B0002346904A9149924832F046FD78677B6FC7
:1054C000002B07D0796F8F485FF076FA8E4B012260
:1054D0001A70F4E08D485FF0DFFA8D4B5B68002BAB
:1054E00007D08B4B9B68002B03D0894BDB68002BCC
:1054F00011D14FF47A7012F0D1F8864B1B7801333A
:10550000DAB2844B1A70834B1B78092B73D982480B
:105510005FF0C2FA70E081485FF0BEFA7C4B5B68D6
:105520007F4A13607E4B1B681B0EDAB27D4B1A70EC
:105530007B4B1B681B0CDAB27B4B1A70784B1B68D9
:105540001B0ADAB2794B1A70754B1B68DAB2784BCA
:105550001A70774B1B781946744B1B781A46724B9E
:105560001B7818466F4B1B780093034671485FF019
:1055700023FA674B9B683B673B6F1B0E87F86F30C6
:105580003B6F1B0C87F86E303B6F1B0A87F86D3042
:105590003B6F87F86C3097F86C1097F86D2097F890
:1055A0006E0097F86F300093034663485FF004FA8B
:1055B000574BDB68BB66BB6E1B0E87F86730BB6E54
:1055C0001B0C87F86630BB6E1B0A87F86530BB6E14
:1055D00087F8643097F8641097F8652097F86600AC
:1055E00097F867300093034654485FF0E5F9544B51
:1055F00001221A7000E070E752485FF0DDF90023E5
:105600000022002150485AF077FE78677B6F002B0C
:105610000DD03B4664221946786F3CF04FF9796F04
:105620004A485FF0C9F9384B01221A7047E0374801
:105630005FF032FA0121444859F0B8FE0022444993
:10564000414859F006FF2E4A42493F4859F0C4FEEE
:10565000274B1B689B681A463F493B4859F0CEFED2
:1056600039493E4859F01EFD78677B6F002B07D003
:10567000796F3B485FF0A0F9234B01221A701EE0BE
:10568000384B1B681946354859F024FF78677B6F03
:10569000002B07D0796F34485FF08EF91A4B012246
:1056A0001A700CE000230093304B314A31492B48EB
:1056B00059F0B6FE144B1B78002B12D000BF2D48BA
:1056C00004F0D4F822485DF06FFF24485AF077FDCB
:1056D0001D485BF009F80A4832F04CFC05483BF0E5
:1056E000DBFE00BF7C37BD4690BD00BF389908087F
:1056F000F000002408510024340000244517060857
:10570000C44F002464990808A81F0024949908082D
:10571000484C0024A91F002498990808CC9908082F
:10572000E81D0024EC1D0024ED1D0024EE1D0024C6
:10573000EF1D0024E09908080C9A0808389A080818
:10574000F01D0024649A0808C04D00248C9A0808B3
:10575000B41C0024F986050889520208A84C0024CC
:10576000C49A08083C000024F09A080875970208BB
:10577000F1970208AC0C002480B5ADF5047D00AFB4
:1057800007F50473A3F50373186007F50473A3F515
:10579000047319600123C7F8083207F50473A3F5F1
:1057A000047207F50473A3F503731268196844487B
:1057B0005FF002F9434B1B689B6818465FF014F8D2
:1057C000002387F80F3207F50473A3F5047207F579
:1057D0000473A3F503710023126809683A4803F0C3
:1057E00037FFC7F80802D7F80832002B1AD007F1A4
:1057F000080364221946D7F808023CF05FF8D7F88E
:10580000081232485FF0D8F897F80F32013387F862
:105810000F3297F80F32022B4CD84FF47A7010F0F9
:105820008CF9D0E700BF2A485FF036F929485FF0CD
:1058300033F9294859F0BCFFC7F80802D7F80832F5
:10584000002B11D007F1080364221946D7F808028B
:105850003CF034F8D7F808325B4207F108021946E9
:105860001E485FF0A9F802E01D485FF015F91D48D9
:105870005FF0A2F8184859F08BFE03461A4A1360ED
:10588000194B1B68002B11D018485FF005F9164B17
:105890001B6807F10800164A4FF400715DF0D4F858
:1058A00007F1080318465FF0F7F804E008485FF0D6
:1058B000F3F800E000BF07F50477BD4680BD00BFE8
:1058C000249B0808F0000024AC0C0024449B08082A
:1058D00094990808749B0808A84C00249C9B08080D
:1058E000C09B0808DC9B0808B00C0024049C080836
:1058F0000C9C080880B5ADF5836D00AF07F5836398
:10590000A3F2144318600123C7F80834002387F872
:105910001334884B1B68884A126811461846FFF7F3
:105920002BFF07F58363A3F214431868FAF738FDD9
:105930000346C7F8143420E0D7F8083413F5D24FE3
:105940000DD0D7F8083413F5D14F08D0D7F8081484
:105950007A485FF031F8012387F81334CFE0D7F8A5
:105960000834C7F8143407F58363A3F214431A68A4
:10597000D7F8141472485FF01FF8D7F8142407F50D
:105980008363A3F2144319686E485AF087FAC7F884
:105990000804D7F80834002BCEDD6B485FF00CF814
:1059A0006A4B1B689B6818465EF01EFF0023C7F811
:1059B0000C34D7F8142407F58363A3F214430021B1
:1059C00018685FF0F9F907F58363A3F58263184659
:1059D0004FF480631A4600215FF0EEF94FF48053D4
:1059E000C7F8143407F108034FF48062194655488C
:1059F0005AF008F8C7F80804D7F8083413F5D24F5E
:105A000056D0D7F8083413F5D14F51D0D7F8083411
:105A100013F5F14F52D0D7F80834002B0CDAD7F831
:105A200008144B485EF0C8FF4FF47A7011F036FE50
:105A3000012387F8133442E0D7F80834002B03D150
:105A400044485FF029F83AE0D7F8081442485EF07D
:105A5000B3FF07F108031A46D7F808143F485EF071
:105A6000ABFFD7F80C24D7F808341344B3F5805FA4
:105A70001ADAD7F80C3407F58362A2F214421268DE
:105A80001344D7F8082407F1080118465FF0CFFA4D
:105A9000D7F80C24D7F808341344C7F80C34D7F8D7
:105AA0000834052B05D10AE02D485EF0F5FF06E02D
:105AB00000BFD7F80834002B85DC00E000BF214888
:105AC0005AF01EFAD7F8083413F5D14FF7D01D4815
:105AD00059F033FCC7F80804D7F80834002B04D079
