:020000040802F0
:10000000000008246D1F0308650C03086D0C03082D
:100010007D0C0308850C03088D0C0308000000000C
:10002000000000000000000000000000211A040889
:10003000950C030800000000711C0408D91C04087A
:10004000BD1F0308BD1F0308BD1F0308BD1F030814
:10005000BD1F0308BD1F0308BD1F0308BD1F030804
:10006000BD1F0308BD1F0308BD1F0308BD1F0308F4
:10007000BD1F0308BD1F0308BD1F0308BD1F0308E4
:10008000BD1F0308BD1F0308BD1F0308BD1F0308D4
:10009000BD1F0308BD1F0308BD1F0308BD1F0308C4
:1000A000BD1F0308BD1F0308BD1F0308BD1F0308B4
:1000B000BD1F0308BD1F0308BD1F0308BD1F0308A4
:1000C000BD1F0308BD1F0308BD1F0308A50C0308BF
:1000D000BD1F0308B90C0308850D0308990D03081B
:1000E000BD1F0308BD1F030800000000BD1F03085B
:1000F000BD1F0308BD1F0308BD1F0308BD1F030864
:10010000BD1F0308BD1F0308BD1F0308BD1F030853
:10011000AD0D0308190E03082D0E0308BD1F0308BB
:10012000BD1F0308BD1F0308BD1F0308BD1F030833
:10013000BD1F03084D0E0308BD1F0308BD1F0308A4
:1001400000000000000000000000000000000000AF
:10015000BD1F0308BD1F0308BD1F0308DD100208F3
:10016000BD1F0308BD1F0308BD1F0308BD1F0308F3
:10017000BD1F0308BD1F0308BD1F030800000000CA
:10018000BD1F0308BD1F0308610E0308BD1F030840
:10019000BD1F0308BD1F0308BD1F0308BD1F0308C3
:1001A0000000000000000000BD1F0308BD1F030881
:1001B000BD1F0308BD1F0308BD1F0308BD1F0308A3
:1001C000BD1F0308BD1F0308BD1F0308BD1F030893
:1001D000BD1F0308BD1F0308BD1F0308BD1F030883
:1001E000BD1F0308BD1F0308BD1F0308BD1F030873
:1001F000BD1F0308BD1F0308BD1F0308BD1F030863
:10020000BD1F0308BD1F0308BD1F0308BD1F030852
:10021000BD1F0308BD1F0308BD1F0308BD1F030842
:10022000BD1F030800000000BD1F03080000000000
:10023000BD1F0308BD1F030800000000BD1F030809
:10024000BD1F0308BD1F0308BD1F0308BD1F030812
:10025000BD1F0308BD1F0308BD1F0308BD1F030802
:10026000BD1F0308BD1F0308BD1F0308BD1F0308F2
:10027000BD1F0308BD1F0308BD1F030800000000C9
:10028000BD1F0308BD1F0308BD1F030800000000B9
:0802900000000000BD1F03087F
:1002A00010B5054C237833B9044B13B10448AFF3B0
:1002B00000800123237010BD000300240000000013
:1002C000CC15090808B5034B1BB103490348AFF32C
:1002D000008008BD0000000004030024CC150908BC
:1002E00010F8012B11F8013B012A28BF9A42F7D0E0
:1002F000D01A70470000000000000000000000005D
:1003000001F0FF01102A2BDB10F0070F08D010F8C6
:10031000013B013A8B422DD010F0070F42B3F6D1CA
:10032000F0B441EA012141EA014122F007047FF0E3
:1003300000070023F0E80256083C85EA010586EA3A
:10034000010685FA47F5A3FA87F586FA47F6A5FA76
:1003500087F68EB9EED1F0BC01F0FF0102F0070282
:1003600032B110F8013B013A83EA010313B1F8D12D
:100370000020704701387047002D06BF354603380E
:10038000073815F0010F07D1013015F4807F02BF47
:10039000013015F4C03F0130F0BC0138704700BF98
:1003A000034613F8012B002AFBD1181A01387047B5
:1003B00081F0004102E000BF83F0004330B54FEA16
:1003C00041044FEA430594EA050F08BF90EA020F83
:1003D0001FBF54EA000C55EA020C7FEA645C7FEA16
:1003E000655C00F0E2804FEA5454D4EB5555B8BF39
:1003F0006D420CDD2C4480EA020281EA030382EAAA
:10040000000083EA010180EA020281EA0303362D3B
:1004100088BF30BD11F0004F4FEA01314FF4801C0E
:100420004CEA113102D0404261EB410113F0004F20
:100430004FEA03334CEA133302D0524263EB4303D7
:1004400094EA050F00F0A780A4F10104D5F1200E75
:100450000DDB02FA0EFC22FA05F2801841F10001D0
:1004600003FA0EF2801843FA05F359410EE0A5F1A4
:1004700020050EF1200E012A03FA0EFC28BF4CF0D5
:10048000020C43FA05F3C01851EBE37101F000458B
:1004900007D54FF0000EDCF1000C7EEB00006EEB98
:1004A0000101B1F5801F1BD3B1F5001F0CD3490822
:1004B0005FEA30004FEA3C0C04F101044FEA445279
:1004C00012F5800F80F09A80BCF1004F08BF5FEA00
:1004D000500C50F1000041EB045141EA050130BDE0
:1004E0005FEA4C0C404141EB0101013C28BFB1F5F2
:1004F000801FE9D291F0000F04BF01460020B1FA3D
:1005000081F308BF2033A3F10B03B3F120020CDA0F
:100510000C3208DD02F1140CC2F10C0201FA0CF0ED
:1005200021FA02F10CE002F11402D8BFC2F1200C52
:1005300001FA02F120FA0CFCDCBF41EA0C01904008
:10054000E41AA2BF01EB0451294330BD6FEA040451
:100550001F3C1CDA0C340EDC04F11404C4F120023C
:1005600020FA04F001FA02F340EA030021FA04F34E
:1005700045EA030130BDC4F10C04C4F1200220FAA5
:1005800002F001FA04F340EA0300294630BD21FAE3
:1005900004F0294630BD94F0000F83F4801306BFA9
:1005A00081F480110134013D4EE77FEA645C18BF9D
:1005B0007FEA655C29D094EA050F08BF90EA020F34
:1005C00005D054EA000C04BF1946104630BD91EA2C
:1005D000030F1EBF0021002030BD5FEA545C05D12F
:1005E0004000494128BF41F0004130BD14F580046E
:1005F0003CBF01F5801130BD01F0004545F0FE41E2
:1006000041F470014FF0000030BD7FEA645C1ABF16
:10061000194610467FEA655C1CBF0B46024650EA4D
:10062000013406BF52EA033591EA030F41F4002179
:1006300030BD00BF90F0000F04BF0021704730B5FF
:100640004FF4806404F132044FF000054FF00001D4
:1006500050E700BF90F0000F04BF0021704730B595
:100660004FF4806404F1320410F0004548BF40426A
:100670004FF000013EE700BF42004FEAE2014FEABF
:1006800031014FEA02701FBF12F07F4393F07F4F9A
:1006900081F06051704732F07F4208BF704793F09D
:1006A0007F4F04BF41F40021704730B54FF46074B0
:1006B00001F0004521F000411CE700BF50EA0102B3
:1006C00008BF704730B54FF000050AE050EA01025C
:1006D00008BF704730B511F0004502D5404261EBCC
:1006E00041014FF4806404F132045FEA915C3FF40D
:1006F000D8AE4FF003025FEADC0C18BF03325FEAAA
:10070000DC0C18BF033202EBDC02C2F1200300FA5A
:1007100003FC20FA02F001FA03FE40EA0E0021FA7F
:1007200002F11444BDE600BF53B94AB9002908BF1D
:1007300000281CBF4FF0FF314FF0FF3000F0C0B970
:10074000ADF1080C6DE904CE00F03EF8DDF804E0F0
:10075000DDE9022304B0704708B502460B4643ECBE
:10076000172BB5EEC07BF1EE10FA03D4BDE80840BC
:1007700000F00AB8B1EE477B51EC170B00F004F81B
:10078000404261EB410108BD9FED0B6B41EC170B43
:100790009FED0B5B27EE066BBCEEC66BB8EE464BCF
:1007A000A4EE457BFCEEC77B16EE101A17EE900AFE
:1007B000704700BFAFF30080000000000000F03D74
:1007C000000000000000F0412DE9F047089D8E4632
:1007D00004468846002B4AD18A42174662D9B2FAAB
:1007E00082F64EB1C6F1200301FA06F820FA03F3AF
:1007F000B74043EA0808B4404FEA174E1FFA87FC97
:10080000B8FBFEF1230C0EFB118843EA084301FB01
:100810000CF29A4209D9FB1801F1FF3080F0EA800E
:100820009A4240F2E78002393B449A1AA3B2B2FBE3
:10083000FEF00EFB102243EA024300FB0CFC9C4539
:1008400009D9FB1800F1FF3280F0D6809C4540F2B8
:10085000D3803B44023840EA0140A3EB0C03002163
:100860001DB1F3400022C5E90032BDE8F0878B429C
:1008700005D90DB1C5E9000100210846F5E7B3FA35
:1008800083F1002946D1734502D3824200F20581EB
:10089000841A6EEB030201209046002DE5D0C5E9D5
:1008A0000048E2E7002A00F09080B2FA82F6002EBB
:1008B00040F0A4808A1A030C4FEA174E80B2BCB2F3
:1008C0000121B2FBFEFC0EFB1C2243EA024304FBA7
:1008D0000CF29A4207D9FB180CF1FF3802D29A4267
:1008E00000F2E080C4469B1AB3FBFEF20EFB12330B
:1008F00040EA034302FB04F49C4207D9FB1802F1CF
:10090000FF3002D29C4200F2CA8002461B1B42EA20
:100910000C40A5E7C1F120068B4022FA06F71F43E1
:100920000EFA01F420FA06F32EFA06FE4FEA1749F2
:10093000234300FA01F81FFA87FCBEFBF9F01C0CF8
:1009400009FB10EE44EA0E4400FB0CFEA64502FA39
:1009500001F209D93C1900F1FF3A80F09C80A645CC
:1009600040F2998002383C44A4EB0E041FFA83FE47
:10097000B4FBF9F309FB13444EEA044403FB0CFCFB
:10098000A44508D93C1903F1FF3E80F08280A445BC
:100990007FD9023B3C4443EA0040A4EB0C04A0FB9B
:1009A00002EC64457346E14662D35FD05DB1B8EBBB
:1009B000030264EB090404FA06F622FA01F31E436B
:1009C000CC40C5E9006400214FE7B1FBF2FC010C0B
:1009D00041EA0E4180B240EA01423B4638463C467D
:1009E000B846BE462026B1FBF7F1A2EB080241EA69
:1009F0000C4166E7014618E710462CE7C6F12002D5
:100A00002EFA02F3B740B14020FA02F24FEA174E35
:100A10000A43B3FBFEF8BCB20EFB1833110C41EADB
:100A2000034108FB04F9B04089454FEA104380B206
:100A30003ED9791808F1FF3C01D289451FD8A1EBB6
:100A40000901B1FBFEF909FB04F80EFB191192B282
:100A500042EA0142424529D2BA1809F1FF31C4D213
:100A60004245C2D2A9F102013A44BEE7F0459DD207
:100A7000BEEB02036CEB070C0138E14696E7A7EBEF
:100A800009094944A8F1020CB1FBFEF909FB04F87D
:100A9000DBE773467FE7504666E70846FDE63B44E2
:100AA000023A33E7ACF1020C3B441CE749469CE7B1
:100AB000A1EB0901C446B1FBFEF909FB04F8C4E748
:100AC000704700BF80B400AF044BDB681B0A03F023
:100AD00007031846BD465DF8047B704700ED00E053
:100AE00080B483B000AF0346FB80B7F90630002B1B
:100AF0000BDBFB8803F01F020749B7F906305B09DF
:100B0000012000FA02F241F8232000BF0C37BD4655
:100B10005DF8047B704700BF00E100E080B483B063
:100B200000AF0346FB80B7F90630002B12DBFB88D1
:100B300003F01F020A49B7F906305B09012000FAE9
:100B400002F2203341F82320BFF34F8F00BFBFF3E1
:100B50006F8F00BF00BF0C37BD465DF8047B704748
:100B600000E100E080B483B000AF03463960FB8051
:100B7000B7F90630002B0ADB3B68DAB20C49B7F94B
:100B800006301201D2B20B4483F800230AE03B681E
:100B9000DAB20849FB8803F00F03043B1201D2B21A
:100BA0000B441A7600BF0C37BD465DF8047B7047D6
:100BB00000E100E000ED00E080B489B000AFF86033
:100BC000B9607A60FB6803F00703FB61FB69C3F15E
:100BD0000703042B28BF0423BB61FB690433062BE6
:100BE00002D9FB69033B00E000237B614FF0FF3239
:100BF000BB6902FA03F3DA43BB681A407B699A4087
:100C00004FF0FF317B6901FA03F3D9437B680B4056
:100C1000134318462437BD465DF8047B7047000037
:100C200080B500AF1E486DF0A7FB20221D490020B3
:100C300009F0C9F932201DF0F0FB20221A492820C2
:100C400009F0C1F932201DF0E8FB2022174950209D
:100C500009F0B9F932201DF0E0FB2022144940F2DE
:100C6000122009F0B0F932201DF0D7FB20221149E3
:100C7000A02009F0A8F932201DF0CFFB08220E4970
:100C8000C82009F0A0F932201DF0C7FB08220B494B
:100C9000D22009F098F932201DF0BFFB00BF80BDC3
:100CA000E81509083C1609084416090848160908F9
:100CB0005016090858160908701609087816090808
:100CC00080B582B000AF0346FB71DC2009F05AF911
:100CD0000346A74A13604FF4027009F053F9034624
:100CE000A44A13604FF4167009F04CF903461A46F3
:100CF000A14B1A602022A149002009F0B5F9202259
:100D00009F49282009F0B0F920229E49502009F07F
:100D1000ABF920229C4940F2122009F0A5F92022CB
:100D20009A49A02009F0A0F908229949C82009F0A1
:100D30009BF908229749D22009F096F9202296497A
:100D4000F02009F091F9062294494FF48C7009F0D3
:100D50008BF9832292494FF4967009F085F920228D
:100D600090494FF4E17009F07FF908228E494FF461
:100D7000FA7009F079F907228C4940F23A2009F01B
:100D800073F940F2C62009F0FDF80346002B14BFAA
:100D900001230023DAB2864B1A702022854940F2E3
:100DA0008A2009F061F9834B1B78FF2B03D0814B1C
:100DB0001B78002B05D17F4B7F4A92E8030083E824
:100DC000030004227D4940F2B22009F04DF97B4B2B
:100DD0001B78FF2B03D0794B1B78002B02D1774B6C
:100DE00031221A800A2276494FF42F7009F03CF91B
:100DF000734B1B78FF2B03D0714B1B78002B06D154
:100E00006F4B704A92E803001860043319704FF476
:100E1000117009F0B7F80346DAB26B4B1A704FF451
:100E20001B7009F0AFF80346002B14BF0123002309
:100E3000DAB2664B1A70664B504A1A60654B504ADC
:100E40001A60654B4F4A1A60644B4F4A1A60644BF4
:100E50004E4A1A60634B504A1A60634B4F4A1A60FD
:100E6000624B4F4A1A6062486DF086FA4349614806
:100E70006DF012FA424960486DF00EFA41495F4840
:100E80006DF00AFA40495E486DF006FA3F495D4848
:100E90006DF002FA3E495C486DF0FEF93D495B4851
:100EA0006DF0FAF9324B1B68194659486DF0F4F9A8
:100EB000394958486DF0F0F9384957486DF0ECF968
:100EC000374956486DF0E8F9364955486DF0E4F970
:100ED000354954486DF0E0F9264B1B6819465248D5
:100EE0006DF0DAF9314951486DF0D6F9364B1B787F
:100EF00019464F486DF0D0F91F4B1B6819464D48F5
:100F00006DF0CAF92A4B1B78002B01D04A4B00E048
:100F10004A4B19464A486DF0BFF9264949486DF0D9
:100F2000BBF9264948486DF0B7F9254947486DF0A7
:100F3000B3F9264B1B78002B01D03F4B00E03F4B11
:100F4000194643486DF0A8F9114B1B78FF2B0AD0C6
:100F50000F4B1B78002B06D00D486BF066FA03464A
:100F6000B3F5166F78DA3B4B4FF416521A6079E0FE
:100F7000DC05002440300024381A0024200400241A
:100F8000400400246004002480040024A004002401
:100F90008C05002494050024C0040024E0040024EF
:100FA000E80400246C0500249C050024801B002418
:100FB000AB050024AC050024A0160908CC050024CC
:100FC000D0050024A81609082F1D0024E11D0024C7
:100FD0000000002404000024080000240C00002469
:100FE00018000024200000242400002428000024ED
:100FF000B0160908D8160908F016090808170908D4
:101000002017090838170908501709086817090830
:101010008017090898170908B0170908C8170908A0
:10102000E0170908F817090810180908281809080E
:101030004018090858180908741809087818090888
:101040007C18090894180908AC180908C41809087C
:10105000DC180908E005002419486BF0E6F903469E
:10106000184A1360184B1B78FF2B0AD0164B1B78BD
:10107000002B06D014486BF0D8F90346B3F5166F71
:1010800004DA124B4FF4E1321A6005E00E486BF0BF
:10109000CCF903460D4A13600A4B1B6819460C48ED
:1010A0006DF0FAF8094B1B6819460A486DF0F4F820
:1010B00009486DF061F900BF0837BD4680BD00BF2B
:1010C0008C050024E005002494050024E405002498
:1010D000F41809080C1909082419090880B500AF8B
:1010E00002481AF009F800BF80BD00BF64780024F0
:1010F00080B584B000AF78600B467B807B68244A63
:1011000093421BD17B88002B13D07B88FF2B10D8F8
:10111000204A7B8813807B881F4A0021D1541F49B5
:101120001D486DF06BFB0346002B02D01C4B0122C7
:101130001A70FF22184916481CF0ABFA7B68194A4E
:10114000934221D17B681B680F221A620122164943
:10115000786819F0B7FE154B1B68002B14D00023DC
:10116000FB60124B1B6807F10C02114618461FF07A
:101170005DFFFB68002B07D00D4B4FF080521A60CB
:10118000BFF34F8FBFF36F8F00BF1037BD4680BDD9
:10119000647800241C0400241C0300244C19090852
:1011A0001E040024A8760024E4740024B030002437
:1011B00004ED00E080B582B000AF78607B68084A3B
:1011C000934208D17B681B680F221A62FF220549EF
:1011D00078681CF05EFA00BF0837BD4680BD00BFCE
:1011E000647800241C03002480B500AF0D4B1B68FD
:1011F0000F221A62FFF766FC0346002205211846FB
:10120000FFF7DAFC034619464720FFF7ABFC4720FF
:10121000FFF766FCFF22044902481CF03AFA00BFBF
:1012200080BD00BF647800241C03002480B5B0B0EA
:1012300002AF78607B68002B00F019827B681B7816
:10124000002B00F014823D2178686DF03CFAC7F85D
:10125000B000D7F8B030002B04D17968AC486DF0FD
:101260001BF805E2D7F8B0207B68D31AC7F8B43072
:10127000D7F8B4300F2B02D90F23C7F8B43007F1D9
:10128000A003D7F8B420796818466DF03BFA07F14F
:10129000A002D7F8B430134400221A70D7F8B03047
:1012A000591C07F120037F2218466DF02BFA00230A
:1012B00087F89F3007F1A00396491846FFF710F80A
:1012C0000346002B0FD107F120031F221946924835
:1012D0006DF018FA904B0022DA7720228E49002018
:1012E00008F071FE90E107F1A0038C491846FEF763
:1012F000F7FF0346002B0FD107F120031F221946E9
:1013000087486DF0FFF9864B0022DA772022844966
:10131000282008F058FE77E107F1A003814918461C
:10132000FEF7DEFF0346002B0FD107F120031F223B
:1013300019467D486DF0E6F97B4B0022DA772022D2
:101340007949502008F03FFE5EE107F1A00377499C
:101350001846FEF7C5FF0346002B10D107F1200306
:101360001F22194672486DF0CDF9714B0022DA77D1
:1013700020226F4940F2122008F025FE44E107F1D7
:10138000A0036C491846FEF7ABFF0346002B0FD1B4
:1013900007F120031F22194667486DF0B3F9664B29
:1013A0000022DA7720226449A02008F00CFE2BE10D
:1013B00007F1A00361491846FEF792FF0346002B90
:1013C0000FD107F120031F2219465D486DF09AF9ED
:1013D0005B4B0022DA7720225949F02008F0F3FD18
:1013E00012E107F1A00357491846FEF779FF0346BB
:1013F000002B10D107F120030522194652486DF049
:1014000081F9514B00225A7106224F494FF48C70DA
:1014100008F0D9FDF8E007F1A0034C491846FEF7A3
:101420005FFF0346002B11D107F1200382221946EA
:1014300047486DF067F9464B002283F882208322EB
:1014400043494FF4967008F0BEFDDDE007F1A003BC
:1014500040491846FEF744FF0346002B10D107F120
:1014600020031F2219463C486DF04CF93A4B0022EC
:10147000DA77202238494FF4E17008F0A4FDC3E088
:1014800007F1A00335491846FEF72AFF0346002B53
:101490006CD107F12003194631486CF0FDFE0023A2
:1014A000FB610023BB6100237B6107F1180107F199
:1014B0001C0207F1200007F1140300930B46294991
:1014C0006CF0BAFF0346032B1BD1FB69002B18DB22
:1014D000FB69172B15DCBB69002B12DBBB693B2BAF
:1014E0000FDC7B69002B0CDB7B693B2B09DCFB6988
:1014F000DBB2BA69D1B27A69D2B218460DF058FDA2
:1015000082E007F12003194617486CF0C5FE7BE026
:1015100054190908741909082004002478190908C5
:10152000400400247C19090860040024801909087B
:101530008004002484190908A004002488190908DB
:10154000C004002490190908E0040024981909082F
:10155000E8040024A01909086C050024A41909084E
:10156000AC190908B8190908C419090807F1A0033A
:1015700041491846FEF7B4FE0346002B3ED107F161
:10158000200319463D486CF087FE00233B61002391
:10159000FB600023BB6007F10C0107F1080207F1B3
:1015A000200007F1100300930B4635496CF044FF0F
:1015B0000346032B1BD13B69002B18DB3B69632BD4
:1015C00015DCFB68002B12DDFB680C2B0FDCBB6805
:1015D000002B0CDDBB681F2B09DC3B69DBB2FA6812
:1015E000D1B2BA68D2B218460DF018FD0CE007F17E
:1015F0002003194623486CF04FFE05E007F1A003D5
:10160000194621486CF048FE20486CF045FE204900
:1016100020486CF041FE204920486CF03DFE2049F6
:1016200020486CF039FE204920486CF035FE2049F6
:1016300020486CF031FE204B154A1A601F4B164AA9
:101640001A601F4B164A1A601E4B174A1A601E4B2F
:10165000174A1A601D4B1E4A1A601E4B1E4A1A601A
:101660001E4B1F4A1A600020FFF72AFB00E000BF54
:10167000B837BD4680BD00BFEC190908F419090848
:10168000B8190908001A0908201A0908341A0908A3
:10169000200400244C1A090840040024601A090898
:1016A00060040024741A090880040024881A0908B8
:1016B000A00400249C1A090800000024040000244F
:1016C000080000240C00002418000024200000243E
:1016D000C004002424000024E00400242800002486
:1016E000E804002480B582B000AF324B1B78DBB237
:1016F000002B5AD04720FFF711FA4FF480720021D7
:101700002D486CF0C9FF2D4B1B881A462C492A48DE
:101710006DF019F92B4928486DF070F878602A4966
:1017200025486DF06BF838607B68002B2BD03B6848
:10173000002B28D03A687B689A4224D93B68002263
:101740001A707B6808337B60796820486CF0A4FDD0
:1017500006221F4978686CF0C3FF0346002B03D1B3
:101760000120FFF7ADFA11E006221A4978686CF003
:10177000B7FF0346002B02D101F00CF806E07868B1
:10178000FFF754FD02E014486CF086FD4FF48072C0
:1017900000210B486CF080FF084B00221A80054B9B
:1017A00000221A704720FFF79BF900BF0837BD469B
:1017B00080BD00BF1E040024E80500241C04002492
:1017C0001C030024C41A09084C190908D01A090876
:1017D000E41A0908EC1A0908F41A090880B586B059
:1017E00002AFF860B9607A603B60BB6900933B6808
:1017F0007A680549F8686CF01FFDF8686CF064FCC5
:1018000000BF1037BD4680BDF41B090880B582B00B
:1018100000AF4FF4781007F0E1FA744B4FF4FA720E
:101820001A600023FB71724B1B68042118461DF0DF
:10183000C7F8704B1B7883F00103DBB2002B03D198
:101840006D4B1B78002B08D000F0FEF864201EF0D2
:10185000E3FB6A4B00221A709BE0644B1B68B3F5F4
:10186000FA7F22D3664B1B78002B1BD0654B1B687D
:10187000654A12681146184606F04AFB0346002BDB
:1018800006D0624B01221A705D4B00221A7009E0EB
:101890005E4B01221A70584B01221A704FF4FA6005
:1018A0001EF0BAFB514B00221A60FB79022B4FD07D
:1018B000022B5FDC002B02D0012B3FD05AE0544BAF
:1018C0001B78002B58D04D4B1B7883F00103DBB203
:1018D000002B51D04F48FEF763FD03461A46002106
:1018E0004C486CF0D9FE474B1B68474A12681146BA
:1018F000184606F00DFB0346002B0BD0434B01228C
:101900001A70454945486CF0C7FC4349202006F051
:1019100011FC0FE03D4B00221A70374B01221A7068
:101920004FF4FA601EF078FB344B00221A703C48EA
:101930006CF022FD3B4B00221A701DE03A4B1B78E5
:10194000002B1BD006F07EF9374B00221A7015E0F1
:101950002A4B1B78002B13D006F024FA334B1B784C
:10196000DBB2002B0CD0224B1B68022118461DF065
:1019700027F805E000BF04E000BF02E000BF00E080
:1019800000BFFB790133FB71FB79022B01D90023E6
:10199000FB7100233B601AE0254A3B6832F81330A4
:1019A000013B24493A6831F8122093420CDC224A68
:1019B0003B689B0113441B681A46204916486CF08B
:1019C00019FD134B01221A703B6801333B601C4B1D
:1019D0001B683A689A42DFDB1EF0D0FC0346194AC6
:1019E00013600A201EF018FB1DE700BFE44B002423
:1019F000BC3000242018002421180024AC1D002431
:101A000034000024300000242C0000243C1D00245D
:101A10002218002404280024A4050024001C09081E
:101A2000241C090800270024D41D0024EA4B0024AC
:101A3000681B0024741B0024C02E0024381C0908D5
:101A4000403000242418002490B59DB002AF01233B
:101A50007B6664201CF0E1FC73486CF08DFC7348DD
:101A60006CF01AFC724B1B689B6818466CF02CFBE0
:101A7000704848F019FC704B1C686F4B1B68184687
:101A8000FEF78EFC0346009323466A4A6B496C4876
:101A90003FF088F978667B6E002B07D0796E694835
:101AA0006CF0FAFB684B01221A70A5E067486CF0F5
:101AB00063FC674B1B68042118461CF081FF654BD3
:101AC0001B7883F00103DBB2002B13D064201EF0DF
:101AD000A3FA614B1B780133DAB25F4B1A705E4B8D
:101AE0001B78632BE5D95D486CF046FC5A4B00220D
:101AF0001A7094E05A4B1B78002B17D0594832F0DB
:101B0000F3FC0346194658486CF0C6FB574832F0C0
:101B1000EBFC0346194656486CF0BEFB554832F0C4
:101B2000E3FC0346194654486CF0B6FB4C4B0022CC
:101B30001A7052486CF0B0FB00230022002150487C
:101B400067F0EAFA78667B6E002B0DD03B46642284
:101B50001946786E48F0E0FD796E4A486CF09CFBBF
:101B6000394B01221A7047E038486CF005FC01211E
:101B7000434866F047FB00224349414866F095FB25
:101B80002F4A42493E4866F053FB294B1B689B682D
:101B90001A463F493A4866F05DFB39493D4866F0D0
:101BA000ADF978667B6E002B07D0796E3A486CF001
:101BB00073FB254B01221A701EE0384B1B68194637
:101BC000344866F0B3FB78667B6E002B07D0796EE5
:101BD00033486CF061FB1C4B01221A700CE00023AF
:101BE0000093304B304A31492A4866F045FB164B8A
:101BF0001B78002B12D000BF2C480EF0D3FD2248DA
:101C00006AF078FB234867F0EAF91D4867F07CFC2E
:101C10000B483FF0DDF8074848F06CFB00BF00BF01
:101C20006C37BD4690BD00BF3C1C0908501C09081C
:101C3000AC0200246071002410000024A1A5060855
:101C40001C700024781C090828180024A81C090806
:101C5000BC3000242018002429180024AC1C0908DA
:101C600021180024606C0024E01C0908686C002422
:101C7000F41C0908646C0024041D0908141D0908DB
:101C8000186E00243C1D0908EC16002455150608A2
:101C9000DD170208006D0024741D090818000024D7
:101CA000A01D0908AD06030829070308E80600245B
:101CB00080B59EB000AF7860396001233B673A6819
:101CC00079682D486CF0E8FA2C4B1B689B68184625
:101CD0006CF0FAF9002387F8773000233A687968C6
:101CE00027480EF051FC38673B6F002B1ED007F1E0
:101CF0000C0364221946386F48F00EFD396F2148F5
:101D00006CF0CAFA204B1B68042118461CF058FEE0
:101D100097F87730013387F8773097F87730022BD0
:101D200026D84FF47A701CF078FBD6E700BF17482E
:101D30006CF022FB16486CF01FFB164866F048FC5E
:101D400038673B6F002B0FD007F10C036422194654
:101D5000386F48F0E1FC3B6F5B4207F10C0219461B
:101D60000D486CF099FA04E00C486CF005FB00E0BB
:101D700000BF7837BD4680BDD41D0908AC020024E1
:101D8000E8060024F41D0908BC300024A81C09083A
:101D9000241E0908006D00244C1E0908701E090845
:101DA00080B5ADF5836D00AF07F58363A3F21443EF
:101DB00018600123C7F80834002387F8133407F5A7
:101DC0008363A3F214431868FEF7EAFA0346C7F8E0
:101DD000143420E0D7F8083413F5D24F0DD0D7F8DB
:101DE000083413F5D14F08D0D7F808147B486CF0AD
:101DF00053FA012387F81334CFE0D7F80834C7F833
:101E0000143407F58363A3F214431A68D7F8141443
:101E100073486CF041FAD7F8142407F58363A3F2F2
:101E2000144319686F4866F049FFC7F80804D7F8EB
:101E30000834002BCEDD6C486CF02EFA6B4B1B681F
:101E40009B6818466CF040F90023C7F80C34D7F8AB
:101E5000142407F58363A3F21443002118686CF07F
:101E60001BFC07F58363A3F5826318464FF4806378
:101E70001A4600216CF010FC4FF48053C7F814345C
:101E800007F108034FF480621946564866F0CAFC11
:101E9000C7F80804D7F8083413F5D24F56D0D7F84E
:101EA000083413F5D14F51D0D7F8083413F5F14F5A
:101EB00052D0D7F80834002B0CDAD7F808144C4865
:101EC0006CF0EAF94FF47A701EF0A6F8012387F857
:101ED000133442E0D7F80834002B03D145486CF0A6
:101EE0004BFA3AE0D7F8081443486CF0D5F907F1FB
:101EF00008031A46D7F8081440486CF0CDF9D7F813
:101F00000C24D7F808341344B3F5805F1ADAD7F8F5
:101F10000C3407F58362A2F2144212681344D7F816
:101F2000082407F1080118466CF00DFDD7F80C24C1
:101F3000D7F808341344C7F80C34D7F80834052B05
:101F400005D10AE02E486CF017FA06E000BFD7F87A
:101F50000834002B85DC00E000BF224866F0E0FE7C
:101F6000D7F8083413F5D14FF7D01E4866F011F9B1
:101F7000C7F80804D7F80834002B04D0D7F80814A1
:101F800020486CF089F920480EF00CFC20F068F82D
:101F9000034619461D486CF07FF997F81334002B5F
:101FA00017D01B4B01221A701A486CF0E5F916483D
:101FB0000EF0F8FB18486AF09DF90A4867F00FF830
:101FC000164867F0A1FA16483EF002FF154848F09F
:101FD00091F900BF07F58367BD4680BD8C1E0908D7
:101FE000B81E0908006D0024D01E0908AC020024A8
:101FF000E41E0908101F0908181F09082C1F0908EA
:102000003C1F0908641F0908E8060024981F0908F6
:1020100021180024B41F0908EC160024186E0024AF
:102020001C7000246071002480B582B000AF78601D
:1020300039603B689AB24FF496737968034818F098
:10204000EAFD00BF0837BD4680BD00BF14760024FE
:1020500080B584B000AF074A3B1D07CA03C31A808E
:102060003B1D0A211846FFF7DFFF00BF1037BD46B2
:1020700080BD00BFD01F090880B586B000AF034601
:10208000FB715A233B73A5237B730723BB73822306
:10209000FB7300233B7484237B745A23BB7401239A
:1020A000FB7400233B75FB797B7507F10C030A2158
:1020B0001846FFF7B9FF00BF1837BD4680BD0000C6
:1020C00080B584B000AF786039600E4BBB600023F0
:1020D000FB603B681B0ADBB23B733B68DBB27B7384
:1020E0007B681B0ADBB2BB737B68DBB2FB7307F157
:1020F000080308211846FFF797FF00BF1037BD46B9
:1021000080BD00BF5AA5058280B586B000AF78605B
:102110000B46FB705A233B73A5237B73FB78033379
:10212000DBB2BB738223FB737B681B0ADBB23B749D
:102130007B68DBB27B740023BB7407F10C030621C0
:102140001846FFF771FF00BF1837BD4680BD00007D
:1021500080B582B000AF03460A46FB801346BB80C1
:10216000BB881A4600210A486CF096FAFB88BA88A8
:10217000D2B211461846FFF7C7FFBA886423044954
:10218000044818F048FD00BF0837BD4680BD00BFB9
:10219000681A00241476002490B5C3B000AF02463C
:1021A00007F58473A3F58473196007F58473A3F5A9
:1021B00081731A8007F10C03FA22002118466CF093
:1021C0006BFA07F10C03FA22002118466CF064FA4E
:1021D00007F58473A3F5847307F10C001B68134A99
:1021E000FA216CF0D1F807F58473A3F581731C888C
:1021F00007F10C031846FEF7D3F80346DBB2194685
:102200002046FFF781FF07F10C031846FEF7C8F8D8
:1022100003469AB207F10C016423054818F0FBFC51
:1022200000BF07F58677BD4690BD00BFDC1F0908DB
:102230001476002480B400AFBFF34F8F00BF064B6D
:10224000DB6803F4E0620449044B1343CB60BFF343
:102250004F8F00BF00BFFDE700ED00E00400FA056E
:1022600080B500AF00221021024813F0ABF900BF87
:1022700080BD00BF0000025880B500AF01221021D0
:10228000024813F09FF900BF80BD00BF0000025854
:1022900080B483B000AF0346FB71FB79072B0AD9EA
:1022A000FB79202B07D8FB7903F00703DBB2002B67
:1022B00001D1012300E0002303F00103DBB2184643
:1022C0000C37BD465DF8047B7047000080B588B0D0
:1022D00002AF78600B46FB70FB781846FFF7D8FF1B
:1022E000034683F00103DBB2002B01D0002347E05B
:1022F00000237B610023FB600023BB60FB78083B6D
:10230000FB740023BB7410E0FB7C7A68DA40BB7C72
:10231000DB08DBB2D2B218333B4403F80C2CFB7C55
:10232000083BFB74BB7C0833BB74BA7CFB789A42D5
:10233000EAD3FB78DB08DBB2184607F1080207F1A5
:102340000C016423009303460F4817F0CBFA0023D7
:102350007B7410E07B691B027B617B7CDB08DBB25A
:1023600018333B4413F8103C1A467B6913437B61D6
:102370007B7C08337B747A7CFB789A42EAD37B6956
:1023800018461837BD4680BD1074002480B582B051
:1023900000AF00237B60FFF763FF10214FF4A060C4
:1023A000FFF794FF7860FFF767FF7B68DBB21846A2
:1023B0000837BD4680BD80B582B000AF0FF056FF34
:1023C00078600AE00FF052FF02467B68D31A41F2B0
:1023D0008832934201D9002307E0FFF7D7FF034675
:1023E00003F00103002BEDD1012318460837BD4649
:1023F00080BD80B500AFFFF733FF08210620FFF74F
:1024000065FFFFF739FFFFF7C1FF034603F0020343
:10241000002B01D0012300E00023184680BD80B5C9
:1024200086B000AFF860B9601346FB800023FB82E2
:102430000023FB821EE0FFF7DCFF0346002B16D0D3
:10244000FFF70EFFFA8ABB68134443F000732021A4
:102450001846FFF73BFFFB8AFA6813441B780821F4
:102460001846FFF733FFFFF707FFFFF7A4FFFB8ACC
:102470000133FB82FA8AFB889A42DCD300BF00BF9B
:102480001837BD4680BD80B586B000AFF860B96032
:102490001346FB800023FB82FFF7E2FEBB6843F09C
:1024A000407320211846FFF711FF0023FB820CE048
:1024B00008210020FFF70AFF0146FB8AFA6813444F
:1024C000CAB21A70FB8A0133FB82FA8AFB889A42ED
:1024D000EED3FFF7D1FE00BF1837BD4680BD80B5F3
:1024E00082B000AF00237B60FFF7BAFE08219F2077
:1024F000FFF7ECFE786018210020FFF7E7FE786018
:10250000FFF7BAFE7B6818460837BD4680BD00005D
:1025100080B584B000AF03463960FB710023FB73C4
:1025200021E0FFF766FF0346002B10D0FFF798FE6F
:10253000FB7908211846FFF7C9FE18213868FFF714
:10254000C5FEFFF799FEFFF736FF012313E0FB7B83
:10255000013319460A486BF09FFE0A201BF05DFF0D
:10256000FB7B0133FB73FB7B132BDAD9142105486A
:102570006BF092FE002318461037BD4680BD00BFA9
:10258000E01F09080020090880B586B000AFF86098
:10259000B9601346FB800023FB82FFF72AFF034646
:1025A000002B20D0FFF75CFEBB6843F000732021B6
:1025B0001846FFF78BFE0023FB820AE0FB8AFA68CD
:1025C00013441B7808211846FFF780FEFB8A01336D
:1025D000FB82FA8AFB889A42F0D3FFF74DFEFFF7A1
:1025E000EAFE012306E005486BF0C6FE0A201BF058
:1025F00014FF002318461837BD4680BD282009085F
:1026000080B582B000AFFFF76AFF78607B68124A3E
:10261000934203D07B68114A934217D1FFF7E9FE3A
:102620000346002B0ED0FFF71BFE18214FF480301D
:10263000FFF74CFEFFF720FEFFF7BDFE08486BF0EA
:102640009BFE06E007486BF097FE02E005486BF042
:1026500093FE0837BD4680BD01871F001740EF007D
:10266000402009085420090880B588B000AFF86000
:10267000B9607A60BA687B681344B3F5001F4CD91F
:1026800000234EE0BB68DBB27B617B69C3F58073DE
:102690003B613A697B68934228BF1346FB61FB6943
:1026A000B3F5807F02D94FF48073FB61FFF7A1FE81
:1026B0000346002B01D1002333E0FFF7D1FDBB68B7
:1026C00043F0007320211846FFF700FE0023BB6192
:1026D0000AE0FA68BB6913441B7808211846FFF723
:1026E000F5FDBB690133BB61BA69FB699A42F0D35E
:1026F000FFF7C2FDFFF75FFE0346002B01D1002369
:102700000FE0BA68FB691344BB60FA68FB691344C5
:10271000FB607A68FB69D31A7B607B68002BB1D1C0
:10272000012318462037BD4680BD000080B582B029
:1027300000AF00237B6000237B6007E079682020E6
:10274000FFF7E6FE7B6803F580537B607B68B3F59B
:10275000801FF3D34FF48072FF2109486BF09CFF78
:10276000084B00221A60084B00221A60074B002217
:102770001A60074B00221A7000BF0837BD4680BDA3
:102780002C1800242C1A0024301A0024341A002497
:102790002A18002480B500AF02486BF0EDFDFFF76A
:1027A00049FD00BF6C2009082DE9F04FADF6946D8E
:1027B00002AF07F68863A3F66463186007F68863C0
:1027C000A3F66863196007F68863A3F66C631A6062
:1027D00007F68863A3F664631968BD486BF05CFD77
:1027E00007F68863A3F668631968BA486BF054FD6E
:1027F00007F68863A3F66C631968B7486BF04CFD65
:10280000002387F8873EB54B00221A60B44B0022A4
:102810001A60B44B4FF0FF321A60B34B00221A60BB
:10282000B24B00221A604FF48072FF21B0486BF067
:1028300033FFB0480DF09EFEAF4865F01FFBAF4878
:1028400066F05DFCAE483EF05EFAAE4847F02CFD07
:10285000AD4BC7F85C3ED7F85C0EFDF7A1FD034613
:102860000093D7F85C3EA74AA849A5483EF09AFADB
:10287000C7F8580ED7F8583E002B05D0D7F8581E89
:10288000A3486BF009FD96E3A2486BF075FD07F6CF
:102890008863A3F6686207F68863A3F66461002381
:1028A0001268096893480DF06FFEC7F8580ED7F804
:1028B000583E002B05D0D7F8581E97486BF0ECFC1B
:1028C00079E3D7F8581E95486BF0E6FC0023002208
:1028D00000218A4866F020FCC7F8580ED7F8583E09
:1028E000002B05D0D7F8581E8D486BF0D5FC62E35D
:1028F000D7F8581E8B486BF0CFFC00217F4865F05D
:1029000081FC7F4A88497D4865F092FC7B497A4882
:1029100065F0F4FAC7F8580ED7F8583E002B05D0EA
:10292000D7F8581E81486BF0B7FC44E3D7F8581E1F
:102930007F486BF0B1FC07F68863A3F664631968FF
:102940006D4865F0F3FCC7F8580ED7F8583E002BD9
:1029500005D0D7F8581E77486BF09EFC2BE3D7F8CC
:10296000581E75486BF098FC00230093734B744A13
:102970006049614865F080FC0023C7F8803E05236C
:10298000C7F8543E2CE0D7F8583E13F5D24F24D068
:10299000D7F8583E13F5D14F1FD0D7F8583E5B42B9
:1029A000194668486BF078FCD7F8803E0133C7F8C9
:1029B000803ED7F8802ED7F8543E9A4205DBD7F8F0
:1029C000541E61486BF068FCF5E24FF47A701DF01C
:1029D00023FB494865F0DDFB02E00023C7F8803E99
:1029E000454865F0F5FDC7F8580ED7F8583E002B5E
:1029F000C9D156486BF0C0FC07F68863A3F66C6239
:102A000007F6484007F68863A3F664631B680093E3
:102A100013684F4A4FF400716BF0B6FC0023C7F8FF
:102A20007C3E25E007F64842D7F87C3ED41807F6EE
:102A300048431846FDF7B4FC0246D7F87C3ED31A4B
:102A40001A4621462C4866F039F9C7F8580ED7F8CF
:102A5000583E002B05DAD7F8581E3E486BF01CFC98
:102A6000A9E2D7F8583ED7F87C2E1344C7F87C3E2D
:102A700007F648431846FDF793FC0246D7F87C3E1C
:102A80009342CFD334486BF077FC0023C7F8783EED
:102A900081E0D7F8783E002B0AD107F68863A3F5CA
:102AA00011731B780D2B03D10123C7F8783E72E018
:102AB000D7F8783E012B51D107F68863A3F511733F
:102AC0001B780A2B4AD10223C7F8783E63E000BF87
:102AD000E8200908FC200908102109083C1A0024F4
:102AE000401A00243C000024441A00242C1A00241C
:102AF0002C180024E8060024006D0024186E002421
:102B00001C7000246071002424210908A1A5060876
:102B10003021090854210908742109089421090861
:102B2000B8210908E0210908551506080C220908F2
:102B30002C2209084C22090874220908AD06030852
:102B4000290703089C220908BC220908E422090875
:102B5000FC2209083C23090854230908D7F8783EC9
:102B6000022B0AD107F68863A3F511731B780D2B8E
:102B700003D10323C7F8783E0DE0D7F8783E032B46
:102B800006D107F68863A3F511731B780A2B0DD0C5
:102B90000023C7F8783E07F6444301221946D0487F
:102BA00065F040FE0346002B3FF773AFFFF7BEFD15
:102BB00020214FF40540FFF7CBFACA494FF40540F6
:102BC000FFF7EAFAC8486BF0D7FB0023C7F8743E5A
:102BD0000023C7F8703E0023C7F86C3E0023C7F8F7
:102BE000683E002387F8673EC04B1B68002B02D06D
:102BF000BE4B1B6801E0BE4B1B68C7F8503EA9E105
:102C0000D7F8702ED7F8583E1344C7F8703ED7F85F
:102C10006C3E0133C7F86C3EB64B1B78002B06D0D8
:102C2000D7F8582ED7F86C1EB3486BF035FBD7F8A1
:102C3000703EDA179A46934652465B4691183960C1
:102C40005B417B60D7E9002312EB0A0843EB0B09D9
:102C50004FF000024FF000034FEA491343EAD863F4
:102C60004FEA481218EB020549EB030615EB0A037D
:102C70003B6146EB0B037B61D7F8503E0022BB6003
:102C8000FA60D7E90223D7E90401FDF74DFD0246BA
:102C90000B46D3B2C7F84C3E97F8673ED7F84C2E98
:102CA0009A422EDDD7F84C3E642B19DC20214FF4DC
:102CB0000540FFF74DFA07F13003D7F84C2E8F4946
:102CC00018466BF097FB07F1300319464FF40540A7
:102CD000FFF762FAD7F84C1E89486BF0DDFA0CE07A
:102CE00020214FF40540FFF733FA86494FF40540A1
:102CF000FFF752FA84486BF0CFFAD7F84C3E87F8CA
:102D0000673E0023C7F8603E19E107F68863A3F623
:102D10004422D7F8603E13441B7887F84B3ED7F81F
:102D2000743E40F2FE32934211D8D7F8741E4B1C09
:102D3000C7F8743E07F68863A3F6446297F84B3EE3
:102D4000535497F84B3E0A2B40F0F4800AE0D7F832
:102D5000602ED7F86C1E6D486BF09EFA012387F841
:102D6000873EF3E007F68863A3F64462D7F8743E23
:102D70001A4400231370D7F8743E012B17DDD7F8DF
:102D8000743E5A1E07F68863A3F644639B5C0D2BC2
:102D90000DD1D7F8743E591E07F68863A3F6446236
:102DA00000235354D7F8743E013BC7F8743ED7F85C
:102DB000743E012B03DC0023C7F8743EBAE04D4B90
:102DC0001B78002B16D007F14403D7F8742E194650
:102DD0004F486BF061FA0DE0D7F8743E013BC7F83D
:102DE000743E07F68863A3F64462D7F8743E1A442B
:102DF00000231370D7F8743E002B0FDDD7F8743E14
:102E00005A1E07F68863A3F644639B5C0133414A6C
:102E100013441B7803F00803002BDDD107F14403B2
:102E2000184600F0DBF8034687F84A3ED7F8683EBC
:102E30000133C7F8683E0023C7F8743E97F84A3E4E
:102E4000002B06D134486BF097FA012387F8873EB0
:102E50007CE097F84A3E022B6CD130486BF08CFA3C
:102E600007F68863A3F65C6300221A602C4B1B688C
:102E70004FF0FF3118461BF0FDFA07F12C03042236
:102E800000211846FFF7FFFA254B1B6818461BF078
:102E90003FFB07F68863A3F65C631B68194621486D
:102EA0006BF0FAF920214FF40540FFF751F91E4964
:102EB0004FF40540FFF770F94FF47A701DF0ACF84D
:102EC00020214FF40540FFF743F918494FF405401E
:102ED000FFF762F916486BF0DFF9FFF75BFC35E0AE
:102EE000006D00247C2309088C230908301A002473
:102EF00038000024481A0024B4230908D8230908FC
:102F0000EC230908082409081C2409083C240908A2
:102F10006C24090848BD0B0890240908C42409083A
:102F2000DC4B0024DC2409080025090814250908C5
:102F300024250908D7F8603E0133C7F8603ED7F86A
:102F4000602ED7F8583E9A42FFF6DFAE97F8873EDC
:102F5000002B0FD107F244434FF400621946184882
:102F600065F060FCC7F8580ED7F8583E002B3FF7C5
:102F700047AE00E000BFD7F8682ED7F8701E1148A2
:102F80006BF08AF90E4865F0CBFE0F480DF00AFC95
:102F90000B4866F024F80D4866F0B6FA0C483DF090
:102FA00017FF0C4847F0A6F997F8873E002B02D090
:102FB00009486BF0E1F907F68C67BD46BDE8F08F74
:102FC000006D00244C250908E8060024186E002432
:102FD0001C700024607100248425090880B590B01D
:102FE00000AF786002E07B6801337B607B681B7810
:102FF000002B09D07B681B780133944A13441B785B
:1030000003F00803002BEED17868FDF7C9F9F863E7
:1030100007E0FB6B013BFB637A68FB6B1344002208
:103020001A70FB6B002B0CD0FB6B013B7A681344CE
:103030001B780133854A13441B7803F00803002BE7
:10304000E7D1FB6B002B01D10123F9E17B681B78F1
:103050003A2B05D079687E486BF01EF90023EFE12A
:103060007B680133BB620023BB6300237B610023C9
:103070003B6107F11C031A467649B86A6BF0DCF92C
:103080000346012B01D00023DAE1FB695B00FB6101
:10309000FB690A33FB6100237B6314E0BA6A7B6B34
:1030A000134407F118026B4918466BF0C5F9034643
:1030B000012B01D00023C3E1BB69BA6B1344BB638E
:1030C0007B6B02337B63FB697A6B9A42E6D3BB6B03
:1030D000DBB2BB63BB6B002B04D05F486BF04CF9D9
:1030E0000023ADE1BB6A981C07F1100307F114023D
:1030F0005A496BF0A1F93B69002B40F0C3807B6912
:103100009BB2DBB29BB204339AB2554B1A800823B0
:103110003B638BE0BA6A3B6B134407F118024D49DD
:1031200018466BF089F9B9694D4B1B885A1C90B24F
:103130004B4A10801A46C9B24A4B9954484B1B88D7
:10314000FF2B70D9002387F82F30002387F82E300B
:103150003EE0454B1B684FF0FF3118461BF08AF9E3
:10316000424B1B684FF4807219463E48FFF70CFA39
:103170000A201CF051FF3D4B1B684FF4807219462A
:103180003B48FFF780F9384B1B6818461BF0C0F925
:1031900014201CF041FF4FF48072324934486BF028
:1031A00051FA0346002B03D1012387F82E300FE09C
:1031B00097F82F30013387F82F302C4B1B6897F886
:1031C0002F2019462B486BF067F80A201CF024FFCB
:1031D00097F82F30632B06D897F82E3083F0010331
:1031E000DBB2002BB5D197F82E3083F00103DBB2B0
:1031F000002B09D097F82F301C4A126819461E4838
:103200006BF04AF800231BE1184B1B6803F5807331
:10321000164A13604FF48072002112486BF03CFA9A
:103220000F4B00221A803B6B02333B63FB69023B6E
:103230003A6B9A42FFF46EAF104B1B78002B02D012
:103240000F486BF099F80123FAE000BF48BD0B0866
:10325000B4250908D0250908D8250908F02509084A
:103260004A1A00242C180024DC4B00242C1A0024B9
:103270002C190024FC25090820260908481A0024D6
:10328000502609083B69012B40F0B2806E4B1B6849
:103290004FF0FF3118461BF0EDF86C4B1B686C4A81
:1032A000128819466B48FFF76FF9684B1B68684A2C
:1032B000128819466848FFF7E6F8634B1B68184602
:1032C0001BF026F9624B1B881A46624962486BF074
:1032D000B9F90346002B07D05C4B1B6819465F48C1
:1032E0006AF0DAFF0023ABE0594B1B881A46574BB4
:1032F0001B681344191F564B1B881A46534B1B68F7
:103300001344043B1A4656486AF0C6FF4E4B1B68EE
:103310004FF0FF3118461BF0ADF84D4B1B881A4695
:103320004A4B1B681344043BFB60FB68184600F0E3
:10333000B1F878624B4B1B687A6A9A420AD14A48C4
:103340006BF01AF8474B1B6819464FF4167006F0DD
:10335000F3FD07E045486BF00FF845486BF00CF8BB
:10336000FFF718FA07F10C03042200211846FFF7B3
:103370007BF90346002B09D1334B1B6818461BF021
:10338000C7F83C486AF0F8FF002359E00422002106
:103390003148FFF778F82C4B1B6818461BF0B8F83B
:1033A0002D4B1B683B622A4B1B881A46274B1B6818
:1033B0001344043B3A6A9A420DD0254B1B881A46A7
:1033C000224B1B681344043B3A6A19462A486AF0A8
:1033D00063FF002334E01E4B1B881A461B4B1B68FF
:1033E0001344043B194625486AF056FF022327E0A0
:1033F0003B69042B16D1BB6A083307F1140220493C
:1034000018466BF019F87B6940F60202934204D12A
:10341000FFF78CF91B486AF0AFFF1B486AF0ACFF5E
:1034200001230DE03B69052B04D118486AF0A4FF85
:10343000012305E03B69194615486AF02DFF012379
:1034400018464037BD4680BDDC4B00242C1A0024B2
:103450004A1A00242C1800242C1900246426090878
:1034600084260908381A0024AC260908BC26090855
:10347000D0260908E0260908002709082827090896
:10348000602709088C230908682709088427090888
:10349000AC27090880B594B000AF7860524B1B6828
:1034A0009A68514B1B6842F001029A600023FB644A
:1034B00079684E486AF0F0FE0423BB647B687B6445
:1034C0007B68002B40F3898049486AF055FF7BE018
:1034D0007B6C202B28BF2023BB63BB6B9AB207F108
:1034E0001403B96C1846FEF7CEFF00233B6429E0B5
:1034F00007F114023B6C13441B781A463B6C0133F2
:1035000050333B4413F83C3C1B021A433B6C0233E0
:1035100050333B4413F83C3C1B041A433B6C0333CD
:1035200050333B4413F83C3C1B0613433B6107F10B
:103530001003012219462C480FF0D6F8F8643B6CB2
:1035400004333B643B6C0433BA6B9A42D0D2BA6BFF
:103550003B6CD31A7B637B6B002B2DD04FF0FF337A
:10356000FB600023FB630FE03A6CFB6B13445033AA
:103570003B4413F83C1C07F10C02FB6B13440A4656
:103580001A70FB6B0133FB63FA6B7B6B9A42EBD3D4
:103590003B7B1A467B7B1B021A43BB7B1B041A43F3
:1035A000FB7B1B061343BB6007F10803012219468E
:1035B0000D480FF099F8F864BA6CBB6B1344BB6408
:1035C0007A6CBB6BD31A7B647B6C002B80D1F96C5B
:1035D00008486AF061FEFB6C02E00023FB64FB6CB0
:1035E00018465037BD4680BDB86C0024E427090852
:1035F000F82709081428090880B485B000AFF860DE
:10360000B9601346FB71BB681B885A1C91B2BA683B
:1036100011801A46FB681344FA791A7000BF1437F8
:10362000BD465DF8047B704780B584B000AFF8609C
:10363000B9607A603B60BB681B881A46FB6813441C
:103640003A68796818466BF07EF9BB681A883B685F
:103650009BB213449AB2BB681A8000BF1037BD46B4
:1036600080BD80B58AB000AFF860B9607A607868D4
:10367000FCF796FE03467B627B6A202B01DD20234C
:103680007B627B6AC3F12003BB61BB69002B00DA5C
:1036900001335B107B61BA697B69D31A3B610023FC
:1036A0003B6207E02022B968F868FFF7A5FF3B6A94
:1036B00001333B623A6A7B699A42F3DB7B6A7A6840
:1036C000B968F868FFF7B0FF0023FB6107E020222C
:1036D000B968F868FFF790FFFB690133FB61FA698D
:1036E0003B699A42F3DB0A22B968F868FFF784FF66
:1036F00000BF2837BD4680BD90B5ADF2C44D00AFC8
:1037000007F59864A4F2B444206007F59860A0F52A
:103710009760016007F59861A1F2BC410A6007F566
:103720009862A2F59862136007F59863A3F20E43BE
:1037300000221A8007F1B20107F1B4031B221846D8
:10374000FFF75AFF07F1B20107F1B4034022184610
:10375000FFF752FF07F1B20107F1B4031B2218462D
:10376000FFF74AFF07F1B20107F1B40374221846CC
:10377000FFF742FF07F1B20107F1B4030022184638
:10378000FFF73AFF07F1B20107F1B4031B22184615
:10379000FFF732FF07F1B20107F1B4034D221846DB
:1037A000FFF72AFF07F1B20107F1B4030022184620
:1037B000FFF722FF07F1B20107F1B4031B221846FD
:1037C000FFF71AFF07F1B20107F1B40361221846AF
:1037D000FFF712FF07F1B20107F1B4030122184607
:1037E000FFF70AFF07F17000634B644A40216AF05B
:1037F000CBFD07F1700207F1B20107F1B4031846DF
:10380000FFF72FFF07F11000D7F8D0345C4A2021D2
:103810006AF0BAFD07F1B20107F1B4031D221846A0
:10382000FFF7EAFE07F1B20107F1B4036822184678
:10383000FFF7E2FE07F1B20107F1B40332221846A6
:10384000FFF7DAFE07F1B20107F1B4031D221846B3
:10385000FFF7D2FE07F1B20107F1B4034822184680
:10386000FFF7CAFE07F1B20107F1B40302221846BE
:10387000FFF7C2FE07F1B20107F1B4031D2218469B
:10388000FFF7BAFE07F1B20107F1B403662218464A
:10389000FFF7B2FE07F1B20107F1B40300221846A8
:1038A000FFF7AAFE07F1B20107F1B4031D22184683
:1038B000FFF7A2FE07F1B20107F1B4036B2218462D
:1038C000FFF79AFE07F1B20107F1B4034922184647
:1038D000FFF792FE07F110031846FCF761FD03465F
:1038E000DAB207F1B20107F1B4031846FFF784FE1C
:1038F00007F110031846FCF753FD034607F11002C9
:1039000007F1B20107F1B400FFF78EFE07F1B20133
:1039100007F1B4030A221846FFF76EFE07F5986315
:10392000A3F5976307F170001B68164A40216AF0FF
:103930002BFD07F1700207F1B20107F1B40318463D
:10394000FFF78FFE07F59863A3F2BC431B68002BBB
:103950001CDD07F59863A3F2BC431B68072B15D841
:1039600007F59863A3F2BC431B68013B322202FBBC
:1039700003F3054A13440AE06C05002434280908BF
:103980003828090840280908C41B0024F04BC7F850
:10399000B83407F17000D7F8B834EE4A40216AF025
:1039A000F3FC07F1700207F1B20107F1B403184606
:1039B000FFF757FE07F59863A3F5976307F130000B
:1039C0001B68E54A40216AF0DFFC07F13003184626
:1039D000FCF7E6FCC7F8B40407F1B20107F1B40341
:1039E0001D221846FFF708FE07F1B20107F1B403E4
:1039F00028221846FFF700FE07F1B20107F1B403D1
:103A00006B221846FFF7F8FD07F1B20107F1B40386
:103A100004221846FFF7F0FD07F1B20107F1B403E5
:103A200000221846FFF7E8FD07F1B20107F1B403E1
:103A300031221846FFF7E0FD07F1B20107F1B403A8
:103A400041221846FFF7D8FD07F1B20107F1B40390
:103A500032221846FFF7D0FD07F1B20107F1B40397
:103A600000221846FFF7C8FD07F1B20107F1B403C1
:103A70001D221846FFF7C0FD07F1B20107F1B4039C
:103A800028221846FFF7B8FD07F1B20107F1B40389
:103A90006B221846FFF7B0FD07F1B20107F1B4033E
:103AA00003221846FFF7A8FD07F1B20107F1B4039E
:103AB00000221846FFF7A0FD07F1B20107F1B40399
:103AC00031221846FFF798FD07F1B20107F1B40360
:103AD00043221846FFF790FD07F1B20107F1B40346
:103AE0000B221846FFF788FD07F1B20107F1B40376
:103AF0001D221846FFF780FD07F1B20107F1B4035C
:103B000028221846FFF778FD07F1B20107F1B40348
:103B10006B221846FFF770FD07F1B20107F1B403FD
:103B200003221846FFF768FD07F1B20107F1B4035D
:103B300000221846FFF760FD07F1B20107F1B40358
:103B400031221846FFF758FD07F1B20107F1B4031F
:103B500045221846FFF750FD07F1B20107F1B40303
:103B600031221846FFF748FD07F1B20107F1B4030F
:103B70001D221846FFF740FD07F1B20107F1B4031B
:103B800028221846FFF738FD07F1B20107F1B40308
:103B90006B221846FFF730FDD7F8B434DBB203339D
:103BA000DAB207F1B20107F1B4031846FFF724FDBA
:103BB000D7F8B43403331B0ADAB207F1B20107F1C4
:103BC000B4031846FFF718FD07F1B20107F1B4037B
:103BD00031221846FFF710FD07F1B20107F1B403D7
:103BE00050221846FFF708FD07F1B20107F1B403B0
:103BF00030221846FFF700FD07F1300207F1B2014D
:103C000007F1B400D7F8B434FFF70EFD07F1B201A5
:103C100007F1B4031D221846FFF7EEFC07F1B201CD
:103C200007F1B40328221846FFF7E6FC07F1B201BA
:103C300007F1B4036B221846FFF7DEFC07F1B2016F
:103C400007F1B40303221846FFF7D6FC07F1B201CF
:103C500007F1B40300221846FFF7CEFC07F1B201CA
:103C600007F1B40331221846FFF7C6FC07F1B20191
:103C700007F1B40351221846FFF7BEFC07F1B20169
:103C800007F1B40330221846FFF7B6FC07F1B20182
:103C900007F1B4030A221846FFF7AEFC07F1B201A0
:103CA00007F1B4032D4A1846FFF7DBFC07F1B20118
:103CB00007F1B4030A221846FFF79EFC0023C7F859
:103CC000BC340CE007F1B20107F1B4030A22184634
:103CD000FFF792FCD7F8BC340133C7F8BC34D7F8EF
:103CE000BC34012BEEDD07F1B20107F1B4031D2254
:103CF0001846FFF781FC07F1B20107F1B403562221
:103D00001846FFF779FC07F1B20107F1B40341222D
:103D10001846FFF771FC07F1B20107F1B403002266
:103D20001846FFF769FC07F59863A3F20E431A885B
:103D300007F1B40107F59863A3F2B4404FF0FF33E5
:103D4000006816F068FF00BF07F2C447BD4690BD8B
:103D50004C2809085C2809086828090870280908FF
:103D600080B582B000AF786039601B22396878680E
:103D7000FFF742FC402239687868FFF73DFC1B22C0
:103D800039687868FFF738FC742239687868FFF77B
:103D900033FC002239687868FFF72EFC1B22396853
:103DA0007868FFF729FC4D2239687868FFF724FC12
:103DB000002239687868FFF71FFC1B223968786891
:103DC000FFF71AFC612239687868FFF715FC0122B9
:103DD00039687868FFF710FC00BF0837BD4680BD22
:103DE00090B5ADF5885D85B004AF07F5807444F8F3
:103DF000F40C084607F5807141F8FC2C194607F5CC
:103E00008073024623F8F62C07F580730A4603F800
:103E1000F72C002341F2FE023A44138007F5807329
:103E200013F8F73C002B00F01182002341F2FC0252
:103E30003A44138041F2FC033B441A88614B03F57A
:103E400088533B44981841F2FC033B441B88C3F55C
:103E500080535D4A19466AF097FA03469AB241F2D6
:103E6000FC033B441B88134441F2FC023A44138098
:103E700041F2FC033B441A88524B03F588533B4400
:103E8000981841F2FC033B441B88C3F580514F4B0B
:103E90001B684F4A6AF078FA03469AB241F2FC0373
:103EA0003B441B88134441F2FC023A44138041F224
:103EB000FC033B441A88434B03F588533B44981852
:103EC00041F2FC033B441B88C3F5805107F5807326
:103ED00053F8FC3C01331B781C4607F5807353F8FC
:103EE000FC3C1B781A4607F5807353F8FC3C023300
:103EF0001B78019300922346364A6AF045FA03463E
:103F00009AB241F2FC033B441B88134441F2FC0289
:103F10003A44138041F2FC033B441A88294B03F5D1
:103F200088533B44981841F2FC033B441B88C3F57B
:103F3000805107F5807353F8FC3C03331B781C4613
:103F400007F5807353F8FC3C04331B781A4607F5D9
:103F5000807353F8FC3C05331B7801930092234691
:103F60001D4A6AF011FA03469AB241F2FC033B443F
:103F70001B88134441F2FC023A44138041F2FC03D3
:103F80003B441A880F4B03F588533B44981841F281
:103F9000FC033B441B88C3F58053104A19466AF062
:103FA000F3F903469AB241F2FC033B441B881344E5
:103FB00041F2FC023A441380002341F2FA023A44EF
:103FC00013800EE1B0EFFFFF7C28090800000024F9
:103FD0008028090890280908AC280908C828090879
:103FE00041F2FA033B441A8813465B001344DB009A
:103FF00003F5181307F58752136041F2BC033B44E5
:10400000182207F5875109681846FEF73CFA41F275
:10401000C9033B441B7841F2DF023A44137041F27A
:10402000C8033B441B7841F2DE023A44137041F26C
:10403000CA033B441B7841F2DD023A44137007F592
:10404000807353F8FC3C01331B7841F2DE023A44A2
:1040500012789A4240F0BC8007F5807353F8FC3C1C
:104060001B7841F2DF023A4412789A4240F0B08065
:1040700007F5807353F8FC3C02331B7841F2DD02F4
:104080003A4412789A4240F0A38041F2BE033B4486
:104090001B781A0641F2BF033B441B781B041A43EA
:1040A00007F586531B781B02134341F2C1023A44C1
:1040B0001278134341F2D8023A44136041F2BC0330
:1040C0003B44991D41F2B4033B44062218466AF072
:1040D0003AFC002341F2BA023A44137041F2CB0396
:1040E0003B441B7841F2D7023A44137041F2CC03AF
:1040F0003B441B7841F2D6023A44137041F2CD039F
:104100003B441B7841F2D5023A44137041F2FE035E
:104110003B441B88002B1DD041F2FC033B441A8812
:10412000A44B03F588533B44981841F2FC033B44ED
:104130001B88C3F58053A04A19466AF025F9034647
:104140009AB241F2FC033B441B88134441F2FC0247
:104150003A44138041F2FC033B441A88954B03F523
:1041600088533B44981841F2FC033B441B88C3F539
:10417000805441F2D7033B441B7841F2D6023A44C3
:10418000127841F2D50139440978039102920193E2
:1041900041F2B4033B44009341F2D8033B441B6813
:1041A000864A21466AF0F0F803469AB241F2FC03CF
:1041B0003B441B88134441F2FC023A44138041F211
:1041C000FE033B441B88013341F2FE023A44138054
:1041D00041F2FA033B441B88013341F2FA023A44AC
:1041E000138007F5807341F2FA023A44128833F8DB
:1041F000F63C9A427FF6F4AE41F2FC033B441A8847
:104200006C4B03F588533B44981841F2FC033B4444
:104210001B88C3F5805141F2FE033B441B88684A6A
:104220006AF0B2F803469AB241F2FC033B441B88A1
:10423000134441F2FC023A4413805E4B03F5885369
:104240003B4419465F486AF027F868E2002341F2D0
:10425000B2023A44138041F2B2023A44554B03F59C
:1042600088533B4411461846FFF77AFD41F2B201EC
:104270003944504B03F588533B44534A1846FFF7E3
:10428000F0F9524B1B68524800F58852D019514A38
:1042900050216AF079F84E4A02F58853DA1941F252
:1042A000B2013944434B03F588533B441846FFF7AA
:1042B000D8F907F5807353F8FC3C01331B78194695
:1042C00007F5807353F8FC3C1B781A4607F580739A
:1042D00053F8FC3C02331B783D4800F588503844C5
:1042E000019300920B463C4A50216AF04DF8384A3F
:1042F00002F58853DA1941F2B20139442D4B03F526
:1043000088533B441846FFF7ACF907F5807353F820
:10431000FC3C03331B78194607F5807353F8FC3CCB
:1043200004331B781A4607F5807353F8FC3C0533B9
:104330001B78274800F588503844019300920B46BB
:10434000264A50216AF020F8214A02F58853DA19EA
:1043500041F2B2013944174B03F588533B441846E8
:10436000FFF77FF941F2B2013944124B03F588534C
:104370003B440A221846FFF73FF941F2B2013944A3
:104380000C4B03F588533B44154A1846FFF769F96F
:1043900041F2B2013944074B03F588533B44114ABB
:1043A0001846FFF75EF9002341F2F8023A44138001
:1043B0001DE100BFB0EFFFFFD4280908D828090885
:1043C000F4280908042909081C2909080000002408
:1043D00010EFFFFF2C2909083C2909085429090876
:1043E0006C2909087C29090841F2F8033B441A8822
:1043F00013465B001344DB0003F5181341F2F0028F
:104400003A44136041F2BC033B44182241F2F001EC
:10441000394409681846FEF736F841F2C9033B44AF
:104420001B7841F2EF023A44137041F2C8033B4457
:104430001B7841F2EE023A44137041F2CA033B4446
:104440001B7841F2ED023A44137007F5807353F87C
:10445000FC3C01331B7841F2EE023A4412789A4256
:1044600040F0BC8007F5807353F8FC3C1B7841F2A8
:10447000EF023A4412789A4240F0B08007F5807318
:1044800053F8FC3C02331B7841F2ED023A441278B7
:104490009A4240F0A38041F2BE033B441B781A06C7
:1044A00041F2BF033B441B781B041A4307F58653B4
:1044B0001B781B02134341F2C1023A4412781343A2
:1044C00041F2E8023A44136041F2BC033B44991DB7
:1044D00041F2B4033B44062218466AF034FA002342
:1044E00041F2BA023A44137041F2CB033B441B78C9
:1044F00041F2E7023A44137041F2CC033B441B788B
:1045000041F2E6023A44137041F2CD033B441B787A
:1045100041F2E5023A44137041F2E7033B441B7851
:1045200041F2E6023A44127841F2E5013944097851
:1045300007F1600003910292019341F2B4033B44FE
:10454000009341F2E8033B441B68784A502169F02C
:104550001BFF07F1600241F2B2013944744B03F5CD
:1045600088533B441846FFF77CF841F2FE033B4476
:104570001B88013341F2FE023A44138041F2FE03EC
:104580003B441A886B4BA3FB0213D9080B469B00D4
:104590000B445B00D31A9BB2002B1FD141F2B20334
:1045A0003B441A88624901F58853D91907F580738D
:1045B00018464FF0FF3350F8F40C16F02CFB5C4B10
:1045C00003F588533B444FF40062002118466AF01B
:1045D00063F8002341F2B2023A44138041F2F80337
:1045E0003B441B88013341F2F8023A44138007F53B
:1045F000807341F2F8023A44128833F8F63C9A424A
:104600007FF6F2AE41F2FE033B441B884A4800F5B8
:104610008852D019494A502169F0B6FE464A02F53F
:104620008853DA1941F2B2013944414B03F58853FA
:104630003B441846FFF715F841F2B20139443C4BB0
:1046400003F588533B443E4A1846FFF70AF841F207
:10465000B2013944364B03F588533B44394A184676
:10466000FEF7FFFF002341F2F4023A44136013E027
:1046700041F2B20139442E4B03F588533B440A22E0
:104680001846FEF7B9FF41F2F4033B441B680133BF
:1046900041F2F4023A44136041F2F4033B441B68D4
:1046A000022BE5DD41F2B2013944214B03F5885379
:1046B0003B441D221846FEF79FFF41F2B2013944E8
:1046C0001B4B03F588533B4456221846FEF794FFD4
:1046D00041F2B2013944164B03F588533B44412261
:1046E0001846FEF789FF41F2B2013944104B03F539
:1046F00088533B4400221846FEF77EFF41F2B20386
:104700003B441A880A4901F58853D91907F5807383
:1047100018464FF0FF3350F8F40C16F07CFA00BF47
:1047200007F588570437BD4690BD00BF9C2909088E
:10473000B0EFFFFFCDCCCCCC10EFFFFFB8290908BC
:104740007C2909087028090880B582B000AF1B4A8F
:104750003B1D1268114619800233120C1A70002397
:10476000FB70174B1B689A69154B1B6842F00802D7
:104770009A61134B1B689A69114B1B6842F0100237
:104780009A61391D4FF0FF3303220D4816F043FAAA
:104790000346002B01D000230BE0F91CC8230122A3
:1047A000074816F0C6FA0346002B01D1012300E0AA
:1047B000002318460837BD4680BD00BFCC29090834
:1047C000EC74002480B582B000AF1D4A3B1D126816
:1047D000114619800233120C1A70FF23FB70194B1B
:1047E0001B689A69174B1B6842F008029A61154BC7
:1047F0001B689A69134B1B6842F010029A61391DBD
:104800004FF0FF3303220F4816F005FAF91CC823B6
:1048100001220C4816F08DFA0346002B06D1FB78D6
:104820001946094869F038FDFB7804E0074869F04B
:10483000A3FD4FF0FF3318460837BD4680BD00BFCB
:10484000082A0908EC740024D0290908EC29090871
:1048500080B582B000AFFFF7B5FF78607B68002BB2
:1048600001DA002314E07B68602B01D101230FE003
:104870007B686C2B01D100230AE07B68162B02D1E8
:10488000054869F009FD7968044869F005FD0023D1
:1048900018460837BD4680BD0C2A0908202A090899
:1048A00080B582B000AF7860391D642301220448CE
:1048B00016F0B1F97B6818460837BD4680BD00BFC9
:1048C0006478002480B5C2B000AF002387F80731B8
:1048D00051E097F8072143F6106313441B02C7F811
:1048E0000031324B1B684FF0FF31184619F0C2FD02
:1048F0003B464FF48072D7F800111846FDF7C3FD10
:104900002A4B1B68184619F003FE0023A7F8043150
:1049100028E0B7F8043107F58472A2F58472D35CFD
:10492000FF2B1AD1224A97F807311370214AB7F8A2
:1049300004311380204B01221A70204A07F584733A
:10494000A3F58473104619464FF480731A4669F034
:10495000FAFF1B4B01221A7023E0B7F80431013330
:10496000A7F80431B7F80431FF2BD2D997F80731F3
:10497000013387F8073197F80731072BA9D90C4B7A
:1049800000221A700B4B00221A800B4B00221A7067
:104990004FF48072FF21094869F07EFE084B012226
:1049A0001A7007F58477BD4680BD00BFDC4B00243C
:1049B000EE1E0024EC1E0024EF1E0024EC1D00243B
:1049C000F01E002480B584B000AF0346FB801F4B6F
:1049D0001B78002B01D1FFF775FFFB88002B31D02E
:1049E0001B4B1B78002B12D11A4B1B684FF0FF3169
:1049F000184619F03FFD18492020FDF789FD154B99
:104A00001B68184619F084FD114B01221A70134BD4
:104A10001B781A4643F6106313441B02FB600D4BD0
:104A20001B684FF0FF31184619F024FDFB881A4629
:104A3000F9680B48FDF7A8FD064B1B68184619F0EE
:104A400067FD00E000BF1037BD4680BDF01E0024AA
:104A5000EF1E0024DC4B002400103E00EE1E00245C
:104A6000EC1D002480B584B000AF0346FB71464BBB
:104A70001B885A1C91B2444A11801946434AFB795B
:104A80005354414B1B88FF2B79D94FF48070FFF7AB
:104A900099FF4FF48072FF213C4869F0FDFD3A4BCD
:104AA00000221A803A4B1B780133DAB2384B1A7065
:104AB000374B1B78072B62D9364B1B684FF0FF3101
:104AC000184619F0D7FC0023FB7310E0FB7B1B0298
:104AD000314A9818FA7B43F6106313441B024FF4D3
:104AE00080721946FDF7CFFCFB7B0133FB73FB7B28
:104AF000072BEBD9274B1B68184619F009FD274BEC
:104B00004FF4E0621946244869F0ACFD214B1B6864
:104B10004FF0FF31184619F0ADFC21492020FDF778
:104B2000F7FC204B01221A701A4B1B68184619F02B
:104B3000EFFC184B1B684FF0FF31184619F09AFC38
:104B40000023BB7310E0BB7B1B02134A9818BA7B8F
:104B500043F6106313441B024FF480721946FDF7AD
:104B600013FDBB7B0133BB73BB7B062BEBD9094B1E
:104B70001B68184619F0CCFC054B07221A7000BFC1
:104B80001037BD4680BD00BFEC1E0024EC1D002484
:104B9000EE1E0024DC4B0024F41E0024F41F00242D
:104BA00000103E00EF1E002480B584B000AF034625
:104BB0003960FB71FB791846FFF754FF3A20FFF785
:104BC00051FF1CE03B685A1C3A601B78FB73FB7B6F
:104BD0001B09DBB21A460F4B9B5C1846FFF742FFDE
:104BE000FB7B03F00F030B4AD35C1846FFF73AFF39
:104BF0003B681B78002B02D02020FFF733FF3B6877
:104C00001B78002BDED10A20FFF72CFF00BF1037E6
:104C1000BD4680BD50F7090880B584B000AF03469B
:104C20003960FB711346BB80FB791846FFF71AFF0A
:104C30003A20FFF717FF0023FB8121E0FB893A6848
:104C400013441B781B09DBB21A46134B9B5C1846B6
:104C5000FFF708FFFB893A6813441B7803F00F0342
:104C60000D4AD35C1846FFF7FDFEFA89BB88013B6D
:104C70009A4202DA2020FFF7F5FEFB890133FB811F
:104C8000FA89BB889A42D9D30A20FFF7EBFE00BF0E
:104C90001037BD4680BD00BF50F7090880B500AF92
:104CA000114B1B684FF0FF31184619F0E3FB0F4919
:104CB0002020FDF72DFC0C4B1B68184619F028FC32
:104CC0004FF48072FF210A4869F0E6FC094B00228C
:104CD0001A80094B00221A70084B01221A70084BE7
:104CE00001221A7000BF80BDDC4B002400103E0082
:104CF000EC1D0024EC1E0024EE1E0024EF1E0024F8
:104D0000F01E002480B582B000AF78607868FBF7B1
:104D100047FB03469AB24FF0FF337968094815F014
:104D20007AFF094B1B78002B08D079685420FFF7D5
:104D30003BFF064B1B881846FFF744FE00BF0837B1
:104D4000BD4680BDA8760024E11D0024EC1E002491
:104D500080B582B000AF7860114B01221A70114B00
:104D600001221A700420FDF787F90F4B04221A70F4
:104D70000E494FF40540FDF70FFA0D4B1B680D4A25
:104D800011680D4A12681846FDF70EFD044B00220B
:104D90001A70FDF7FFFC00BF0837BD4680BD00BF9D
:104DA000641A00243B1D0024391D0024882A0908A8
:104DB00020000024240000242800002480B5DAB05C
:104DC00002AF9B4B1B781A469A4B1B689A4217D02E
:104DD000974B1B781A46974B1A60954B1B7883F0BC
:104DE0000103DBB2002B05D00CF08CFB924869F07C
:104DF000C3FA05E0914815F0CFFE914869F0BCFA7E
:104E0000904B1B78002B66D08F4B1B78002B44D126
:104E1000642200218D4869F03FFC8C48FBF7C0FA02
:104E200003461A46894B1344894A1188927819809F
:104E30009A70002387F85F3110E08448FBF7B0FADE
:104E400003461A46814B134482491A460B461B8877
:104E5000138097F85F31013387F85F317E4B1B7801
:104E600097F85F219A42E8D37848FBF799FA03460E
:104E70001A46764B134479491A460B461B88138011
:104E80000DF0F4F90346764A13606F4B01221A7055
:104E90006E49744869F000FA1DE06B4B1B78012BDA
:104EA00019D10DF0E3F902466D4B1B68D31A312B73
:104EB00011D964220021654869F0EEFB634B04229E
:104EC0001A70614B00221A705E4B00221A705F4903
:104ED000654869F0E1F9654B1B88002B05D0634BF1
:104EE0001B881946624869F0D7F9624B1B78013379
:104EF000DAB2604B1A705D4B1B8841F2B8129342D4
:104F000005D10AF04BFC594B00221A804BE0574B5D
:104F10001B8841F2B612934205D10AF07DFC534B37
:104F200000221A803FE0514B1B8841F2DA12934273
:104F300008D1514B00221A700AF06CFD4B4B002235
:104F40001A8030E0494B1B8841F2A51293422AD9BE
:104F5000464B1B8841F2B112934224D8434B1B8825
:104F60001A46464B1344002B00DA01335B1087F8D6
:104F70002331434B1B781A46520013445B00DAB2CC
:104F800097F82331134487F8223197F822311846D5
:104F90000AF07AFC354B00221A803A4B1B781946EE
:104FA000394869F079F9314B1B8840F2011293427C
:104FB0001AD120220021354869F06EFB042200211D
:104FC000334869F069FB334B00221A7020214FF4FB
:104FD0000540FDF7BDF80420FDF74EF8234B0022F5
:104FE0001A802D4B04221A70204B1B88B3F5817F49
:104FF00008D10E20FDF740F81C4B00221A80264BEA
:105000000E221A70194B1B88B3F5A87F02D1174BDB
:1050100000221A80154B1B8840F2031293427CD168
:105020001E4B00221A601E4B00221A6052E000BF85
:10503000AB05002480000024982A0908A8760024E3
:10504000B02A0908AD1D0024F4260024583100249C
:10505000D02A0908D42A0908AE1D0024D82A090834
:10506000F8260024DC2A0908F02A0908A41D0024D7
:10507000082B0908621B0024AF1D00245AEEFFFF15
:105080008564002486640024202B0908681A002403
:10509000E41D0024E21D0024391D0024281D0024E5
:1050A000241D00248E4B1B6898B28E4B1B6803F5A1
:1050B000C0639BB21B019BB21A46012102F0A2FB06
:1050C000884B1B680133874A1360854B1B6801338B
:1050D000834A1360824B1B681F2BE3D9202145F6BE
:1050E000C010FDF735F8202200217F4869F0D4FA7E
:1050F0007E497D4869F07EF97B4945F6C010FDF791
:105100004BF80520FCF7B8FF794B00221A80794B49
:1051100005221A70784B00221A70754B1B88B3F564
:10512000827F41D16F4B00221A606D4B00221A60C2
:1051300017E06B4B1B6898B26A4B1B6803F5C063A2
:105140009BB21B019BB21A46022102F05BFB654B2E
:105150001B680133634A1360614B1B680133604A6B
:1051600013605F4B1B681F2BE3D9202145F6C0104D
:10517000FCF7EEFF202200215B4869F08DFA5F49C1
:10518000594869F037F9584945F6C010FDF704F859
:105190000520FCF771FF564B00221A80554B052263
:1051A0001A70554B00221A70514B1B8840F20512A1
:1051B000934241D14B4B00221A60494B00221A60A6
:1051C00017E0474B1B6898B2464B1B6803F5C0635A
:1051D0009BB21B019BB21A46032102F013FB414B09
:1051E0001B6801333F4A13603D4B1B6801333C4A47
:1051F00013603B4B1B681F2BE3D9202145F6C010E1
:10520000FCF7A6FF20220021374869F045FA3C4907
:10521000354869F0EFF8344945F6C010FCF7BCFF9B
:105220000520FCF729FF324B00221A80314B052262
:105230001A70314B00221A702D4B1B88B3F5837FF7
:1052400041D1284B00221A60254B00221A6017E03A
:10525000234B1B6898B2234B1B6803F5C0639BB2BA
:105260001B019BB21A46042102F0CCFA1D4B1B68AD
:1052700001331C4A13601A4B1B680133184A136030
:10528000174B1B681F2BE3D9202145F6C010FCF7F4
:105290005FFF20220021144869F0FEF919491248E5
:1052A00069F0A8F8104945F6C010FCF775FF052015
:1052B000FCF7E2FE0E4B00221A800E4B05221A70FC
:1052C0000D4B00221A700A4B1B8840F207129342C2
:1052D00055D1044B00221A60014B00221A602BE0CA
:1052E000241D0024281D0024681A0024C42E002434
:1052F000A41D0024391D002440000024042F002494
:10530000442F0024842F00247B4B1B6898B27B4BD6
:105310001B6803F5C0639BB21B019BB21A460521B3
:1053200002F070FA754B1B680133744A1360724BBC
:105330001B680133704A13606F4B1B681F2BE3D946
:10534000202145F6C010FCF703FF202200216C4805
:1053500069F0A2F96B496A4869F04CF8684945F66A
:10536000C010FCF719FF0520FCF786FE664B0022F3
:105370001A80664B05221A70654B00221A70624B28
:105380001B88B3F5847F41D15C4B00221A605A4BD5
:1053900000221A6017E0584B1B6898B2574B1B68E5
:1053A00003F5C0639BB21B019BB21A46062102F0B3
:1053B00029FA524B1B680133504A13604E4B1B684D
:1053C00001334D4A13604C4B1B681F2BE3D920213E
:1053D00045F6C010FCF7BCFE20220021484869F0C9
:1053E0005BF94C49464869F005F8454945F6C01057
:1053F000FCF7D2FE0520FCF73FFE434B00221A804B
:10540000424B05221A70424B00221A703E4B1B88F9
:10541000B3F5907FC0F098803B4B1B88B3F5937F2A
:1054200080F09280384B1B88DBB2203B87F821311B
:1054300097F82121384B1B689A4280F2828097F8B6
:10544000212136491346DB009B1A0B441B78FF2BA6
:105450006CD0334A97F821311370324B01221A7005
:1054600097F821212D491346DB009B1A0B441A782B
:105470002D4B1A7097F8212128491346DB009B1AFF
:105480000B4401331A78284B5A7097F8212123498D
:105490001346DB009B1A0B4402331A78224B9A7096
:1054A00097F821211D491346DB009B1A0B44033357
:1054B0001A781D4BDA7097F8212118491346DB0042
:1054C0009B1A0B4404331A78174B1A7197F8212151
:1054D00012491346DB009B1A0B4405331A78124B12
:1054E0005A71114B00229A71074B1B88DBB21F3B8C
:1054F000DAB20B4B1A7024E0241D0024281D00246E
:10550000681A0024C42F0024A41D0024391D00247F
:10551000400000240430002440300024901B00246C
:105520008F1B00243A1D0024881B00244A4B0022B4
:105530001A804A4B01221A7041F21A210C20FCF702
:10554000BFFD474B00221A80454B1B88B3F5A05F77
:1055500040F29E80424B1B8841F20642934200F289
:1055600097803F4B1B88DBB2013B87F8203197F8CF
:1055700020213C4B1B689A4280F287803A4B1B7873
:1055800083F00103DBB2002B78D097F82021374954
:105590001346DB009B1A0B441B78FF2B50D0344A78
:1055A00097F820311370334B01221A7097F820219D
:1055B0002E491346DB009B1A0B441A782E4B1A70A7
:1055C00097F8202129491346DB009B1A0B4401332D
:1055D0001A78294B5A7097F8202124491346DB008A
:1055E0009B1A0B4402331A78234B9A7097F82021A8
:1055F0001E491346DB009B1A0B4403331A781E4BDB
:10560000DA7097F8202119491346DB009B1A0B44E6
:1056100004331A78184B1A7197F82021134913464E
:10562000DB009B1A0B4405331A78134B5A71124B4B
:1056300000229A710A4B1B88DAB20D4B1A7024E0D3
:10564000054B00221A80054B01221A7041F21821E5
:105650000C20FCF735FD18E042000024D51D002485
:10566000A41D002440300024AB050024901B00241E
:105670008F1B00243A1D0024881B0024A84A97F899
:1056800020311370A74B01221A70A74B00221A80F9
:10569000A54B1B8841F2114293420DD1A34B00222E
:1056A0001A8002F08BF90F20FCF7E6FCA04B0F22CA
:1056B0001A709D4B00221A809B4B1B8841F211529D
:1056C000934211D0984B1B8841F2125293420BD057
:1056D000954B1B8841F21162934205D0924B1B8877
:1056E00041F2126293420BD1904B00221A800E209D
:1056F000FCF7C2FC8E4B0E221A708B4B00221A80D4
:10570000894B1B8841F21352934205D0864B1B886C
:1057100041F21452934258D1844B00221A80202126
:1057200048F24030FCF714FD20214FF40340FCF711
:105730000FFD20214FF40440FCF70AFD202148F220
:105740008030FCF705FD202148F2C030FCF700FD59
:10575000202148F24040FCF7FBFC764B1B681946C1
:105760004FF40340FCF718FD734B1B68194648F2D1
:105770004030FCF711FD714948F28030FCF70CFD18
:105780006F4948F2C030FCF707FD07F5847300222B
:105790001A605A609A60DA601A826A4B1A6807F5D2
:1057A00084736949184668F025FE07F58473194625
:1057B0004FF40440FCF7F0FC1020FCF75DFC5C4B60
:1057C00010221A70584B00221A80574B1B8841F246
:1057D0001362934205D0544B1B8841F214629342EA
:1057E0000DD1524B00221A8002F0E8F80F20FCF78E
:1057F00043FC4F4B0F221A704B4B00221A804A4B2E
:105800001B8840F2025293420BD1484B00221A806F
:105810000120FCF731FC464B01221A70424B00225A
:105820001A80434B1B78042B40F0EA813E4B1B88C7
:1058300040F20B42934229D13B4B00221A80434B4A
:105840001B78002B0BD0414B1B78013BDAB23F4B4E
:105850001A703E4B1B781A463D4B0021995420216B
:105860004FF40540FCF774FC39494FF40540FCF750
:1058700093FC3749374868F00FFD3548FAF790FD3B
:1058800003461946344868F007FDB9E1264B1B88EA
:1058900040F20C42934240F0ED8030492C48FAF738
:1058A0001FFD0346002B27D1204B00221A80012028
:1058B000FCF7E2FB1E4B01221A70294868F05CFDE0
:1058C00020214FF4D240FCF743FC26494FF4D2404C
:1058D000FCF762FC244B01221A70244B1B68002B3E
:1058E00003D1234B00221A7002E0214B01221A70CF
:1058F000204B00221A70B1E01F491548FAF7F0FC5E
:105900000346002B40D11D4B01221A700223009345
:105910004FF4C05300221A491A482FF03DFF9DE072
:10592000AE1D0024AD1D0024A41D0024420000244F
:10593000391D00240000002404000024DC6C002435
:10594000342B0908DC050024402B0908E21D002443
:10595000E41D0024442B0908542B0908500000249E
:10596000602B0908742B0908AC1D0024403000246A
:10597000E84B0024B01D0024580000243B1D0024E7
:10598000514D0208802B090872497348FAF7A8FCA8
:105990000346002B11D1714B1B6899B20023704A4A
:1059A0007048FEF71DFA704B00221A800120FCF7A8
:1059B00063FB6E4B01221A7050E06D496648FAF79E
:1059C0008FFC0346002B10D120214FF40540FCF73B
:1059D000BFFB68494FF40540FCF7DEFB4FF47A70DB
:1059E0001AF01AFBFCF7D6FE38E063495A48FAF77A
:1059F00077FC0346002B12D1FBF712F920214FF45C
:105A00000540FCF7A5FB5D494FF40540FCF7C4FBDE
:105A10004FF47A701AF000FBFCF7BCFE1EE0584908
:105A20004D48FAF75DFC0346002B03D1554B01228C
:105A30001A7013E04C4B00221A800120FCF71CFB6B
:105A40004A4B01221A7004220021434868F024FEC8
:105A50004D4B00221A704D4868F08EFC4C4B0022D2
:105A60001A80042200213C4868F016FE464B0022B2
:105A70001A70C5E0464B1B8840F2134293420CD18A
:105A8000394B00221A800120FCF7F6FA374B01222D
:105A90001A703F4B00221A80B2E03D4B1B8840F247
:105AA000144293420CD1304B00221A800120FCF7A3
:105AB000E3FA2E4B01221A70354B00221A809FE028
:105AC0004FF0FF33C7F85831314B1B88A3F2014325
:105AD000092B5FD801A252F823F000BF055B020832
