:020000040802F0
:10000000000008241D1D0308150A03081D0A030823
:100010002D0A0308350A03083D0A03080000000002
:10002000000000000000000000000000A11704080C
:10003000450A030800000000F1190408591A0408D1
:100040006D1D03086D1D03086D1D03086D1D03085C
:100050006D1D03086D1D03086D1D03086D1D03084C
:100060006D1D03086D1D03086D1D03086D1D03083C
:100070006D1D03086D1D03086D1D03086D1D03082C
:100080006D1D03086D1D03086D1D03086D1D03081C
:100090006D1D03086D1D03086D1D03086D1D03080C
:1000A0006D1D03086D1D03086D1D03086D1D0308FC
:1000B0006D1D03086D1D03086D1D03086D1D0308EC
:1000C0006D1D03086D1D03086D1D0308550A030807
:1000D0006D1D0308690A0308350B0308490B030863
:1000E0006D1D03086D1D0308000000006D1D030851
:1000F0006D1D03086D1D03086D1D03086D1D0308AC
:100100006D1D03086D1D03086D1D03086D1D03089B
:100110005D0B0308C90B0308DD0B03086D1D030805
:100120006D1D03086D1D03086D1D03086D1D03087B
:100130006D1D0308FD0B03086D1D03086D1D0308ED
:1001400000000000000000000000000000000000AF
:100150006D1D03086D1D03086D1D03083D10020889
:100160006D1D03086D1D03086D1D03086D1D03083B
:100170006D1D03086D1D03086D1D030800000000C0
:100180006D1D03086D1D0308110C03086D1D030888
:100190006D1D03086D1D03086D1D03086D1D03080B
:1001A00000000000000000006D1D03086D1D030825
:1001B0006D1D03086D1D03086D1D03086D1D0308EB
:1001C0006D1D03086D1D03086D1D03086D1D0308DB
:1001D0006D1D03086D1D03086D1D03086D1D0308CB
:1001E0006D1D03086D1D03086D1D03086D1D0308BB
:1001F0006D1D03086D1D03086D1D03086D1D0308AB
:100200006D1D03086D1D03086D1D03086D1D03089A
:100210006D1D03086D1D03086D1D03086D1D03088A
:100220006D1D0308000000006D1D030800000000A4
:100230006D1D03086D1D0308000000006D1D0308FF
:100240006D1D03086D1D03086D1D03086D1D03085A
:100250006D1D03086D1D03086D1D03086D1D03084A
:100260006D1D03086D1D03086D1D03086D1D03083A
:100270006D1D03086D1D03086D1D030800000000BF
:100280006D1D03086D1D03086D1D030800000000AF
:08029000000000006D1D0308D1
:1002A00010B5054C237833B9044B13B10448AFF3B0
:1002B00000800123237010BDF8020024000000001C
:1002C0004C13090808B5034B1BB103490348AFF3AE
:1002D000008008BD00000000FC0200244C13090847
:1002E00010F8012B11F8013B012A28BF9A42F7D0E0
:1002F000D01A70470000000000000000000000005D
:1003000001F0FF01102A2BDB10F0070F08D010F8C6
:10031000013B013A8B422DD010F0070F42B3F6D1CA
:10032000F0B441EA012141EA014122F007047FF0E3
:1003300000070023F0E80256083C85EA010586EA3A
:10034000010685FA47F5A3FA87F586FA47F6A5FA76
:1003500087F68EB9EED1F0BC01F0FF0102F0070282
:1003600032B110F8013B013A83EA010313B1F8D12D
:100370000020704701387047002D06BF354603380E
:10038000073815F0010F07D1013015F4807F02BF47
:10039000013015F4C03F0130F0BC0138704700BF98
:1003A000034613F8012B002AFBD1181A01387047B5
:1003B00081F0004102E000BF83F0004330B54FEA16
:1003C00041044FEA430594EA050F08BF90EA020F83
:1003D0001FBF54EA000C55EA020C7FEA645C7FEA16
:1003E000655C00F0E2804FEA5454D4EB5555B8BF39
:1003F0006D420CDD2C4480EA020281EA030382EAAA
:10040000000083EA010180EA020281EA0303362D3B
:1004100088BF30BD11F0004F4FEA01314FF4801C0E
:100420004CEA113102D0404261EB410113F0004F20
:100430004FEA03334CEA133302D0524263EB4303D7
:1004400094EA050F00F0A780A4F10104D5F1200E75
:100450000DDB02FA0EFC22FA05F2801841F10001D0
:1004600003FA0EF2801843FA05F359410EE0A5F1A4
:1004700020050EF1200E012A03FA0EFC28BF4CF0D5
:10048000020C43FA05F3C01851EBE37101F000458B
:1004900007D54FF0000EDCF1000C7EEB00006EEB98
:1004A0000101B1F5801F1BD3B1F5001F0CD3490822
:1004B0005FEA30004FEA3C0C04F101044FEA445279
:1004C00012F5800F80F09A80BCF1004F08BF5FEA00
:1004D000500C50F1000041EB045141EA050130BDE0
:1004E0005FEA4C0C404141EB0101013C28BFB1F5F2
:1004F000801FE9D291F0000F04BF01460020B1FA3D
:1005000081F308BF2033A3F10B03B3F120020CDA0F
:100510000C3208DD02F1140CC2F10C0201FA0CF0ED
:1005200021FA02F10CE002F11402D8BFC2F1200C52
:1005300001FA02F120FA0CFCDCBF41EA0C01904008
:10054000E41AA2BF01EB0451294330BD6FEA040451
:100550001F3C1CDA0C340EDC04F11404C4F120023C
:1005600020FA04F001FA02F340EA030021FA04F34E
:1005700045EA030130BDC4F10C04C4F1200220FAA5
:1005800002F001FA04F340EA0300294630BD21FAE3
:1005900004F0294630BD94F0000F83F4801306BFA9
:1005A00081F480110134013D4EE77FEA645C18BF9D
:1005B0007FEA655C29D094EA050F08BF90EA020F34
:1005C00005D054EA000C04BF1946104630BD91EA2C
:1005D000030F1EBF0021002030BD5FEA545C05D12F
:1005E0004000494128BF41F0004130BD14F580046E
:1005F0003CBF01F5801130BD01F0004545F0FE41E2
:1006000041F470014FF0000030BD7FEA645C1ABF16
:10061000194610467FEA655C1CBF0B46024650EA4D
:10062000013406BF52EA033591EA030F41F4002179
:1006300030BD00BF90F0000F04BF0021704730B5FF
:100640004FF4806404F132044FF000054FF00001D4
:1006500050E700BF90F0000F04BF0021704730B595
:100660004FF4806404F1320410F0004548BF40426A
:100670004FF000013EE700BF42004FEAE2014FEABF
:1006800031014FEA02701FBF12F07F4393F07F4F9A
:1006900081F06051704732F07F4208BF704793F09D
:1006A0007F4F04BF41F40021704730B54FF46074B0
:1006B00001F0004521F000411CE700BF50EA0102B3
:1006C00008BF704730B54FF000050AE050EA01025C
:1006D00008BF704730B511F0004502D5404261EBCC
:1006E00041014FF4806404F132045FEA915C3FF40D
:1006F000D8AE4FF003025FEADC0C18BF03325FEAAA
:10070000DC0C18BF033202EBDC02C2F1200300FA5A
:1007100003FC20FA02F001FA03FE40EA0E0021FA7F
:1007200002F11444BDE600BF53B94AB9002908BF1D
:1007300000281CBF4FF0FF314FF0FF3000F0C0B970
:10074000ADF1080C6DE904CE00F03EF8DDF804E0F0
:10075000DDE9022304B0704708B502460B4643ECBE
:10076000172BB5EEC07BF1EE10FA03D4BDE80840BC
:1007700000F00AB8B1EE477B51EC170B00F004F81B
:10078000404261EB410108BD9FED0B6B41EC170B43
:100790009FED0B5B27EE066BBCEEC66BB8EE464BCF
:1007A000A4EE457BFCEEC77B16EE101A17EE900AFE
:1007B000704700BFAFF30080000000000000F03D74
:1007C000000000000000F0412DE9F047089D8E4632
:1007D00004468846002B4AD18A42174662D9B2FAAB
:1007E00082F64EB1C6F1200301FA06F820FA03F3AF
:1007F000B74043EA0808B4404FEA174E1FFA87FC97
:10080000B8FBFEF1230C0EFB118843EA084301FB01
:100810000CF29A4209D9FB1801F1FF3080F0EA800E
:100820009A4240F2E78002393B449A1AA3B2B2FBE3
:10083000FEF00EFB102243EA024300FB0CFC9C4539
:1008400009D9FB1800F1FF3280F0D6809C4540F2B8
:10085000D3803B44023840EA0140A3EB0C03002163
:100860001DB1F3400022C5E90032BDE8F0878B429C
:1008700005D90DB1C5E9000100210846F5E7B3FA35
:1008800083F1002946D1734502D3824200F20581EB
:10089000841A6EEB030201209046002DE5D0C5E9D5
:1008A0000048E2E7002A00F09080B2FA82F6002EBB
:1008B00040F0A4808A1A030C4FEA174E80B2BCB2F3
:1008C0000121B2FBFEFC0EFB1C2243EA024304FBA7
:1008D0000CF29A4207D9FB180CF1FF3802D29A4267
:1008E00000F2E080C4469B1AB3FBFEF20EFB12330B
:1008F00040EA034302FB04F49C4207D9FB1802F1CF
:10090000FF3002D29C4200F2CA8002461B1B42EA20
:100910000C40A5E7C1F120068B4022FA06F71F43E1
:100920000EFA01F420FA06F32EFA06FE4FEA1749F2
:10093000234300FA01F81FFA87FCBEFBF9F01C0CF8
:1009400009FB10EE44EA0E4400FB0CFEA64502FA39
:1009500001F209D93C1900F1FF3A80F09C80A645CC
:1009600040F2998002383C44A4EB0E041FFA83FE47
:10097000B4FBF9F309FB13444EEA044403FB0CFCFB
:10098000A44508D93C1903F1FF3E80F08280A445BC
:100990007FD9023B3C4443EA0040A4EB0C04A0FB9B
:1009A00002EC64457346E14662D35FD05DB1B8EBBB
:1009B000030264EB090404FA06F622FA01F31E436B
:1009C000CC40C5E9006400214FE7B1FBF2FC010C0B
:1009D00041EA0E4180B240EA01423B4638463C467D
:1009E000B846BE462026B1FBF7F1A2EB080241EA69
:1009F0000C4166E7014618E710462CE7C6F12002D5
:100A00002EFA02F3B740B14020FA02F24FEA174E35
:100A10000A43B3FBFEF8BCB20EFB1833110C41EADB
:100A2000034108FB04F9B04089454FEA104380B206
:100A30003ED9791808F1FF3C01D289451FD8A1EBB6
:100A40000901B1FBFEF909FB04F80EFB191192B282
:100A500042EA0142424529D2BA1809F1FF31C4D213
:100A60004245C2D2A9F102013A44BEE7F0459DD207
:100A7000BEEB02036CEB070C0138E14696E7A7EBEF
:100A800009094944A8F1020CB1FBFEF909FB04F87D
:100A9000DBE773467FE7504666E70846FDE63B44E2
:100AA000023A33E7ACF1020C3B441CE749469CE7B1
:100AB000A1EB0901C446B1FBFEF909FB04F8C4E748
:100AC000704700BF80B400AF044BDB681B0A03F023
:100AD00007031846BD465DF8047B704700ED00E053
:100AE00080B483B000AF0346FB80B7F90630002B1B
:100AF0000BDBFB8803F01F020749B7F906305B09DF
:100B0000012000FA02F241F8232000BF0C37BD4655
:100B10005DF8047B704700BF00E100E080B483B063
:100B200000AF0346FB80B7F90630002B12DBFB88D1
:100B300003F01F020A49B7F906305B09012000FAE9
:100B400002F2203341F82320BFF34F8F00BFBFF3E1
:100B50006F8F00BF00BF0C37BD465DF8047B704748
:100B600000E100E080B483B000AF03463960FB8051
:100B7000B7F90630002B0ADB3B68DAB20C49B7F94B
:100B800006301201D2B20B4483F800230AE03B681E
:100B9000DAB20849FB8803F00F03043B1201D2B21A
:100BA0000B441A7600BF0C37BD465DF8047B7047D6
:100BB00000E100E000ED00E080B489B000AFF86033
:100BC000B9607A60FB6803F00703FB61FB69C3F15E
:100BD0000703042B28BF0423BB61FB690433062BE6
:100BE00002D9FB69033B00E000237B614FF0FF3239
:100BF000BB6902FA03F3DA43BB681A407B699A4087
:100C00004FF0FF317B6901FA03F3D9437B680B4056
:100C1000134318462437BD465DF8047B7047000037
:100C200080B582B000AF0346FB71DC2009F07EF98D
:100C30000346A74A13604FF4027009F077F90346A0
:100C4000A44A13604FF4167009F070F903461A466F
:100C5000A14B1A602022A149002009F0D9F92022D5
:100C60009F49282009F0D4F920229E49502009F0FC
:100C7000CFF920229C4940F2122009F0C9F9202224
:100C80009A49A02009F0C4F908229949C82009F01E
:100C9000BFF908229749D22009F0BAF920229649D3
:100CA000F02009F0B5F9062294494FF48C7009F050
:100CB000AFF9832292494FF4967009F0A9F92022E6
:100CC00090494FF4E17009F0A3F908228E494FF4DE
:100CD000FA7009F09DF907228C4940F23A2009F098
:100CE00097F940F2C62009F021F90346002B14BF02
:100CF00001230023DAB2864B1A702022854940F284
:100D00008A2009F085F9834B1B78FF2B03D0814B98
:100D10001B78002B05D17F4B7F4A92E8030083E8C4
:100D2000030004227D4940F2B22009F071F97B4BA7
:100D30001B78FF2B03D0794B1B78002B02D1774B0C
:100D400031221A800A2276494FF42F7009F060F997
:100D5000734B1B78FF2B03D0714B1B78002B06D1F4
:100D60006F4B704A92E803001860043319704FF417
:100D7000117009F0DBF80346DAB26B4B1A704FF4CE
:100D80001B7009F0D3F80346002B14BF0123002386
:100D9000DAB2664B1A70664B504A1A60654B504A7D
:100DA0001A60654B4F4A1A60644B4F4A1A60644B95
:100DB0004E4A1A60634B504A1A60634B4F4A1A609E
:100DC000624B4F4A1A6062486DF096F94349614898
:100DD0006DF022F9424960486DF01EF941495F48C3
:100DE0006DF01AF940495E486DF016F93F495D48CB
:100DF0006DF012F93E495C486DF00EF93D495B48D3
:100E00006DF00AF9324B1B68194659486DF004F928
:100E1000394958486DF000F9384957486DF0FCF8E9
:100E2000374956486DF0F8F8364955486DF0F4F8F2
:100E3000354954486DF0F0F8264B1B681946524866
:100E40006DF0EAF8314951486DF0E6F8364B1B7801
:100E500019464F486DF0E0F81F4B1B6819464D4886
:100E60006DF0DAF82A4B1B78002B01D04A4B00E0DA
:100E70004A4B19464A486DF0CFF8264949486DF06B
:100E8000CBF8264948486DF0C7F8254947486DF02A
:100E9000C3F8264B1B78002B01D03F4B00E03F4BA3
:100EA000194643486DF0B8F8114B1B78FF2B0AD058
:100EB0000F4B1B78002B06D00D486BF076F90346DC
:100EC000B3F5166F78DA3B4B4FF416521A6079E09F
:100ED000D405002444300024301A002418040024CF
:100EE00038040024580400247804002498040024C2
:100EF000840500248C050024B8040024D8040024B0
:100F0000E00400246405002494050024841B0024CC
:100F1000A3050024A405002488130908C40500249F
:100F2000C805002490130908331D0024E51D002482
:100F30000000002404000024080000240C00002409
:100F4000180000242000002424000024280000248D
:100F500098130908C0130908D8130908F0130908E1
:100F6000081409082014090838140908501409083D
:100F7000681409088014090898140908B0140908AD
:100F8000C8140908E0140908F8140908101509081C
:100F900028150908401509085C1509086015090895
:100FA000641509087C15090894150908AC15090889
:100FB000C4150908D805002419486BF0F6F8034653
:100FC000184A1360184B1B78FF2B0AD0164B1B785E
:100FD000002B06D014486BF0E8F80346B3F5166F03
:100FE00004DA124B4FF4E1321A6005E00E486BF060
:100FF000DCF803460D4A13600A4B1B6819460C487F
:101000006DF00AF8094B1B6819460A486DF004F8A0
:1010100009486DF071F800BF0837BD4680BD00BFBC
:1010200084050024D80500248C050024DC05002458
:10103000DC150908F41509080C16090880B500AF7D
:10104000024819F0E5FE00BF80BD00BF44780024CF
:1010500080B584B000AF78600B467B807B68244A03
:1010600093421BD17B88002B13D07B88FF2B10D899
:10107000204A7B8813807B881F4A0021D1541F4956
:101080001D486DF07BFA0346002B02D01C4B012259
:101090001A70FF22184916481CF087F97B68194A14
:1010A000934221D17B681B680F221A6201221649E4
:1010B000786819F093FD154B1B68002B14D00023A2
:1010C000FB60124B1B6807F10C02114618461FF01B
:1010D0006BFEFB68002B07D00D4B4FF080521A605F
:1010E000BFF34F8FBFF36F8F00BF1037BD4680BD7A
:1010F000447800241404002414030024341609083E
:101100001604002488760024C4740024B43000241B
:1011100004ED00E080B582B000AF78607B68084ADB
:10112000934208D17B681B680F221A62FF2205498F
:1011300078681CF03AF900BF0837BD4680BD00BF93
:10114000447800241403002480B500AF0D4B1B68C5
:101150000F221A62FFF7B6FC03460022052118464B
:10116000FFF72AFD034619464720FFF7FBFC4720FF
:10117000FFF7B6FCFF22044902481CF016F900BF35
:1011800080BD00BF447800241403002480B5B0B0B3
:1011900002AF78607B68002B00F019827B681B78B7
:1011A000002B00F014823D2178686DF04CF9C7F8EF
:1011B000B000D7F8B030002B04D17968AC486CF09F
:1011C0002BFF05E2D7F8B0207B68D31AC7F8B430FC
:1011D000D7F8B4300F2B02D90F23C7F8B43007F17A
:1011E000A003D7F8B420796818466DF04BF907F1E1
:1011F000A002D7F8B430134400221A70D7F8B030E8
:10120000591C07F120037F2218466DF03BF900239B
:1012100087F89F3007F1A00396491846FFF760F85A
:101220000346002B0FD107F120031F2219469248D5
:101230006DF028F9904B0022DA7720228E490020A9
:1012400008F095FE90E107F1A0038C491846FFF7DE
:1012500047F80346002B0FD107F120031F22194640
:1012600087486DF00FF9864B0022DA7720228449F7
:10127000282008F07CFE77E107F1A0038149184699
:10128000FFF72EF80346002B0FD107F120031F2292
:1012900019467D486DF0F6F87B4B0022DA77202264
:1012A0007949502008F063FE5EE107F1A003774919
:1012B0001846FFF715F80346002B10D107F120035D
:1012C0001F22194672486DF0DDF8714B0022DA7763
:1012D00020226F4940F2122008F049FE44E107F154
:1012E000A0036C491846FEF7FBFF0346002B0FD105
:1012F00007F120031F22194667486DF0C3F8664BBB
:101300000022DA7720226449A02008F030FE2BE189
:1013100007F1A00361491846FEF7E2FF0346002BE0
:101320000FD107F120031F2219465D486DF0AAF87E
:101330005B4B0022DA7720225949F02008F017FE93
:1013400012E107F1A00357491846FEF7C9FF03460B
:10135000002B10D107F120030522194652486DF0E9
:1013600091F8514B00225A7106224F494FF48C706C
:1013700008F0FDFDF8E007F1A0034C491846FEF720
:10138000AFFF0346002B11D107F12003822219463B
:1013900047486DF077F8464B002283F8822083227D
:1013A00043494FF4967008F0E2FDDDE007F1A00339
:1013B00040491846FEF794FF0346002B10D107F171
:1013C00020031F2219463C486DF05CF83A4B00227E
:1013D000DA77202238494FF4E17008F0C8FDC3E005
:1013E00007F1A00335491846FEF77AFF0346002BA4
:1013F0006CD107F12003194631486CF00DFE002333
:10140000FB610023BB6100237B6107F1180107F139
:101410001C0207F1200007F1140300930B46294931
:101420006CF0CAFE0346032B1BD1FB69002B18DBB3
:10143000FB69172B15DCBB69002B12DBBB693B2B4F
:101440000FDC7B69002B0CDB7B693B2B09DCFB6928
:10145000DBB2BA69D1B27A69D2B218460DF036FD64
:1014600082E007F12003194617486CF0D5FD7BE0B8
:101470003C1609085C1609081804002460160908BF
:101480003804002464160908580400246816090862
:10149000780400246C1609089804002470160908C2
:1014A000B804002478160908D80400248016090816
:1014B000E004002488160908640500248C16090835
:1014C00094160908A0160908AC16090807F1A0032C
:1014D00041491846FEF704FF0346002B3ED107F1B1
:1014E000200319463D486CF097FD00233B61002323
:1014F000FB600023BB6007F10C0107F1080207F154
:10150000200007F1100300930B4635496CF054FEA0
:101510000346032B1BD13B69002B18DB3B69632B74
:1015200015DCFB68002B12DDFB680C2B0FDCBB68A5
:10153000002B0CDDBB681F2B09DC3B69DBB2FA68B2
:10154000D1B2BA68D2B218460DF0F6FC0CE007F141
:101550002003194623486CF05FFD05E007F1A00366
:10156000194621486CF058FD20486CF055FD204983
:1015700020486CF051FD204920486CF04DFD204979
:1015800020486CF049FD204920486CF045FD204979
:1015900020486CF041FD204B154A1A601F4B164A3B
:1015A0001A601F4B164A1A601E4B174A1A601E4BD0
:1015B000174A1A601D4B1E4A1A601E4B1E4A1A60BB
:1015C0001E4B1F4A1A600020FFF72AFB00E000BFF5
:1015D000B837BD4680BD00BFD4160908DC1609081F
:1015E000A0160908E8160908081709081C170908B1
:1015F000180400243417090838040024481709087F
:10160000580400245C17090878040024701709089E
:101610009804002484170908000000240400002412
:10162000080000240C0000241800002420000024DE
:10163000B804002424000024D80400242800002436
:10164000E004002480B582B000AF324B1B78DBB2DF
:10165000002B5AD04720FFF761FA4FF48072002127
:101660002D486CF0D9FE2D4B1B881A462C492A4870
:101670006DF029F82B4928486CF080FF78602A49E2
:1016800025486CF07BFF38607B68002B2BD03B68D3
:10169000002B28D03A687B689A4224D93B68002204
:1016A0001A707B6808337B60796820486CF0B4FC62
:1016B00006221F4978686CF0D3FE0346002B03D145
:1016C0000120FFF7ADFA11E006221A4978686CF0A4
:1016D000C7FE0346002B02D101F00CF806E0786843
:1016E000FFF754FD02E014486CF096FC4FF4807252
:1016F00000210B486CF090FE084B00221A80054B2D
:1017000000221A704720FFF7EBF900BF0837BD46EB
:1017100080BD00BF16040024E0050024140400244A
:1017200014030024AC17090834160908B81709086F
:10173000CC170908D4170908DC17090880B586B04A
:1017400002AFF860B9607A603B60BB6900933B68A8
:101750007A680549F8686CF02FFCF8686CF074FB47
:1017600000BF1037BD4680BDDC18090880B582B0C7
:1017700000AF4FF4781007F005FB744B4FF4FA728A
:101780001A600023FB71724B1B68042118461CF081
:10179000D5FF704B1B7883F00103DBB2002B03D124
:1017A0006D4B1B78002B08D000F0FEF864201EF073
:1017B000F1FA6A4B00221A709BE0644B1B68B3F588
:1017C000FA7F22D3664B1B78002B1BD0654B1B681E
:1017D000654A12681146184606F06EFB0346002B58
:1017E00006D0624B01221A705D4B00221A7009E08C
:1017F0005E4B01221A70584B01221A704FF4FA60A6
:101800001EF0C8FA514B00221A60FB79022B4FD010
:10181000022B5FDC002B02D0012B3FD05AE0544B4F
:101820001B78002B58D04D4B1B7883F00103DBB2A3
:10183000002B51D04F48FEF7B3FD03461A46002156
:101840004C486CF0E9FD474B1B68474A126811464B
:10185000184606F031FB0346002B0BD0434B012208
:101860001A70454945486CF0D7FB4349202006F0E3
:1018700035FC0FE03D4B00221A70374B01221A70E5
:101880004FF4FA601EF086FA344B00221A703C487E
:101890006CF032FC3B4B00221A701DE03A4B1B7877
:1018A000002B1BD006F0A2F9374B00221A7015E06E
:1018B0002A4B1B78002B13D006F048FA334B1B78C9
:1018C000DBB2002B0CD0224B1B68022118461CF007
:1018D00035FF05E000BF04E000BF02E000BF00E00C
:1018E00000BFFB790133FB71FB79022B01D9002387
:1018F000FB7100233B601AE0254A3B6832F8133045
:10190000013B24493A6831F8122093420CDC224A08
:101910003B689B0113441B681A46204916486CF02B
:1019200029FC134B01221A703B6801333B601C4BAE
:101930001B683A689A42DFDB1EF0DEFB0346194A59
:1019400013600A201EF026FA1DE700BFE84B0024B2
:10195000C03000241818002419180024B01D0024D9
:1019600034000024300000242C000024401D0024FA
:101970001A180024082800249C050024E8180908E7
:101980000C19090804270024D81D0024EE4B00245C
:101990006C1B0024781B0024C42E00242019090885
:1019A000443000241C18002490B59DB002AF0123E0
:1019B0007B6664201CF0EFFB73486CF09DFB734862
:1019C0006CF02AFB724B1B689B6818466CF03CFA63
:1019D000704848F029FB704B1C686F4B1B68184619
:1019E000FEF7DEFC0346009323466A4A6B496C48C7
:1019F0003FF098F878667B6E002B07D0796E6948C7
:101A00006CF00AFB684B01221A70A5E067486CF085
:101A100073FB674B1B68042118461CF08FFE654B57
:101A20001B7883F00103DBB2002B13D064201EF07F
:101A3000B1F9614B1B780133DAB25F4B1A705E4B20
:101A40001B78632BE5D95D486CF056FB5A4B00229E
:101A50001A7094E05A4B1B78002B17D0594832F07B
:101A600003FC0346194658486CF0D6FA574832F042
:101A7000FBFB0346194656486CF0CEFA554832F047
:101A8000F3FB0346194654486CF0C6FA4C4B00224F
:101A90001A7052486CF0C0FA00230022002150480E
:101AA00067F0FAF978667B6E002B0DD03B46642216
:101AB0001946786E48F0F0FC796E4A486CF0ACFA42
:101AC000394B01221A7047E038486CF015FB0121B0
:101AD000434866F057FA00224349414866F0A5FAA8
:101AE0002F4A42493E4866F063FA294B1B689B68BF
:101AF0001A463F493A4866F06DFA39493D4866F062
:101B0000BDF878667B6E002B07D0796E3A486CF092
:101B100083FA254B01221A701EE0384B1B681946C8
:101B2000344866F0C3FA78667B6E002B07D0796E76
:101B300033486CF071FA1C4B01221A700CE0002340
:101B40000093304B304A31492A4866F055FA164B1B
:101B50001B78002B12D000BF2C480EF0FBFC224853
:101B60006AF088FA234867F0FAF81D4867F08CFBA2
:101B70000B483EF0EDFF074848F07CFA00BF00BF7D
:101B80006C37BD4690BD00BF2419090838190908F3
:101B9000A4020024407100241000002421A30608A0
:101BA000FC6F002460190908201800249019090806
:101BB000C0300024181800242118002494190908A2
:101BC00019180024646C0024C81909086C6C0024DE
:101BD000DC190908686C0024EC190908FC190908CB
:101BE000F86D0024241A0908E4160024D51206080A
:101BF0003D170208E06C00245C1A09081800002454
:101C0000881A09085D040308D9040308E0060024C3
:101C100080B59EB000AF7860396001233B673A68B9
:101C200079682D486CF0F8F92C4B1B689B681846B6
:101C30006CF00AF9002387F8773000233A68796856
:101C400027480EF079FB38673B6F002B1ED007F159
:101C50000C0364221946386F48F01EFC396F214886
:101C60006CF0DAF9204B1B68042118461CF066FD65
:101C700097F87730013387F8773097F87730022B71
:101C800026D84FF47A701CF086FAD6E700BF1748C2
:101C90006CF032FA16486CF02FFA164866F058FBD2
:101CA00038673B6F002B0FD007F10C0364221946F5
:101CB000386F48F0F1FB3B6F5B4207F10C021946AD
:101CC0000D486CF0A9F904E00C486CF015FA00E03E
:101CD00000BF7837BD4680BDBC1A0908A4020024A5
:101CE000E0060024DC1A0908C03000249019090815
:101CF0000C1B0908E06C0024341B0908581B090858
:101D000080B5ADF5836D00AF07F58363A3F214438F
:101D100018600123C7F80834002387F8133407F547
:101D20008363A3F214431868FEF73AFB0346C7F82F
:101D3000143420E0D7F8083413F5D24F0DD0D7F87B
:101D4000083413F5D14F08D0D7F808147B486CF04D
:101D500063F9012387F81334CFE0D7F80834C7F8C4
:101D6000143407F58363A3F214431A68D7F81414E4
:101D700073486CF051F9D7F8142407F58363A3F284
:101D8000144319686F4866F059FEC7F80804D7F87D
:101D90000834002BCEDD6C486CF03EF96B4B1B68B1
:101DA0009B6818466CF050F80023C7F80C34D7F83D
:101DB000142407F58363A3F21443002118686CF020
:101DC0002BFB07F58363A3F5826318464FF480630A
:101DD0001A4600216CF020FB4FF48053C7F81434EE
:101DE00007F108034FF480621946564866F0DAFBA3
:101DF000C7F80804D7F8083413F5D24F56D0D7F8EF
:101E0000083413F5D14F51D0D7F8083413F5F14FFA
:101E100052D0D7F80834002B0CDAD7F808144C4805
:101E20006CF0FAF84FF47A701DF0B4FF012387F8D4
:101E3000133442E0D7F80834002B03D145486CF046
:101E40005BF93AE0D7F8081443486CF0E5F807F17D
:101E500008031A46D7F8081440486CF0DDF8D7F8A4
:101E60000C24D7F808341344B3F5805F1ADAD7F896
:101E70000C3407F58362A2F2144212681344D7F8B7
:101E8000082407F1080118466CF01DFCD7F80C2453
:101E9000D7F808341344C7F80C34D7F80834052BA6
:101EA00005D10AE02E486CF027F906E000BFD7F80C
:101EB0000834002B85DC00E000BF224866F0F0FD0E
:101EC000D7F8083413F5D14FF7D01E4866F021F843
:101ED000C7F80804D7F80834002B04D0D7F8081442
:101EE00020486CF099F820480EF034FB1FF078FF82
:101EF000034619461D486CF08FF897F81334002BF1
:101F000017D01B4B01221A701A486CF0F5F81648CE
:101F10000EF020FB18486AF0ADF80A4866F01FFF83
:101F2000164867F0B1F916483EF012FE154848F021
:101F3000A1F800BF07F58367BD4680BD741B090883
:101F4000A01B0908E06C0024B81B0908A4020024A7
:101F5000CC1B0908F81B0908001C0908141C0908F7
:101F6000241C09084C1C0908E0060024801C0908F0
:101F7000191800249C1C0908E4160024F86D00249C
:101F8000FC6F00244071002480B582B000AF7860FF
:101F900039603B689AB24FF496737968034818F039
:101FA000C6FC00BF0837BD4680BD00BFF4750024E5
:101FB00080B584B000AF074A3B1D07CA03C31A802F
:101FC0003B1D0A211846FFF7DFFF00BF1037BD4653
:101FD00080BD00BFB81C090880B586B000AF0346BD
:101FE000FB715A233B73A5237B730723BB738223A7
:101FF000FB7300233B7484237B745A23BB7401233B
:10200000FB7400233B75FB797B7507F10C030A21F8
:102010001846FFF7B9FF00BF1837BD4680BD000066
:1020200080B584B000AF786039600E4BBB60002390
:10203000FB603B681B0ADBB23B733B68DBB27B7324
:102040007B681B0ADBB2BB737B68DBB2FB7307F1F7
:10205000080308211846FFF797FF00BF1037BD4659
:1020600080BD00BF5AA5058280B586B000AF7860FC
:102070000B46FB705A233B73A5237B73FB7803331A
:10208000DBB2BB738223FB737B681B0ADBB23B743E
:102090007B68DBB27B740023BB7407F10C03062161
:1020A0001846FFF771FF00BF1837BD4680BD00001E
:1020B00080B582B000AF03460A46FB801346BB8062
:1020C000BB881A4600210A486CF0A6F9FB88BA883A
:1020D000D2B211461846FFF7C7FFBA8864230449F5
:1020E000044818F024FC00BF0837BD4680BD00BF7F
:1020F000601A0024F475002490B5C3B000AF024606
:1021000007F58473A3F58473196007F58473A3F549
:1021100081731A8007F10C03FA22002118466CF033
:102120007BF907F10C03FA22002118466CF074F9D0
:1021300007F58473A3F5847307F10C001B68134A39
:10214000FA216BF0E1FF07F58473A3F581731C8816
:1021500007F10C031846FEF723F90346DBB21946D4
:102160002046FFF781FF07F10C031846FEF718F928
:1021700003469AB207F10C016423054818F0D7FB17
:1021800000BF07F58677BD4690BD00BFC41C090897
:10219000F475002480B400AFBFF34F8F00BF064B2F
:1021A000DB6803F4E0620449044B1343CB60BFF3E4
:1021B0004F8F00BF00BFFDE700ED00E00400FA050F
:1021C00080B500AF00221021024813F087F800BF4D
:1021D00080BD00BF0000025880B500AF0122102171
:1021E000024813F07BF800BF80BD00BF000002581A
:1021F00080B483B000AF0346FB71FB79072B0AD98B
:10220000FB79202B07D8FB7903F00703DBB2002B07
:1022100001D1012300E0002303F00103DBB21846E3
:102220000C37BD465DF8047B7047000080B588B070
:1022300002AF78600B46FB70FB781846FFF7D8FFBB
:10224000034683F00103DBB2002B01D0002347E0FB
:1022500000237B610023FB600023BB60FB78083B0D
:10226000FB740023BB7410E0FB7C7A68DA40BB7C13
:10227000DB08DBB2D2B218333B4403F80C2CFB7CF6
:10228000083BFB74BB7C0833BB74BA7CFB789A4276
:10229000EAD3FB78DB08DBB2184607F1080207F146
:1022A0000C016423009303460F4817F0A7F900239D
:1022B0007B7410E07B691B027B617B7CDB08DBB2FB
:1022C00018333B4413F8103C1A467B6913437B6177
:1022D0007B7C08337B747A7CFB789A42EAD37B69F7
:1022E00018461837BD4680BDF073002480B582B013
:1022F00000AF00237B60FFF763FF10214FF4A06065
:10230000FFF794FF7860FFF767FF7B68DBB2184642
:102310000837BD4680BD80B582B000AF0FF07EFEAD
:1023200078600AE00FF07AFE02467B68D31A41F229
:102330008832934201D9002307E0FFF7D7FF034615
:1023400003F00103002BEDD1012318460837BD46E9
:1023500080BD80B500AFFFF733FF08210620FFF7EF
:1023600065FFFFF739FFFFF7C1FF034603F00203E4
:10237000002B01D0012300E00023184680BD80B56A
:1023800086B000AFF860B9601346FB800023FB8283
:102390000023FB821EE0FFF7DCFF0346002B16D074
:1023A000FFF70EFFFA8ABB68134443F00073202145
:1023B0001846FFF73BFFFB8AFA6813441B78082195
:1023C0001846FFF733FFFFF707FFFFF7A4FFFB8A6D
:1023D0000133FB82FA8AFB889A42DCD300BF00BF3C
:1023E0001837BD4680BD80B586B000AFF860B960D3
:1023F0001346FB800023FB82FFF7E2FEBB6843F03D
:10240000407320211846FFF711FF0023FB820CE0E8
:1024100008210020FFF70AFF0146FB8AFA681344EF
:10242000CAB21A70FB8A0133FB82FA8AFB889A428D
:10243000EED3FFF7D1FE00BF1837BD4680BD80B593
:1024400082B000AF00237B60FFF7BAFE08219F2017
:10245000FFF7ECFE786018210020FFF7E7FE7860B8
:10246000FFF7BAFE7B6818460837BD4680BD0000FE
:1024700080B584B000AF03463960FB710023FB7365
:1024800021E0FFF766FF0346002B10D0FFF798FE10
:10249000FB7908211846FFF7C9FE18213868FFF7B5
:1024A000C5FEFFF799FEFFF736FF012313E0FB7B24
:1024B000013319460A486BF0AFFD0A201BF06BFE92
:1024C000FB7B0133FB73FB7B132BDAD9142105480B
:1024D0006BF0A2FD002318461037BD4680BD00BF3B
:1024E000C81C0908E81C090880B586B000AFF86070
:1024F000B9601346FB800023FB82FFF72AFF0346E7
:10250000002B20D0FFF75CFEBB6843F00073202156
:102510001846FFF78BFE0023FB820AE0FB8AFA686D
:1025200013441B7808211846FFF780FEFB8A01330D
:10253000FB82FA8AFB889A42F0D3FFF74DFEFFF741
:10254000EAFE012306E005486BF0D6FD0A201BF0E9
:1025500022FE002318461837BD4680BD101D09080D
:1025600080B582B000AFFFF76AFF78607B68124ADF
:10257000934203D07B68114A934217D1FFF7E9FEDB
:102580000346002B0ED0FFF71BFE18214FF48030BE
:10259000FFF74CFEFFF720FEFFF7BDFE08486BF08B
:1025A000ABFD06E007486BF0A7FD02E005486BF0C5
:1025B000A3FD0837BD4680BD01871F001740EF000F
:1025C000281D09083C1D090880B588B000AFF860D7
:1025D000B9607A60BA687B681344B3F5001F4CD9C0
:1025E00000234EE0BB68DBB27B617B69C3F580737F
:1025F0003B613A697B68934228BF1346FB61FB69E4
:10260000B3F5807F02D94FF48073FB61FFF7A1FE21
:102610000346002B01D1002333E0FFF7D1FDBB6857
:1026200043F0007320211846FFF700FE0023BB6132
:102630000AE0FA68BB6913441B7808211846FFF7C3
:10264000F5FDBB690133BB61BA69FB699A42F0D3FE
:10265000FFF7C2FDFFF75FFE0346002B01D1002309
:102660000FE0BA68FB691344BB60FA68FB69134466
:10267000FB607A68FB69D31A7B607B68002BB1D161
:10268000012318462037BD4680BD000080B582B0CA
:1026900000AF00237B6000237B6007E07968202087
:1026A000FFF7E6FE7B6803F580537B607B68B3F53C
:1026B000001FF3D34FF48072FF2109486BF0ACFE8A
:1026C000084B00221A60084B00221A60074B0022B8
:1026D0001A60074B00221A7000BF0837BD4680BD44
:1026E00024180024241A0024281A00242C1A002458
:1026F0002218002480B500AF02486BF0FDFCFFF704
:1027000049FD00BF541D09082DE9F04FADF6946D49
:1027100002AF07F68863A3F66463186007F6886360
:10272000A3F66863196007F68863A3F66C631A6002
:1027300007F68863A3F664631968BD486BF06CFC08
:1027400007F68863A3F668631968BA486BF064FCFF
:1027500007F68863A3F66C631968B7486BF05CFCF6
:10276000002387F8873EB54B00221A60B44B002245
:102770001A60B44B4FF0FF321A60B34B00221A605C
:10278000B24B00221A604FF48072FF21B0486BF008
:1027900043FEB0480DF0C6FDAF4865F02FFAAF48D4
:1027A00066F06DFBAE483EF06EF9AE4847F03CFC7B
:1027B000AD4BC7F85C3ED7F85C0EFDF7F1FD034664
:1027C0000093D7F85C3EA74AA849A5483EF0AAF96D
:1027D000C7F8580ED7F8583E002B05D0D7F8581E2A
:1027E000A3486BF019FC96E3A2486BF085FC07F652
:1027F0008863A3F6686207F68863A3F66461002322
:102800001268096893480DF097FDC7F8580ED7F87D
:10281000583E002B05D0D7F8581E97486BF0FCFBAC
:1028200079E3D7F8581E95486BF0F6FB0023002299
:1028300000218A4866F030FBC7F8580ED7F8583E9A
:10284000002B05D0D7F8581E8D486BF0E5FB62E3EE
:10285000D7F8581E8B486BF0DFFB00217F4865F0EE
:1028600091FB7F4A88497D4865F0A2FB7B497A4805
:1028700065F004FAC7F8580ED7F8583E002B05D07B
:10288000D7F8581E81486BF0C7FB44E3D7F8581EB1
:102890007F486BF0C1FB07F68863A3F66463196891
:1028A0006D4865F003FCC7F8580ED7F8583E002B6A
:1028B00005D0D7F8581E77486BF0AEFB2BE3D7F85E
:1028C000581E75486BF0A8FB00230093734B744AA5
:1028D0006049614865F090FB0023C7F8803E0523FE
:1028E000C7F8543E2CE0D7F8583E13F5D24F24D009
:1028F000D7F8583E13F5D14F1FD0D7F8583E5B425A
:10290000194668486BF088FBD7F8803E0133C7F85A
:10291000803ED7F8802ED7F8543E9A4205DBD7F890
:10292000541E61486BF078FBF5E24FF47A701DF0AD
:1029300031FA494865F0EDFA02E00023C7F8803E1D
:10294000454865F005FDC7F8580ED7F8583E002BEE
:10295000C9D156486BF0D0FB07F68863A3F66C62CA
:1029600007F6484007F68863A3F664631B68009384
:1029700013684F4A4FF400716BF0C6FB0023C7F891
:102980007C3E25E007F64842D7F87C3ED41807F68F
:1029900048431846FDF704FD0246D7F87C3ED31A9B
:1029A0001A4621462C4866F049F8C7F8580ED7F861
:1029B000583E002B05DAD7F8581E3E486BF02CFB2A
:1029C000A9E2D7F8583ED7F87C2E1344C7F87C3ECE
:1029D00007F648431846FDF7E3FC0246D7F87C3E6D
:1029E0009342CFD334486BF087FB0023C7F8783E7F
:1029F00081E0D7F8783E002B0AD107F68863A3F56B
:102A000011731B780D2B03D10123C7F8783E72E0B8
:102A1000D7F8783E012B51D107F68863A3F51173DF
:102A20001B780A2B4AD10223C7F8783E63E000BF27
:102A3000D01D0908E41D0908F81D0908341A0024EE
:102A4000381A00243C0000243C1A0024241A0024D4
:102A500024180024E0060024E06C0024F86D002413
:102A6000FC6F0024407100240C1E090821A30608F5
:102A7000181E09083C1E09085C1E09087C1E09086E
:102A8000A01E0908C81E0908D5120608F41E090868
:102A9000141F0908341F09085C1F09085D04030896
:102AA000D9040308841F0908A41F0908CC1F0908BA
:102AB000E41F0908242009083C200908D7F8783EBB
:102AC000022B0AD107F68863A3F511731B780D2B2F
:102AD00003D10323C7F8783E0DE0D7F8783E032BE7
:102AE00006D107F68863A3F511731B780A2B0DD066
:102AF0000023C7F8783E07F6444301221946D04820
:102B000065F050FD0346002B3FF773AFFFF7BEFDA6
:102B100020214FF40540FFF7CBFACA494FF4054096
:102B2000FFF7EAFAC8486BF0E7FA0023C7F8743EEB
:102B30000023C7F8703E0023C7F86C3E0023C7F897
:102B4000683E002387F8673EC04B1B68002B02D00D
:102B5000BE4B1B6801E0BE4B1B68C7F8503EA9E1A5
:102B6000D7F8702ED7F8583E1344C7F8703ED7F800
:102B70006C3E0133C7F86C3EB64B1B78002B06D079
:102B8000D7F8582ED7F86C1EB3486BF045FAD7F833
:102B9000703EDA179A46934652465B469118396062
:102BA0005B417B60D7E9002312EB0A0843EB0B097A
:102BB0004FF000024FF000034FEA491343EAD86395
:102BC0004FEA481218EB020549EB030615EB0A031E
:102BD0003B6146EB0B037B61D7F8503E0022BB60A4
:102BE000FA60D7E90223D7E90401FDF79DFD02460B
:102BF0000B46D3B2C7F84C3E97F8673ED7F84C2E39
:102C00009A422EDDD7F84C3E642B19DC20214FF47C
:102C10000540FFF74DFA07F13003D7F84C2E8F49E6
:102C200018466BF0A7FA07F1300319464FF4054038
:102C3000FFF762FAD7F84C1E89486BF0EDF90CE00B
:102C400020214FF40540FFF733FA86494FF4054041
:102C5000FFF752FA84486BF0DFF9D7F84C3E87F85B
:102C6000673E0023C7F8603E19E107F68863A3F6C4
:102C70004422D7F8603E13441B7887F84B3ED7F8C0
:102C8000743E40F2FE32934211D8D7F8741E4B1CAA
:102C9000C7F8743E07F68863A3F6446297F84B3E84
:102CA000535497F84B3E0A2B40F0F4800AE0D7F8D3
:102CB000602ED7F86C1E6D486BF0AEF9012387F8D3
:102CC000873EF3E007F68863A3F64462D7F8743EC4
:102CD0001A4400231370D7F8743E012B17DDD7F880
:102CE000743E5A1E07F68863A3F644639B5C0D2B63
:102CF0000DD1D7F8743E591E07F68863A3F64462D7
:102D000000235354D7F8743E013BC7F8743ED7F8FC
:102D1000743E012B03DC0023C7F8743EBAE04D4B30
:102D20001B78002B16D007F14403D7F8742E1946F0
:102D30004F486BF071F90DE0D7F8743E013BC7F8CE
:102D4000743E07F68863A3F64462D7F8743E1A44CB
:102D500000231370D7F8743E002B0FDDD7F8743EB4
:102D60005A1E07F68863A3F644639B5C0133414A0D
:102D700013441B7803F00803002BDDD107F1440353
:102D8000184600F0DBF8034687F84A3ED7F8683E5D
:102D90000133C7F8683E0023C7F8743E97F84A3EEF
:102DA000002B06D134486BF0A7F9012387F8873E42
:102DB0007CE097F84A3E022B6CD130486BF09CF9CE
:102DC00007F68863A3F65C6300221A602C4B1B682D
:102DD0004FF0FF3118461BF00BFA07F12C030422C9
:102DE00000211846FFF7FFFA254B1B6818461BF019
:102DF0004DFA07F68863A3F65C631B681946214801
:102E00006BF00AF920214FF40540FFF751F91E49F4
:102E10004FF40540FFF770F94FF47A701CF0BAFFD9
:102E200020214FF40540FFF743F918494FF40540BE
:102E3000FFF762F916486BF0EFF8FFF75BFC35E03F
:102E4000E06C00246420090874200908281A002472
:102E500038000024401A00249C200908C0200908DA
:102E6000D4200908F02009080421090824210908B0
:102E700054210908B8C20B0878210908AC210908B7
:102E8000E04B0024C4210908E8210908FC210908B5
:102E90000C220908D7F8603E0133C7F8603ED7F826
:102EA000602ED7F8583E9A42FFF6DFAE97F8873E7D
:102EB000002B0FD107F244434FF400621946184823
:102EC00065F070FBC7F8580ED7F8583E002B3FF757
:102ED00047AE00E000BFD7F8682ED7F8701E114843
:102EE0006BF09AF80E4865F0DBFD0F480DF032FBF1
:102EF0000B4865F034FF0D4866F0C6F90C483DF00C
:102F000027FE0C4847F0B6F897F8873E002B02D012
:102F100009486BF0F1F807F68C67BD46BDE8F08F05
:102F2000E06C002434220908E0060024F86D002437
:102F3000FC6F0024407100246C22090880B590B019
:102F400000AF786002E07B6801337B607B681B78B0
:102F5000002B09D07B681B780133944A13441B78FB
:102F600003F00803002BEED17868FDF719FAF86337
:102F700007E0FB6B013BFB637A68FB6B13440022A9
:102F80001A70FB6B002B0CD0FB6B013B7A6813446F
:102F90001B780133854A13441B7803F00803002B88
:102FA000E7D1FB6B002B01D10123F9E17B681B7892
:102FB0003A2B05D079687E486BF02EF80023EFE1BC
:102FC0007B680133BB620023BB6300237B6100236A
:102FD0003B6107F11C031A467649B86A6BF0ECF8BE
:102FE0000346012B01D00023DAE1FB695B00FB61A2
:102FF000FB690A33FB6100237B6314E0BA6A7B6BD5
:10300000134407F118026B4918466BF0D5F80346D4
:10301000012B01D00023C3E1BB69BA6B1344BB632E
:103020007B6B02337B63FB697A6B9A42E6D3BB6BA3
:10303000DBB2BB63BB6B002B04D05F486BF05CF86A
:103040000023ADE1BB6A981C07F1100307F11402DD
:103050005A496BF0B1F83B69002B40F0C3807B69A3
:103060009BB2DBB29BB204339AB2554B1A80082351
:103070003B638BE0BA6A3B6B134407F118024D497E
:1030800018466BF099F8B9694D4B1B885A1C90B2E1
:103090004B4A10801A46C9B24A4B9954484B1B8878
:1030A000FF2B70D9002387F82F30002387F82E30AC
:1030B0003EE0454B1B684FF0FF3118461BF098F877
:1030C000424B1B684FF4807219463E48FFF70CFADA
:1030D0000A201CF05FFE3D4B1B684FF480721946BE
:1030E0003B48FFF780F9384B1B6818461BF0CEF8B9
:1030F00014201CF04FFE4FF48072324934486BF0BC
:1031000061F90346002B03D1012387F82E300FE02D
:1031100097F82F30013387F82F302C4B1B6897F826
:103120002F2019462B486AF077FF0A201CF032FE48
:1031300097F82F30632B06D897F82E3083F00103D1
:10314000DBB2002BB5D197F82E3083F00103DBB250
:10315000002B09D097F82F301C4A126819461E48D8
:103160006AF05AFF00231BE1184B1B6803F58073BC
:10317000164A13604FF48072002112486BF04CF92C
:103180000F4B00221A803B6B02333B63FB69023B0F
:103190003A6B9A42FFF46EAF104B1B78002B02D0B3
:1031A0000F486AF0A9FF0123FAE000BFB8C20B087C
:1031B0009C220908B8220908C0220908D822090857
:1031C000421A002424180024E04B0024241A00246E
:1031D00024190024E422090808230908401A0024BD
:1031E000382309083B69012B40F0B2806E4B1B6805
:1031F0004FF0FF3118461AF0FBFF6C4B1B686C4A0E
:10320000128819466B48FFF76FF9684B1B68684ACC
:10321000128819466848FFF7E6F8634B1B681846A2
:103220001BF034F8624B1B881A46624962486BF007
:10323000C9F80346002B07D05C4B1B6819465F4852
:103240006AF0EAFE0023ABE0594B1B881A46574B45
:103250001B681344191F564B1B881A46534B1B6897
:103260001344043B1A4656486AF0D6FE4E4B1B6880
:103270004FF0FF3118461AF0BBFF4D4B1B881A4622
:103280004A4B1B681344043BFB60FB68184600F084
:10329000B1F878624B4B1B687A6A9A420AD14A4865
:1032A0006AF02AFF474B1B6819464FF4167006F068
:1032B00017FE07E045486AF01FFF45486AF01CFF0B
:1032C000FFF718FA07F10C03042200211846FFF754
:1032D0007BF90346002B09D1334B1B6818461AF0C3
:1032E000D5FF3C486AF008FF002359E00422002182
:1032F0003148FFF778F82C4B1B6818461AF0C6FFC8
:103300002D4B1B683B622A4B1B881A46274B1B68B8
:103310001344043B3A6A9A420DD0254B1B881A4647
:10332000224B1B681344043B3A6A19462A486AF048
:1033300073FE002334E01E4B1B881A461B4B1B6890
:103340001344043B194625486AF066FE022327E031
:103350003B69042B16D1BB6A083307F114022049DC
:1033600018466AF029FF7B6940F60202934204D1B5
:10337000FFF78CF91B486AF0BFFE1B486AF0BCFEE1
:1033800001230DE03B69052B04D118486AF0B4FE17
:10339000012305E03B69194615486AF03DFE01230B
:1033A00018464037BD4680BDE04B0024241A002457
:1033B000421A002424180024241900244C2309084C
:1033C0006C230908301A002494230908A42309084F
:1033D000B8230908C8230908E823090810240908A4
:1033E0004824090874200908502409086C24090895
:1033F0009424090880B594B000AF7860524B1B68E4
:103400009A68514B1B6842F001029A600023FB64EA
:1034100079684E486AF000FE0423BB647B687B64D5
:103420007B68002B40F3898049486AF065FE7BE0A9
:103430007B6C202B28BF2023BB63BB6B9AB207F1A8
:103440001403B96C1846FEF7CEFF00233B6429E055
:1034500007F114023B6C13441B781A463B6C013392
:1034600050333B4413F83C3C1B021A433B6C023381
:1034700050333B4413F83C3C1B041A433B6C03336E
:1034800050333B4413F83C3C1B0613433B6107F1AC
:103490001003012219462C480EF0FEFFF8643B6C25
:1034A00004333B643B6C0433BA6B9A42D0D2BA6BA0
:1034B0003B6CD31A7B637B6B002B2DD04FF0FF331B
:1034C000FB600023FB630FE03A6CFB6B134450334B
:1034D0003B4413F83C1C07F10C02FB6B13440A46F7
:1034E0001A70FB6B0133FB63FA6B7B6B9A42EBD375
:1034F0003B7B1A467B7B1B021A43BB7B1B041A4394
:10350000FB7B1B061343BB6007F10803012219462E
:103510000D480EF0C1FFF864BA6CBB6B1344BB647A
:103520007A6CBB6BD31A7B647B6C002B80D1F96CFB
:1035300008486AF071FDFB6C02E00023FB64FB6C41
:1035400018465037BD4680BDBC6C0024CC24090809
:10355000E0240908FC24090880B485B000AFF860B5
:10356000B9601346FB71BB681B885A1C91B2BA68DC
:1035700011801A46FB681344FA791A7000BF143799
:10358000BD465DF8047B704780B584B000AFF8603D
:10359000B9607A603B60BB681B881A46FB681344BD
:1035A0003A68796818466BF08EF8BB681A883B68F1
:1035B0009BB213449AB2BB681A8000BF1037BD4655
:1035C00080BD80B58AB000AFF860B9607A60786875
:1035D000FCF7E6FE03467B627B6A202B01DD20239D
:1035E0007B627B6AC3F12003BB61BB69002B00DAFD
:1035F00001335B107B61BA697B69D31A3B6100239D
:103600003B6207E02022B968F868FFF7A5FF3B6A34
:1036100001333B623A6A7B699A42F3DB7B6A7A68E0
:10362000B968F868FFF7B0FF0023FB6107E02022CC
:10363000B968F868FFF790FFFB690133FB61FA692D
:103640003B699A42F3DB0A22B968F868FFF784FF06
:1036500000BF2837BD4680BD90B5ADF2C44D00AF68
:1036600007F59864A4F2B444206007F59860A0F5CB
:103670009760016007F59861A1F2BC410A6007F507
:103680009862A2F59862136007F59863A3F20E435F
:1036900000221A8007F1B20107F1B4031B22184679
:1036A000FFF75AFF07F1B20107F1B40340221846B1
:1036B000FFF752FF07F1B20107F1B4031B221846CE
:1036C000FFF74AFF07F1B20107F1B403742218466D
:1036D000FFF742FF07F1B20107F1B40300221846D9
:1036E000FFF73AFF07F1B20107F1B4031B221846B6
:1036F000FFF732FF07F1B20107F1B4034D2218467C
:10370000FFF72AFF07F1B20107F1B40300221846C0
:10371000FFF722FF07F1B20107F1B4031B2218469D
:10372000FFF71AFF07F1B20107F1B403612218464F
:10373000FFF712FF07F1B20107F1B40301221846A7
:10374000FFF70AFF07F17000634B644A40216AF0FB
:10375000DBFC07F1700207F1B20107F1B403184670
:10376000FFF72FFF07F11000D7F8D0345C4A202173
:103770006AF0CAFC07F1B20107F1B4031D22184632
:10378000FFF7EAFE07F1B20107F1B4036822184619
:10379000FFF7E2FE07F1B20107F1B4033222184647
:1037A000FFF7DAFE07F1B20107F1B4031D22184654
:1037B000FFF7D2FE07F1B20107F1B4034822184621
:1037C000FFF7CAFE07F1B20107F1B403022218465F
:1037D000FFF7C2FE07F1B20107F1B4031D2218463C
:1037E000FFF7BAFE07F1B20107F1B40366221846EB
:1037F000FFF7B2FE07F1B20107F1B4030022184649
:10380000FFF7AAFE07F1B20107F1B4031D22184623
:10381000FFF7A2FE07F1B20107F1B4036B221846CD
:10382000FFF79AFE07F1B20107F1B40349221846E7
:10383000FFF792FE07F110031846FCF7B1FD0346AF
:10384000DAB207F1B20107F1B4031846FFF784FEBC
:1038500007F110031846FCF7A3FD034607F1100219
:1038600007F1B20107F1B400FFF78EFE07F1B201D4
:1038700007F1B4030A221846FFF76EFE07F59863B6
:10388000A3F5976307F170001B68164A40216AF0A0
:103890003BFC07F1700207F1B20107F1B4031846CF
:1038A000FFF78FFE07F59863A3F2BC431B68002B5C
:1038B0001CDD07F59863A3F2BC431B68072B15D8E2
:1038C00007F59863A3F2BC431B68013B322202FB5D
:1038D00003F3054A13440AE0640500241C25090883
:1038E0002025090828250908C81B0024F04BC7F823
:1038F000B83407F17000D7F8B834EE4A40216AF0C6
:1039000003FC07F1700207F1B20107F1B403184696
:10391000FFF757FE07F59863A3F5976307F13000AB
:103920001B68E54A40216AF0EFFB07F130031846B7
:10393000FCF736FDC7F8B40407F1B20107F1B40390
:103940001D221846FFF708FE07F1B20107F1B40384
:1039500028221846FFF700FE07F1B20107F1B40371
:103960006B221846FFF7F8FD07F1B20107F1B40327
:1039700004221846FFF7F0FD07F1B20107F1B40386
:1039800000221846FFF7E8FD07F1B20107F1B40382
:1039900031221846FFF7E0FD07F1B20107F1B40349
:1039A00041221846FFF7D8FD07F1B20107F1B40331
:1039B00032221846FFF7D0FD07F1B20107F1B40338
:1039C00000221846FFF7C8FD07F1B20107F1B40362
:1039D0001D221846FFF7C0FD07F1B20107F1B4033D
:1039E00028221846FFF7B8FD07F1B20107F1B4032A
:1039F0006B221846FFF7B0FD07F1B20107F1B403DF
:103A000003221846FFF7A8FD07F1B20107F1B4033E
:103A100000221846FFF7A0FD07F1B20107F1B40339
:103A200031221846FFF798FD07F1B20107F1B40300
:103A300043221846FFF790FD07F1B20107F1B403E6
:103A40000B221846FFF788FD07F1B20107F1B40316
:103A50001D221846FFF780FD07F1B20107F1B403FC
:103A600028221846FFF778FD07F1B20107F1B403E9
:103A70006B221846FFF770FD07F1B20107F1B4039E
:103A800003221846FFF768FD07F1B20107F1B403FE
:103A900000221846FFF760FD07F1B20107F1B403F9
:103AA00031221846FFF758FD07F1B20107F1B403C0
:103AB00045221846FFF750FD07F1B20107F1B403A4
:103AC00031221846FFF748FD07F1B20107F1B403B0
:103AD0001D221846FFF740FD07F1B20107F1B403BC
:103AE00028221846FFF738FD07F1B20107F1B403A9
:103AF0006B221846FFF730FDD7F8B434DBB203333E
:103B0000DAB207F1B20107F1B4031846FFF724FD5A
:103B1000D7F8B43403331B0ADAB207F1B20107F164
:103B2000B4031846FFF718FD07F1B20107F1B4031B
:103B300031221846FFF710FD07F1B20107F1B40377
:103B400050221846FFF708FD07F1B20107F1B40350
:103B500030221846FFF700FD07F1300207F1B201ED
:103B600007F1B400D7F8B434FFF70EFD07F1B20146
:103B700007F1B4031D221846FFF7EEFC07F1B2016E
:103B800007F1B40328221846FFF7E6FC07F1B2015B
:103B900007F1B4036B221846FFF7DEFC07F1B20110
:103BA00007F1B40303221846FFF7D6FC07F1B20170
:103BB00007F1B40300221846FFF7CEFC07F1B2016B
:103BC00007F1B40331221846FFF7C6FC07F1B20132
:103BD00007F1B40351221846FFF7BEFC07F1B2010A
:103BE00007F1B40330221846FFF7B6FC07F1B20123
:103BF00007F1B4030A221846FFF7AEFC07F1B20141
:103C000007F1B4032D4A1846FFF7DBFC07F1B201B8
:103C100007F1B4030A221846FFF79EFC0023C7F8F9
:103C2000BC340CE007F1B20107F1B4030A221846D4
:103C3000FFF792FCD7F8BC340133C7F8BC34D7F88F
:103C4000BC34012BEEDD07F1B20107F1B4031D22F4
:103C50001846FFF781FC07F1B20107F1B4035622C1
:103C60001846FFF779FC07F1B20107F1B4034122CE
:103C70001846FFF771FC07F1B20107F1B403002207
:103C80001846FFF769FC07F59863A3F20E431A88FC
:103C900007F1B40107F59863A3F2B4404FF0FF3386
:103CA000006816F044FE00BF07F2C447BD4690BD51
:103CB000342509084425090850250908582509080C
:103CC00080B582B000AF786039601B2239687868AF
:103CD000FFF742FC402239687868FFF73DFC1B2261
:103CE00039687868FFF738FC742239687868FFF71C
:103CF00033FC002239687868FFF72EFC1B223968F4
:103D00007868FFF729FC4D2239687868FFF724FCB2
:103D1000002239687868FFF71FFC1B223968786831
:103D2000FFF71AFC612239687868FFF715FC012259
:103D300039687868FFF710FC00BF0837BD4680BDC2
:103D400090B5ADF5885D85B004AF07F5807444F893
:103D5000F40C084607F5807141F8FC2C194607F56C
:103D60008073024623F8F62C07F580730A4603F8A1
:103D7000F72C002341F2FE023A44138007F58073CA
:103D800013F8F73C002B00F01182002341F2FC02F3
:103D90003A44138041F2FC033B441A88614B03F51B
:103DA00088533B44981841F2FC033B441B88C3F5FD
:103DB00080535D4A19466AF0A7F903469AB241F268
:103DC000FC033B441B88134441F2FC023A44138039
:103DD00041F2FC033B441A88524B03F588533B44A1
:103DE000981841F2FC033B441B88C3F580514F4BAC
:103DF0001B684F4A6AF088F903469AB241F2FC0305
:103E00003B441B88134441F2FC023A44138041F2C4
:103E1000FC033B441A88434B03F588533B449818F2
:103E200041F2FC033B441B88C3F5805107F58073C6
:103E300053F8FC3C01331B781C4607F5807353F89C
:103E4000FC3C1B781A4607F5807353F8FC3C0233A0
:103E50001B78019300922346364A6AF055F90346CF
:103E60009AB241F2FC033B441B88134441F2FC022A
:103E70003A44138041F2FC033B441A88294B03F572
:103E800088533B44981841F2FC033B441B88C3F51C
:103E9000805107F5807353F8FC3C03331B781C46B4
:103EA00007F5807353F8FC3C04331B781A4607F57A
:103EB000807353F8FC3C05331B7801930092234632
:103EC0001D4A6AF021F903469AB241F2FC033B44D1
:103ED0001B88134441F2FC023A44138041F2FC0374
:103EE0003B441A880F4B03F588533B44981841F222
:103EF000FC033B441B88C3F58053104A19466AF003
:103F000003F903469AB241F2FC033B441B88134475
:103F100041F2FC023A441380002341F2FA023A448F
:103F200013800EE1B0EFFFFF6425090800000024B4
:103F3000682509087825090894250908B025090885
:103F400041F2FA033B441A8813465B001344DB003A
:103F500003F5181307F58752136041F2BC033B4485
:103F6000182207F5875109681846FEF73CFA41F216
:103F7000C9033B441B7841F2DF023A44137041F21B
:103F8000C8033B441B7841F2DE023A44137041F20D
:103F9000CA033B441B7841F2DD023A44137007F533
:103FA000807353F8FC3C01331B7841F2DE023A4443
:103FB00012789A4240F0BC8007F5807353F8FC3CBD
:103FC0001B7841F2DF023A4412789A4240F0B08006
:103FD00007F5807353F8FC3C02331B7841F2DD0295
:103FE0003A4412789A4240F0A38041F2BE033B4427
:103FF0001B781A0641F2BF033B441B781B041A438B
:1040000007F586531B781B02134341F2C1023A4461
:104010001278134341F2D8023A44136041F2BC03D0
:104020003B44991D41F2B4033B44062218466AF012
:104030004AFB002341F2BA023A44137041F2CB0327
:104040003B441B7841F2D7023A44137041F2CC034F
:104050003B441B7841F2D6023A44137041F2CD033F
:104060003B441B7841F2D5023A44137041F2FE03FF
:104070003B441B88002B1DD041F2FC033B441A88B3
:10408000A44B03F588533B44981841F2FC033B448E
:104090001B88C3F58053A04A19466AF035F80346D9
:1040A0009AB241F2FC033B441B88134441F2FC02E8
:1040B0003A44138041F2FC033B441A88954B03F5C4
:1040C00088533B44981841F2FC033B441B88C3F5DA
:1040D000805441F2D7033B441B7841F2D6023A4464
:1040E000127841F2D5013944097803910292019383
:1040F00041F2B4033B44009341F2D8033B441B68B4
:10410000864A21466AF000F803469AB241F2FC035F
:104110003B441B88134441F2FC023A44138041F2B1
:10412000FE033B441B88013341F2FE023A441380F4
:1041300041F2FA033B441B88013341F2FA023A444C
:10414000138007F5807341F2FA023A44128833F87B
:10415000F63C9A427FF6F4AE41F2FC033B441A88E7
:104160006C4B03F588533B44981841F2FC033B44E5
:104170001B88C3F5805141F2FE033B441B88684A0B
:1041800069F0C2FF03469AB241F2FC033B441B882C
:10419000134441F2FC023A4413805E4B03F588530A
:1041A0003B4419465F4869F037FF68E2002341F25B
:1041B000B2023A44138041F2B2023A44554B03F53D
:1041C00088533B4411461846FFF77AFD41F2B2018D
:1041D0003944504B03F588533B44534A1846FFF784
:1041E000F0F9524B1B68524800F58852D019514AD9
:1041F000502169F089FF4E4A02F58853DA1941F2DD
:10420000B2013944434B03F588533B441846FFF74A
:10421000D8F907F5807353F8FC3C01331B78194635
:1042200007F5807353F8FC3C1B781A4607F580733A
:1042300053F8FC3C02331B783D4800F58850384465
:10424000019300920B463C4A502169F05DFF384AC9
:1042500002F58853DA1941F2B20139442D4B03F5C6
:1042600088533B441846FFF7ACF907F5807353F8C1
:10427000FC3C03331B78194607F5807353F8FC3C6C
:1042800004331B781A4607F5807353F8FC3C05335A
:104290001B78274800F588503844019300920B465C
:1042A000264A502169F030FF214A02F58853DA1975
:1042B00041F2B2013944174B03F588533B44184689
:1042C000FFF77FF941F2B2013944124B03F58853ED
:1042D0003B440A221846FFF73FF941F2B201394444
:1042E0000C4B03F588533B44154A1846FFF769F910
:1042F00041F2B2013944074B03F588533B44114A5C
:104300001846FFF75EF9002341F2F8023A441380A1
:104310001DE100BFB0EFFFFFBC250908C02509085B
:10432000DC250908EC2509080426090800000024FA
:1043300010EFFFFF14260908242609083C26090867
:10434000542609086426090841F2F8033B441A88F8
:1043500013465B001344DB0003F5181341F2F0022F
:104360003A44136041F2BC033B44182241F2F0018D
:10437000394409681846FEF736F841F2C9033B4450
:104380001B7841F2EF023A44137041F2C8033B44F8
:104390001B7841F2EE023A44137041F2CA033B44E7
:1043A0001B7841F2ED023A44137007F5807353F81D
:1043B000FC3C01331B7841F2EE023A4412789A42F7
:1043C00040F0BC8007F5807353F8FC3C1B7841F249
:1043D000EF023A4412789A4240F0B08007F58073B9
:1043E00053F8FC3C02331B7841F2ED023A44127858
:1043F0009A4240F0A38041F2BE033B441B781A0668
:1044000041F2BF033B441B781B041A4307F5865354
:104410001B781B02134341F2C1023A441278134342
:1044200041F2E8023A44136041F2BC033B44991D57
:1044300041F2B4033B44062218466AF044F90023D3
:1044400041F2BA023A44137041F2CB033B441B7869
:1044500041F2E7023A44137041F2CC033B441B782B
:1044600041F2E6023A44137041F2CD033B441B781B
:1044700041F2E5023A44137041F2E7033B441B78F2
:1044800041F2E6023A44127841F2E50139440978F2
:1044900007F1600003910292019341F2B4033B449F
:1044A000009341F2E8033B441B68784A502169F0CD
:1044B0002BFE07F1600241F2B2013944744B03F55F
:1044C00088533B441846FFF77CF841F2FE033B4417
:1044D0001B88013341F2FE023A44138041F2FE038D
:1044E0003B441A886B4BA3FB0213D9080B469B0075
:1044F0000B445B00D31A9BB2002B1FD141F2B203D5
:104500003B441A88624901F58853D91907F580732D
:1045100018464FF0FF3350F8F40C16F008FA5C4BD5
:1045200003F588533B444FF400620021184669F0BC
:1045300073FF002341F2B2023A44138041F2F803C0
:104540003B441B88013341F2F8023A44138007F5DB
:10455000807341F2F8023A44128833F8F63C9A42EA
:104560007FF6F2AE41F2FE033B441B884A4800F559
:104570008852D019494A502169F0C6FD464A02F5D1
:104580008853DA1941F2B2013944414B03F588539B
:104590003B441846FFF715F841F2B20139443C4B51
:1045A00003F588533B443E4A1846FFF70AF841F2A8
:1045B000B2013944364B03F588533B44394A184617
:1045C000FEF7FFFF002341F2F4023A44136013E0C8
:1045D00041F2B20139442E4B03F588533B440A2281
:1045E0001846FEF7B9FF41F2F4033B441B68013360
:1045F00041F2F4023A44136041F2F4033B441B6875
:10460000022BE5DD41F2B2013944214B03F5885319
:104610003B441D221846FEF79FFF41F2B201394488
:104620001B4B03F588533B4456221846FEF794FF74
:1046300041F2B2013944164B03F588533B44412201
:104640001846FEF789FF41F2B2013944104B03F5D9
:1046500088533B4400221846FEF77EFF41F2B20326
:104660003B441A880A4901F58853D91907F5807324
:1046700018464FF0FF3350F8F40C16F058F900BF0D
:1046800007F588570437BD4690BD00BF842609084A
:10469000B0EFFFFFCDCCCCCC10EFFFFFA026090878
:1046A000642609085825090880B582B000AF1B4A66
:1046B0003B1D1268114619800233120C1A70002338
:1046C000FB70174B1B689A69154B1B6842F0080278
:1046D0009A61134B1B689A69114B1B6842F01002D8
:1046E0009A61391D4FF0FF3303220D4816F01FF970
:1046F0000346002B01D000230BE0F91CC823012244
:10470000074816F0A2F90346002B01D1012300E06F
:10471000002318460837BD4680BD00BFB4260908EF
:10472000CC74002480B582B000AF1D4A3B1D1268D6
:10473000114619800233120C1A70FF23FB70194BBB
:104740001B689A69174B1B6842F008029A61154B67
:104750001B689A69134B1B6842F010029A61391D5D
:104760004FF0FF3303220F4816F0E1F8F91CC8237D
:1047700001220C4816F069F90346002B06D1FB789C
:104780001946094869F048FCFB7804E0074869F0DD
:10479000B3FC4FF0FF3318460837BD4680BD00BF5D
:1047A000F0260908CC740024B8260908D426090884
:1047B00080B582B000AFFFF7B5FF78607B68002B53
:1047C00001DA002314E07B68602B01D101230FE0A4
:1047D0007B686C2B01D100230AE07B68162B02D189
:1047E000054869F019FC7968044869F015FC002354
:1047F00018460837BD4680BDF42609080827090871
:1048000080B582B000AF7860391D6423012204486E
:1048100016F08DF87B6818460837BD4680BD00BF8E
:104820004478002480B5C2B000AF002387F8073178
:1048300051E097F8072143F6106313441B02C7F8B1
:104840000031324B1B684FF0FF31184619F0D0FC95
:104850003B464FF48072D7F800111846FDF7C3FDB0
:104860002A4B1B68184619F011FD0023A7F80431E4
:1048700028E0B7F8043107F58472A2F58472D35C9E
:10488000FF2B1AD1224A97F807311370214AB7F843
:1048900004311380204B01221A70204A07F58473DB
:1048A000A3F58473104619464FF480731A4669F0D5
:1048B0000AFF1B4B01221A7023E0B7F804310133C1
:1048C000A7F80431B7F80431FF2BD2D997F8073194
:1048D000013387F8073197F80731072BA9D90C4B1B
:1048E00000221A700B4B00221A800B4B00221A7008
:1048F0004FF48072FF21094869F08EFD084B0122B8
:104900001A7007F58477BD4680BD00BFE04B0024D8
:10491000F21E0024F01E0024F31E0024F01D0024CB
:10492000F41E002480B584B000AF0346FB801F4B0B
:104930001B78002B01D1FFF775FFFB88002B31D0CE
:104940001B4B1B78002B12D11A4B1B684FF0FF3109
:10495000184619F04DFC18492020FDF789FD154B2C
:104960001B68184619F092FC114B01221A70134B68
:104970001B781A4643F6106313441B02FB600D4B71
:104980001B684FF0FF31184619F032FCFB881A46BD
:10499000F9680B48FDF7A8FD064B1B68184619F08F
:1049A00075FC00E000BF1037BD4680BDF41E00243A
:1049B000F31E0024E04B002400103E00F21E0024F1
:1049C000F01D002480B584B000AF0346FB71464B58
:1049D0001B885A1C91B2444A11801946434AFB79FC
:1049E0005354414B1B88FF2B79D94FF48070FFF74C
:1049F00099FF4FF48072FF213C4869F00DFD3A4B5E
:104A000000221A803A4B1B780133DAB2384B1A7005
:104A1000374B1B78072B62D9364B1B684FF0FF31A1
:104A2000184619F0E5FB0023FB7310E0FB7B1B022B
:104A3000314A9818FA7B43F6106313441B024FF473
:104A400080721946FDF7CFFCFB7B0133FB73FB7BC8
:104A5000072BEBD9274B1B68184619F017FC274B7F
:104A60004FF4E0621946244869F0BCFC214B1B68F6
:104A70004FF0FF31184619F0BBFB21492020FDF70C
:104A8000F7FC204B01221A701A4B1B68184619F0CC
:104A9000FDFB184B1B684FF0FF31184619F0A8FBBF
:104AA0000023BB7310E0BB7B1B02134A9818BA7B30
:104AB00043F6106313441B024FF480721946FDF74E
:104AC00013FDBB7B0133BB73BB7B062BEBD9094BBF
:104AD0001B68184619F0DAFB054B07221A7000BF55
:104AE0001037BD4680BD00BFF01E0024F01D00241D
:104AF000F21E0024E04B0024F81E0024F81F0024BE
:104B000000103E00F31E002480B584B000AF0346C1
:104B10003960FB71FB791846FFF754FF3A20FFF725
:104B200051FF1CE03B685A1C3A601B78FB73FB7B0F
:104B30001B09DBB21A460F4B9B5C1846FFF742FF7E
:104B4000FB7B03F00F030B4AD35C1846FFF73AFFD9
:104B50003B681B78002B02D02020FFF733FF3B6817
:104B60001B78002BDED10A20FFF72CFF00BF103787
:104B7000BD4680BDE4F3090880B584B000AF0346AC
:104B80003960FB711346BB80FB791846FFF71AFFAB
:104B90003A20FFF717FF0023FB8121E0FB893A68E9
:104BA00013441B781B09DBB21A46134B9B5C184657
:104BB000FFF708FFFB893A6813441B7803F00F03E3
:104BC0000D4AD35C1846FFF7FDFEFA89BB88013B0E
:104BD0009A4202DA2020FFF7F5FEFB890133FB81C0
:104BE000FA89BB889A42D9D30A20FFF7EBFE00BFAF
:104BF0001037BD4680BD00BFE4F3090880B500AFA3
:104C0000114B1B684FF0FF31184619F0F1FA0F49AC
:104C10002020FDF72DFC0C4B1B68184619F036FBC5
:104C20004FF48072FF210A4869F0F6FB094B00221D
:104C30001A80094B00221A70084B01221A70084B87
:104C400001221A7000BF80BDE04B002400103E001E
:104C5000F01D0024F01E0024F21E0024F31E002488
:104C6000F41E002480B582B000AF78607868FBF74E
:104C700097FB03469AB24FF0FF337968094815F065
:104C800056FE094B1B78002B08D079685420FFF79B
:104C90003BFF064B1B881846FFF744FE00BF083752
:104CA000BD4680BD88760024E51D0024F01E00244A
:104CB00080B582B000AF7860114B01221A70114BA1
:104CC00001221A700420FDF787F90F4B04221A7095
:104CD0000E494FF40540FDF70FFA0D4B1B680D4AC6
:104CE00011680D4A12681846FDF70EFD044B0022AC
:104CF0001A70FDF7FFFC00BF0837BD4680BD00BF3E
:104D00005C1A00243F1D00243D1D00247027090863
:104D100020000024240000242800002480B5DEB0F8
:104D200002AF9B4B1B781A469A4B1B689A4217D0CE
:104D3000974B1B781A46974B1A60954B1B7883F05C
:104D40000103DBB2002B05D00CF0B4FA924869F0F5
:104D5000D3F905E0914815F0ABFD914869F0CCF925
:104D6000904B1B78002B66D08F4B1B78002B44D1C7
:104D7000642200218D4869F04FFB8C48FBF710FB43
:104D800003461A46894B1344894A11889278198040
:104D90009A70002387F86F3110E08448FBF700FB1E
:104DA00003461A46814B134482491A460B461B8818
:104DB000138097F86F31013387F86F317E4B1B7882
:104DC00097F86F219A42E8D37848FBF7E9FA03464F
:104DD0001A46764B134479491A460B461B881380B2
:104DE0000DF01CF90346764A13606F4B01221A70CE
:104DF0006E49744869F010F91DE06B4B1B78012B6C
:104E000019D10DF00BF902466D4B1B68D31A312BEB
:104E100011D964220021654869F0FEFA634B04222F
:104E20001A70614B00221A705E4B00221A705F49A3
:104E3000654869F0F1F8654B1B88002B05D0634B82
:104E40001B881946624869F0E7F8624B1B7801330A
:104E5000DAB2604B1A705D4B1B8841F2B812934274
:104E600005D10AF029FC594B00221A804BE0574B20
:104E70001B8841F2B612934205D10AF05BFC534BFA
:104E800000221A803FE0514B1B8841F2DA12934214
:104E900008D1514B00221A700AF04AFD4B4B0022F8
:104EA0001A8030E0494B1B8841F2A51293422AD95F
:104EB000464B1B8841F2B112934224D8434B1B88C6
:104EC0001A46464B1344002B00DA01335B1087F877
:104ED0003331434B1B781A46520013445B00DAB25D
:104EE00097F83331134487F8323197F83231184646
:104EF0000AF058FC354B00221A803A4B1B781946B1
:104F0000394869F089F8314B1B8840F2011293420D
:104F10001AD120220021354869F07EFA04220021AE
:104F2000334869F079FA334B00221A7020214FF48C
:104F30000540FDF7BDF80420FDF74EF8234B002295
:104F40001A802D4B04221A70204B1B88B3F5817FE9
:104F500008D10E20FDF740F81C4B00221A80264B8A
:104F60000E221A70194B1B88B3F5A87F02D1174B7C
:104F700000221A80154B1B8840F2031293427CD109
:104F80001E4B00221A601E4B00221A6052E000BF26
:104F9000A3050024780000248027090888760024CF
:104FA00098270908B11D0024F82600245C3100244C
:104FB000B8270908BC270908B21D0024C027090822
:104FC000FC260024C4270908D8270908A81D0024A6
:104FD000F0270908681B0024B31D00245AEEFFFFC8
:104FE000896400248A64002408280908601A0024BF
:104FF000E81D0024E61D00243D1D00242C1D002476
:10500000281D00248E4B1B6898B28E4B1B6803F53D
:10501000C0639BB21B019BB21A46012102F0C6FB82
:10502000884B1B680133874A1360854B1B6801332B
:10503000834A1360824B1B681F2BE3D9202145F65E
:10504000C010FDF735F8202200217F4869F0E4F90F
:105050007E497D4869F08EF87B4945F6C010FDF722
:105060004BF80520FCF7B8FF794B00221A80794BEA
:1050700005221A70784B00221A70754B1B88B3F505
:10508000827F41D16F4B00221A606D4B00221A6063
:1050900017E06B4B1B6898B26A4B1B6803F5C06343
:1050A0009BB21B019BB21A46022102F07FFB654BAB
:1050B0001B680133634A1360614B1B680133604A0C
:1050C00013605F4B1B681F2BE3D9202145F6C010EE
:1050D000FCF7EEFF202200215B4869F09DF95F4953
:1050E000594869F047F8584945F6C010FDF704F8EB
:1050F0000520FCF771FF564B00221A80554B052204
:105100001A70554B00221A70514B1B8840F2051241
:10511000934241D14B4B00221A60494B00221A6046
:1051200017E0474B1B6898B2464B1B6803F5C063FA
:105130009BB21B019BB21A46032102F037FB414B85
:105140001B6801333F4A13603D4B1B6801333C4AE7
:1051500013603B4B1B681F2BE3D9202145F6C01081
:10516000FCF7A6FF20220021374869F055F93C4999
:10517000354868F0FFFF344945F6C010FCF7BCFF26
:105180000520FCF729FF324B00221A80314B052203
:105190001A70314B00221A702D4B1B88B3F5837F98
:1051A00041D1284B00221A60254B00221A6017E0DB
:1051B000234B1B6898B2234B1B6803F5C0639BB25B
:1051C0001B019BB21A46042102F0F0FA1D4B1B682A
:1051D00001331C4A13601A4B1B680133184A1360D1
:1051E000174B1B681F2BE3D9202145F6C010FCF795
:1051F0005FFF20220021144869F00EF91949124876
:1052000068F0B8FF104945F6C010FCF775FF05209F
:10521000FCF7E2FE0E4B00221A800E4B05221A709C
:105220000D4B00221A700A4B1B8840F20712934262
:1052300055D1044B00221A60014B00221A602BE06A
:10524000281D00242C1D0024601A0024C82E0024D0
:10525000A81D00243D1D002440000024082F002428
:10526000482F0024882F00247B4B1B6898B27B4B6F
:105270001B6803F5C0639BB21B019BB21A46052154
:1052800002F094FA754B1B680133744A1360724B39
:105290001B680133704A13606F4B1B681F2BE3D9E7
:1052A000202145F6C010FCF703FF202200216C48A6
:1052B00069F0B2F86B496A4868F05CFF684945F6E6
:1052C000C010FCF719FF0520FCF786FE664B002294
:1052D0001A80664B05221A70654B00221A70624BC9
:1052E0001B88B3F5847F41D15C4B00221A605A4B76
:1052F00000221A6017E0584B1B6898B2574B1B6886
:1053000003F5C0639BB21B019BB21A46062102F053
:105310004DFA524B1B680133504A13604E4B1B68C9
:1053200001334D4A13604C4B1B681F2BE3D92021DE
:1053300045F6C010FCF7BCFE20220021484869F069
:105340006BF84C49464868F015FF454945F6C010D2
:10535000FCF7D2FE0520FCF73FFE434B00221A80EB
:10536000424B05221A70424B00221A703E4B1B889A
:10537000B3F5907FC0F098803B4B1B88B3F5937FCB
:1053800080F09280384B1B88DBB2203B87F83131AC
:1053900097F83121384B1B689A4280F2828097F847
:1053A000312136491346DB009B1A0B441B78FF2B37
:1053B0006CD0334A97F831311370324B01221A7096
:1053C00097F831212D491346DB009B1A0B441A78BC
:1053D0002D4B1A7097F8312128491346DB009B1A90
:1053E0000B4401331A78284B5A7097F8312123491E
:1053F0001346DB009B1A0B4402331A78224B9A7037
:1054000097F831211D491346DB009B1A0B440333E7
:105410001A781D4BDA7097F8312118491346DB00D2
:105420009B1A0B4404331A78174B1A7197F83121E1
:1054300012491346DB009B1A0B4405331A78124BB2
:105440005A71114B00229A71074B1B88DBB21F3B2C
:10545000DAB20B4B1A7024E0281D00242C1D002406
:10546000601A0024C82F0024A81D00243D1D00241C
:10547000400000240830002444300024941B002401
:10548000931B00243E1D00248C1B00244A4B002249
:105490001A804A4B01221A7041F21A210C20FCF7A3
:1054A000BFFD474B00221A80454B1B88B3F5A05F18
:1054B00040F29E80424B1B8841F20642934200F22A
:1054C00097803F4B1B88DBB2013B87F8303197F860
:1054D00030213C4B1B689A4280F287803A4B1B7804
:1054E00083F00103DBB2002B78D097F830213749E5
:1054F0001346DB009B1A0B441B78FF2B50D0344A19
:1055000097F830311370334B01221A7097F830211D
:105510002E491346DB009B1A0B441A782E4B1A7047
:1055200097F8302129491346DB009B1A0B440133BD
:105530001A78294B5A7097F8302124491346DB001A
:105540009B1A0B4402331A78234B9A7097F8302138
:105550001E491346DB009B1A0B4403331A781E4B7B
:10556000DA7097F8302119491346DB009B1A0B4477
:1055700004331A78184B1A7197F8302113491346DF
:10558000DB009B1A0B4405331A78134B5A71124BEC
:1055900000229A710A4B1B88DAB20D4B1A7024E074
:1055A000054B00221A80054B01221A7041F2182186
:1055B0000C20FCF735FD18E042000024D91D002422
:1055C000A81D002444300024A3050024941B0024BB
:1055D000931B00243E1D00248C1B0024AA4A97F82C
:1055E00030311370A94B01221A70A94B00221A8086
:1055F000A74B1B8841F2114293420DD1A54B0022CB
:105600001A8002F0AFF90F20FCF7E6FCA24B0F2244
:105610001A709F4B00221A809D4B1B8841F2115239
:10562000934211D09A4B1B8841F2125293420BD0F5
:10563000974B1B8841F21162934205D0944B1B8813
:1056400041F2126293420BD1924B00221A800E203B
:10565000FCF7C2FC904B0E221A708D4B00221A8070
:105660008B4B1B8841F21352934205D0884B1B8809
:1056700041F2145293426FD1864B00221A802021AE
:1056800048F24030FCF714FD20214FF40340FCF7B2
:105690000FFD20214FF40440FCF70AFD202148F2C1
:1056A0008030FCF705FD202148F2C030FCF700FDFA
:1056B000202148F24040FCF7FBFC784B1B68194660
:1056C0004FF40340FCF718FD754B1B68194648F270
:1056D0004030FCF711FD734B1B68734A1360734B2A
:1056E0001B68734A1360734B1B68734A1360704BDB
:1056F0001A68714B1B6807F58C70704968F03AFDA9
:1057000007F58C73194648F28030FCF7F5FC6C49BC
:1057100048F2C030FCF7F0FC07F5827300221A60F3
:105720005A609A60DA601A82664B1A6807F58273CB
:105730006549184668F01EFD07F5827319464FF457
:105740000440FCF7D9FC1020FCF746FC524B102219
:105750001A704F4B00221A804D4B1B8841F2136286
:10576000934205D04A4B1B8841F2146293420DD1FB
:10577000484B00221A8002F0F5F80F20FCF72CFCB1
:10578000454B0F221A70424B00221A80404B1B8857
:1057900040F2025293420BD13E4B00221A8001206C
:1057A000FCF71AFC3C4B01221A70394B00221A807C
:1057B000394B1B78042B40F0D981354B1B8840F2C4
:1057C0000B42934229D1324B00221A803F4B1B7867
:1057D000002B0BD03D4B1B78013BDAB23B4B1A70D0
:1057E0003A4B1B781A463A4B0021995420214FF42A
:1057F0000540FCF75DFC36494FF40540FCF77CFCA6
:105800003349344868F008FC3148FAF7C9FD0346CB
:105810001946314868F000FCA8E11D4B1B8840F296
:105820000C42934240F0D8802C492948FAF758FDA1
:105830000346002B60D1174B00221A800120FCF791
:10584000CBFB154B01221A70254868F055FC20212E
:105850004FF4D240FCF72CFC22494FF4D240FCF725
:105860004BFC214B01221A70204B1B68002B03D1EB
:105870001F4B00221A7002E01D4B01221A701D4BB3
:1058800000221A709CE000BFB21D0024B11D00244C
:10589000A81D0024420000243D1D00240000002417
:1058A0000400002400E8F11F5C1B002404E8F11F41
:1058B000601B002408E8F11F641B00241C28090851
:1058C00028280908D405002434280908E61D0024E6
:1058D000E81D002438280908482809085000002439
:1058E0005428090868280908B01D00244430002401
:1058F000EC4B0024B41D00246F497048FAF7F0FC0B
:105900000346002B0CD16E4B01221A700223009328
:105910004FF4C05300226B496B482FF0FDFD4FE060
:105920006A496648FAF7DCFC0346002B11D1684B44
:105930001B6899B20023674A6748FEF701FA674B74
:1059400000221A800120FCF747FB654B01221A70E8
:1059500036E064495948FAF7C3FC0346002B10D1DE
:1059600020214FF40540FCF7A3FB5F494FF40540AD
:10597000FCF7C2FB4FF47A701AF00CFAFCF7BAFE8F
:105980001EE05A494D48FAF7ABFC0346002B03D101
:10599000574B01221A7013E0504B00221A8001204D
:1059A000FCF71AFB4E4B01221A70042200214348D7
:1059B00068F032FD4F4B00221A704F4868F09CFB94
:1059C0004E4B00221A80042200213C4868F024FD3E
:1059D000484B00221A70C9E0484B1B8840F2134222
:1059E00093420CD13D4B00221A800120FCF7F4FABF
:1059F0003B4B01221A70414B00221A80B6E03F4B0C
:105A00001B8840F2144293420CD1344B00221A807E
:105A10000120FCF7E1FA324B01221A70374B0022C9
:105A20001A80A3E04FF0FF33C7F86831334B1B886F
:105A3000A3F20143092B63D801A252F823F000BF5F
:105A4000695A0208715A0208795A0208815A0208F2
:105A5000895A0208915A0208995A0208A15A020862
:105A6000A95A0208B15A02080123C7F8683148E070
:105A70000223C7F8683144E00323C7F8683140E0E7
:105A80000423C7F868313CE00523C7F8683138E0E3
:105A90000623C7F8683134E00723C7F8683130E0DF
:105AA0000823C7F868312CE00923C7F8683128E0DB
:105AB0000023C7F8683124E058000024E81D0024C2
:105AC0003F1D0024B14C020874280908600000241E
:105AD000D405002448000024CC7400244200002493
