:020000040800F2
:1000000000000824CD860008F97600080177000872
:100010001177000819770008217700080000000018
:1000200000000000000000000000000091680108CE
:100030002977000800000000E16A0108496B010807
:100040001D8700081D8700081D8700081D87000800
:100050001D8700081D8700081D8700081D870008F0
:100060001D8700081D8700081D8700081D870008E0
:100070001D8700081D8700081D8700081D870008D0
:100080001D8700081D8700081D8700081D870008C0
:100090001D8700081D8700081D8700081D870008B0
:1000A0001D8700081D8700081D8700081D870008A0
:1000B0001D8700081D8700081D8700081D87000890
:1000C0001D8700081D8700081D8700083977000874
:1000D0001D8700084D770008F177000805780008B3
:1000E0001D8700081D870008000000001D8700080C
:1000F0001D8700081D8700081D8700081D87000850
:100100001D8700081D8700081D8700081D8700083F
:100110001978000885780008997800081D8700087C
:100120001D8700081D8700081D8700081D8700081F
:100130001D870008B97800081D8700081D87000882
:1001400000000000000000000000000000000000AF
:100150001D8700081D8700081D870008B10C0008D6
:100160001D8700081D8700081D8700081D870008DF
:100170001D8700081D8700081D870008000000007B
:100180001D8700081D870008CD7800081D8700081E
:100190001D8700081D8700081D8700081D870008AF
:1001A00000000000000000001D8700081D870008F7
:1001B0001D8700081D8700081D8700081D8700088F
:1001C0001D8700081D8700081D8700081D8700087F
:1001D0001D8700081D8700081D8700081D8700086F
:1001E0001D8700081D8700081D8700081D8700085F
:1001F0001D8700081D8700081D8700081D8700084F
:100200001D8700081D8700081D8700081D8700083E
:100210001D8700081D8700081D8700081D8700082E
:100220001D870008000000001D8700080000000076
:100230001D8700081D870008000000001D870008BA
:100240001D8700081D8700081D8700081D870008FE
:100250001D8700081D8700081D8700081D870008EE
:100260001D8700081D8700081D8700081D870008DE
:100270001D8700081D8700081D870008000000007A
:100280001D8700081D8700081D870008000000006A
:08029000000000001D870008BA
:1002A00010B5054C237833B9044B13B10448AFF3B0
:1002B00000800123237010BD900200240000000084
:1002C000DC60060808B5034B1BB103490348AFF3D4
:1002D000008008BD0000000094020024DC600608D5
:1002E00010F8012B11F8013B012A28BF9A42F7D0E0
:1002F000D01A70470000000000000000000000005D
:1003000001F0FF01102A2BDB10F0070F08D010F8C6
:10031000013B013A8B422DD010F0070F42B3F6D1CA
:10032000F0B441EA012141EA014122F007047FF0E3
:1003300000070023F0E80256083C85EA010586EA3A
:10034000010685FA47F5A3FA87F586FA47F6A5FA76
:1003500087F68EB9EED1F0BC01F0FF0102F0070282
:1003600032B110F8013B013A83EA010313B1F8D12D
:100370000020704701387047002D06BF354603380E
:10038000073815F0010F07D1013015F4807F02BF47
:10039000013015F4C03F0130F0BC0138704700BF98
:1003A000034613F8012B002AFBD1181A01387047B5
:1003B00081F0004102E000BF83F0004330B54FEA16
:1003C00041044FEA430594EA050F08BF90EA020F83
:1003D0001FBF54EA000C55EA020C7FEA645C7FEA16
:1003E000655C00F0E2804FEA5454D4EB5555B8BF39
:1003F0006D420CDD2C4480EA020281EA030382EAAA
:10040000000083EA010180EA020281EA0303362D3B
:1004100088BF30BD11F0004F4FEA01314FF4801C0E
:100420004CEA113102D0404261EB410113F0004F20
:100430004FEA03334CEA133302D0524263EB4303D7
:1004400094EA050F00F0A780A4F10104D5F1200E75
:100450000DDB02FA0EFC22FA05F2801841F10001D0
:1004600003FA0EF2801843FA05F359410EE0A5F1A4
:1004700020050EF1200E012A03FA0EFC28BF4CF0D5
:10048000020C43FA05F3C01851EBE37101F000458B
:1004900007D54FF0000EDCF1000C7EEB00006EEB98
:1004A0000101B1F5801F1BD3B1F5001F0CD3490822
:1004B0005FEA30004FEA3C0C04F101044FEA445279
:1004C00012F5800F80F09A80BCF1004F08BF5FEA00
:1004D000500C50F1000041EB045141EA050130BDE0
:1004E0005FEA4C0C404141EB0101013C28BFB1F5F2
:1004F000801FE9D291F0000F04BF01460020B1FA3D
:1005000081F308BF2033A3F10B03B3F120020CDA0F
:100510000C3208DD02F1140CC2F10C0201FA0CF0ED
:1005200021FA02F10CE002F11402D8BFC2F1200C52
:1005300001FA02F120FA0CFCDCBF41EA0C01904008
:10054000E41AA2BF01EB0451294330BD6FEA040451
:100550001F3C1CDA0C340EDC04F11404C4F120023C
:1005600020FA04F001FA02F340EA030021FA04F34E
:1005700045EA030130BDC4F10C04C4F1200220FAA5
:1005800002F001FA04F340EA0300294630BD21FAE3
:1005900004F0294630BD94F0000F83F4801306BFA9
:1005A00081F480110134013D4EE77FEA645C18BF9D
:1005B0007FEA655C29D094EA050F08BF90EA020F34
:1005C00005D054EA000C04BF1946104630BD91EA2C
:1005D000030F1EBF0021002030BD5FEA545C05D12F
:1005E0004000494128BF41F0004130BD14F580046E
:1005F0003CBF01F5801130BD01F0004545F0FE41E2
:1006000041F470014FF0000030BD7FEA645C1ABF16
:10061000194610467FEA655C1CBF0B46024650EA4D
:10062000013406BF52EA033591EA030F41F4002179
:1006300030BD00BF90F0000F04BF0021704730B5FF
:100640004FF4806404F132044FF000054FF00001D4
:1006500050E700BF90F0000F04BF0021704730B595
:100660004FF4806404F1320410F0004548BF40426A
:100670004FF000013EE700BF42004FEAE2014FEABF
:1006800031014FEA02701FBF12F07F4393F07F4F9A
:1006900081F06051704732F07F4208BF704793F09D
:1006A0007F4F04BF41F40021704730B54FF46074B0
:1006B00001F0004521F000411CE700BF50EA0102B3
:1006C00008BF704730B54FF000050AE050EA01025C
:1006D00008BF704730B511F0004502D5404261EBCC
:1006E00041014FF4806404F132045FEA915C3FF40D
:1006F000D8AE4FF003025FEADC0C18BF03325FEAAA
:10070000DC0C18BF033202EBDC02C2F1200300FA5A
:1007100003FC20FA02F001FA03FE40EA0E0021FA7F
:1007200002F11444BDE600BF53B94AB9002908BF1D
:1007300000281CBF4FF0FF314FF0FF3000F0C0B970
:10074000ADF1080C6DE904CE00F03EF8DDF804E0F0
:10075000DDE9022304B0704708B502460B4643ECBE
:10076000172BB5EEC07BF1EE10FA03D4BDE80840BC
:1007700000F00AB8B1EE477B51EC170B00F004F81B
:10078000404261EB410108BD9FED0B6B41EC170B43
:100790009FED0B5B27EE066BBCEEC66BB8EE464BCF
:1007A000A4EE457BFCEEC77B16EE101A17EE900AFE
:1007B000704700BFAFF30080000000000000F03D74
:1007C000000000000000F0412DE9F047089D8E4632
:1007D00004468846002B4AD18A42174662D9B2FAAB
:1007E00082F64EB1C6F1200301FA06F820FA03F3AF
:1007F000B74043EA0808B4404FEA174E1FFA87FC97
:10080000B8FBFEF1230C0EFB118843EA084301FB01
:100810000CF29A4209D9FB1801F1FF3080F0EA800E
:100820009A4240F2E78002393B449A1AA3B2B2FBE3
:10083000FEF00EFB102243EA024300FB0CFC9C4539
:1008400009D9FB1800F1FF3280F0D6809C4540F2B8
:10085000D3803B44023840EA0140A3EB0C03002163
:100860001DB1F3400022C5E90032BDE8F0878B429C
:1008700005D90DB1C5E9000100210846F5E7B3FA35
:1008800083F1002946D1734502D3824200F20581EB
:10089000841A6EEB030201209046002DE5D0C5E9D5
:1008A0000048E2E7002A00F09080B2FA82F6002EBB
:1008B00040F0A4808A1A030C4FEA174E80B2BCB2F3
:1008C0000121B2FBFEFC0EFB1C2243EA024304FBA7
:1008D0000CF29A4207D9FB180CF1FF3802D29A4267
:1008E00000F2E080C4469B1AB3FBFEF20EFB12330B
:1008F00040EA034302FB04F49C4207D9FB1802F1CF
:10090000FF3002D29C4200F2CA8002461B1B42EA20
:100910000C40A5E7C1F120068B4022FA06F71F43E1
:100920000EFA01F420FA06F32EFA06FE4FEA1749F2
:10093000234300FA01F81FFA87FCBEFBF9F01C0CF8
:1009400009FB10EE44EA0E4400FB0CFEA64502FA39
:1009500001F209D93C1900F1FF3A80F09C80A645CC
:1009600040F2998002383C44A4EB0E041FFA83FE47
:10097000B4FBF9F309FB13444EEA044403FB0CFCFB
:10098000A44508D93C1903F1FF3E80F08280A445BC
:100990007FD9023B3C4443EA0040A4EB0C04A0FB9B
:1009A00002EC64457346E14662D35FD05DB1B8EBBB
:1009B000030264EB090404FA06F622FA01F31E436B
:1009C000CC40C5E9006400214FE7B1FBF2FC010C0B
:1009D00041EA0E4180B240EA01423B4638463C467D
:1009E000B846BE462026B1FBF7F1A2EB080241EA69
:1009F0000C4166E7014618E710462CE7C6F12002D5
:100A00002EFA02F3B740B14020FA02F24FEA174E35
:100A10000A43B3FBFEF8BCB20EFB1833110C41EADB
:100A2000034108FB04F9B04089454FEA104380B206
:100A30003ED9791808F1FF3C01D289451FD8A1EBB6
:100A40000901B1FBFEF909FB04F80EFB191192B282
:100A500042EA0142424529D2BA1809F1FF31C4D213
:100A60004245C2D2A9F102013A44BEE7F0459DD207
:100A7000BEEB02036CEB070C0138E14696E7A7EBEF
:100A800009094944A8F1020CB1FBFEF909FB04F87D
:100A9000DBE773467FE7504666E70846FDE63B44E2
:100AA000023A33E7ACF1020C3B441CE749469CE7B1
:100AB000A1EB0901C446B1FBFEF909FB04F8C4E748
:100AC000704700BF80B400AF044BDB681B0A03F023
:100AD00007031846BD465DF8047B704700ED00E053
:100AE00080B483B000AF0346FB80B7F90630002B1B
:100AF0000BDBFB8803F01F020749B7F906305B09DF
:100B0000012000FA02F241F8232000BF0C37BD4655
:100B10005DF8047B704700BF00E100E080B483B063
:100B200000AF0346FB80B7F90630002B12DBFB88D1
:100B300003F01F020A49B7F906305B09012000FAE9
:100B400002F2203341F82320BFF34F8F00BFBFF3E1
:100B50006F8F00BF00BF0C37BD465DF8047B704748
:100B600000E100E080B483B000AF03463960FB8051
:100B7000B7F90630002B0ADB3B68DAB20C49B7F94B
:100B800006301201D2B20B4483F800230AE03B681E
:100B9000DAB20849FB8803F00F03043B1201D2B21A
:100BA0000B441A7600BF0C37BD465DF8047B7047D6
:100BB00000E100E000ED00E080B489B000AFF86033
:100BC000B9607A60FB6803F00703FB61FB69C3F15E
:100BD0000703042B28BF0423BB61FB690433062BE6
:100BE00002D9FB69033B00E000237B614FF0FF3239
:100BF000BB6902FA03F3DA43BB681A407B699A4087
:100C00004FF0FF317B6901FA03F3D9437B680B4056
:100C1000134318462437BD465DF8047B7047000037
:100C200080B5C4B004AF3B464FF480720021184633
:100C300061F01AFD3846154B0393154B0293154B83
:100C40000193154B0093154B154A4FF4807161F0D9
:100C500083FB1449202000F0B9FB0346002B03D18D
:100C6000114861F071FB0CE03B461846FFF798FB1A
:100C700002463B460B49184600F0CEFB0B4861F09C
:100C800063FB07F58077BD4680BD00BF30040024BC
:100C900010040024F0030024D0030024B003002437
:100CA0000061060800103E00206106083861060851
:100CB00080B582B000AF1C4B1B68DB6903F02003DA
:100CC000202B21D1184B1B685B6AFB71174B1B88CB
:100CD000FE2B0FD8154B1B885A1C91B2134A11805A
:100CE0001946134AFB795354104B1B881A46104B74
:100CF000002199540F490E4861F04CFD0346002B2A
:100D000002D00D4B01221A70074B1B68DB6903F000
:100D10000803082B03D1044B1B6808221A6200BF8A
:100D20000837BD4680BD00BF184D0024AC03002429
:100D3000AC02002458610608AE03002480B500AF61
:100D4000FFF7C0FE0346002205211846FFF734FFD7
:100D5000034619464720FFF705FF4720FFF7C0FE6F
:100D60000122054905480FF08FFA0346002B01D0F8
:100D700006F01CF900BF80BDAC020024184D002411
:100D800080B5C6B000AF07F58C73A3F58A73186001
:100D900007F58C73A3F58A7307F10C00FF2219681D
:100DA00061F089FC07F58C73A3F58673002283F844
:100DB000FF2007F10C036149184661F08FFCC7F86A
:100DC000140188E0D7F81431C7F810313D21D7F865
:100DD000140161F051FCC7F80C01D7F80C31002B5D
:100DE0000BD1D7F81411564861F03EFA5349002050
:100DF00061F074FCC7F814016DE0D7F80C310022E3
:100E00001A70D7F80C310133C7F80C314D49D7F8B7
:100E10001001FFF765FA0346002B09D11F22D7F80E
:100E20000C11494861F047FC474B0022DA774CE04F
:100E30004649D7F81001FFF753FA0346002B09D1B2
:100E40001F22D7F80C11424861F035FC404B0022BC
:100E5000DA773AE03F49D7F81001FFF741FA034645
:100E6000002B09D11F22D7F80C113B4861F023FC5D
:100E7000394B0022DA7728E03849D7F81001FFF71C
:100E80002FFA0346002B09D11F22D7F80C11344842
:100E900061F011FC324B0022DA7716E03149D7F8C5
:100EA0001001FFF71DFA0346002B09D11F22D7F8C6
:100EB0000C112D4861F0FFFB2B4B0022DA7704E088
:100EC000D7F81011294861F0CFF91C49002061F0D2
:100ED00005FCC7F81401D7F81431002B7FF472AF6A
:100EE000234861F0C1F91849224861F0BDF9184959
:100EF000214861F0B9F91849204861F0B5F918495D
:100F00001F4861F0B1F918491E4861F0ADF91E4B58
:100F10000D4A1A601D4B0E4A1A601D4B0E4A1A608C
:100F20001C4B0F4A1A601C4B0F4A1A60FFF778FEE1
:100F300000BF07F58C77BD4680BD00BF6461060821
:100F40006861060888610608B00300248C61060801
:100F5000D003002490610608F00300249461060881
:100F60001004002498610608300400249C610608DF
:100F7000B0610608C8610608DC610608F061060871
:100F80000462060818620608000000240400002419
:100F9000080000240C0000242C00002480B582B03E
:100FA00000AF264B1B78DBB2002B43D04720FFF766
:100FB000B5FD4FF480720021214861F055FB214BB3
:100FC0001B881A4620491E4861F089FC1F491C48AD
:100FD00061F0E0FB78601E49194861F0DBFB386086
:100FE0007B68002B14D03B68002B11D03A687B68DB
:100FF0009A420DD93B6800221A707B6808337B60E7
:101000007968144861F030F97868FFF7B9FE02E0BA
:10101000114861F029F94FF4807200210A4861F00B
:1010200023FB084B00221A80044B00221A70472031
:10103000FFF756FD00BF0837BD4680BDAE03002454
:1010400050040024AC030024AC0200242C620608E7
:1010500058610608386206084C62060880B5C4B0BC
:1010600004AF3B464FF480720021184661F0FCFA51
:101070003B46FF221B49184600F063F907F58073D1
:10108000A3F58073002283F8FF203B4619461648DB
:1010900061F0EAF83846154B0293154B0193154B56
:1010A0000093154B154A164961F0AEF9154B134ADA
:1010B0001A60154B104A1A60144B0E4A1A60144BF2
:1010C0000B4A1A60134B094A1A60124B1B681B78B3
:1010D000302B02D10F4B104A1A6000BF07F5807702
:1010E000BD4680BD00103E00786206083004002432
:1010F00010040024F0030024D0030024B0030024D3
:10110000986206080000002404000024080000245F
:101110000C0000242C000024C062060880B500AF3B
:101120000022102102480AF075FA00BF80BD00BFFE
:101130000000025880B500AF0122102102480AF0D9
:1011400069FA00BF80BD00BF0000025880B483B0C0
:1011500000AF0346FB71FB79072B0AD9FB79202BE3
:1011600007D8FB7903F00703DBB2002B01D1012381
:1011700000E0002303F00103DBB218460C37BD4644
:101180005DF8047B7047000080B588B002AF7860DE
:101190000B46FB70FB781846FFF7D8FF034683F039
:1011A0000103DBB2002B01D0002347E000237B6169
:1011B0000023FB600023BB60FB78083BFB7400232B
:1011C000BB7410E0FB7C7A68DA40BB7CDB08DBB2E6
:1011D000D2B218333B4403F80C2CFB7C083BFB7465
:1011E000BB7C0833BB74BA7CFB789A42EAD3FB78A9
:1011F000DB08DBB2184607F1080207F10C01642393
:10120000009303460F480DF08FFD00237B7410E020
:101210007B691B027B617B7CDB08DBB218333B44C0
:1012200013F8103C1A467B6913437B617B7C0833BF
:101230007B747A7CFB789A42EAD37B69184618372C
:10124000BD4680BDC848002480B582B000AF0023F1
:101250007B60FFF763FF10214FF4A060FFF794FF5E
:101260007860FFF767FF7B68DBB218460837BD463A
:1012700080BD80B582B000AF07F0A8FB78600AE0BF
:1012800007F0A4FB02467B68D31A41F288329342EE
:1012900001D9002307E0FFF7D7FF034603F001035E
:1012A000002BEDD1012318460837BD4680BD80B51F
:1012B00000AFFFF733FF08210620FFF765FFFFF7B8
:1012C00039FFFFF7C1FF034603F00203002B01D0F3
:1012D000012300E00023184680BD80B586B000AF32
:1012E000F860B9601346FB800023FB820023FB8279
:1012F0001EE0FFF7DCFF0346002B16D0FFF70EFFC2
:10130000FA8ABB68134443F0007320211846FFF7A4
:101310003BFFFB8AFA6813441B7808211846FFF745
:1013200033FFFFF707FFFFF7A4FFFB8A0133FB82C0
:10133000FA8AFB889A42DCD300BF00BF1837BD464B
:1013400080BD80B586B000AFF860B9601346FB8001
:101350000023FB82FFF7E2FEBB6843F040732021CD
:101360001846FFF711FF0023FB820CE00821002044
:10137000FFF70AFF0146FB8AFA681344CAB21A70E3
:10138000FB8A0133FB82FA8AFB889A42EED3FFF78D
:10139000D1FE00BF1837BD4680BD80B582B000AF1A
:1013A00000237B60FFF7BAFE08219F20FFF7ECFEC9
:1013B000786018210020FFF7E7FE7860FFF7BAFE9B
:1013C0007B6818460837BD4680BD000080B582B0F6
:1013D00000AF03463960FB71FFF769FF0346002B3E
:1013E00010D0FFF79BFEFB7908211846FFF7CCFED3
:1013F00018213868FFF7C8FEFFF79CFEFFF739FF9A
:10140000012303E0034860F09FFF002318460837DC
:10141000BD4680BDDC62060880B586B000AFF860CE
:10142000B9601346FB800023FB82FFF740FF0346B1
:10143000002B1ED0FFF772FEBB6843F00073202123
:101440001846FFF7A1FE0023FB820AE0FB8AFA6838
:1014500013441B7808211846FFF796FEFB8A0133D8
:10146000FB82FA8AFB889A42F0D3FFF763FEFFF70C
:1014700000FF00BF1837BD4680BD000080B582B0B8
:1014800000AFFFF78AFF78607B68124A934203D06F
:101490007B68114A934217D1FFF709FF0346002BDF
:1014A0000ED0FFF73BFE18214FF48030FFF76CFEA3
:1014B000FFF740FEFFF7DDFE084860F045FF06E05D
:1014C000074860F041FF02E0054860F03DFF083743
:1014D000BD4680BD01871F001740EF00F06206087F
:1014E0000463060880B584B002AF786039600022DA
:1014F000154916480DF0F2F80022154913480DF071
:10150000D1F9114B1B781A460F4B5B7819460E4BDD
:101510009B7800930B460F49786860F053FF0C4BA3
:101520009B781A460A4B5B781946094BDB7803F522
:10153000FA6300930B460849386860F043FF00BF28
:101540000837BD4680BD00BF54050024A4480024D0
:10155000500500241C6306082C63060880B586B07D
:1015600000AF3A4607F10C0311461846FFF7BAFFE1
:1015700007F10C031946064860F076FE3B46194613
:10158000044860F071FE00BF1837BD4680BD00BF43
:101590003C6306085063060880B582B000AF7860EF
:1015A000391D4FF0FF33012203480EF017FD7B6811
:1015B00018460837BD4680BD184D002480B582B05E
:1015C00000AF78607868FEF7EBFE03469AB24FF002
:1015D000FF33796803480EF001FD00BF0837BD46B0
:1015E00080BD00BF5C4B0024B0B588B004AF984B01
:1015F0001B780133DAB2964B1A70964B1B8840F277
:101600000112934208D1042002F0FEFA914B00220D
:101610001A80914B04221A708E4B1B88B3F5817F80
:1016200008D10E2002F0F0FA8A4B00221A808A4B71
:101630000E221A70874B1B8840F2031293424FD13F
:10164000864B00221A60864B00221A6017E0844BFA
:101650001B6898B2814B1B6803F5C0639BB21B01EA
:101660009BB21A46012102F0E1F97C4B1B68013361
:101670007A4A13607A4B1B680133794A1360784BBE
:101680001B681F2BE3D920220021764860F0ECFF75
:101690007549744860F096FE7249744861F017F914
:1016A0007248FEF77DFE0346DBB2194645F6C010D0
:1016B00002F0F2FA6D48FEF773FE03469AB2C823B1
:1016C0006A496B480EF08AFC052002F09DFA614BD6
:1016D00000221A80604B05221A70664B00221A7095
:1016E0005C4B1B88B3F5827F4FD15C4B00221A60A4
:1016F0005B4B00221A6017E0594B1B6898B2574B9E
:101700001B6803F5C0639BB21B019BB21A46022102
:1017100002F08CF9514B1B680133504A1360504B57
:101720001B6801334E4A13604D4B1B681F2BE3D9D6
:10173000202200214B4860F097FF4F49494860F054
:1017400041FE4849494861F0C2F84848FEF728FE82
:101750000346DBB2194645F6C01002F09DFA434835
:10176000FEF71EFE03469AB2C823404940480EF0D9
:1017700035FC052002F048FA364B00221A80364B21
:1017800005221A703B4B00221A70324B1B8840F224
:10179000051293424FD1314B00221A60304B002288
:1017A0001A6017E02E4B1B6898B22C4B1B6803F590
:1017B000C0639BB21B019BB21A46032102F036F9AB
:1017C000264B1B680133254A1360254B1B680133E8
:1017D000234A1360224B1B681F2BE3D920220021D0
:1017E000204860F041FF25491E4860F0EBFD1D498F
:1017F0001E4861F06CF81D48FEF7D2FD0346DBB2CF
:10180000194645F6C01002F047FA1848FEF7C8FD21
:1018100003469AB2C823154915480EF0DFFB052090
:1018200002F0F2F90B4B00221A800B4B05221A70C2
:10183000104B00221A70074B1B88B3F5837F68D1C9
:10184000064B00221A60064B00221A6030E000BFEF
:101850006C07002490090024290900241809002499
:101860001409002468050024646306086406002443
:10187000C84A002414000024786306088C63060814
:10188000554B1B6898B2554B1B6803F5C0639BB260
:101890001B019BB21A46042102F0C8F84F4B1B688B
:1018A00001334E4A13604C4B1B6801334A4A1360A4
:1018B000494B1B681F2BE3D920220021484860F0C8
:1018C000D3FE4849464860F07DFD4549464860F0F2
:1018D000FEFF4548FEF764FD0346DBB2194645F6B8
:1018E000C01002F0D9F94048FEF75AFD03469AB2FB
:1018F000C8233D493D480EF071FB052002F084F9F4
:101900003B4B00221A803B4B05221A703A4B0022B7
:101910001A70374B1B8840F2071293424FD12F4B5E
:1019200000221A602C4B00221A6017E02A4B1B6819
:1019300098B22A4B1B6803F5C0639BB21B019BB294
:101940001A46052102F072F8244B1B680133234A22
:101950001360214B1B6801331F4A13601E4B1B6829
:101960001F2BE3D9202200211D4860F07DFE234972
:101970001B4860F027FD1A491B4860F0A8FF1A4871
:10198000FEF70EFD0346DBB2194645F6C01002F025
:1019900083F91548FEF704FD03469AB2C82312499D
:1019A00012480EF01BFB052002F02EF9104B00220E
:1019B0001A80104B05221A700F4B00221A700C4B24
:1019C0001B88B3F5847F64D1044B00221A60024B5C
:1019D00000221A602CE000BF14090024180900241A
:1019E00068050024A063060864060024C84A002491
:1019F000900900242909002414000024B463060877
:101A0000A74B1B6898B2A74B1B6803F5C0639BB23A
:101A10001B019BB21A46062102F008F8A14B1B6875
:101A20000133A04A13609E4B1B6801339C4A13602C
:101A30009B4B1B681F2BE3D9202200219A4860F0A2
:101A400013FE9A49984860F0BDFC9749984860F0A9
:101A50003EFF9748FEF7A4FC0346DBB2194645F665
:101A6000C01002F019F99248FEF79AFC03469AB2A8
:101A7000C8238F498F480EF0B1FA052002F0C4F850
:101A80008D4B00221A808D4B05221A708C4B002240
:101A90001A70894B1B8840F20B1293420DD1894B6F
:101AA0001A68894B1B6800931346052287498848AA
:101AB00002F0E0FD804B00221A807F4B1B88B3F5BB
:101AC000907F5FD37C4B1B88B3F5937F5AD2814BB9
:101AD00001221A70784B1B88DBB2203BDAB27E4BB6
:101AE0001A707D4B1B7819467C4A0B46DB005B1A4B
:101AF00013441A78754B1A70774B1B781946774A3E
:101B00000B46DB005B1A134401331A786F4B5A7093
:101B1000714B1B781946714A0B46DB005B1A134464
:101B200002331A78694B9A706B4B1B7819466B4AD3
:101B30000B46DB005B1A134403331A78634BDA70ED
:101B4000654B1B781946654A0B46DB005B1A13444C
:101B500004331A785D4B1A715F4B1B7819465F4A44
:101B60000B46DB005B1A134405331A78574B5A7146
:101B7000514B1B88DBB21F3BDAB2574B1A704E4BEE
:101B800000221A804C4B1B88B3F5A05F5ED94A4BEC
:101B90001B8841F20642934258D84E4B01221A70DC
:101BA000454B1B88DBB2013BDAB24B4B1A704A4BF8
:101BB0001B781946494A0B46DB005B1A13441A7816
:101BC000424B1A70444B1B781946444A0B46DB00C3
:101BD0005B1A134401331A783C4B5A703E4B1B7806
:101BE00019463E4A0B46DB005B1A134402331A784F
:101BF000364B9A70384B1B781946384A0B46DB0037
:101C00005B1A134403331A78304BDA70324B1B786B
:101C10001946324A0B46DB005B1A134404331A7828
:101C20002A4B1A712C4B1B7819462C4A0B46DB00A9
:101C30005B1A134405331A78244B5A711E4B1B88C8
:101C4000DAB2254B1A701C4B00221A801A4B1B88E3
:101C500041F21142934240F01C81214B00221A8034
:101C600020220021104860F0FFFC1E4B1B681B0E59
:101C7000DAB21D4B1A701B4B1B681B0CDAB21B4BE4
:101C80001A70184B1B681B0ADAB2194B1A70154BE5
:101C90001B68DAB2174B1A70164B1B7819462BE0EB
:101CA000140900241809002468050024C8630608E4
:101CB00064060024C84A002490090024290900244D
:101CC00014000024040000240000002478070024ED
:101CD000A04900242A0900241F09002480070024A9
:101CE00016000024001B0024041B0024051B0024F4
:101CF000061B0024071B0024A74B1B781846A74B84
:101D00001B781A46A64B1B780193009203460A469D
:101D1000A449A54860F056FBA349A44860F0D7FD4C
:101D2000A148FEF73DFB0346DBB2194648F24030BE
:101D300001F0B2FF9C48FEF733FB03469AB26423DE
:101D40009A499B480EF04AF920220021964860F0FB
:101D50008BFC984B1B681946934860F033FB924903
:101D6000924860F0B4FD9048FEF71AFB0346DBB2E0
:101D700019464FF4034001F08FFF8B48FEF710FB2C
:101D800003469AB26423894989480EF027F9202234
:101D90000021854860F068FC874BDB68BB60BB684E
:101DA0001B0EFB71BB681B0CBB71BB681B0A7B71F4
:101DB000BB683B7139797879BB79FA7901920093E4
:101DC00003460A467749784860F0FCFA7649774836
:101DD00060F07DFD7448FEF7E3FA0346DBB2194676
:101DE0004FF4044001F058FF6F48FEF7D9FA03465C
:101DF0009AB264236D496E480EF0F0F8202200215B
:101E0000694860F031FC6D49674860F0DBFA66496B
:101E1000664860F05CFD6448FEF7C2FA0346DBB238
:101E2000194648F2803001F037FF5F48FEF7B8FAF4
:101E300003469AB264235D495D480EF0CFF8202234
:101E40000021594860F010FC5D49574860F0BAFA2B
:101E50005549564860F03BFD5348FEF7A1FA03464A
:101E6000DBB2194648F2C03001F016FF4E48FEF7CB
:101E700097FA03469AB264234C494D480EF0AEF8E7
:101E80000F2001F0C1FE4F4B0F221A704E4B002263
:101E90001A804D4B1B8841F21152934211D04A4B8C
:101EA0001B8841F2125293420BD0474B1B8841F2E0
:101EB0001162934205D0444B1B8841F21262934257
:101EC0000BD1424B00221A800E2001F09DFE3D4BAB
:101ED0000E221A703C4B00221A803B4B1B8841F2A9
:101EE0001352934205D0384B1B8841F2145293424F
:101EF0000BD1364B00221A80102001F085FE314BA9
:101F000010221A70304B00221A802F4B1B8841F28E
:101F10001362934205D02C4B1B8841F2146293420A
:101F20000BD12A4B00221A800F2001F06DFE254BA9
:101F30000F221A70244B00221A80234B1B8840F278
:101F4000025293420BD1214B00221A80012001F052
:101F50005BFE1C4B01221A701B4B00221A80194B8E
:101F60001B78042B40F09880174B1B8840F20B42E3
:101F7000934231D1164B1B78002B00F08980144B13
:101F80001B78013BDAB2124B1A70114B1B781A46C0
:101F9000104B002199547BE0061B0024051B0024F4
:101FA000041B0024DC630608680500246406002482
:101FB000C84A00242C00002454410024E863060889
:101FC000F063060829090024900900241600002463
:101FD000A1090024980900244FF0FF33FB601D4B3A
:101FE0001B88A3F20143092B36D801A252F823F033
:101FF000192000081F200008252000082B200008B9
:1020000031200008372000083D2000084320000848
:10201000492000084F2000080123FB601DE0022337
:10202000FB601AE00323FB6017E00423FB6014E06D
:102030000523FB6011E00623FB600EE00723FB6035
:102040000BE00823FB6008E00923FB6005E00023A8
:10205000FB6002E09009002400BFFB68002B17DB47
:10206000B04B1B78072B13D8FB68DAB2AD4B1B784B
:10207000591CC8B2AB490870194602F13003DAB2F4
:10208000A94B5A54A74B1B781A46A74B00219954C9
:10209000A549A64860F0E8F8A54B1B8840F213421A
:1020A00093420BD1A34B00221A80012001F0ACFD1A
:1020B000A14B01221A709E4B00221A809C4B1B8858
:1020C00040F2144293420BD19A4B00221A80012015
:1020D00001F09AFD984B01221A70954B00221A804C
:1020E000934B1B8840F20132934208D10E2001F03D
:1020F0008BFD8F4B00221A808F4B0E221A708C4B57
:102100001B8840F20232934208D1032001F07CFD8B
:10211000874B00221A80884B03221A70844B1B883D
:1021200040F20332934208D1032001F06DFD804B51
:1021300000221A80804B03221A707D4B1B8840F2CC
:102140000152934208D10E2001F05EFD784B00222F
:102150001A80794B0E221A70754B1B8840F202527E
:10216000934205D1052001F04FFD714B00221A80EA
:102170006F4B1B8840F20352934205D1052001F0BA
:1021800043FD6B4B00221A80694B1B8841F21242BF
:1021900093420BD1012001F037FD654B00221A80DC
:1021A000654B01221A70634B00221A80624B1B7828
:1021B000062B00F0F780614B1B78012B40F0F2807A
:1021C0005F4B1B7819465F4860F04EF820220021D3
:1021D0005D4860F049FA5D4B1B681A465C495A48F5
:1021E00060F0F0F858495B4860F071FB5948FEF721
:1021F000D7F80346DBB219464FF4EA4001F04CFD34
:102200005448FEF7CDF803469AB264235149524828
:102210000DF0E4FE202200214B4860F025FA4F4BE0
:102220001B681A464A49484860F0CCF84649494874
:1022300060F04DFB4748FEF7B3F80346DBB21946A2
:1022400047F2105001F028FD4248FEF7A9F8034676
:102250009AB264233F4940480DF0C0FE202200217D
:10226000394860F001FA364B1B781A463C4936482B
:1022700060F0A8F83449374860F029FB3548FEF78C
:102280008FF80346DBB2194647F2205001F004FDF7
:102290003048FEF785F803469AB264232D492E484C
:1022A0000DF09CFE20220021274860F0DDF92D4A28
:1022B0002749254860F086F82349264860F007FB47
:1022C0002448FEF76DF80346DBB2194647F230505A
:1022D00001F0E2FC1F48FEF763F803469AB264235C
:1022E0001C491D480DF07AFE40220021164860F07E
:1022F000BBF9134B1B78013B322202FB03F31A4A52
:102300001A44184B1949104860F05CF80E491148FE
:1023100060F0DDFA0F48FEF743F80346DBB21946DA
:1023200026E000BFA109002498090024F8630608EC
:102330009009002416000024290900242A090024F9
:102340001F0900240864060868050024040000240E
:102350004864060864060024C84A002400000024DB
:102360004C64060878070024B4070024506406086B
:102370004FF4EC4001F090FCB248FEF711F8034630
:102380009AB26423AF49B0480DF028FE062001F050
:102390003BFCAE4B00221A80AD4B00221A80AD4BA5
:1023A00006221A70AB4B1B78062B0AD1AA4B1B785E
:1023B000012B06D1A54B1B8845F20611184601F0EA
:1023C00047FCA44B1B78012B04D145F20811642073
:1023D00001F03EFC9E4B1B8840F20162934203D009
:1023E0009A4B1B88642B0BD90E2001F00DFC984BE7
:1023F00000221A80974B0E221A70974B00221A70F7
:10240000934B1B8840F2026293421DD1934B1B7881
:102410001946934B1A68934B1B68009313460A4660
:102420009149924802F026F90E2001F0EDFB884B0D
:1024300000221A80874B0E221A70874B00221A70D6
:10244000824B4FF47A721A80894B1B8801339AB2FF
:10245000874B1A80864B1B88052B08D97B4B1B8822
:1024600001339AB2794B1A80814B00221A80814B3A
:102470001B780A2B40F21D867F4B1B780133DAB2A2
:102480007D4B1A707D4B1B780133DAB27B4B1A708F
:10249000784B00221A70784B1B78122B00F2ED85D6
:1024A00001A252F823F000BFF5240008052500081A
:1024B00083300008833000086D250008FF250008E0
:1024C000A5260008EB260008512700089D270008D4
:1024D00021280008F32B00088D2C0008AF2E0008DF
:1024E000F32E0008252F0008692F0008992F0008F7
:1024F000B12F00080E2001F087FB564B00221A7006
:1025000000F0D7BD5E4B1B6842F21072934205D9B2
:102510004FF4A241002001F09BFB04E04FF4A241E4
:10252000012001F095FB574B1B68002B05D145F2AC
:102530000211022001F08CFB04E045F2021103209D
:1025400001F086FB4E4B1B6842F21072934206D993
:1025500045F20411042001F07BFB00F0AABD45F216
:102560000411052001F074FB00F0A3BD202200211E
:10257000454860F079F8434B1B681B0EDAB2434BB9
:102580001A70404B1B681B0CDAB2414B1A703D4B62
:102590001B681B0ADAB23F4B1A703A4B1B68DAB25F
:1025A0003D4B1A703C4B1B7819463A4B1B7818462A
:1025B000374B1B781A46354B1B7801930092034624
:1025C0000A46364930485FF0FDFE2F491D4860F04D
:1025D0007EF92D48FDF7E4FE0346DBB219464FF4C1
:1025E000D14001F059FB2848FDF7DAFE03469AB2C4
:1025F0006423144914480DF0F1FC00F05ABD202268
:102600000021214860F030F825491F485FF0DAFECC
:102610001D490C4860F05BF91B48FDF7C1FE0346FD
:10262000DBB2194646F6C00001F036FB1648FDF74E
:10263000B7FE03469AB26423024903480DF0CEFC6C
:1026400000F037BD64060024C84A002416000024A8
:1026500090090024290900242A0900241F090024C4
:10266000040000240000002478070024A04900246E
:102670006E0700246C070024140000246D0700245A
:1026800018000024001B002468050024041B0024FB
:10269000051B0024061B0024071B0024DC6306081E
:1026A00064640608202200214F485FF0DDFF4F4997
:1026B0004D485FF087FE4C494D4860F008F94A48A4
:1026C000FDF76EFE0346DBB219464FF4D24001F02F
:1026D000E3FA4548FDF764FE03469AB26423444991
:1026E00044480DF07BFC00F0E4BC434B1B68434ABC
:1026F0001360434B1B68434A1360434B1B68434AB8
:1027000013602022002138485FF0AEFF3D4B1A686D
:102710003E4B1B683E4934485FF054FE3249344812
:1027200060F0D5F83048FDF73BFE0346DBB21946B2
:1027300047F2200001F0B0FA2B48FDF731FE0346C6
:102740009AB264232A492B480DF048FC00F0B1BC32
:102750002022002124485FF087FF2E4B1B681A4679
:102760002D4921485FF02EFE1F49214860F0AFF847
:102770001D48FDF715FE0346DBB2194647F270000F
:1027800001F08AFA1848FDF70BFE03469AB264235B
:10279000174918480DF022FC00F08BBC20220021C4
:1027A00011485FF061FF1D4B1B681A461A490E481D
:1027B0005FF008FE0C490E4860F089F80A48FDF702
:1027C000EFFD0346DBB2194647F2600001F064FA00
:1027D0000548FDF7E5FD03469AB264230449054820
:1027E0000DF0FCFB00F065BC68050024846406085D
:1027F00064060024C84A002400E8F11F6007002492
:1028000004E8F11F6407002408E8F11F68070024AA
:102810008C64060800000024986406080400002464
:1028200020220021BA485FF01FFFBA4B1B78BA4A3A
:10283000BA49B7485FF0C6FDB549B94860F047F8F6
:10284000B348FDF7ADFD0346DBB219464FF4E14056
:1028500001F022FAAE48FDF7A3FD03469AB26423C5
:10286000AF49B0480DF0BAFB20220021A8485FF024
:10287000FBFEAD4AAD49A6485FF0A4FDA449A848B7
:1028800060F025F8A248FDF78BFD0346DBB2194640
:102890004FF4E44001F000FA9D48FDF781FD034646
:1028A0009AB264239E499F480DF098FB2022002194
:1028B00097485FF0D9FE9E4A9C4995485FF082FD9B
:1028C0009349974860F003F89148FDF769FD034686
:1028D000DBB2194647F2102001F0DEF98C48FDF713
:1028E0005FFD03469AB264238D498E480DF076FB56
:1028F0002022002186485FF0B7FE8E4A8B4984482B
:102900005FF060FD824986485FF0E1FF8048FDF797
:1029100047FD0346DBB2194647F2202001F0BCF91F
:102920007B48FDF73DFD03469AB264237C497D4810
:102930000DF054FB2022002175485FF095FE7E4A81
:102940007A4973485FF03EFD714975485FF0BFFFFB
:102950006F48FDF725FD0346DBB2194647F23020EC
:1029600001F09AF96A48FDF71BFD03469AB2642309
:102970006B496C480DF032FB2022002164485FF067
:1029800073FE6E4A694962485FF01CFD6049644805
:102990005FF09DFF5E48FDF703FD0346DBB219467D
:1029A00047F2402001F078F95948FDF7F9FC034659
:1029B0009AB264235A495B480DF010FB2022002193
:1029C00053485FF051FE5E4A584951485FF0FAFCA7
:1029D0004F4953485FF07BFF4D48FDF7E1FC03464C
:1029E000DBB2194647F2502001F056F94848FDF78E
:1029F000D7FC03469AB2642349494A480DF0EEFADF
:102A00002022002142485FF02FFE4E4B1B881A46C1
:102A10004D493F485FF0D6FC3D4941485FF057FFC4
:102A20003B48FDF7BDFC0346DBB219464FF4E640D8
:102A300001F032F93648FDF7B3FC03469AB264233D
:102A4000374938480DF0CAFA2022002130485FF09B
:102A50000BFE3C4B5B881A463B492D485FF0B2FCAD
:102A60002B492F485FF033FF2948FDF799FC0346B7
:102A7000DBB2194647F2103001F00EF92448FDF799
:102A80008FFC03469AB26423254926480DF0A6FA26
:102A9000202200211E485FF0E7FD2A4B9B881A4642
:102AA00029491B485FF08EFC19491D485FF00FFF54
:102AB0001748FDF775FC0346DBB2194647F2203094
:102AC00001F0EAF81248FDF76BFC03469AB2642362
:102AD000134914480DF082FA202200210C485FF0BF
:102AE000C3FD184BDB881A46174909485FF06AFC9A
:102AF00007490B485FF0EBFE0548FDF751FC034624
:102B0000DBB2194647F2303001F0C6F81EE000BFD4
:102B1000680500241F090024780700249C64060827
:102B200064060024C84A002480070024486406087C
:102B3000870700248E070024950700249C070024A3
:102B4000A3070024A84100244C6406084948FDF767
:102B500027FC03469AB26423474948480DF03EFAE1
:102B60002022002143485FF07FFD454B1B891A4618
:102B7000444940485FF026FC3E493F485FF0A7FECD
:102B80003C48FDF70DFC0346DBB2194647F24030E6
:102B900001F082F83748FDF703FC03469AB264233C
:102BA000354936480DF01AFA2022002131485FF0ED
:102BB0005BFD334B5B891A4632492E485FF002FCBD
:102BC0002C492D485FF083FE2A48FDF7E9FB0346B8
:102BD000DBB2194647F2503001F05EF82548FDF7A8
:102BE000DFFB03469AB26423234924480DF0F6F92B
:102BF0005FE2202200211F485FF036FD204B1B883A
:102C0000C3F120041E4B5B88C3F120051C4B9B883D
:102C1000C3F120031A4AD288C2F120021849098957
:102C2000C1F1200116484089C0F1200003900291B3
:102C3000019200932B46224613490E485FF0C2FBD7
:102C40000C490D485FF043FE0A48FDF7A9FB034617
:102C5000DBB2194647F2900001F01EF80548FDF777
:102C60009FFB03469AB26423034904480DF0B6F96A
:102C70001FE200BF6805002464060024C84A00243F
:102C8000A84100244C640608A46406082022002100
:102C9000B8485FF0E9FCB84B1B881C46B64B5B8814
:102CA0001D46B54B9B881A46B34BDB881946B24B81
:102CB0001B891846B04B5B890393029001910092E7
:102CC0002B462246AD49AB485FF07CFBA949AC4896
:102CD0005FF0FDFDA748FDF763FB0346DBB2194635
:102CE00047F2A00000F0D8FFA248FDF759FB0346C9
:102CF0009AB26423A249A3480DF070F92022002162
:102D00009C485FF0B1FC9C4B1B881A469E49994831
:102D10005FF058FB97499A485FF0D9FD9548FDF759
:102D20003FFB0346DBB219464FF4E64000F0B4FF28
:102D30009048FDF735FB03469AB2642390499148C9
:102D40000DF04CF9202200218A485FF08DFC8A4B5F
:102D50005B881A468C4987485FF034FB8549884870
:102D60005FF0B5FD8348FDF71BFB0346DBB2194658
:102D700047F2103000F090FF7E48FDF711FB03464C
:102D80009AB264237E497F480DF028F92022002161
:102D900078485FF069FC784B9B881A467A497548F9
:102DA0005FF010FB734976485FF091FD7148FDF7C5
:102DB000F7FA0346DBB2194647F2203000F06CFF09
:102DC0006C48FDF7EDFA03469AB264236C496D48EE
:102DD0000DF004F92022002166485FF045FC664BA7
:102DE000DB881A46684963485FF0ECFA6149644839
:102DF0005FF06DFD5F48FDF7D3FA0346DBB219467D
:102E000047F2303000F048FF5A48FDF7C9FA034650
:102E10009AB264235A495B480DF0E0F82022002161
:102E200054485FF021FC544B1B891A4656495148BF
:102E30005FF0C8FA4F4952485FF049FD4D48FDF731
:102E4000AFFA0346DBB2194647F2403000F024FFE8
:102E50004848FDF7A5FA03469AB264234849494811
:102E60000DF0BCF82022002142485FF0FDFB424BF0
:102E70005B891A4644493F485FF0A4FA3D494048FF
:102E80005FF025FD3B48FDF78BFA0346DBB21946A0
:102E900047F2503000F000FF3648FDF781FA034654
:102EA0009AB26423364937480DF098F801E12022A0
:102EB000002130485FF0D8FB34492E485FF082FA99
:102EC0002C492F485FF003FD2A48FDF769FA0346B5
:102ED000DBB2194646F6400000F0DEFE2548FDF75D
:102EE0005FFA03469AB26423254926480DF076F826
:102EF000DFE0202200211F485FF0B6FB24491D4877
:102F00005FF060FA1B491E485FF0E1FC092146F6BC
:102F1000401000F0C1FE64230922194919480DF040
:102F20005DF8C6E02022002112485FF09DFB1949A0
:102F300010485FF047FA0F4911485FF0C8FC10488D
:102F4000FDF72EFA0346DBB219464FF4D34000F0EA
:102F5000A3FE0B48FDF724FA03469AB264230849FE
:102F600008480DF03BF8A4E04FF4781002F02CFD77
:102F70009FE000BF68050024A8410024A46406085F
:102F800064060024C84A00244C640608B864060895
:102F9000C4640608D06406083B4B1B78132B03D887
:102FA0000E2000F031FE84E0374B16221A7080E0CC
:102FB00001F0AEFE0346002B3ED001F02DFF03468C
:102FC000002B18D031485FF0BFF920220021304893
:102FD0005FF04AFB2F4A20212D485FF0BDF91021F8
:102FE0004FF4D24000F058FE6423202228492A489A
:102FF0000CF0F4FF5CE001F00FFF034683F00103E7
:10300000DBB2002B54D025485FF02EF9202200219E
:103010001F485FF029FB224A20211D485FF09CF9E0
:1030200010214FF4D24000F037FE642320221849CB
:1030300019480CF0D3FF3BE001F06AFE034683F031
:103040000103DBB2002B33D016485FF00DF92022CC
:1030500000210F485FF008FB134A20210C485FF065
:103060007BF910214FF4D24000F016FE6423202299
:10307000074909480CF0B2FF1AE00C4B00221A7005
:1030800017E000BF15E000BF6D070024D8640608F4
:10309000A4090024F8640608C84A00240465060848
:1030A000206506082C6506086065060814000024E3
:1030B00000BFAB48FDF774F90346DAB2A94B1A70AA
:1030C000A74B1B78152B06D0A64B1B78013BA44AB7
:1030D000D35C152B28D1A44B15221A70A24B0022C9
:1030E0005A70A148FEF76AFA00F046FD9F4B002295
:1030F0001A709F4B00221A709E4B00221A709E4B32
:1031000000221A709D4B00221A709D4B00221A70EB
:103110009C4B00221A709C4B00221A709B4B002281
:103120001A709B4B00221A708D4B1B78042B0ED00B
:103130008B4B5B78042B0AD0894B9B78042B06D0F1
:10314000884B1B78013B864AD35C042B53D18E4BB2
:103150001B78002B18D1864B1B78002B14D1884B81
:103160001B78002B10D1844B1B78002B0CD1884B83
:103170001B78002B08D17C4B04221A707A4B00225A
:103180005A707948FEF71AFA794B1B78012B05D152
:10319000764B01221A70764B00221A707C4B1B78FA
:1031A000012B05D1794B01221A70794B00221A703C
:1031B000714B1B78012B05D16E4B01221A706E4B9F
:1031C00000221A706E4B1B78012B05D16B4B01222C
:1031D0001A706B4B00221A706B4B1B78002B05D0BA
:1031E000684B01221A70684B00221A70694B00224A
:1031F0001A6000F0C1FC5F4B1B78012B29D15A4BA0
:1032000002221A70584B30225A70574B38229A704B
:10321000554B3222DA70544B35221A71524B3422FC
:103220005A71514B37229A714F4B0322DA714E4B30
:103230000F221A724FF0FF3309224B4956480CF007
:10324000CDFE00F099FC4C4B00221A70494B002235
:103250001A704A4B1B78012B4AD1434B02221A7039
:10326000414B55225A70404B4E229A703E4B492298
:10327000DA703D4B54221A713B4B45225A713A4B3E
:1032800043229A71384B2022DA71374B20221A726E
:10329000354B50225A72344B4F229A72324B532282
:1032A000DA72314B34221A732F4B30225A732E4B61
:1032B00030229A732C4B3022DA732B4B30221A7443
:1032C000294B20225A74284B03229A74264B6B22D6
:1032D000DA744FF0FF33142223492F480CF07EFE9E
:1032E00000F04AFC264B00221A70244B00221A7070
:1032F0001E4B1B78012B2ED11B4B02221A701A4B2E
:1033000000225A704FF0FF330122174922480CF077
:1033100065FE154B00221A70134B00225A704FF0B5
:10332000FF33022210491C480CF058FE0E4B0322BA
:103330001A700D4B03225A704FF0FF3302220A49D4
:1033400015480CF04BFE00F017FC094B00221A70D8
:10335000064B00221A700D4B1B78012B4DD11DE03E
:10336000CC260024280900242C090024210900244B
:10337000200900242309002422090024250900240F
:10338000240900241D0900241C0900242709002405
:1033900026090024180000245C4B0024774B0222ED
:1033A0001A70764B00225A704FF0FF330122734996
:1033B00073480CF013FE714B00221A706F4B002201
:1033C0005A704FF0FF3302226C496D480CF006FE34
:1033D0006A4B03221A70694B03225A704FF0FF3375
:1033E0000222664966480CF0F9FD00F0C5FB654B0A
:1033F00000221A70644B00221A70644B1B78002B59
:1034000000F077815D4B02221A704FF0FF330122EA
:103410005A495B480CF0E2FD5D4B1B78013B052BE4
:103420003AD801A252F823F0413400084F34000882
:103430005F3400086D3400087B34000889340008CC
:10344000544B554A1A60554B01221A702BE0514BD0
:103450004FF47D121A60514B02221A7023E04D4B3B
:103460004F4A1A604D4B03221A701CE0494B4D4ADB
:103470001A604A4B04221A7015E0464B4A4A1A60F9
:10348000464B05221A700EE0424B4FF47E121A6032
:10349000424B06221A7006E03E4B3F4A1A603F4BF1
:1034A00001221A7000BF3B4B1968394B1B78013B56
:1034B0003E4A32F813301A463D4802F062FC344B63
:1034C0001B785A1E1346DB009B1A3A4A9818314B58
:1034D00019682F4B1B78013B344A32F813301A46D7
:1034E00002F04FFC2B4B1968294B1B78013B2F4AEC
:1034F00032F813301A46304802F043FC2C4B1A784D
:103500001E4B1A702A4B5A781C4B5A70284B9A78CB
:103510001A4B9A70264BDA78184BDA70244B1A79CA
:10352000164B1A71224B5A79144B5A71134B2022A5
:103530009A71124B2022DA71104B20221A720F4B13
:1035400020225A720D4B30229A720C4B3122DA72C1
:103550000A4B30221A73094B30225A73074B302220
:103560009A73064B0322DA73044B00221A74034B3E
:1035700000225A74114B00221A6030E02C090024FA
:103580005C4B002426090024270900241D0900247F
:103590001E0900249409002400303F00A2090024E1
:1035A00000503F0000603F0000703F00A841002431
:1035B00070070024800700247807002414090024E1
:1035C000AE4B1A7CAE4B1B68AC49CB5C5340DAB2B5
:1035D000AA4B1A74AA4B1B680133A94A1360A84B63
:1035E0001B680F2BECD94FF0FF331122A349A548DC
:1035F0000CF0F4FC00F0C0FAA34B1B88A34AA449CA
:10360000184602F04BFCA34B1B78013BA24A32F850
:1036100013309E4A9E49184602F040FC9A4B1B8884
:1036200001339AB2984B1A809A4B1B78013B9A4A05
:1036300032F81320013291B2974A22F81310002178
:10364000002002F0BBFB934B1B781946914B1B7873
:10365000013B914A32F8133018468E4B1B78013BE0
:103660008D4A32F81330C3F1200300930346884A91
:103670008A485EF0F9FD8A4B00221A70894B0022BD
:103680001A70844B00221A70834B1B88013B1A4628
:103690008549864802F075FB7F4B5B88013B1A46E3
:1036A0004FF47D11824802F06CFB7B4B9B88013B01
:1036B0001A468049804802F064FB774BDB88013B67
:1036C0001A467E497E4802F05CFB734B1B89013B26
:1036D0001A467C497C4802F054FB6F4B5B89013BE6
:1036E0001A464FF47E11794802F04BFB784B0122C9
:1036F0001A70784B1B78102B12D1764B5B78302BDD
:1037000003D0744B5B78312B0AD15C4B04221A70C6
:103710005A4B00225A705948FDF750FF00F02CFA1E
:103720006D496C485FF036F80346002B13D0534BBD
:1037300010221A70514B30225A70504B00229A704E
:103740004E48FDF73BFF00F017FA644B01221A7058
:10375000634B00221A7063495E485FF01BF8034612
:10376000002B13D0454B10221A70444B30225A7054
:10377000424B00229A704148FDF720FF00F0FCF90F
:10378000594B01221A70594B00221A70584951485E
:103790005FF000F80346002B13D0384B10221A704C
:1037A000364B30225A70354B00229A703348FDF761
:1037B00005FF00F0E1F94F4B01221A704E4B002239
:1037C0001A704E4943485EF0E5FF0346002B13D0C4
:1037D0002A4B10221A70294B30225A70274B002294
:1037E0009A702648FDF7EAFE00F0C6F9444B012224
:1037F0001A70444B00221A70434936485EF0CAFFE3
:103800000346002B0BD0264B01221A70254B0122B8
:103810001A70204B01221A703C4B01221A703C494D
:103820002C485EF0B7FF0346002B0BD01C4B022246
:103830001A701C4B02221A70164B02221A70334B5C
:1038400002221A70334923485EF0A4FF0346002B7E
:103850000BD0134B03221A70124B03221A700D4B1C
:1038600003221A70294B03221A702B4919485EF063
:1038700091FF0346002B5DD050E000BF2C090024CF
:10388000140900245C4B0024984100241C000024EF
:10389000700700241E090024A84100246C65060856
:1038A0001C0900241D09002400303F00800700246B
:1038B0008707002400503F008E07002400603F006F
:1038C0009507002400703F009C070024A3070024F4
:1038D0002A090024CC260024AC6506082609002409
:1038E00027090024B06506082009002421090024C6
:1038F000B46506082209002423090024B8650608D7
:103900002409002425090024BC6506081F09002499
:10391000C0650608C8650608D0650608394B04224C
:103920001A70394B04221A70384B04221A70384B23
:1039300004221A70374938485EF02CFF0346002BEA
:103940000BD0304B05221A702F4B05221A702F4BCB
:1039500005221A702E4B05221A7030492E485EF04F
:1039600019FF0346002B0BD0264B06221A70264B5C
:1039700006221A70254B06221A70254B06221A7051
:10398000274925485EF006FF0346002B0BD01D4B50
:1039900007221A701C4B07221A701C4B07221A7040
:1039A0001B4B07221A701F491B485EF0F3FE0346AB
:1039B000002B0BD0134B08221A70134B08221A70DD
:1039C000124B08221A70124B08221A700E4B1B78E9
:1039D000002B10D0144B10221A70134B30225A7047
:1039E000114B00229A701048FDF7E8FD00F0C4F872
:1039F000054B00221A700A2011F0AAFA00BF1037F6
:103A0000BD46B0BD1C0900241D0900241E09002468
:103A10001F090024D8650608CC260024E0650608A6
:103A2000EC650608F86506082C09002490B583B0FB
:103A300000AF0346FB800B46BB8013467B80BB88F0
:103A4000012B05D1FB881A463149324802F099F919
:103A5000BB88022B06D1FB881A464FF47D112D48F6
:103A600002F08FF9BB88032B05D1FB881A462A493F
:103A7000284802F086F9BB88042B05D1FB881A463A
:103A80002649244802F07DF9BB88052B05D1FB8827
:103A90001A4623491F4802F074F9BB88062B06D149
:103AA000FB881A464FF47E111A4802F06AF9202268
:103AB00000211C485EF0D8FDFB8801331A4A1288A9
:103AC0009A1A144B194917485EF07CFC154918489E
:103AD0005EF0FDFE7C881348FCF762FC0346DBB217
:103AE0001946204600F0D8F80E48FCF759FC03466A
:103AF0009AB24FF496730E490E480CF06FFA2022DA
:103B0000002108485EF0B0FD00BF0C37BD4690BDF7
:103B100000303F007007002400503F0000603F006D
:103B200000703F00680500249841002404660608E0
:103B300064060024C84A002480B483B000AF0C4B54
:103B400000221A8000237B6007E00A4A7B68134446
:103B500000221A707B6801337B607B68962BF4DD52
:103B600000BF00BF0C37BD465DF8047B704700BF47
:103B7000922800243426002480B483B000AF0C4B7C
:103B800000221A8000237B6007E00A4A7B68134406
:103B900000221A707B6801337B607B68962BF4DD12
:103BA00000BF00BF0C37BD465DF8047B704700BF07
:103BB00094280024CC26002480B582B000AF786021
:103BC00039603B689AB24FF49673796803480CF0F9
:103BD00005FA00BF0837BD4680BD00BFC84A0024B3
:103BE00080B584B000AF074A3B1D07CA03C31A80E3
:103BF0003B1D0A211846FFF7DFFF00BF1037BD4607
:103C000080BD00BF1466060880B586B000AF0346CD
:103C1000FB715A233B73A5237B730723BB7382235A
:103C2000FB7300233B7484237B745A23BB740123EE
:103C3000FB7400233B75FB797B7507F10C030A21AC
:103C40001846FFF7B9FF00BF1837BD4680BD00001A
:103C500080B584B000AF786039600E4BBB60002344
:103C6000FB603B681B0ADBB23B733B68DBB27B73D8
:103C70007B681B0ADBB2BB737B68DBB2FB7307F1AB
:103C8000080308211846FFF797FF00BF1037BD460D
:103C900080BD00BF5AA5058280B586B000AF7860B0
:103CA0000B46FB705A233B73A5237B73FB780333CE
:103CB000DBB2BB738223FB737B681B0ADBB23B74F2
:103CC0007B68DBB27B740023BB7407F10C03062115
:103CD0001846FFF771FF07F10C030A22002118466E
:103CE0005EF0C2FC00BF1837BD4680BD80B586B00F
:103CF00002AFF860B9607A603B60BB6900933B68D3
:103D00007A680549F8685EF07FFAF8685EF0C4F9F1
:103D100000BF1037BD4680BDA866060880B500AF5D
:103D20004B4B1B7883F00103DBB2002B02D000F079
:103D3000B7F83AE0474B1B78002B36D0464B1B6850
:103D4000464A1168464A1268184601F08DF8414B00
:103D50001B78002B0FD0434B1B7883F00103DBB2A1
:103D6000002B08D040485EF0EFFA404B1B68184625
:103D700001F0EAFD02E03E485EF0E6FA3D4B1B88AA
:103D8000DBB2C3F12003DAB23B4B1A70344B1B6831
:103D900019463A485EF068FA374B1B781A46304BA2
:103DA0001B681946104601F079F9354B5B89013BD8
:103DB000344A5289934205DC264B01221A70284B63
:103DC000314A1A602E4B1B89013B2E4A12899342BD
:103DD00005DC204B01221A70214B2C4A1A60284B1B
:103DE000DB88013B274AD288934205DC194B01222C
:103DF0001A701B4B264A1A60214B9B88013B214AB3
:103E00009288934205DC134B01221A70144B214A0D
:103E10001A601B4B5B88013B1A4A5288934205DCAF
:103E20000C4B01221A700E4B1B4A1A60144B1B8854
:103E3000013B144A1288934205DC064B01221A709A
:103E4000074B164A1A604FF4FA7011F081F867E7D1
:103E5000081B00240A1B002438000024340000241E
:103E60001000002488240024C866060800000024EE
:103E7000FC66060898410024091B002434670608E4
:103E80009C410024A8410024586706085C67060886
:103E90006067060864670608686706086C670608B6
:103EA00090B5A1B002AF01237B6799485EF0DCF9C1
:103EB000984B1B689B6818465EF0EEF896483AF0FF
:103EC0001DFF964B1C68954B1B681846FCF768FA5B
:103ED000034600932346904A9149924831F08CFC66
:103EE00078677B6F002B07D0796F8F485EF0BCF945
:103EF0008E4B01221A70F5E08D485EF025FA8D4B4D
:103F00005B68002B07D08B4B9B68002B03D0894B41
:103F1000DB68002B11D14FF47A7011F019F8864B41
:103F20001B780133DAB2844B1A70834B1B78092B50
:103F300073D982485EF008FA71E081485EF004FAB5
:103F40007C4B5B687F4A13607E4B1B681B0EDAB2AA
:103F50007D4B1A707B4B1B681B0CDAB27B4B1A70C3
:103F6000784B1B681B0ADAB2794B1A70754B1B68C9
:103F7000DAB2784B1A70774B1B781946744B1B7862
:103F80001A46724B1B7818466F4B1B7800930346FA
:103F900071485EF069F9674B9B683B673B6F1B0E8E
:103FA00087F86F303B6F1B0C87F86E303B6F1B0A36
:103FB00087F86D303B6F87F86C3097F86C1097F886
:103FC0006D2097F86E0097F86F30009303466348B2
:103FD0005EF04AF9574BDB68BB66BB6E1B0E87F879
:103FE0006730BB6E1B0C87F86630BB6E1B0A87F808
:103FF0006530BB6E87F8643097F8641097F86520D9
:1040000097F8660097F867300093034654485EF0CF
:104010002BF9544B01221A7001E000BF6FE75248A0
:104020005EF022F9002300220021504859F0BCFD27
:1040300078677B6F002B0DD03B4664221946786F62
:104040003BF094F8796F4A485EF00EF9374B012245
:104050001A7047E036485EF077F90121434858F07E
:10406000FDFD00224349414858F04BFE2D4A42498C
:104070003E4858F009FE274B1B689B681A463F498B
:104080003A4858F013FE39493D4858F063FC7867C8
:104090007B6F002B07D0796F3A485EF0E5F8234B31
:1040A00001221A701EE0384B1B681946344858F03C
:1040B00069FE78677B6F002B07D0796F33485EF01D
:1040C000D3F81A4B01221A700CE000230093304BF6
:1040D000304A31492A4858F0FBFD144B1B78002B1D
:1040E00012D000BF2C4803F093F822485CF0B4FED5
:1040F000234859F0BCFC1D4859F04EFF094831F0E7
:1041000091FB05483AF020FE00BF7C37BD4690BDCC
:1041100070670608D40000241846002424000024F8
:10412000F5EF0308D44400249C670608C01C002453
:10413000CC67060854410024C11C0024D06706083F
:1041400004680608001B0024041B0024051B00242F
:10415000061B0024071B0024186806083C68060894
:1041600068680608081B002494680608D0420024EA
:10417000BC680608CC190024A95F0308ED3C0008C0
:10418000B8410024F46806082C00002420690608C1
:104190001971000895710008C409002480B5ADF5B7
:1041A000047D00AF07F50473A3F50373186007F5EA
:1041B0000473A3F5047319600123C7F80C3207F5E3
:1041C0000473A3F5047207F50473A3F5037312686F
:1041D00019683D485EF048F83C4B1B689B681846E0
:1041E0005DF05AFF07F50473A3F5047207F5047335
:1041F000A3F50371002312680968354802F0FAFE3E
:10420000C7F80C02D7F80C32002B10D007F10C03C2
:1042100064221946D7F80C023AF0A8FFD7F80C121E
:104220002C485EF021F864200FF071F9DAE700BF46
:1042300029485EF089F829485EF016F8284858F0B9
:104240000FFFC7F80C02D7F80C32002B11D007F182
:104250000C0364221946D7F80C023AF087FFD7F80E
:104260000C325B4207F10C0219461E485DF0FCFF60
:1042700002E01D485EF068F81C485DF0F5FF184844
:1042800058F0DEFD03461A4A1360194B1B68002BD9
:1042900011D018485EF058F8154B1B6807F10C0058
:1042A000154A4FF400715CF027F807F10C0318462B
:1042B0005EF04AF802E008485EF046F800BF07F5F5
:1042C0000477BD4680BD00BF54690608D4000024B1
:1042D000C409002474690608CC670608A4690608A6
:1042E000B8410024CC690608F06906080C6A060883
:1042F000C8090024346A06083C6A060880B586B0FE
:1043000000AF78600123FB600023FB7479685B4891
:104310005DF0AAFF5A4B1B685A4A126811461846AC
:10432000FFF73CFF7868FCF73BF803467B6115E03C
:10433000FB6813F5D24F0AD0FB6813F5D14F06D0B6
:10434000F96851485DF090FF0123FB747CE0FB6845
:104350007B617A6879694D485DF086FF7B691A4612
:1043600079684B4859F0F2F9F860FB68002BDFDD03
:1043700048485DF079FF484B1B689B6818465DF024
:104380008BFE0023FB724FF480537B617B691A46DE
:10439000002178685EF068F97B691A4679683C48C4
:1043A00058F088FFF860FB6813F5D24F26D0FB6801
:1043B00013F5D14F22D0FB6813F5F14F23D0FB68E2
:1043C000002B06DAF96835485DF04EFF0123FB74D7
:1043D0001AE0FB68002B03D131485DF0B5FF13E014
:1043E000FB687B617A6879692E485DF03DFFFB7A56
:1043F0000133FB722C485DF0A7FF05E000BFFB68AE
:10440000002BC0DC00E000BF214859F0D1F9FB6867
:1044100013F5D14FF8D01E4858F0E7FBF860FB6861
:10442000002B03D0F96821485DF01EFF204802F000
:10443000EFFE12F04DFD034619461E485DF014FFD5
:1044400042F2107010F084FDFB7C002B11D0184854
:1044500002F0DEFE18485CF0FFFC0D4859F007FB47
:10446000164859F099FD164831F0DCF915483AF034
:104470006BFC00BF1837BD4680BD00BF446A06080C
:104480002C000024280000245C6A0608886A0608BC
:10449000B8410024A06A0608D4000024B86A0608BF
:1044A000E46A0608EC6A0608006B06082C6B06082E
:1044B000C4090024606B0608CC190024D0420024F3
:1044C000D44400241846002480B582B002AF094BC2
:1044D0001B78002B0BD062230093074B05224FF46F
:1044E0008061064800F0C6F8024B00221A7000BF37
:1044F000BD4680BDC21C00247C6B0608A049002478
:1045000080B485B000AFF860B9601346FB71BB683A
:104510001B885A1C91B2BA6811801A46FB68134472
:10452000FA791A7000BF1437BD465DF8047B7047F6
:1045300080B584B000AFF860B9607A603B60BB685A
:104540001B881A46FB6813443A68796818465EF07F
:10455000C6F9BB681A883B689BB213449AB2BB6821
:104560001A8000BF1037BD4680BD80B58AB000AF4D
:10457000F860B9607A607868FBF712FF03467B62E7
:104580007B6A1E2B01DD1E237B627B6AC3F11E0347
:10459000BB61BB69002B00DA01335B107B61BA6938
:1045A0007B69D31A3B61BA22B968F868FFF7A8FFA4
:1045B00000233B6207E02022B968F868FFF7A0FFFC
:1045C0003B6A01333B623A6A7B699A42F3DB7B6A5E
:1045D0007A68B968F868FFF7ABFF0023FB6107E072
:1045E0002022B968F868FFF78BFFFB690133FB6194
:1045F000FA693B699A42F3DBBA22B968F868FFF7B7
:104600007FFF0A22B968F868FFF77AFF00BF2837F2
:10461000BD4680BD80B586B000AFF860B960114678
:104620001A460B46FB711346BB71FB791A46B968F3
:10463000F868FFF765FF00237B6108E0BB791A4645
:10464000B968F868FFF75CFF7B6901337B617B69C0
:104650001D2BF3DD97F820301A46B968F868FFF78C
:104660004FFF0A22B968F868FFF74AFF00BF183702
:10467000BD4680BD90B5ADF2D44D04AF07F598644A
:10468000A4F2B444206007F59860A0F5976001603B
:1046900007F59861A1F2BC410A6007F59862A2F59E
:1046A0009862136007F59863A3F20E4300221A8004
:1046B00007F1B20107F1B4031B221846FFF720FFF0
:1046C00007F1B20107F1B40340221846FFF718FFC3
:1046D00007F1B20107F1B4031B221846FFF710FFE0
:1046E00007F1B20107F1B40374221846FFF708FF7F
:1046F00007F1B20107F1B40300221846FFF700FFEB
:1047000007F1B20107F1B4031B221846FFF7F8FEC8
:1047100007F1B20107F1B4034D221846FFF7F0FE8E
:1047200007F1B20107F1B40300221846FFF7E8FED3
:1047300007F1B20107F1B4031B221846FFF7E0FEB0
:1047400007F1B20107F1B40361221846FFF7D8FE62
:1047500007F1B20107F1B40301221846FFF7D0FEBA
:1047600007F1B20107F1B400BF230093CD23DA2291
:10477000FFF750FF07F1B20107F1B4035E4A184694
:10478000FFF7F3FE07F11000D7F8D0345B4A202181
:104790005DF0E2FD07F1B20107F1B4031D221846F6
:1047A000FFF7AEFE07F1B20107F1B4036822184625
:1047B000FFF7A6FE07F1B20107F1B4033222184653
:1047C000FFF79EFE07F1B20107F1B4031D22184660
:1047D000FFF796FE07F1B20107F1B403482218462D
:1047E000FFF78EFE07F1B20107F1B403022218466B
:1047F000FFF786FE07F1B20107F1B4031D22184648
:10480000FFF77EFE07F1B20107F1B40366221846F6
:10481000FFF776FE07F1B20107F1B4030022184654
:10482000FFF76EFE07F1B20107F1B4031D2218462F
:10483000FFF766FE07F1B20107F1B4036B221846D9
:10484000FFF75EFE07F1B20107F1B40349221846F3
:10485000FFF756FE07F110031846FBF7A1FD0346CC
:10486000DAB207F1B20107F1B4031846FFF748FEC8
:1048700007F110031846FBF793FD034607F11002FA
:1048800007F1B20107F1B400FFF752FE07F1B201E0
:1048900007F1B4030A221846FFF732FE07F59863C2
:1048A000A3F5976307F170001B68154A40215DF07E
:1048B00053FD07F1700207F1B20107F1B403184686
:1048C000FFF753FE07F59863A3F2BC431B68002B68
:1048D0001ADD07F59863A3F2BC431B68072B13D8B6
:1048E00007F59863A3F2BC431B68013B322202FB2D
:1048F00003F3044A134408E0886B0608946B060827
:10490000A06B0608B4070024E84BC7F8B83407F1D9
:104910007000D7F8B834E64A40215DF01DFD07F17C
:10492000700207F1B20107F1B4031846FFF71DFE4C
:1049300007F59863A3F5986307F170001B68DD4ADB
:1049400040215DF009FD07F1700207F1B20107F1A6
:10495000B4031846FFF709FE07F17000D7F8D0340A
:10496000D54A40215DF0F8FC07F1700207F1B20171
:1049700007F1B4031846FFF7F8FD07F59863A3F5B0
:10498000976307F13000D7F8D024029207F59862B8
:10499000A2F598621268019207F59862A2F2BC42F1
:1049A000126800921B68C54A40215DF0D5FC07F1F2
:1049B00030031846FBF7F4FCC7F8B40407F1B20162
:1049C00007F1B4031D221846FFF79AFD07F1B20163
:1049D00007F1B40328221846FFF792FD07F1B20150
:1049E00007F1B4036B221846FFF78AFD07F1B20105
:1049F00007F1B40304221846FFF782FD07F1B20164
:104A000007F1B40300221846FFF77AFD07F1B2015F
:104A100007F1B40331221846FFF772FD07F1B20126
:104A200007F1B40341221846FFF76AFD07F1B2010E
:104A300007F1B40332221846FFF762FD07F1B20115
:104A400007F1B40300221846FFF75AFD07F1B2013F
:104A500007F1B4031D221846FFF752FD07F1B2011A
:104A600007F1B40328221846FFF74AFD07F1B20107
:104A700007F1B4036B221846FFF742FD07F1B201BC
:104A800007F1B40303221846FFF73AFD07F1B2011C
:104A900007F1B40300221846FFF732FD07F1B20117
:104AA00007F1B40331221846FFF72AFD07F1B201DE
:104AB00007F1B40343221846FFF722FD07F1B201C4
:104AC00007F1B40304221846FFF71AFD07F1B201FB
:104AD00007F1B4031D221846FFF712FD07F1B201DA
:104AE00007F1B40328221846FFF70AFD07F1B201C7
:104AF00007F1B4036B221846FFF702FD07F1B2017C
:104B000007F1B40303221846FFF7FAFC07F1B201DC
:104B100007F1B40300221846FFF7F2FC07F1B201D7
:104B200007F1B40331221846FFF7EAFC07F1B2019E
:104B300007F1B40345221846FFF7E2FC07F1B20182
:104B400007F1B40331221846FFF7DAFC07F1B2018E
:104B500007F1B4031D221846FFF7D2FC07F1B2019A
:104B600007F1B40328221846FFF7CAFC07F1B20187
:104B700007F1B4036B221846FFF7C2FCD7F8B43430
:104B8000DBB20333DAB207F1B20107F1B40318461E
:104B9000FFF7B6FCD7F8B43403331B0ADAB207F1D7
:104BA000B20107F1B4031846FFF7AAFC07F1B201FE
:104BB00007F1B40331221846FFF7A2FC07F1B20156
:104BC00007F1B40350221846FFF79AFC07F1B2012F
:104BD00007F1B40330221846FFF792FC07F13002C8
:104BE00007F1B20107F1B400D7F8B434FFF7A0FC25
:104BF00007F1B20107F1B4031D221846FFF780FC4C
:104C000007F1B20107F1B40328221846FFF778FC38
:104C100007F1B20107F1B4036B221846FFF770FCED
:104C200007F1B20107F1B40303221846FFF768FC4D
:104C300007F1B20107F1B40300221846FFF760FC48
:104C400007F1B20107F1B40331221846FFF758FC0F
:104C500007F1B20107F1B40351221846FFF750FCE7
:104C600007F1B20107F1B40330221846FFF748FC00
:104C700007F1B20107F1B4030A221846FFF740FC1E
:104C800007F1B20107F1B4030D4A1846FFF76DFCB6
:104C900007F1B20107F1B400D9230093CD23C0225C
:104CA000FFF7B8FC0023C7F8BC3418E0AC6B06086B
:104CB000BC6B0608CC6B0608DC6B0608E86B0608C4
:104CC000FC6B060807F1B20107F1B4030A2218468B
:104CD000FFF716FCD7F8BC340133C7F8BC34D7F85B
:104CE000BC34032BEEDD07F59863A3F20E431A885C
:104CF00007F1B40107F59863A3F2B4404FF0FF3316
:104D000000680BF06BF900BF07F2C447BD4690BDC9
:104D100080B582B000AF1B4A3B1D12681146198056
:104D20000233120C1A700023FB70174B1B689A6930
:104D3000154B1B6842F008029A61134B1B689A6975
:104D4000114B1B6842F010029A61391D4FF0FF337E
:104D500003220D480BF042F90346002B01D000233B
:104D60000BE0F91CC823012207480BF0C5F90346E4
:104D7000002B01D1012300E0002318460837BD466F
:104D800080BD00BF086C0608A049002480B582B031
:104D900000AF1D4A3B1D1268114619800233120CE8
:104DA0001A70FF23FB70194B1B689A69174B1B681D
:104DB00042F008029A61154B1B689A69134B1B68F5
:104DC00042F010029A61391D4FF0FF3303220F4861
:104DD0000BF004F9F91CC82301220C480BF08CF9E4
:104DE0000346002B06D1FB78194609485DF03CFAD2
:104DF000FB7804E007485DF0A7FA4FF0FF33184650
:104E00000837BD4680BD00BF446C0608A049002499
:104E10000C6C0608286C060880B582B000AFFFF75E
:104E2000B5FF78607B68002B01DA002314E07B6813
:104E3000602B01D101230FE07B686C2B01D1002393
:104E40000AE07B68162B02D105485DF00DFA7968FF
:104E500004485DF009FA002318460837BD4680BDB6
:104E6000486C06085C6C0608B0B5D0B006AF07F514
:104E70009473A3F58E73186007F59473A3F590737C
:104E8000196007F59473A3F592731A606B4B1A6857
:104E90006B4B19686B4B18686B4B1C6807F5947368
:104EA000A3F58E7307F1100504940390029101920B
:104EB00007F59472A2F59072126800921B68634A1B
:104EC0004FF4807128465DF047FAABE0604B1D68F7
:104ED000604B1C6807F110031846FBF761FA0246A5
:104EE00007F110030293019200942B465A4A4FF4A3
:104EF00080515A485DF030FA584959485DF0B4F98C
:104F00005648FFF7FBF9574B1B78002B3AD156490F
:104F100052485DF03FFCC7F82401D7F82431002B3C
:104F20002DD0D7F824310F33C7F824312221D7F8F8
:104F300024015DF0A1FBC7F82001D7F82031002B38
:104F400019D0D7F82021D7F82431D31AC7F81C314B
:104F5000D7F81C311A46D7F8241142485DF0ABFB54
:104F6000404AD7F81C31134400221A703D493F488B
:104F70005DF07AF906E03E485DF0E6F902E03D4872
:104F80005DF0E2F93C4935485DF004FCC7F81801D2
:104F9000D7F81831002B2DD0D7F818311033C7F8B7
:104FA00018312221D7F818015DF066FBC7F814010B
:104FB000D7F81431002B19D0D7F81421D7F81831AD
:104FC000D31AC7F81031D7F810311A46D7F818118C
:104FD0002A485DF070FB294AD7F8103113440022AB
:104FE0001A70264926485DF03FF906E025485DF035
:104FF000ABF902E024485DF0A7F9244B194A9A6006
:10500000224B1E4ADA6022485DF09EF91F4B9B68D6
:10501000194620485DF028F91C4BDB6819461E48EC
:105020005DF022F90F4B1B78002B3FF44FAF00BF10
:1050300000BF07F59477BD46B0BD00BF0000002457
:1050400004000024080000240C0000247C6C0608E6
:10505000300000242C000024006D0608CC09002438
:10506000586D060884200024786D0608886D0608AF
:10507000AC6D0608DC6D0608146E06088422002458
:10508000286E06084C6E0608806E06080C1B00246D
:10509000B86E0608CC6E0608E06E060880B5A6B0AD
:1050A00002AF7860396007F108003B6800937B68C5
:1050B000AD4A78215DF050F94BE107F1080318463D
:1050C000FBF76EF9024607F108030193A74B009323
:1050D0001346A74A4FF48051A6485DF03DF9A54814
:1050E000FFF70CF9A34BC7F88C300023C7F88830C2
:1050F000A149D7F88C005DF04DFBC7F88C00D7F8BC
:105100008C30002B2AD0D7F88C300833C7F88C307D
:10511000D7F88830632B1BDCD7F888201346DB00D8
:105120009B1A964A13440622D7F88C1018465DF055
:10513000C2FA9249D7F888201346DB009B1A0B4429
:10514000063300221A70D7F888300133C7F8883048
:10515000D7F88C300633C7F88C30C9E700BFD7F8D2
:105160008830002B40F3F28085485DF0EDF8002395
:10517000C7F884303B681B78313B052B28D801A247
:1051800052F823F09D510008A5510008AF510008C6
:10519000B7510008BF510008C7510008794BC7F844
:1051A000843019E04FF47D13C7F8843014E0764B57
:1051B000C7F8843010E0754BC7F884300CE0744BAE
:1051C000C7F8843008E04FF47E13C7F8843003E05A
:1051D0006C4BC7F8843000BFD7F884102020FCF750
:1051E000F5F80023C7F8803031E0D7F88020134667
:1051F000DB009B1A614A1344D7F880203968654860
:105200005DF032F8D7F880201346DB009B1A5B4A2A
:105210001A446149D7F8803008339B000B445A6028
:105220005E4B564A1A60D7F880201346DB009B1A63
:10523000524A1344D7F88020D2B2D7F884101846C7
:1052400000F086FDD7F880300133C7F88030D7F8FA
:105250008020D7F888309A42C7DBD7F88430494A93
:1052600093420DD1D7F88830DBB21946002000F008
:105270002BFD4B4B00221A800021002000F09EFDE8
:10528000D7F88430B3F57D1F0DD1D7F88830DBB265
:105290001946012000F018FD414B00225A800021E0
:1052A000002000F08BFDD7F88430374A93420DD1AF
:1052B000D7F88830DBB21946022000F005FD384BE4
:1052C00000229A800021002000F078FDD7F8843079
:1052D0002E4A93420DD1D7F88830DBB2194603200D
:1052E00000F0F2FC2E4B0022DA800021002000F0BA
:1052F00065FDD7F88430264A93420DD1D7F888301F
:10530000DBB21946042000F0DFFC254B00221A8195
:105310000021002000F052FDD7F88430B3F57E1F45
:105320000DD1D7F88830DBB21946052000F0CCFC4F
:105330001B4B00225A810021002000F03FFD174B3B
:105340000E4A1A60174B00221A7008E016485CF0EB
:10535000FBFF064B1B78002B7FF4AFAE00BF00BFF6
:105360009037BD4680BD00BFF46E0608842000243F
:10537000246F0608CC090024E46F0608C41C00242E
:10538000F06F060800303F0000503F0000603F0013
:1053900000703F00087006080C1B002484240024C1
:1053A000A84100240A1B00242870060880B483B09A
:1053B00000AF00237B6025E07B685A1C16497B68A0
:1053C0009B010B441A607B689B01134A134404330E
:1053D00012491A460B4603CB106051601B8813819B
:1053E0000D4A7B689B01134438334FF000021A606A
:1053F000094A7B689B0113443C3300221A707B6886
:1054000001337B607B68052BD6DD00BF00BF0C3706
:10541000BD465DF8047B70478C240024E0700608CC
:1054200080B598B000AF7860594978685DF0B2F9FE
:10543000F865FB6D002B00F09A80FB6D0833FB656F
:105440008BE05449F86D5DF0A5F978657B6D002B14
:1054500000F08F8007F140031A464F49786D5CF0E9
:10546000D3FF3B6C002B02DD3B6C062B0BDD7D215B
:10547000786D5DF001F9F865FB6D002B7BD0FB6D5D
:105480000133FB6569E04549786D5DF083F9386566
:105490003B6D002B71D03B6D08333B652221386D8D
:1054A0005DF0EAF8F864FB6C002B68D0FA6C3B6D99
:1054B000D31ABB65BB6D312B01D93123BB65BA6DE6
:1054C00007F10803396D18465DF0F5F807F1080299
:1054D000BB6D134400221A703149F86C5DF05AF923
:1054E000B864BB6C002B4CD007F13C031A462D4925
:1054F000B86C5CF089FF3B6C013B7B643A6C2A49D9
:105500007B6C9B010B441A607B6C9B01264A134405
:10551000043307F10802114618465DF0D8F9FA6B1A
:1055200021497B6C9B010B4438331A601E4A7B6C0B
:105530009B0113443C3301221A701C4B1B6801333E
:105540001A4A13607D21B86C5DF096F8F865FB6D22
:10555000002B18D0FB6D0133FB65FB6D1B78002B16
:1055600012D0FB6D1B785D2B7FF46BAF0CE000BF9E
:105570000AE000BF08E000BF06E000BF04E000BF93
:1055800002E000BF00E000BF6037BD4680BD00BF45
:10559000EC700608F8700608007106080871060825
:1055A00014710608207106088C2400240C2600249F
:1055B000B0B5B4B000AF7860396007F11003A8222D
:1055C000002118465DF050F80023A7F8CE300023E4
:1055D000C7F8C830BFE0D7F8C8309B017A681344D9
:1055E00093F83C30002B70D0D7F8C8309B017A6814
:1055F00013441B681A0EB7F8CE30D2B2D0333B44F6
:1056000003F8C02CD7F8C8309B017A6813441B6894
:105610001A14B7F8CE300133D2B2D0333B4403F87A
:10562000C02CD7F8C8309B017A6813441B681A1243
:10563000B7F8CE300233D2B2D0333B4403F8C02C9B
:10564000D7F8C8309B017A6813441A68B7F8CE308F
:105650000333D2B2D0333B4403F8C02CB7F8CE307A
:10566000043307F11002D018D7F8C8309B017A68CC
:1056700013440433142219465DF01DF8D7F8C830DE
:105680009B017A6813443833C7F8B8300023C7F851
:10569000C43015E0D7F8C430D7F8B8201A44B7F8AA
:1056A000CE3003F11801D7F8C4300B441278D03350
:1056B0003B4403F8C02CD7F8C4300133C7F8C430DA
:1056C000D7F8C430032BE5DD3BE0B7F8CE30D0335C
:1056D0003B44002203F8C02CB7F8CE30043307F166
:1056E000100213442B4A1D4614460FCC28606960F3
:1056F000AA60EB60206828614FF00003FB6007F1AF
:105700000C03C7F8BC300023C7F8C03015E0D7F849
:10571000C030D7F8BC201A44B7F8CE3003F11801D6
:10572000D7F8C0300B441278D0333B4403F8C02C78
:10573000D7F8C0300133C7F8C030D7F8C030032BDA
:10574000E5DDB7F8CE301C33A7F8CE30D7F8C83037
:105750000133C7F8C830D7F8C830052B7FF73BAF07
:1057600039682020FBF732FE0346002B0AD007F1F0
:105770001003A82239681846FBF74EFE06485CF075
:10578000E3FD02E005485CF0DFFD00BFD037BD4619
:10579000B0BD00BF2C710608447106086C71060884
:1057A00080B5C0B000AF786007F14803A82200219F
:1057B00018465CF059FF07F14803A822796818469B
:1057C000FBF7BFFD0023A7F8FE300023C7F8F83031
:1057D000A4E0B7F8FE3003F580733B4413F8B83CFF
:1057E0001A06B7F8FE30013303F580733B4413F813
:1057F000B83C1B041A43B7F8FE30023303F580733C
:105800003B4413F8B83C1B021343B7F8FE200332A5
:1058100002F580723A4412F8B82C1343BB60B7F813
:10582000FE30043307F14802D11807F108030433AE
:10583000142218465CF03FFF0023FB7707F10803B2
:105840003833C7F8F0300023C7F8F43016E0B7F863
:10585000FE3003F11802D7F8F4301A44D7F8F430C8
:10586000D7F8F0100B4402F580723A4412F8B82CC5
:105870001A70D7F8F4300133C7F8F430D7F8F430A1
:10588000032BE4DDBB68002B04DDBB68062B01DCC9
:10589000012300E0002303F00103DBB287F844306A
:1058A000D7F8F8300133194622485CF0DDFC97F850
:1058B0004430002B15D0BB6819461F485CF0D4FC5F
:1058C00007F10803043319461C485CF0CDFCD7ED02
:1058D000107AB7EEE77A53EC172B19485CF0C4FC4A
:1058E00012E018485CF030FD07F108030433194654
:1058F00012485CF0B9FCD7ED107AB7EEE77A53ECBA
:10590000172B0F485CF0B0FCB7F8FE301C33A7F83B
:10591000FE30D7F8F8300133C7F8F830D7F8F83050
:10592000052B7FF756AF00BF00BF07F58077BD4658
:1059300080BD00BF9071060898710608A87106081E
:10594000B8710608CC71060880B584B002AF7860E3
:105950004FF48052002115485CF086FEFFF726FDCB
:10596000134B1B68134A019200937B68124A4FF451
:1059700080510E485CF0F0FC0C48FEF7BFFC0B4970
:105980000E485CF071FC0948FFF74AFD0C485CF0DA
:10599000DBFC4FF478110B48FFF70AFE4FF4781048
:1059A000FFF7FEFE00BF0837BD4680BDCC090024CE
:1059B0002C00002484200024E47106084C720608A0
:1059C000647206088C24002480B5DCB002AF07F5B1
:1059D000B473A3F5B273186007F1A803A8220021DD
:1059E00018465CF041FE4FF40043A7F866314FF4CF
:1059F0000243A7F864314FF4E243A7F8623107F598
:105A0000B473A3F5B27307F1A800A8221968FBF7D5
:105A100098FC0023A7F860310023C7F85C313CE113
:105A2000B7F8603103F5B4733B4413F8C03C1A0671
:105A3000B7F86031013303F5B4733B4413F8C03C4D
:105A40001B041A43B7F86031023303F5B4733B44C7
:105A500013F8C03C1B021343B7F86021033202F570
:105A6000B4723A4412F8C02C1A4307F5B473A3F584
:105A700080731A60B7F86031043307F1A802D118B7
:105A800007F168030433142218465CF014FE07F58E
:105A9000B473A3F580730022DA7507F16803383315
:105AA000C7F854310023C7F8583116E0B7F8603111
:105AB00003F11802D7F858311A44D7F85831D7F8FB
:105AC00054110B4402F5B4723A4412F8C02C1A7007
:105AD000D7F858310133C7F85831D7F85831032B6C
