:1080000028410020D18E0000318D0000DF8E00005D
:10801000DF8E0000DF8E0000DF8E0000DF8E0000AC
:10802000000000000000000000000000DF8E0000E3
:10803000DF8E000000000000DF8E0000DF8E0000F9
:108040000000000000000000000000000000000030
:1080500091880000D18700005D890000D18900006F
:108060000000000000000000000000000000000010
:108070000000000000000000000000000000000000
:1080800000000000000000000000000000000000F0
:1080900000000000000000000000000000000000E0
:10840000FFFFFFFFDFCEFFFFFCFF0F00FFFF0F00AE
:10841000FCFF0F00FFFF0F00FCFF0F00FFFF0F002E
:10842000FCFF0F20FFFF0F20FCFF7F40FFFF7F407E
:10843000FCFF0D40FFFF0D40FFFFFFFF28B100795B
:10844000022802D10148012101707047000000207C
:1084500080B500AF84B062B63148324900F08CF884
:1084600003900398002852D12D4832490024224617
:10847000234600F0A7F90390039800284AD12E4D17
:108480002C7027482D491D2200F078F92878002803
:10849000FCD0642040F2E83100F020FC2848294953
:1084A00000F0E4FA01200290322600200190029CA4
:1084B000234D284640F20841224600F0E3FA3046B8
:1084C00040F2E83100F00AFC284640F20841019DE4
:1084D0002A4600F0D7FA304640F2E83100F0FEFBC1
:1084E000174840F20841224600F0CCFA304640F2EC
:1084F000E83100F0F3FB124840F208412A4600F050
:10850000C1FA304640F2E83100F0E8FBD0E7064817
:10851000552101E004485721044A054B00F0DBFBDC
:10852000280000202C910000FB9000000E9100001C
:10853000CA9000003D84000000000020DD90000093
:108540002000002074910000022804D010B90648D1
:108550000121017070470248024900F087BAC04605
:10856000200000207491000090C07E4080B500AFD4
:10857000FFF76EFF002080BDF0B503AF87B00E4659
:1085800004460878E16100222270400177494018D2
:10859000206270696062B0690692A262E062A078AF
:1085A000032105918843411CA170717811B9022102
:1085B0000843A0700B2004903556B07A03902846EB
:1085C00000F01CFC284600F0D7FB28460399224601
:1085D00000F0DEFB052003903556307902902846E6
:1085E00000F00CFC284600F0C7FB28460299224602
:1085F00000F0CEFB072002903556B0790190284656
:1086000000F0FCFB284600F0B7FB28460199224603
:1086100000F0BEFB092001903556307A00902846C4
:1086200000F0ECFB284600F0A7FB28460099224604
:1086300000F0AEFBEFF31081012080F31088327858
:10864000C307D3404A4A15689D431560126881F3F9
:108650001088216A069D8D70216A0D71216A4D7204
:10866000216A8D72216ACD72216A4D8331788840EA
:108670004049084202D0206A4021C174206A062184
:108680000177307818B9206A4FF600018182B078FE
:108690000101F078C000084372782AB1F221032A60
:1086A00003D14022104300E0E221226A1070206AC8
:1086B0008171216AF069027BD207920F4A73817837
:1086C0004278236A1D72D201C907890E891802787F
:1086D000FE231340226A022B09D1FF235370007836
:1086E000022801D110200143206AC17117E0D17125
:1086F000216A406882784A704278059B1A400B785C
:10870000FC251D40AA18069D0A70C2788A74CA7991
:10871000A323134000785C220240D018C871E560A2
:1087200025616561A561E06903994056F5692E7878
:1087300000F048FBE0690499405600F043FBE06913
:108740000299405600F03EFBE0690199405600F066
:1087500039FB059806407036206A8670688906499C
:1087600061602081069807B0F0BDC0460000074058
:10877000007004400F02000055494353B0B502AFEA
:10878000036A9C787B2525409D70847803231C40D8
:10879000121B0C19C4600261026A9478802525437B
:1087A000957082781A40022A07D109884FF6006234
:1087B0000A43006AC2810020B0BD006A0978C17016
:1087C0000020B0BD41628362C26200207047FFFF9B
:1087D000D0B502AF84B0EFF30380103844B2204626
:1087E00000F0CAFAA00029490C582069E16909691A
:1087F00011B1E0B104B0D0BDC8B1A27803200240ED
:10880000E168022A06D109884FF600620A43216A0C
:10881000CA8102E0226A0978D170A17801402069FA
:10882000401A2061E2685118E1600028E2D1206A14
:1088300081787B220A40111D81700021E160606A0D
:108840000028D7D0A26A684642B1D06803909068E9
:10885000029050680190106800901046E26912780A
:108860008160026080210171E16AC160616A8847AC
:10887000A06A0028BED00399C16002998160019965
:1088800041600099016004B0D0BDC0469000002056
:10889000B0B502AF86B0EFF30380103844B2204683
:1088A00000F06AFAA0002B490C58A27803252A4050
:1088B000206A022A03D1008A2749014000E0417959
:1088C0000191A06908B3606901A900F0C6FBA07816
:1088D0002840616909186161A169081AA06136D14F
:1088E000606AA0B3A16A02A841B1C868059088680F
:1088F000049048680390086802900846E169097886
:10890000002282600160012112E0606AF8B1A26A6F
:1089100002A842B1D0680590906804905068039016
:10892000106802901046E2691278816002600421AA
:108930000171E16AC160616A8847A06A38B105992E
:10894000C16004998160039941600299016006B099
:10895000B0BDC04690000020FF010000B0B502AFDE
:1089600084B0EFF30380103844B2A00017490D58CB
:10897000286A81787B220A408270686A00B3A96AFB
:10898000684641B1C86803908868029048680190C1
:10899000086800900846E969097800228260016051
:1089A00002210171E96AC160696A8847A86A38B121
:1089B0000399C16002998160019941600099016049
:1089C000204600F0D9F904B0B0BDC04690000020A8
:1089D000F0B503AF85B0EFF30380103844B2A000C8
:1089E00020490D58A87803210140286A022903D1A3
:1089F000028A1D49114000E04179037938221A406A
:108A0000DB0605D5037FDB075B0E9B1840225A402F
:108A10000379C7261E400671686AF0B1AB6A01A8E7
:108A200043B1D86804909868039058680290186819
:108A300001901846EB691B78816003600271E96A56
:108A4000C160696A8847A86A38B10499C16003990E
:108A500081600299416001990160204600F08CF923
:108A600005B0F0BD90000020FF01000080B500AF10
:108A7000034A0260084600F017F8002080BDC04697
:108A800054524F50CBB2012012B1984080B201E055
:108A900000049840C908034A0A4317218A4310601A
:108AA0000020704708000440F0B503AF85B0EFF335
:108AB00010810122009282F31088284C226822B98A
:108AC000274A00231370402313702268521C22602F
:108AD00081F31088018859B300231E4602900AE0F2
:108AE000204D80012818890042500833761C0298D6
:108AF00001888E421CD24268D1188D88280AD2582B
:108B0000D403E9B2ECD58401164D2C1903940491D9
:108B10000499890001906058134C2040039C6050D8
:108B20001046114C2040039C605004990198D8E7EE
:108B3000EFF31080009981F31088084A116811B191
:108B40001168491E1160116821B9054900220A7097
:108B500080220A7080F3108805B0F0BD8C000020E0
:108B6000030D044000080440FFFFFEFF0548817923
:108B700000688900044A51584001400FC140034831
:108B80000160704720E001400C0000201801002027
:108B9000F0B503AF83B0344C344820803448012111
:108BA00002910171334E48F200003349334A344B8D
:108BB000336023467260B060F1603061314DA87956
:108BC0002968800030584901490FC8402E49086083
:108BD0000020019060752D4C0920A0702C4E30783B
:108BE00010B97078800737D0307840B90299317069
:108BF000C82000F073F81C4B30780128FCD1019894
:108C0000707030700646207858B1A87D10B9287F62
:108C1000C007FCD02078C006FCD426702078C0069F
:108C2000FCD41C48AE75297FC907FCD0029A6A742F
:108C30000F490A7040F200112960AE71A9792A68C3
:108C400089000C4C61585201520FD1400E4A1160FC
:108C5000C01E188003B0F0BD40F2E8301E4600F0A0
:108C60001BF83346019ECEE7FEE3014003A5FFFF5C
:108C7000C4FF7E400C000020002D310100127A005C
:108C8000006CDC0220E0014018010020A0E001405F
:108C900080E4014003A500007047FFFFB0B502AFBC
:108CA0000B4C00252571C820012100F017F8257014
:108CB00020780028FCD120780221014321702078FF
:108CC0008007FCD4A01E057001780029FCD1B0BD3E
:108CD00024400440704700BEFEE7FFFF02464A43BF
:108CE0000E4800680E49B1FBF0F140F2E8300D4B40
:108CF0009A4206D25043B0FBF1F0800848B100F030
:108D000013B88900B2FBF1F1994203D2484300281D
:108D1000F5D170470020C04300F006B818010020CC
:108D200000CA9A3B3889410001380028FCD17047BD
:108D3000F0B503AF81B00E490888098C014000915D
:108D40008EB200240B4D03E02D1D641C0D2C09D0A8
:108D50003046E040C007F7D029680029F4D0E0B2DF
:108D60008847F1E702480099018201B0F0BDC04692
:108D7000206100405800002080000449425801232F
:108D80001B049A43425040587047C046006300405D
:108D9000F0B503AF03240346A343084C1D598607CF
:108DA000F60EFF24B440A5438901C9B2B14029435E
:108DB000024C1951800002490A50F0BD00E400E065
:108DC00090000020B0B502AF8200094BD4580121B9
:108DD0000D04AC43D450D2581F2202409140BFF33F
:108DE0005F8F40098000034A8150034A8150B0BD23
:108DF0000063004080E200E000E100E01F2101404C
:108E000001228A404009800003494250BFF34F8F3E
:108E1000BFF36F8F7047C04680E100E00020064935
:108E2000064A03E0091D401C202804D0135C002BD7
:108E3000F8D00B60F6E770470063004080910000B7
:108E4000D0B502AFEFF31081012282F31088400009
:108E50000B4B1A181B5A13B113885B1E1380128810
:108E600012B181F31088D0BD064A105A064A138801
:108E70004AF200541C438443148081F31088D0BD0F
:108E800010010020A0910000FEE30140D0B502AF28
:108E9000EFF31081012282F310884200094B9818E9
:108EA0009B5A43B9084B9A5A084B1C8814434AF200
:108EB000005222431A800288521C028081F31088DB
:108EC000D0BDC04610010020A0910000FEE301408B
:108ED00080B500AF00F006F8FFF748FBFEE700BEE4
:108EE0007047FFFFF0B503AF81B03A483A490160DF
:108EF00000252846FFF728FBFFF74AFE6E4635702F
:108F0000009801242046FFF7C1FFEFF3108284F39D
:108F100010882107314803688B430360036882F39C
:108F200010882F4A1368234033701368234033702E
:108F3000126822403270EFF3108284F310880368C5
:108F40000B430360006882F310882046FFF778FF28
:108F50002046FFF7F9FA23480580011F4AF2005224
:108F60000A801D4B196842F20002891A4160196893
:108F700081601D4941F200020A8004801B481C499F
:108F8000091A00F063F81B481B490A1A1B4900F034
:108F900064F81B4C204600F039F8204600F04CF8ED
:108FA000184C1948001B8510012D03DB01CC8047AC
:108FB0006D1EFBD1FFF7DAFDFFF770FE0220FFF711
:108FC000C3FAFFF72BFF002001B0F0BC02BC8E46B5
:108FD000FFF780BE08ED00E0008000000470044050
:108FE00000080440040D00402061004020000020E3
:108FF000240100200000002008000020A8910000AB
:10900000080000200800002008000020D0B502AFB2
:1090100004460549054A00F020F80548201805498E
:1090200000F014F8D0BDC046B0910000010000006F
:1090300001000000000000000249401A02490860D7
:109040007047C046080000002001002080B500AF36
:109050000A46002100F00BF880BDD0B502AF002316
:109060009A4203D0CC5CC4545B1CF9E7D0BD00230A
:109070009A4202D0C1545B1CFAE770470000080511
:10908000352E382E30004275696C7420776974680B
:109090002052656E6573617320416476616E63650D
:1090A0006420466C657869626C6520536F667477DE
:1090B000617265205061636B6167652076657273CC
:1090C000696F6E20352E382E30004653505F535551
:1090D0004343455353203D3D206572720046726FF5
:1090E0006D206D61696E20636F64652048656C6FEB
:1090F0006F20576F726C6420340A002E2E2F73720B
:10910000632F68616C5F656E7472792E63006861AD
:109110006C5F656E74727900000100000100002030
:109120000F00FFFF00000000FFFF00000202000030
:109130000204020502060207000000000000000011
:109140003D840000000000001891000000000100B4
:1091500008010000000001000003000000000104FD
:1091600001030000000001040203000004000000ED
:1091700008040000050000004C9100000000000001
:10918000000000001D1B1C19000000000000000072
:1091900000000000000000000000000000000000CF
:0891A0000100020008001000AC
:0891A8000140000C0000000072
:0191B000FFBF
:020000040101F8
:10001800FFFFFFFFFFFFFFFFFFFFFFFFFFFFFFFFE8
:0C002800FFFFFFFFFFFFFFFFFFFFFFFFD8
:0400000300008ED19A
:00000001FF
