:020000040802F0
:1000000000000824D9960308718B0308758B030838
:10001000098C03080B8C03080D8C030800000000FA
:100020000000000000000000000000000F8C03082A
:10003000118C030800000000138C0308158C0308C2
:100040002997030829970308299703082997030884
:100050002997030829970308299703082997030874
:100060002997030829970308299703082997030864
:100070002997030829970308299703082997030854
:100080002997030829970308299703082997030844
:100090002997030829970308299703082997030834
:1000A0002997030829970308299703082997030824
:1000B000458C030829970308598C030829970308DE
:1000C0002997030829970308299703082997030804
:1000D00029970308698C0308798C0308898C030825
:1000E00029970308299703080000000029970308AF
:1000F00029970308299703082997030829970308D4
:1001000029970308998C030829970308299703085E
:1001100029970308A98C030829970308299703083E
:1001200029970308299703082997030829970308A3
:1001300029970308B98C030829970308299703080E
:1001400000000000000000000000000000000000AF
:10015000299703082997030829970308C98C0308DE
:100160002997030829970308299703082997030863
:10017000299703082997030829970308000000001E
:100180002997030829970308D98C0308299703089E
:100190002997030829970308299703082997030833
:1001A00000000000000000002997030829970308B9
:1001B0002997030829970308299703082997030813
:1001C0002997030829970308299703082997030803
:1001D00029970308299703082997030829970308F3
:1001E00029970308299703082997030829970308E3
:1001F00029970308299703082997030829970308D3
:1002000029970308299703082997030829970308C2
:10021000E98C0308299703082997030829970308FD
:100220002997030800000000299703080000000038
:10023000299703082997030800000000299703085D
:100240002997030829970308299703082997030882
:100250002997030829970308299703082997030872
:100260002997030829970308299703082997030862
:10027000299703082997030829970308000000001D
:10028000299703082997030829970308000000000D
:0802900000000000299703089B
:1002A00010B5054C237833B9044B13B10448AFF3B0
:1002B00000800123237010BDF8020024000000001C
:1002C000B4F1060808B5034B1BB103490348AFF36B
:1002D000008008BD00000000FC020024B4F1060804
:1002E00010F8012B11F8013B012A28BF9A42F7D0E0
:1002F000D01A70470000000000000000000000005D
:1003000001F0FF01102A2BDB10F0070F08D010F8C6
:10031000013B013A8B422DD010F0070F42B3F6D1CA
:10032000F0B441EA012141EA014122F007047FF0E3
:1003300000070023F0E80256083C85EA010586EA3A
:10034000010685FA47F5A3FA87F586FA47F6A5FA76
:1003500087F68EB9EED1F0BC01F0FF0102F0070282
:1003600032B110F8013B013A83EA010313B1F8D12D
:100370000020704701387047002D06BF354603380E
:10038000073815F0010F07D1013015F4807F02BF47
:10039000013015F4C03F0130F0BC0138704700BF98
:1003A000034613F8012B002AFBD1181A01387047B5
:1003B00081F0004102E000BF83F0004330B54FEA16
:1003C00041044FEA430594EA050F08BF90EA020F83
:1003D0001FBF54EA000C55EA020C7FEA645C7FEA16
:1003E000655C00F0E2804FEA5454D4EB5555B8BF39
:1003F0006D420CDD2C4480EA020281EA030382EAAA
:10040000000083EA010180EA020281EA0303362D3B
:1004100088BF30BD11F0004F4FEA01314FF4801C0E
:100420004CEA113102D0404261EB410113F0004F20
:100430004FEA03334CEA133302D0524263EB4303D7
:1004400094EA050F00F0A780A4F10104D5F1200E75
:100450000DDB02FA0EFC22FA05F2801841F10001D0
:1004600003FA0EF2801843FA05F359410EE0A5F1A4
:1004700020050EF1200E012A03FA0EFC28BF4CF0D5
:10048000020C43FA05F3C01851EBE37101F000458B
:1004900007D54FF0000EDCF1000C7EEB00006EEB98
:1004A0000101B1F5801F1BD3B1F5001F0CD3490822
:1004B0005FEA30004FEA3C0C04F101044FEA445279
:1004C00012F5800F80F09A80BCF1004F08BF5FEA00
:1004D000500C50F1000041EB045141EA050130BDE0
:1004E0005FEA4C0C404141EB0101013C28BFB1F5F2
:1004F000801FE9D291F0000F04BF01460020B1FA3D
:1005000081F308BF2033A3F10B03B3F120020CDA0F
:100510000C3208DD02F1140CC2F10C0201FA0CF0ED
:1005200021FA02F10CE002F11402D8BFC2F1200C52
:1005300001FA02F120FA0CFCDCBF41EA0C01904008
:10054000E41AA2BF01EB0451294330BD6FEA040451
:100550001F3C1CDA0C340EDC04F11404C4F120023C
:1005600020FA04F001FA02F340EA030021FA04F34E
:1005700045EA030130BDC4F10C04C4F1200220FAA5
:1005800002F001FA04F340EA0300294630BD21FAE3
:1005900004F0294630BD94F0000F83F4801306BFA9
:1005A00081F480110134013D4EE77FEA645C18BF9D
:1005B0007FEA655C29D094EA050F08BF90EA020F34
:1005C00005D054EA000C04BF1946104630BD91EA2C
:1005D000030F1EBF0021002030BD5FEA545C05D12F
:1005E0004000494128BF41F0004130BD14F580046E
:1005F0003CBF01F5801130BD01F0004545F0FE41E2
:1006000041F470014FF0000030BD7FEA645C1ABF16
:10061000194610467FEA655C1CBF0B46024650EA4D
:10062000013406BF52EA033591EA030F41F4002179
:1006300030BD00BF90F0000F04BF0021704730B5FF
:100640004FF4806404F132044FF000054FF00001D4
:1006500050E700BF90F0000F04BF0021704730B595
:100660004FF4806404F1320410F0004548BF40426A
:100670004FF000013EE700BF42004FEAE2014FEABF
:1006800031014FEA02701FBF12F07F4393F07F4F9A
:1006900081F06051704732F07F4208BF704793F09D
:1006A0007F4F04BF41F40021704730B54FF46074B0
:1006B00001F0004521F000411CE700BF50EA0102B3
:1006C00008BF704730B54FF000050AE050EA01025C
:1006D00008BF704730B511F0004502D5404261EBCC
:1006E00041014FF4806404F132045FEA915C3FF40D
:1006F000D8AE4FF003025FEADC0C18BF03325FEAAA
:10070000DC0C18BF033202EBDC02C2F1200300FA5A
:1007100003FC20FA02F001FA03FE40EA0E0021FA7F
:1007200002F11444BDE600BF7BB972B90029BEBF17
:1007300000204FF0004106E008BF00281CBF6FF00A
:1007400000414FF0FF3000F00BBAADF1080C6DE93D
:1007500004CE002909DB002B1ADB00F085F8DDF858
:1007600004E0DDE9022304B07047404261EB41013F
:10077000002B1BDB00F078F8DDF804E0DDE9022354
:1007800004B0404261EB4101524263EB43037047C6
:10079000524263EB430300F067F8DDF804E0DDE963
:1007A000022304B0404261EB41017047524263EBC7
:1007B000430300F059F8DDF804E0DDE9022304B05A
:1007C000524263EB4303704753B94AB9002908BF4B
:1007D00000281CBF4FF0FF314FF0FF3000F0C0B9D0
:1007E000ADF1080C6DE904CE00F03EF8DDF804E050
:1007F000DDE9022304B0704708B502460B4643EC1E
:10080000172BB5EEC07BF1EE10FA03D4BDE808401B
:1008100000F00AB8B1EE477B51EC170B00F004F87A
:10082000404261EB410108BD9FED0B6B41EC170BA2
:100830009FED0B5B27EE066BBCEEC66BB8EE464B2E
:10084000A4EE457BFCEEC77B16EE101A17EE900A5D
:10085000704700BFAFF30080000000000000F03DD3
:10086000000000000000F0412DE9F047089D8E4691
:1008700004468846002B4AD18A42174662D9B2FA0A
:1008800082F64EB1C6F1200301FA06F820FA03F30E
:10089000B74043EA0808B4404FEA174E1FFA87FCF6
:1008A000B8FBFEF1230C0EFB118843EA084301FB61
:1008B0000CF29A4209D9FB1801F1FF3080F0EA806E
:1008C0009A4240F2E78002393B449A1AA3B2B2FB43
:1008D000FEF00EFB102243EA024300FB0CFC9C4599
:1008E00009D9FB1800F1FF3280F0D6809C4540F218
:1008F000D3803B44023840EA0140A3EB0C030021C3
:100900001DB1F3400022C5E90032BDE8F0878B42FB
:1009100005D90DB1C5E9000100210846F5E7B3FA94
:1009200083F1002946D1734502D3824200F205814A
:10093000841A6EEB030201209046002DE5D0C5E934
:100940000048E2E7002A00F09080B2FA82F6002E1A
:1009500040F0A4808A1A030C4FEA174E80B2BCB252
:100960000121B2FBFEFC0EFB1C2243EA024304FB06
:100970000CF29A4207D9FB180CF1FF3802D29A42C6
:1009800000F2E080C4469B1AB3FBFEF20EFB12336A
:1009900040EA034302FB04F49C4207D9FB1802F12E
:1009A000FF3002D29C4200F2CA8002461B1B42EA80
:1009B0000C40A5E7C1F120068B4022FA06F71F4341
:1009C0000EFA01F420FA06F32EFA06FE4FEA174952
:1009D000234300FA01F81FFA87FCBEFBF9F01C0C58
:1009E00009FB10EE44EA0E4400FB0CFEA64502FA99
:1009F00001F209D93C1900F1FF3A80F09C80A6452C
:100A000040F2998002383C44A4EB0E041FFA83FEA6
:100A1000B4FBF9F309FB13444EEA044403FB0CFC5A
:100A2000A44508D93C1903F1FF3E80F08280A4451B
:100A30007FD9023B3C4443EA0040A4EB0C04A0FBFA
:100A400002EC64457346E14662D35FD05DB1B8EB1A
:100A5000030264EB090404FA06F622FA01F31E43CA
:100A6000CC40C5E9006400214FE7B1FBF2FC010C6A
:100A700041EA0E4180B240EA01423B4638463C46DC
:100A8000B846BE462026B1FBF7F1A2EB080241EAC8
:100A90000C4166E7014618E710462CE7C6F1200234
:100AA0002EFA02F3B740B14020FA02F24FEA174E95
:100AB0000A43B3FBFEF8BCB20EFB1833110C41EA3B
:100AC000034108FB04F9B04089454FEA104380B266
:100AD0003ED9791808F1FF3C01D289451FD8A1EB16
:100AE0000901B1FBFEF909FB04F80EFB191192B2E2
:100AF00042EA0142424529D2BA1809F1FF31C4D273
:100B00004245C2D2A9F102013A44BEE7F0459DD266
:100B1000BEEB02036CEB070C0138E14696E7A7EB4E
:100B200009094944A8F1020CB1FBFEF909FB04F8DC
:100B3000DBE773467FE7504666E70846FDE63B4441
:100B4000023A33E7ACF1020C3B441CE749469CE710
:100B5000A1EB0901C446B1FBFEF909FB04F8C4E7A7
:100B6000704700BF70B5A4B0504B1B68002B00F05D
:100B7000938005460C46002800F09180002900F083
:100B80008E8001F10E03B3F5805F00F28B8002F0DE
:100B90000F0262F07F02464B1A707D2957D861F030
:100BA0007F03434A5370022623A942481DF0DFF811
:100BB000239B5FFA83FC8DF888C0C3F307208DF870
:100BC0008900C3F307428DF88A201B0E8DF88B3005
:100BD000374901F806C006F1010C01F80C00B01C01
:100BE0000A54321D03368B550023ADF80630BDF88C
:100BF00006309BB29C421DD90846BDF8061089B24A
:100C0000BDF806309446013292B203F003039033EC
:100C10006B44695C13F8083C4B4000F80C30BDF89D
:100C2000063001339BB2ADF80630BDF806309BB2FA
:100C3000A342E2D3204B1B78E3B11D491F4845F086
:100C400087F900280BDB0024204624B070BD184B28
:100C5000FE225A700A0A9A70D9700426A4E78022EC
:100C600002A934F0BBFF02A9154849F00BFB6FF055
:100C70000C04E9E701230E490C48006825F07AF8D6
:100C8000044620B9094B186825F088FEDCE70146C8
:100C90000C4849F0F7FAD7E76FF00F04D4E76FF08C
:100CA0000F04D1E74FF0FF34CEE700BF281E012428
:100CB000483B0024C0660124484B0024A865012459
:100CC00024F3060840F306082DE9F04782B00746F2
:100CD0000E4614461946BDF8285002F58053B3F865
:100CE00000084319B3F5C05F11D82A4620444AF0E2
:100CF00050FC04F58053B3F800281544A3F80058BD
:100D0000DFF880A2DFF88092DFF88082D7E09A488F
:100D100049F028FB04F580540023A4F8003884F837
:100D2000023802B0BDE8F08704F58053B3F800083C
:100D30000128F6D921786278CD0983F8035801F0AB
:100D40000F0183F80418D10983F8051802F07F0217
:100D50007D2A17D80225C9B3291D89B28842E0D35C
:100D6000605904F58053C3F80A08C0F307231B0435
:100D700043EA006343EA1063C0F3074043EA0023F9
:100D80000D4624E07E2A0AD10328CAD9A378E27846
:100D900042EA0322B2F5C05F0CD20425DBE77748B4
:100DA00049F0E0FA04F580540023A4F8003884F8F0
:100DB0000238B6E71146724849F064FA04F58054E7
:100DC0000023A4F8003884F80238AAE7002306F5C7
:100DD0008051C1F8203904F58053A3F80628A3F800
:100DE0000858012283F8022870E00023ADF806308D
:100DF000BDF806309BB204F58052B2F806289A423C
:100E000040F2918041F60A0004F58052BDF806E0F8
:100E10001FFA8EFEBDF80630BDF806C016FA8CFC2F
:100E200003F00303234411F80EE01B5C8EEA030376
:100E30008CF81C31BDF8063001339BB2ADF806309A
:100E4000BDF806309BB2B2F806C89C45DED86AE011
:100E5000304612F00FF904F58053B3F8002895429C
:100E60001AD304F580540023A4F8003884F802381B
:100E700057E7304615F098F8EDE7012388F8003081
:100E8000E9E7484649F06EFA384609F053FAE2E7D6
:100E9000504649F0F7F9DEE7521B6119204649F048
:100EA000D7FB04F58052B2F800385B1B9BB2A2F866
:100EB0000038002182F80218002B3FF432AF04F50D
:100EC000805393F80238002B3FF42EAF04F5805383
:100ED000B3F80858B3F806281544ADB2B3F8003893
:100EE000AB42FFF41EAF04F5805393F8042806F5D7
:100EF000805181F81C2993F80528003A18BF012277
:100F0000D20181F81D29B3F80628A1F81E29B3F8EB
:100F10000818214493F80538002B7FF466AF06F5D6
:100F20008E704AF036FB04F58053B3F80638B3F5FB
:100F3000C05F03D23344002283F81C2106F580539E
:100F400093F81C194B1E092BA2D801A252F823F0CA
:100F5000510E0208910E0208910E0208910E02082D
:100F6000910E0208910E0208910E0208830E0208EB
:100F7000730E02087B0E02085CF306087CF3060879
:100F8000A4F30608ECF30608D0F3060800000024DA
:100F90001B4B1B682BB11B4B1B7813B11A4B1B78D7
:100FA00003B1704710B51FF027FE184B1B68C31A1A
:100FB00042F20F7293420DD9154B1B785BB1144B63
:100FC00000221A70114B1860092204211148FFF702
:100FD000C9FD80B910BD104849F0C4F9084C20681B
:100FE00022F082FD002323600C4A1370054A13701F
:100FF0000B4A1370EEE70B4849F0B4F9EEE700BF77
:10100000281E01244D4C0024240B0024280B00240E
:101010000000002428F4060808F406084E4C0024BA
:10102000345E012430F4060870B50AB3054608465C
:101030001C4616464BBB118922F0A8F805F58043E3
:1010400099883289C1F580439BB29A4222D8281DE3
:1010500000230144304621F0A3FD05F5804083883C
:10106000328913448380304621F026FB204670BD30
:101070000F4849F077F900200E4B18700E4B18609E
:101080000E4B18700E4B1870F1E7104621F014FB50
:101090002046ECE711460B4849F0F4F805F580408E
:1010A00000238380304621F007FB2046DFE700BFA6
:1010B00054F40608345E0124281E01244E4C0024FA
:1010C0004D4C002470F4060870B5254B00221A70B0
:1010D00049B30C46084628F0A3FE0246214922489F
:1010E00049F0D0F822F034FC204B186000B3002205
:1010F0001F4921F0B3FFF8B91C4D1E49286822F0A2
:10110000D9F8204628F08CFE01461B4E32881B4839
:1011100049F0B8F81A4B32882146286822F020F9A5
:10112000014698B970BD0F49164849F0ABF8F9E788
:10113000154849F017F9F5E7144849F013F90B4C35
:10114000206822F0D1FC00232360EBE7104849F02F
:1011500099F8286822F0C8FC00232B60E2E700BF62
:101160004F4C0024CC4B0024BCF40608281E01245C
:10117000D8170808617E03084A4B0024F8F40608D3
:10118000318103089CF40608CCF40608E4F4060850
:1011900014F50608014B1870704700BF240B00249B
:1011A000014B1878704700BF484B00240048704737
:1011B000CC4B0024014B1878704700BF4D4C0024E5
:1011C00008B50123054A1370054A13701FF014FD7A
:1011D000044B1860044849F0C5F808BD4D4C002484
:1011E00000000024280B002430F506080023094ADB
:1011F0001370094A1370094A1370094A1370094A97
:101200001370094A1360094A13709370084A1370E7
:10121000704700BF4F4C00244E4C00244D4C00241E
:101220004C4C0024345E0124281E012460C6002496
:101230003EBF002408B5FFF7D9FF094B186820B15D
:1012400022F052FC064B00221A60064B06221A704E
:1012500018F07EFB00F5FA60034B186008BD00BF74
:10126000281E0124514C0024200B002470B5ADF53C
:10127000467D5E4D5E4C5F4E2B46224680213046B9
:1012800049F078F85C4B22467F21A6F17F0049F0B7
:1012900071F82B4622468021A6A849F06BF83A2126
:1012A000A6A849F0F7F908B100220270534CA6AB8A
:1012B0000093514B524A4FF4C051204649F05AF81E
:1012C00004F6E46494F868392BB1012B50D04D48F2
:1012D00049F048F80AE0494C2046FFF761F841F22E
:1012E000FF72121A4849204649F0E1F9474B1B7832
:1012F0006BB9474B9B7A13F0010F08D0454B93F81D
:10130000F83123B1434B93F83832002B3CD1424C97
:10131000204614F07BFA2346404A502192A849F017
:1013200029F81C342046FFF73BF841F2FF72121AED
:1013300092A9204649F0BBF92046FFF731F805464F
:101340000146374848F09EFF2146294848F09AFF59
:10135000344B1B78002B39D02A462146324844F0C2
:10136000F7FD00282BDB002420460DF5467D70BDDF
:10137000224C2046FFF714F841F2FF72121A2B4953
:10138000204649F094F9B1E729494FF4807302AA45
:10139000A1F1400014F0F0FA02AB264A4FF4A0711C
:1013A00042A848F0E7FF154C2046FEF7F9FF41F24E
:1013B000FF72121A42A9204649F079F9A7E70146BF
:1013C0001D4848F05FFF6FF00C04CDE70123AAB27F
:1013D0000A491A48006824F0CDFC04460028C3D10D
:1013E000164B186825F0DAFABEE700BFCC4B002494
:1013F000A8440708B8E900244C4B002454EA002410
:1014000050F5060840F60608C0F5060838E900243D
:101410004CCF0024005F002438EA002478F6060848
:1014200094F60608484B0024A865012400F6060837
:10143000386100245CF60608B8F60608281E012468
:1014400000B583B003460091034A04490020FFF72A
:101450003BFC03B05DF804FB2C0B002438E90024AE
:101460002DE9F04F83B07AB108461E469146B3B9D4
:10147000118921F08BFE4D464FF0000B40F2FF7AB0
:10148000294F40F2FE781EE0284848F06BFF00200C
:10149000274B1860274B1870274B187003E0104635
:1014A00021F00AF9304603B0BDE8F08F22466968A2
:1014B00007EB0B004AF06DF85C441FFA84FB2D68C3
:1014C0005DB1C34509D86C890BEB0403B3F5006F1C
:1014D000ECD3AAEB0B04A4B2E8E7134B002203F809
:1014E0000B20484621F0E8F8134B1B787BB91349D1
:1014F0000D4849F014F918B1FFF762FE3046D2E703
:10150000094A59460E4848F0BDFE3046CBE7CDF8B3
:1015100000B0054B0B4A0C490020FFF7D5FBFFF745
:1015200037FD3046BFE700BF20030024D8F6060889
:10153000281E01244E4C00244D4C0024F4F60608CD
:1015400004F706082C0B002438E900242DE9F043A9
:1015500085B00023944A1370944A1380944A137000
:10156000944A137006229449944849F0B3F800BB9A
:101570008D4B01221A7040F2BB12914F8B4B1A8097
:101580003B78002B00F0A6802F21384649F082F8E6
:101590000646D0B10546AF421CD23B461A78D2B2BD
:1015A0003A2A1BD00133AB42F8D12B464FF000084A
:1015B00015E005228349814849F08CF8002840F065
:1015C000898042F22832804FD8E73846FEF7E8FE9D
:1015D0003D18E0E72B464FF0000800E09846DB1B83
:1015E0009AB2002A76D01446531C802B72D8DFF8AA
:1015F000C0913946484649F0CCFF002309F8043031
:10160000B8F1000F19D008F10102954215D96F48C1
:101610001178C9B2415C11F0040F0ED0117803EBC0
:10162000830301EB4303303BB3F5803F05D2013226
:101630009542EDD10BB15D4A138056B33046FEF7AB
:10164000AFFE054684B2624B93F848301BB3614845
:10165000FEF7A6FE87B2002C4BD016FA85F313F8DE
:10166000019CB9F12F0818BF4FF00108631C3B44DF
:1016700043449BB2802B2DD8ADB22A4631464D480B
:1016800049F087FFB9F12F0F40D04A4B2F225A550E
:101690003CE0514ED2E70027DDE708EB05003A4673
:1016A0004C49444B184449F074FF31E016F0EAFB12
:1016B0004A4B1B78042B38D1494848F053FE70E060
:1016C000484B01221A70484848F04CFE69E06FF020
:1016D000050462E03949454848F0D4FD61E0002C3A
:1016E000EED100223F4B1A7003A93148FFF7ECFC02
:1016F00057E0631C3B449BB2802BEBD8ADB22A462B
:1017000031462C4849F045FF4FF00008002FC4D166
:10171000B844A844274B002203F80820224B1B782A
:101720001BB12E4B1B78002BC0D041F60E020021BE
:101730002F4848F0A7FF2F4B01221A701A4B1C7834
:101740001C4B0093194B1B88194A2B492B48002C22
:1017500018BF01462A4848F095FD00230293029BDA
:10176000022BB4DC274E124D274F0023324603A92B
:10177000284620F065F904460028B0D010F1050F86
:10178000ADD0029903220131384648F07BFD029B1F
:1017900001330293029B022BE7DD21461B4848F0F0
:1017A00071FD05B0BDE8F083484B00244A4B00248E
:1017B000CC4B00244C4B002430F70608785F002403
:1017C0007E5F002438F706087D5F0024686D0808F6
:1017D000005F0024485F00243CF70608345E0124C3
:1017E00040F706084F4C002498F70608C0F7060893
:1017F0002C0B0024000000242CF7060828F706080C
:1018000068F70608C910020884F70608ACF706084E
:1018100070B59AB06422002101A848F033FF2F4828
:1018200017F0D6FF2E4B1B78012800DC23B90128C6
:1018300000DDC3B11AB070BD2A4848F093FD2A48B4
:1018400019F0D4F9294C204627F098FA0025656054
:10185000A560E560204620F0C5FD204620F00AFE88
:101860001F4B1D70E6E702380328E3D8DFE800F0DD
:10187000020F09334FF400564FF480451C491D4AAE
:101880000AE04FF4005600251B491A4A04E04FF4C1
:10189000804517490026194A194848F0F3FC124CB4
:1018A00001A9204619F0FEFB0695079601A92046DE
:1018B00019F0E4FC204619F04DF90C4C204620F0BC
:1018C00073FD204620F0AEFD204627F0CDF8044BF6
:1018D00001221A70AEE700250749DBE7FC6C012402
:1018E000504C0024F8F70608546D0124C06C012404
:1018F000DCF70608E4F70608ECF70608F0F7060838
:101900000CF8060838B5A24C20461FF051F925F016
:101910009FFB94F8313013F0040F0DD09D4B1B78D2
:10192000062B00F29081DFE813F0260037007E00DE
:101930009600C8001F017101964B1B7803B938BD92
:10194000954848F00FFD954B00221A70204627F06D
:1019500015FAFFF74BFC924B186820B122F0C4F83F
:101960008F4B00221A608B4B00221A7017F0F0FF89
:101970008C4B1860E3E78C4848F0F4FC844827F06F
:1019800073F8864B00221A70824B01221A7017F0EE
:10199000DFFF844B1860D2E77D4826F0F1FFE8B105
:1019A000824D284628F03CFA044605F1080028F04C
:1019B00037FA024621467E4848F064FC7D4848F0EC
:1019C000D1FC764B01221A70FFF710FC714B0222FA
:1019D0001A7017F0BDFF734B1860B0E717F0B8FF2F
:1019E000754B1B68C01AB0F57A7F14D817F0B0FF9A
:1019F0006C4B1B68C01A47F22F5398429FD96F480F
:101A000048F0B0FC624827F0B9F9644B00221A7024
:101A1000FFF710FC93E717F09BFF674B18606848CF
:101A200048F0A0FCE2E7674B1B78002B87D1654BA1
:101A300001221A7013F0D0FFFFF788FD624B1B786C
:101A4000002B0CBF04220322524B1A7017F080FFA8
:101A5000544B186073E716F0DBFA5C4B1B78022BD3
:101A600011D0042B23D017F073FF4E4B1B68C01A04
:101A700043F6972398427FF662AF554848F072FCD0
:101A8000FFF7D8FB5BE7534848F06CFCFFF7EEFB31
:101A900028B1514848F066FCFFF7CCFB4FE73D4BBF
:101AA00004221A7017F054FF3E4B186047E74B486A
:101AB00048F058FCFFF7BEFB41E7434B1B78BBB92E
:101AC000474B1B78BBB9474B1B7813BB344B1B6888
:101AD0007BB317F03DFF334B1B68C01A43F69723C7
:101AE000984230D9404848F03DFCFFF7A3FB26E779
:101AF00016F0BEFAE4E73D4848F034FC254B0522D9
:101B00001A703B4B01221A7017F022FF254B186008
:101B100015E717F01DFF234B1B68C01A43F69723E8
:101B200098427FF60CAF334848F01CFCFFF782FB6D
:101B300005E7314B1B78002BCBD1304848F012FC25
:101B4000FFF778FBFBE617F003FF2D4B1B68C31A6A
:101B5000B3F5FA6F7FF6F3AE17F0FAFE284B186074
:101B6000284848F0FFFBEAE6174B1B7863B9FFF7FC
:101B70000FFA0B4B1B68002B7FF4E1AE224848F0B4
:101B8000F1FBFFF757FBDAE616F072FAEFE700BF5A
:101B9000C06C0124514C002428F80608C05F0124C1
:101BA000281E01241C03002438F80608C46C0124F4
:101BB00058F8060874F8060818030024A4F8060864
:101BC00090F806084C4C0024484B0024345E012455
:101BD000F8F80608B4F80608D8F80608ECF806087D
:101BE0004D4C00244F4C002444F9060810F9060817
:101BF0003EBF00241CF906084E4C00242CF90608B0
:101C0000140300245CF906087CF9060817F0A0FE0E
:101C1000114B1B68C01A0028FFF691AE0F4848F020
:101C2000A1FB0F4C204627F0A9F8204626F01CFF08
:101C30000C4B00221A700C4B01221A7017F088FE10
:101C40000A4B18607BE6084B00221A7017F080FEE2
:101C5000064B186073E600BF200B002494F90608B9
:101C6000C06C0124C05F0124514C00241C030024DB
:101C70008B18B3F5001F45D82DE9F04782B0054613
:101C800088461746002A40D04FF0200A4FF000093E
:101C9000082609E006F0A0FF07F048F8034668B3FD
:101CA000A04425443F1B28D05FFA88F4C4F5807413
:101CB0003B46B7F5807F28BF4FF480739C4228BF16
:101CC0001C4606F0F5FF0346C0B106F06DFF514615
:101CD00048F0007006F098FFCDF80490019B9C42FC
:101CE000D8D9019B3146E85C06F08EFF019B013399
:101CF0000193019BA342F4D3CCE70123184602B021
:101D0000BDE8F0870023184670470123F6E700007E
:101D1000BFF34F8F0549CA6802F4E062044B1343D6
:101D2000CB60BFF34F8F00BFFDE700BF00ED00E0C9
:101D30000400FA0508B53E4A138801339BB21380AC
:101D40003C4A138801339BB213803B4A138801330A
:101D50009BB21380394B1B8813B10133374A138070
:101D6000334B1B889BB2B3F57A7F53D3304B0022A1
:101D70001A80334B1B7813B1013B314A1370314B3E
:101D80005B899BB223B12F4A5389013B9BB253819C
:101D90002C4B9B899BB223B12A4A9389013B9BB26E
:101DA0009381284B5B691BB1264A53690133536108
:101DB000244B9B691BB1234A936901339361224BE6
:101DC0001B681BB1204A1368013313601F4B1B783B
:101DD0005BB11E4A13780133DBB213701378DBB2A8
:101DE000092B02D9134601221A70194B1B785BB1DB
:101DF000174A13780133DBB213701378DBB2092B67
:101E000002D9134601221A70124B1B7813B1013309
:101E1000104A1370074B1B889BB2B3F5FA7F02D0B0
:101E200008F0A0FF08BD034B00221A80F8E700BFAE
:101E3000584C00245A4C00240ACB0024D8740024A7
:101E4000564C0024644C0024484E002408CB002447
:101E500007CB0024544C002408B51D4B9B8B3C2B16
:101E600002D81B4B3C229A83194B9A8B1949CA8082
:101E70001949CA809B7D012B18BF082317498B7114
:101E8000FF230B7016480122827103704B70437060
:101E90008A70CA7000228A811248828112498A811E
:101EA00042724A7211491248086012484860124949
:101EB000CB710B724B72114B1A72114BDB7A012BE7
:101EC00002D911F0B9FF08BD0D4B0222DA72F8E712
:101ED000005F002460C6002458C60024FC4D002486
:101EE000B04D0024644D0024CC4C0024F451002457
:101EF000222222111111112288CF0024C8CE0024E1
:101F00004CCF0024114BDA795B789A4216D10F4BF3
:101F1000DA789B789A4213D10C4B9A791B789A42C3
:101F200010D10B4B9A791B789A420DD1094B9879B5
:101F30001B78984214BF0420FF207047052070478B
:101F4000062070470020704701207047B04D0024E4
:101F5000184D0024804C002408B5431E112B49D88D
:101F6000DFE803F0091119484848484848484848FC
:101F7000213448483C42224B9A791B78934232D014
:101F80001F4B1A702FE01F4B9A791B7893422AD06F
:101F90001C4B1A7027E01C4B9A791B78934222D075
:101FA000194B1A701FE0164AD37952789A421AD008
:101FB000134A5370072B05D0062B14D1104BFF2268
:101FC000DA7110E01346FF22DA710CE00C4BDA787C
:101FD0009B78934207D00A4B9A7004E00B4A9368AF
:101FE00023F40043936008BD094A936823F48033C7
:101FF0009360F8E70146074848F044F9F3E700BF6B
:10200000FC4D0024644D0024CC4C002430C6002438
:1020100008C60024BCF9060808B5431E0D2B3BD8A2
:10202000DFE803F0070F173A3A3A3A3A3A3A3A3ABF
:102030001F321C4B9A791B78934231D0194B1A707E
:102040002EE0194B9A791B78934229D0164B1A70BF
:1020500026E0164B9A791B78934221D0134B1A70C5
:102060001EE0104AD37952789A4219D00D4A537023
:10207000072B05D0062B13D10A4BFF22DA710FE094
:102080001346FF22DA710BE0064BDA789B78934215
:1020900006D0044B9A7003E00146054848F0F2F878
:1020A00008BD00BFB04D0024184D0024804C002412
:1020B000BCF9060838B54F4B5C7E012C02D0FF24DA
:1020C000204638BD4C4B1D78012D1DD0022D33D03C
:1020D000002D38D1494B9B79032B04D0474A127805
:1020E0009A42EDD12FE0454B1B78032B2BD044486F
:1020F00048F038F9434A936843F0010393603E4A3D
:10210000137801331370DBE73C4B9B79032B05D12C
:102110003A4B1B78032B16D02C46D1E73A4848F0AF
:1021200021F9384A936843F002039360324A1378E6
:10213000013313702C46C3E7304B1B78032B15D0AB
:102140002D4B00221A70314B1B78012B27D0022B0C
:102150003ED0002B4CD12E4B9B79032B0BD02C4A1D
:1021600014789C4214BF0424FF24A9E7234B9B79D5
:10217000032BA5D1E7E7264B1B78032B01D1FF24C6
:102180009EE7244848F0EEF8234A936843F00103A1
:1021900093601E4A137801331370042490E71C4B9C
:1021A0009B79032B06D11A4B1B78032B14BF0424F5
:1021B000FF2485E7194848F0D5F8174A936843F09B
:1021C00002039360114A137801331370042477E7F4
:1021D0000F4B1B78032B04D00C4B00221A70FF24EA
:1021E0006EE70B4B9B79032B14BF0424FF2467E796
:1021F000FF2465E7005F0024534C0024644D002455
:10220000E8F9060830C6002420FA0608524C0024DB
:10221000CC4C002458FA060808C6002490FA060898
:1022200008B5704BDA795B789A422FD16E4B1B78E8
:1022300013F0200F2AD16B4AD178927891422CD199
:1022400013F0400029D1674A91791278914223D145
:10225000664A527E3ABB664A91791278914268D0BA
:1022600013F0010022D10B1FDBB2012B40F2A98039
:10227000062A20D0032A4BD1092934D0062939D087
:1022800008293DD0032923D0012005E0564A1378C0
:1022900023F020031370052008BD23F04003524AA9
:1022A00013700620F8E7FFF705FFF5E723F00103B9
:1022B0004D4A1370F0E74F4B5B6833B14D4B9A6852
:1022C00042F002029A6003221A70032940F08780CC
:1022D000474BDB6A13F0100F75D023F01003444A0C
:1022E000D3620120D8E7424AD36A43F00403D362A1
:1022F0000120D1E73E4AD36A43F00403D362F7E7F3
:102300003C4B9A6842F002029A6004221A70EFE78E
:102310000329DDD0374B5B68002B56D0012A54D1FE
:10232000344B9A6842F002029A6004221A7001202B
:10233000B2E731498A7909788A4248D013F0020F0E
:1023400015D1131FDBB2012B43D9062915D0032960
:102350001DD1092A28D0062A2DD0082A17D1274BAB
:102360009A6842F002029A6004221A7021E023F077
:1023700002031D4A137004208EE7204B5B6833B1C3
:102380001E4B996841F00201996003211970032ADC
:1023900021D1194BDB6A13F0100F1ED023F010036C
:1023A000154AD362042077E7134AD36A43F0040343
:1023B000D362042070E7104AD36A43F00403D36267
:1023C000F7E7012068E7FF2066E7012064E7FF20C8
:1023D00062E7042060E704205EE7FF205CE701205D
:1023E0005AE700BFFC4D0024634C0024005F00242A
:1023F000644D002430C60024CC4C002408C60024C0
:102400000F2827D8DFE800F01208280A0C0E101455
:1024100016181A1C1E2022241048704710487047B6
:102420001048704710487047104870471048704770
:102430001048704710487047104870471048704760
:102440001048704710487047104870471048704750
:1024500010487047074870470F487047C8FA060889
:10246000F8FA060808FB060818FB060828FB060809
:102470003CFB060844FB060850FB060864FB060804
:1024800070FB060884FB060898FB0608A8FB0608F4
:10249000B8FB0608C8FB0608E0FA060808B531B123
:1024A000012920D0124847F05DFF124808BD0138CD
:1024B000082816D8DFE800F0051907090B0D0F11E1
:1024C00013000D48F2E70D48F0E70D48EEE70D4820
:1024D000ECE70D48EAE70D48E8E70648E6E70C4870
:1024E000E4E70448E2E70348E0E70A48DEE700BF24
:1024F00040FC06082CFC0608D4FB0608ECFB06088A
:10250000F8FB060804FC060814FC060820FC060874
:1025100038FC0608E0FB06080138082816D8DFE872
:1025200000F0051707090B0D0F111300094870473C
:10253000094870470948704709487047094870477B
:10254000094870470948704709487047094870476B
:102550000948704770FC060888FC060894FC0608C9
:10256000A0FC0608B0FC0608BCFC0608C8FC06086F
:10257000D4FC0608DCFC06087CFC06080E2825D8DE
:10258000DFE800F008260A0C0E10121416181A1CA8
:102590001E2022000F4870470F4870470F487047B1
:1025A0000F4870470F4870470F4870470F487047F3
:1025B0000F4870470F4870470F4870470F487047E3
:1025C0000F4870470F4870470F4870470F487047D3
:1025D0000F487047E4FC0608E0FA0608F0FC06081D
:1025E00008FD060820FD060838FD060850FD06080F
:1025F0005CFD060874FD060884FD06089CFD0608BF
:10260000B4FD0608C4FD0608D4FD0608E4FD06086E
:10261000C8FA06080A281BD8DFE800F0061C080ADA
:102620000C0E1012141618000B4870470B48704718
:102630000B4870470B4870470B4870470B48704772
:102640000B4870470B4870470B4870470B48704762
:10265000044870470A487047F0FD060810FE060857
:102660001CFE060824FE06082CFE060838FE060896
:1026700040FE060848FE060854FE060864FE0608EA
:1026800000FE0608072815D8B0B10138062807D87B
:10269000DFE800F0041408060A0C0E000848704732
:1026A000084870470848704708487047084870470E
:1026B000084870470348704702487047064870470B
:1026C00074FE060880FE060888FE060894FE0608CA
:1026D000A0FE0608B4FE0608C0FE0608034603284E
:1026E00007D0042807D00548054A022B18BF10461A
:1026F0007047044870470448704700BFDCFE060876
:1027000080FE0608E8FE0608D0FE060803460428F8
:1027100007D0052807D00548054A032B18BF1046E7
:102720007047044870470448704700BFF8FE060829
:1027300024FE060800FF06080CFF060801380E28D4
:1027400013D8DFE800F0081212121212121212123D
:10275000140A0C0E100007487047074870470748D6
:102760007047074870470748704705487047064854
:10277000704700BF14FF06082CFF06083CFF060840
:102780004CFF060854FF060820FF060810B5044653
:102790000146434847F076FD0F2C11D80F2C0DD879
:1027A000DFE804F05C0A7A5456585A5E6062646648
:1027B000686A6C6E3B486CE03B486AE03B4868E006
:1027C000A4F69F039BB21C2B68D8A4F69F041C2C74
:1027D0005ED801A353F824F089280208852802084E
:1027E00091280208912802089128020891280208DD
:1027F00091280208B52702089128020891280208AA
:1028000091280208912802089128020891280208BC
:1028100091280208912802089128020891280208AC
:102820009128020891280208952802089128020898
:10283000912802089128020891280208912802088C
:1028400091280208912802088D280208184820E0E3
:1028500018481EE018481CE018481AE0184818E00C
:10286000124816E0174814E0174812E0174810E025
:1028700017480EE017480CE017480AE0174808E030
:10288000174806E0174804E0124802E0114800E04B
:10289000064810BD1448FCE71448FAE70348F8E777
:1028A00094FF060870FF0608C8FA060844FB0608ED
:1028B000F8FA060808FB060818FB060828FB0608B5
:1028C0003CFB060850FB060864FB060870FB060884
:1028D00084FB060898FB0608A8FB0608B8FB060858
:1028E000C8FB060884FF060860FF0608E0FA060831
:1028F00008B53A4BDB6A13F0400F53D0384A527890
:102900003AB1374A5278D2B2FF2A02D0344A5278CA
:1029100032BB344B1B78082B02D0032B26D003E0AC
:10292000314B1B78082B15D02F4B1B78032B1DD058
:1029300008232A4A93712B4A93712B4A93712B4B8C
:1029400093F83E30022B11D10823264A1370264AF1
:1029500013700BE007F0BEFD05F064FEFFF7D8F939
:10296000234A127802BB224B01221A70002008BDB4
:10297000FFF7CEF913F0800FF8D01A4A1278032A25
:10298000F4D0194A1278032AF0D0002219490A70AB
:1029900012490A70134802701348027023F0800332
:1029A000CB62E3E7124A12781D2AE1D813F0200F18
:1029B000E0D00C4A1278032AD8D00B4A1278032AA6
:1029C000D4D000220B490A7004490A7005480270ED
:1029D0000548027023F02003CB62C7E7FC4D0024BA
:1029E00038580024644D0024CC4C0024E4740024A6
:1029F000544C002460C600240B4B18780838C0B231
:102A000001288CBF00200120084B1B78092B06D021
:102A1000082B06D0022814BF002001207047013087
:102A2000F8E70130C0B2F5E7644D0024CC4C002437
:102A300008B5984BD3F8C036984271F1000104DB19
:102A4000944B5B78DBB2012B10D0934B1B785BB1BE
:102A5000904B01225A701422DA7002221A7003225B
:102A60009A708D4B00221A70002008BD8B4BDB79C9
:102A7000052B11D8002BE8D0013B042BE5D801A28F
:102A800052F823F0FB2A02081B2C0208052C02082E
:102A90004B2A0208C12C0208FF2BD6D1804B9B7910
:102AA000092B11D0082B19D0012B03D17D4B9B7919
:102AB000012B1DD012F0EAF90028C6D00123774A75
:102AC000D371794AD371C0E7764B9B79092BF1D149
:102AD0000123724AD371744AD371B6E7714B9B7963
:102AE000082BE7D101236D4AD3716F4AD371ACE74C
:102AF0006A4AD3716C4AD371A7E7684B5B78012BA4
:102B0000A3D1674B1B78082B15D0092B3CD0FFF7BE
:102B100073FF002899D05F4B1B78DBB2012B5CD090
:102B2000022B92D1614808F085F8002864D05B4BF5
:102B30000322DA7189E75B4B1B78082BE7D1554BF1
:102B40001B78DBB2012B0CD0022B7FF47EAF5748F1
:102B500008F070F890B10323504AD371524AD371F0
:102B600073E70121514809F01DFA18B14B4B0322BC
:102B7000DA716AE7494B0222DA7166E70223474AB3
:102B8000D371494AD37160E7464B1B78092BBED1FC
:102B9000404B1B78DBB2012B0AD0022B7FF455AFE0
:102BA000424808F047F890B13C4B0322DA714CE7F9
:102BB00001213E4809F0F6F918B1384B0322DA71C9
:102BC00043E70223354AD371374AD3713DE70223E5
:102BD000324AD371344AD37137E70121334809F0BF
:102BE000E1F918B12D4B0322DA712EE702232B4AAB
:102BF000D3712D4AD37128E70223284AD3712A4A78
:102C0000D37122E7254B5B78032B7FF41EAF05239E
:102C1000224AD371244AD37117E71E4B9B781BB30A
:102C20001C4BDB78DBB2224A12789A420CD3012388
:102C30001A4AD3711C4AD371164A9378013BDBB20E
:102C400093701B4B00221A70194B1B78194A12788B
:102C50009A423FF4FAAE174A13700E4A9178D2782E
:102C6000154847F00FFBF0E60A4B9B78002B7FF4EA
:102C7000ECAE084A5370094A5370FF23D371012305
:102C80009371074A9371074A93710C4847F06AFBA6
:102C9000DBE600BF3858002432A70024FC4D002496
:102CA000644D0024CC4C0024B04D00243C5800243A
:102CB000614C0024604C0024BCFF06081800070883
:102CC0001A4B5B78DBB2012B7FF4BFAE184B5B78FD
:102CD000052B7FF4BAAE164B9B79082B03D0144B0F
:102CE00008229A71B1E6134B9B79082B03D0114B44
:102CF00008229A71A9E6104B9B79082B03D00E4B42
:102D000008229A71A1E60D4BDB79052B03D00B4B02
:102D10000522DA7199E6064B1B78082B7FF495AEF5
:102D200007F0D8FB05F070FCFEF7F2FF38580024DE
:102D3000FC4D0024644D0024CC4C0024B04D0024F4
:102D4000304B1B78002B5CD100B583B02E4B5B78E9
:102D5000DBB2012B09D02C4B5B781BB92B4B1B78BA
:102D6000012B44D003B05DF804FB274B1B78DBB28A
:102D7000012B04D0244B1B78DBB2022BEBD1244B6C
:102D80001B78012B0ED0234B1B78012BE3D11F4B5B
:102D90001B780BBB1C4B5B78DBB2012B08D01A4BAA
:102DA0005B78DFE71C4BD3E90001FFF741FEEAE760
:102DB000154B1B78DBB2012BF1D1144B01221A7099
:102DC0001148C378154A0192154A00920622002143
:102DD000043011F03DF8BEE7012BE0D10A4B5B78DF
:102DE000DBB2012B0AD0084B5B78002BBAD1074B22
:102DF00000221A700B4847F0B5FAB3E711F02EF92C
:102E0000A9E77047B00A012438580024554C002423
:102E1000C15F0124C35F0124504E0024AD4203086A
:102E2000A9420308440007082B4B9B78002B36D19E
:102E30002A4B1B7843B32A4B9B79032B03D0294A97
:102E4000D27D012A18D0284A9279032A27D0254A10
:102E5000127E012A14D0032B21D00023214A93751E
:102E60001E4A1370214B9B79083BDBB2012B1AD908
:102E70001E4B08229A7116E01A4A0021D175E2E72A
:102E8000184A00211176E6E7194B1B7893B1144BD1
:102E90009B79032B03D0134BDB7D012B04D0114B0B
:102EA0009B7D002BDED0704700230E4AD375104A5D
:102EB0001370F4E70F4B1B78002BF0D00A4B9B7973
:102EC000032BECD0074B1B7E012BE8D10023054AD6
:102ED0001376084A1370E2E760C6002435A7002481
:102EE000644D0024005F0024CC4C0024FC4D0024E1
:102EF00034A7002433A7002410B596B0254C002237
:102F000007A920461BF005F900220CA920461BF05A
:102F100026F99DF81C300F939DF81D300E939DF8F7
:102F20001E300D939DF8323010939DF831309DF88E
:102F3000332064321292013B11930DA847F0F8FD43
:102F4000154BC3E90001184647F0FFFB014600237B
:102F50000093019302930393049305938DF8183023
:102F6000684648F00EFBFFF7C3FC0C4B1B781BB107
:102F70000B4B5B7E022B06D0FFF756FFFFF7E0FE00
:102F8000002016B010BD064B01225A7605F0D6FF80
:102F9000F2E700BFD4660124504E002404CB002485
:102FA000005F00240C4B93F8403013F0010F03D066
:102FB0000A4B1B78032B0AD0094B1B78DBB2012B81
:102FC00007D0084B1878023818BF0120704700203E
:102FD00070470020704700BFE47400243E000024C6
:102FE0003EBF0024345E012438B5A44BDB6A13F0E5
:102FF000010F3DD0A24A927802F0FF04002A37D197
:10300000A04A9178092969D89E4A55789B4805724B
:10301000817192ED046A80ED046AD2ED056AC0ED1B
:10302000056A92ED0E7BB7EEC77B80ED097AD2F888
:103030001CE0C0F81CE0D2F820C0C0F820C09469A1
:103040008461D07808B18D4A50728F4A157291719F
:1030500082ED046AC2ED056A82ED097AC2F81CE0CD
:10306000C2F820C09461507223F00103834AD362F6
:10307000824BD3ED097AF5EE407AF1EE10FA60D08A
:103080009A79D31EDBB2012B30D9062A2ED07F4B82
:10309000D3ED0C7A7E4B93ED0C7AF4EE477AF1EE99
:1030A00010FA5ED1754BDB6A13F0020F40F0098213
:1030B00013F0040F3ED0714A9279033AD2B2022A39
:1030C0004BD9744A526822B172498A6842F00202AE
:1030D0008A6023F00403694AD3622BE023F00103E2
:1030E000664AD3626C4847F0CDF828E0684B93ED10
:1030F0000C7A77EE877A654BC3ED0C7A674BC3ED9C
:10310000007A5E4BDB6A13F0020FD1D05B4A9279F2
:10311000032A40F0D88123F00203584AD3625D4A63
:10312000936843F0010393605D4B00221A705D4B7E
:1031300001221A70FFF736FF012851D000242046E3
:1031400038BD4E4B9B79032BA1D14C4BDB6A13F05E
:10315000020FE0D113F0040FECD0042011F02AFB91
:10316000E8E71C46C3ED0C7A05F0B4F805F092F8D8
:10317000D4ED0C7AC2E7012ADCD10021042011F041
:1031800025FB0028D6D03D4AD36A23F00203D36240
:10319000042011F00FFB444847F0E4F8434812F0D4
:1031A00033FB3F4B00221A703E4B01221A70C1E7DD
:1031B000022011F0FFFA3A4B1B7813B1384B002272
:1031C0001A703B4B5B899BB213B1394B00225A8179
:1031D000344B1B78002BADD1324B01221A70A9E77A
:1031E000264B93F83030002B00F02C81234B9B7939
:1031F000032B28D02F4BDA8A40F201139A4240F079
:1032000013812C4B1C7B012C70D02A4B5C79012C38
:1032100000F09380274BDC79012C00F0B680254B21
:103220001C79012C00F0D980032009F083FC224B8B
:1032300000221A605A609A60DA601A615A611F4867
:1032400047F090F8FEE01C491D4847F068FA002856
:103250003AD01C4847F086F8174B00241C605C608D
:103260009C60DC601C615C6153F8042C42F0040239
:1032700043F8042C074B03221A7060E7644D0024C6
:1032800060C60024C8CE0024184D002410CF0024AE
:103290004CCF002430C600246C00070858CD002411
:1032A0005F4C002429000024C80007080401070817
:1032B000644C0024005F0024944D00248C02070815
:1032C0003CC60024500107088E4847F04BF88E4852
:1032D00012F09AFA8D4B00241C605C609C60DC60EC
:1032E0001C615C61032009F025FC28E7874808F091
:1032F0008BFE002889D0854D2946854848F041F944
:1033000055F8043C43F0020345F8043C00232B60CD
:103310006B60AB60EB602B616B617E4B01221A70BE
:103320007D4B5B8C13449BB27C4A5381022009F095
:1033300001FC7B4847F016F801E7744808F0B2FE3C
:1033400000283FF467AF714D2946714848F019F9DC
:1033500055F8043C43F0020345F8043C00232B607D
:103360006B60AB60EB602B616B616B4B5B8C013313
:103370009BB26A4A5381674B01221A70022009F0FE
:10338000D9FB684846F0EEFFD9E6604808F03CFEFD
:1033900000283FF444AF5D4D29465D4848F0F1F800
:1033A00055F8043C43F0020345F8043C00232B602D
:1033B0006B60AB60EB602B616B61564B01221A7046
:1033C000554B5B8C13449BB2544A5381022009F045
:1033D000B1FB534846F0C6FFB1E64C4D29464C4878
:1033E00048F0CFF855F8043C43F0020345F8043C9C
:1033F00000232B606B60AB60EB602B616B61464B15
:103400005B8C01339BB2454D6B81424B01221A709C
:10341000022009F08FFB444846F0A4FF698989B275
:10342000424846F02FFF8AE6032009F083FB374B22
:1034300000221A605A609A60DA601A615A613C4848
:1034400046F090FF344B5C7E012C0AD0002C3FF4F8
:1034500076AE384B9B79062B26D0012B2BD000243F
:103460006DE6344B9B79022B08D0062B16D1314ADE
:10347000D36A43F00403D362002460E62E4B1B782A
:1034800053B92C4AD36A43F00203D362224B5B8CBC
:1034900001339BB2214A5381002450E6012B0ED107
:1034A0000024254B1C704AE6224AD36A43F00403E9
:1034B000D362002443E600241F4B1C703FE6002427
:1034C0003DE61C4B9A79154B5B899BB2012B7FF62D
:1034D00052AE022A3FF46CAE104B5B899BB2174987
:1034E000097899423FF426AE012A7FF423AE0B4BB4
:1034F0005989124A1170598989B2114846F0C2FEA1
:1035000018E600BF80010708B87A0708944D002428
:103510003CC600245F4C0024005F0024644C00245F
:10352000B4010708EC010708240207086002070835
:10353000BC020708644D0024290000245D4C0024CF
:103540001C01070838B5A14BDB6A13F0010F3DD011
:103550009F4A927802F0FF04002A37D19D4A917861
:10356000092973D89B4A557898480572817192ED64
:10357000046A80ED046AD2ED056AC0ED056A92ED39
:103580000E7BB7EEC77B80ED097AD2F81CE0C0F85D
:103590001CE0D2F820C0C0F820C094698461D078C3
:1035A00008B18A4A50728C4A1572917182ED046A90
:1035B000C2ED056A82ED097AC2F81CE0C2F820C0AB
:1035C0009461507223F00103804AD3627F4BD3EDA4
:1035D000097AF5EE407AF1EE10FA4BD09A79D31EC3
:1035E000DBB2012B3AD9062A38D07C4BD3ED0D7AC9
:1035F0007B4B93ED0D7AF4EE477AF1EE10FA49D158
:10360000724BDB6A13F0020F00F09A806F4A9179D7
:10361000CA1ED2B2022A48D9724B9B899BB2012B97
:1036200059D9022974D06F4B9B899BB26E4A12788C
:103630009A4249D0012947D16A4B99896A4A117047
:10364000998989B2694846F01DFE3DE023F00103E7
:103650005E4AD362664846F015FE3AE0604B93ED51
:103660000D7A77EE877A5D4BC3ED0D7A614BC3ED32
:10367000017AC5E7554B9B79032BB6D1534BDB6AD7
:1036800013F0020F11D113F0040F1DD0542011F0CC
:1036900097F819E01C46C3ED0D7A04F01BFE04F008
:1036A000F9FD626B534B5A60AAE723F00203474AC5
:1036B000D362514A936843F0010393604F4B002259
:1036C0001A704F4B01221A70FFF76CFC01284ED084
:1036D0000024204638BD0129F6D10021542011F0E4
:1036E00089F80028F0D0394AD36A23F00203D36264
:1036F000542011F065F8434846F034FE424812F079
:1037000083F83E4B00221A703D4B01221A70DBE712
:10371000522011F055F8394B1B7813B1374B00226A
:103720001A70304B9B899BB213B12E4B00229A81A9
:10373000334B1B78002BC7D1314B01221A70C3E7E2
:1037400013F0040FC0D0214A9279033AD2B2022A70
:103750009CD923F004031D4AD362274B5B68002BDE
:10376000B2D0254A936843F002039360ACE7174B4D
:1037700093F83030CBB1154B9B79032B4CD0234BB6
:103780009B7D012B03D1214B1B7E012B70D003208D
:1037900009F0D0F91E4B00221A605A609A60DA6074
:1037A0001A615A611B4846F0DDFD184B5C7E012C06
:1037B00000F01A81002C8CD0044B9B79062B00F072
:1037C0003681012B00F03A81002482E7CC4C0024A2
:1037D00060C6002480CE0024804C002410CF00243A
:1037E0004CCF0024644C00245C4C00249803070850
:1037F000E802070858CD002408C600245E4C0024C7
:10380000280000244403070880030708005F002401
:10381000FC4C0024BC0207088B498C4846F07FFF13
:10382000A0B18B4846F09EFD874B00241C605C6075
:103830009C60DC601C615C6153F8042C42F0040263
:1038400043F8042C834B03221A7042E7824846F067
:1038500089FD824811F0D8FF7B4B00241C605C601E
:103860009C60DC601C615C61032009F063F930E757
:103870007B4B1C7B012C1BD0794B5C79012C3ED0FF
:10388000774BDC79012C61D0754B1C79012C00F051
:103890008480032009F04EF96B4B00221A605A60B5
:1038A0009A60DA601A615A616E4846F05BFD7CE707
:1038B000654808F0A9FB0028DED0634D294663481F
:1038C00047F05FFE55F8043C43F0020345F8043C22
:1038D00000232B606B60AB60EB602B616B6102209F
:1038E00009F028F9604B01221A705D4B5B8C134480
:1038F0009BB25E4A93815E4846F034FDE9E6524849
:1039000008F0D0FB0028BBD04F4D29464F4847F068
:1039100038FE55F8043C43F0020345F8043C00230C
:103920002B606B60AB60EB602B616B61022009F078
:1039300001F94D4B01221A70494B5B8C13449BB229
:103940004A4A93814B4846F00DFDC2E63E4808F0D6
:103950005BFB002898D03C4D29463C4847F011FEBF
:1039600055F8043C43F0020345F8043C00232B6067
:103970006B60AB60EB602B616B61022009F0DAF8E1
:10398000394B01221A70364B5B8C13449BB2374A79
:103990009381374846F0E6FC9BE62B4D29462B48A1
:1039A00047F0EFFD55F8043C43F0020345F8043CB2
:1039B00000232B606B60AB60EB602B616B610220BE
:1039C00009F0B8F8284B01221A70254B5B8C134480
:1039D0009BB2264DAB81284846F0C4FCA98989B228
:1039E000264846F04FFC74E6254B9B79022B08D005
:1039F000062B16D1224AD36A43F00403D362002473
:103A000067E6204B1B7853B91D4AD36A43F0020383
:103A1000D362134B5B8C01339BB2144A9381002415
:103A200057E6012B0ED10024164B1C7051E6144AA8
:103A3000D36A43F00403D36200244AE60024114B06
:103A40001C7046E6002444E6FC4C002414C6002406
:103A50005001070808C6002480010708B87A070843
:103A6000005F00248C0207085E4C0024644C002494
:103A7000B4010708EC010708CC0307086002070837
:103A8000CC4C00242800002408B5FFF7ADFAFFF75E
:103A900059FDFFF731FAFFF753F908BD08B5FF23C9
:103AA00043700370037143718371C37083704FF669
:103AB000FF73C36203864FF0FF338366036643667A
:103AC0000D4B4363031D00F128014FF0FF3243F813
:103AD000042F8B42FBD100F138035C304FF09F4242
:103AE00043F8042B8342FBD1044846F03BFC05F02D
:103AF00057FE012008BD00BF000080BF0804070872
:103B000010B582B0044600238DF807308DF80630DA
:103B10002B4946F004FE50B1002200926A46294922
:103B20000C3046F07FFC9DF800308DF806302649B9
:103B3000204646F0F4FD00283AD024490B3046F0E8
:103B4000EEFD002837D000238DF807309DF80730B0
:103B5000DBB2012B31D81E499DF807309DF80620B5
:103B6000D2B2C3EBC30301EB03135B7893420CD0D7
:103B70009DF807300133DBB28DF807309DF8073030
:103B8000DBB2012BE8D9002013E09DF80700C0EB61
:103B9000C0000F4B03EB0010FFF780FF0D4846F00D
:103BA000E1FB0D4B00221A7005F0FAFD012000E048
:103BB000002002B010BD0020FBE70020F9E700BFA5
:103BC0002C040708380407083C0407085059070864
:103BD0005857002448040708584E002410B582B0F6
:103BE000044600238DF807308DF80630664946F00C
:103BF00096FD50B1002200926A4664490C3046F0AE
:103C000011FC9DF800308DF806306149204646F0E1
:103C100086FD0446002800F0B0800B345D49204644
:103C200046F07DFD00285BD000238DF807309DF81D
:103C30000730DBB2012B17D857499DF807309DF8A4
:103C40000620D2B2C3EBC30301EB03135B789342AC
:103C500033D09DF807300133DBB28DF807309DF883
:103C60000730DBB2012BE8D94C49204646F057FD1E
:103C7000002800F0858000238DF807309DF807307C
:103C8000DBB2012B7ED846499DF807309DF806200F
:103C9000D2B2C3EBC30301EB03135B78934259D059
:103CA0009DF807300133DBB28DF807309DF80730FF
:103CB000DBB2012BE8D9002060E09DF80700C0EBE3
:103CC000C000354B03EB0010FFF7E8FE354846F027
:103CD00049FB354B00229A7005F062FD01204DE052
:103CE0003249204646F01BFD0028BDD000238DF848
:103CF00007309DF80730DBB2012BB5D82C499DF871
:103D000007309DF80620D2B2C3EBC30301EB0313C7
:103D10005B7893420BD09DF807300133DBB28DF80E
:103D200007309DF80730DBB2012BE8D99CE79DF8FE
:103D30000700C0EBC0001E4B03EB0010FFF7AEFE08
:103D40001C4846F00FFB184B0022DA7005F028FDE6
:103D5000012013E09DF80700C0EBC000104B03EBFF
:103D60000010FFF79BFE144846F0FCFA0E4B0022B1
:103D70005A7005F015FD012000E0002002B010BDD2
:103D80000020FBE70020F9E72C04070838040708A7
:103D90003C040708305B070898550024B80407085E
:103DA0007856002468040708584E0024405B070832
:103DB000B854002490040708BC04070830B583B049
:103DC0000546554946F0ABFC78B3002200926A469E
:103DD00052490C3046F026FB9DF8004050492846D9
:103DE00046F09DFCF0B100F10B054E49284646F027
:103DF00096FC00283ED000238DF807309DF8073050
:103E0000DBB2012B0ED8484B5A78A2420FD09DF856
:103E100007300133DBB28DF807309DF80730DBB295
:103E2000012BF2D9012003B030BD0024D6E70021D8
:103E30003E4B19713C4CA170617021702186E1707C
:103E40006171E16200236363242204F1080046F0FB
:103E500019FC04F138035C34002243F8042BA3421C
:103E6000FBD1334B1B78DBB2012BDBD1304BFF2274
:103E70001A70D7E72F49284646F051FC0028D1D0C8
:103E800000238DF807309DF80730DBB2012BC9D82D
:103E9000294B5A78A2420BD09DF807300133DBB290
:103EA0008DF807309DF80730DBB2012BF2D9B9E766
:103EB00000241E4B5C71204884704470047004869A
:103EC000C4704471C4620023436324222146083035
:103ED00046F0D8FB8DF800409DF80030DBB2082B8F
:103EE00011D8154900229DF8003001EB83039A6335
:103EF0009DF800300133DBB28DF800309DF80030C2
:103F0000DBB2082BEFD90D4B1B78DBB2012B89D12B
:103F10000A4BFF221A7085E72C04070838040708AB
:103F20003C040708305B070848540024584E00241E
:103F30000D000024405B0708D85300240C00002427
:103F400010B582B000212C4B19712C4CA1706170FE
:103F500021702186E1706171E16200236363242294
:103F600004F1080046F08EFB04F138035C340022B3
:103F700043F8042BA342FBD1214B1B78DBB2012B6E
:103F800031D000241C4B5C711E4884704470047056
:103F90000486C4704471C462002343632422214612
:103FA000083046F06FFB8DF807409DF80730DBB214
:103FB000082B11D8134900229DF8073001EB830329
:103FC0009A639DF807300133DBB28DF807309DF816
:103FD0000730DBB2082BEFD90B4B1B78DBB2012B80
:103FE00005D002B010BD064BFF221A70C9E7064B80
:103FF000FF221A70F5E700BF584E002448540024F1
:104000000D000024D85300240C0000242DE9F043B7
:104010002DED028BBDB0044600213B9170221FA8FC
:1040200046F030FBA549204646F079FB30B100222E
:10403000169216AAA2490C3046F0F4F93B9B012BCC
:1040400005DD00203DB0BDEC028BBDE8F0839D494D
:10405000204646F064FB002800F0CE809A492046B6
:1040600046F05DFB002800F088829849204646F023
:1040700056FB002800F0DE800022169216AA904916
:10408000133046F0CFF9169BADF8AC3001268B49C2
:10409000204646F044FB58B10022169216AA8849E1
:1040A0000C3046F0BFF9169B8DF87D300136F6B224
:1040B0008749204646F033FB58B186490B3046F01D
:1040C0002EFB002800F05D8200238DF87C30013645
:1040D000F6B28149204646F022FB58B17949204684
:1040E00046F01DFB002800F0A78001238DF87F30EB
:1040F0000136F6B27949204646F011FB002800F05F
:10410000BA807749204646F00AFB002800F0A880D4
:1041100001238DF880307349204646F000FB0028CB
:1041200000F09F817049204646F0F9FA40B1002224
:10413000169216AA62490A3046F074F9169B2A9321
:104140006149204646F0EBFA80B116AB039317ABFA
:10415000029318AB019319AB00931AAB1BAA6349E6
:10416000123046F05FF9062800F089806049204649
:1041700046F0D5FA054650B15E4946F0D0FA00281F
:1041800000F0918002238DF881300136F6B25A4951
:10419000204646F0C4FA50B10022169216AA57499A
:1041A000113046F03FF9169B2C930136F6B2544974
:1041B000204646F0B4FA002800F0538151492046C9
:1041C00046F0ADFA0546002800F04B814E492046E6
:1041D00046F0A5FA002800F0448100238DF816303F
:1041E0009DF81630DBB2082B00F2EA80454FDFF86D
:1041F0003481DFF83491AEE04449204646F08FFA2E
:1042000040B14349204646F08AFA00287FF42DAF9A
:10421000002017E73F49204646F081FA002800F0C9
:10422000AE812E49204646F07AFA00287FF41DAF71
:10423000002007E700262AE73649204646F06FFAB5
:1042400018B102238DF87F3052E73049204646F0FE
:1042500066FA00283FF44CAF03238DF87F3047E720
:104260002D49204646F05BFA00283FF454AF022364
:104270008DF880304FE700238DF880304BE71B9B93
:1042800064331B931A9B013B1A9316A846F050FC0B
:104290000C900D9139900CA846F057FA01461F4832
:1042A00045F0F0FF62E71E49284646F038FA00283C
:1042B0003FF46BAF01238DF8813066E72C040708CB
:1042C00038040708E4040708F0040708380507085D
:1042D0003C040708B80407084C0507082805070828
:1042E000600507087005070884050708900507089A
:1042F000D8050708EC050708F405070804060708B1
:1043000008060708200607082C0607080005070806
:104310000C0507081C05070868050708A805070815
:10432000F00507089C810708803A09009DF81630BF
:104330003CAA02EB830353F86C2C934B9A4239D876
:104340009DF816300133DBB28DF816309DF816302B
:10435000DBB2082B34D83946284646F0E0F905464A
:104360000028EDD0002316930D3516AA41462846A5
:1043700046F058F89DF816303CAA02EB8303169AD3
:1043800043F86C2C9DF816308DF882309DF8803003
:10439000012BCBD0022BD3D19DF816303CAA02EBD7
:1043A000830353F86C3C4B45CAD921A9774845F0A3
:1043B00069FF03E021A9754845F064FF002041E64C
:1043C0007349204646F0ABF9054600238DF81730B7
:1043D0009DF81730DBB2082B3DD86E4F4FF0000828
:1043E0009FED6D8A0AE09DF817300133DBB28DF83E
:1043F00017309DF81730DBB2082B2CD839462846E9
:1044000046F08DF905460028EDD0CDF858803946A4
:1044100046F085F9C51D16AA6049284646F002F8FF
:104420009DF81730DDED167A3CAA02EB830343EDCD
:104430000F7A9DF88130012BD5D1F4EEC87AF1EED8
:1044400010FAD0DDB7EEE77A53EC172B544845F05D
:1044500019FF0020F6E59DF8821008293BD80136A7
:10446000F6B2504D002207A9284619F052FE00224C
:1044700006A9284619F073FE4B49204646F04FF92D
:10448000002848D016AB039317AB029318AB0193E7
:1044900019AB00931AAB1BAA44490E3045F0C2FF7A
:1044A00006281DD04249204646F039F978B116ABAE
:1044B000039317AB029318AB019319AB00931AAB9C
:1044C0001BAA3A490C3045F0ADFF062839D0052E1D
:1044D00042D80020B6E5374845F0D4FE0020B1E5CB
:1044E0001B9B64331B931A9B013B1A9316A846F03F
:1044F0001FFB0C900D9137900CA846F026F9014651
:104500002D4845F0BFFE9DF81D209DF81C102B483E
:1045100045F0B8FEC6E79DF81C300E939DF81D309F
:104520000D939DF81A300F939DF819309DF81B20BC
:1045300064321192013B10930CA846F0F9FA3790BF
:10454000B0E71B9B64331B931A9B013B1A9316A87D
:1045500046F0EEFA3890BAE73B98C0EBC000702204
:104560001FA9174B03EB001047F013F8154845F04F
:10457000F9FE05F015F9012064E5002062E5002050
:1045800060E500205EE500BF8051010034060708A9
:10459000080607082C060708000021430406070840
:1045A00058060708D4660124AC06070890050708DA
:1045B000F40607087C060708B8060708D4060708AB
:1045C00058570024FC0607082DE9F04F2DED028B0B
:1045D000B3B0044600218DF8C710AC4B597070225F
:1045E00015A846F04FF8AA49204646F098F830B191
:1045F00000220C920CAAA7490C3045F013FF9DF83D
:10460000C730DBB2012B00F2B782A349204646F047
:1046100086F8002800F0D580A049204646F07FF8B3
:10462000002800F0C9809E49204646F078F800280E
:1046300000F0DE8000220C920CAA9649133045F05F
:10464000F1FE0C9BADF8843001269149204646F0DE
:1046500066F858B100220C920CAA8E490C3045F035
:10466000E1FE0C9B8DF855300136F6B28D4920469F
:1046700046F055F868B100F10B058B49284646F025
:104680004EF8002800F0B68000238DF85430013633
:10469000F6B28649204646F042F858B17E49204697
:1046A00046F03DF8002800F0B98001238DF857301E
:1046B0000136F6B27E49204646F031F848B17D49D0
:1046C000204646F02CF8002800F0BC8001238DF82D
:1046D00058307949204646F022F8002800F0AF8192
:1046E0007649204646F01BF8002800F0B6800022EC
:1046F0000C920CAA67490A3045F094FE0C9B20935B
:104700006649204646F00BF880B10CAB03930DAB25
:1047100002930EAB01930FAB009310AB11AA684943
:10472000123045F07FFE062800F09A806549204649
:1047300045F0F5FF054650B1634945F0F0FF00280C
:1047400000F0998002238DF859300136F6B25F49A6
:10475000204645F0E4FF50B100220C920CAA5C49BF
:10476000113045F05FFE0C9B22930136F6B2594999
:10477000204645F0D4FF002800F0618156492046CC
:1047800045F0CDFF0546002800F0598153492046E9
:1047900045F0C5FF002800F0528100238DF812304B
:1047A0009DF81230DBB2082B00F2F8804A4FDFF898
:1047B0005081DFF850A1BCE0494845F0D3FD00200E
:1047C000E2E14849204645F0AAFF00287FF42BAFDC
:1047D0004549204645F0A3FF002800F0DA8134491E
:1047E000204645F09CFF00287FF41DAF0020CBE160
:1047F00000262AE73D49284645F091FF18B10123DC
:104800008DF8543045E73A49284645F088FF00289E
:104810003FF43FAF02238DF854303AE73249204647
:1048200045F07DFF18B102238DF8573040E72D4940
:10483000204645F074FF00283FF43AAF03238DF87B
:10484000573035E72B49204645F069FF00283FF4F3
:1048500040AF02238DF858303BE7274B20934FE7BA
:10486000119B64331193109B013B10930CA846F0ED
:104870005FF92F905AE72149284645F050FF00285C
:104880003FF463AF01238DF859305EE7584E0024A2
:104890002C04070838040708E4040708F004070894
:1048A000380507083C040708B80407084C05070842
:1048B000280507086005070870050708840507082C
:1048C00090050708D8050708EC050708F405070850
:1048D0000406070808060708200607084407070813
:1048E00018070708000507081C050708305B0708BC
:1048F000405B07086805070880510100F0050708BC
:104900009C810708803A09009DF8123032AA02EB18
:10491000830353F86C2CA04B9A4239D89DF812307F
:104920000133DBB28DF812309DF81230DBB2082B68
:1049300034D83946284645F0F2FE05460028EDD029
:1049400000230C930D350CAA4146284645F06AFD1C
:104950009DF8123032AA02EB83030C9A43F86C2CB8
:104960009DF812308DF85A309DF85830012BCBD07D
:10497000022BD3D19DF8123032AA02EB830353F8F5
:104980006C3C5345CAD917A9844845F07BFC03E029
:1049900017A9824845F076FC0020F5E080492046C2
:1049A00045F0BDFE054600238DF813309DF8133009
:1049B000DBB2082B3DD87B4F4FF000089FED7A8A81
:1049C0000AE09DF813300133DBB28DF813309DF807
:1049D0001330DBB2082B2CD83946284645F09FFE11
:1049E00005460028EDD0CDF83080704945F097FE9F
:1049F000C51D0CAA6E49284645F014FD9DF81330DC
:104A0000DDED0C7A32AA02EB830343ED0F7A9DF8B9
:104A10005930012BD5D1F4EEC87AF1EE10FAD0DD81
:104A2000B7EEE77A53EC172B624845F02BFC0020D9
:104A3000AAE09DF85A10082936D80136F6B25E4928
:104A4000204645F06CFE002847D00CAB03930DAB1D
:104A500002930EAB01930FAB009310AB11AA574911
:104A60000E3045F0DFFC062823D05549204645F09E
:104A700056FE002862D00CAB03930DAB02930EAB35
:104A800001930FAB009310AB11AA4C490C3045F0C9
:104A9000C9FC062845D04B4B1A685B684A4573EB46
:104AA0000B034FDB00206FE0474845F0EBFB002095
:104AB0006AE0119B64331193109B013B10930CA887
:104AC00046F036F8069007912D9006A845F03DFE79
:104AD00001463E4845F0D6FBC7E73D4D002206A9FA
:104AE000284619F016FB002205A9284619F037FBC5
:104AF0009DF818300E939DF819300D939DF81A30DB
:104B00000C939DF816300F939DF815309DF81720E3
:104B100064321192013B10930CA846F009F82D90D5
:104B2000A3E7119B64331193109B013B10930CA8D6
:104B300045F0FEFF81468B462E90ACE7164B2D9A32
:104B400013442E93032E11D99DF8C700C0EBC0006B
:104B5000702215A91F4B03EB001046F01AFD1E48EA
:104B600045F000FC04F01CFE01200DE031461B481E
:104B700045F088FB002007E00021194845F082FB42
:104B8000184845F0EFFB002033B0BDEC028BBDE8C8
:104B9000F08F0020F8E700BF8051010034060708BD
:104BA000080607082C0607080000A042440707086B
:104BB0000406070858060708AC060708900507080A
:104BC000F4060708504E00247C060708B8060708BC
:104BD000D4660124785600244C0707087407070898
:104BE00094070708B00707082DE9F04F2DED028B59
:104BF000BFB0044600218DF8F710AC4B99707022BD
:104C000021A845F03FFDAA49204645F088FD88B31C
:104C10000022189218AAA7490C3045F003FC9DF811
:104C2000600000238DF8F7309DF8F730DBB2012BE0
:104C30002AD8A14A4FF6FF719DF8F730C3EBC303A2
:104C400002EB03131B8E8B4216D09DF8F730C3EB9B
:104C5000C30302EB03135B7883420DD09DF8F7305A
:104C60000133DBB28DF8F7309DF8F730DBB2012B62
:104C7000E2D909E00020D4E7904B1B789DF8F7209B
:104C8000DBB2934200F006839DF8F730DBB2012BD4
:104C900005D900203FB0BDEC028BBDE8F08F8849FC
:104CA000204645F03CFD002800F0A38085492046C1
:104CB00045F035FD002800F0EF828349204645F09D
:104CC0002EFD002800F0AD808049204645F027FDEC
:104CD000002800F0A9800022189218AA7C490C3004
:104CE00045F0A0FB189B05937A49204645F017FD37
:104CF000002800F09C800022189218AA6D491330F9
:104D000045F090FBBDF860300693012668492046C7
:104D100045F005FD002800F08E800022189218AAA8
:104D200064490C3045F07EFB9DF8603007930136F6
:104D3000F6B26949204645F0F2FC00287ED067496A
:104D40000B3045F0ECFC00287BD00136F6B2012395
:104D500008936349204645F0E2FC002800F0868075
:104D60005749204645F0DBFC00286DD0012309930C
:104D70000136F6B25B49204645F0D1FC002800F030
:104D800084805949204645F0CAFC002871D04FF074
:104D900001085649204645F0C2FC002800F09581E4
:104DA0005349204645F0BBFC002871D000221892E0
:104DB00018AA40490A3045F035FB189B0B9341492E
:104DC000204645F0ACFC002800F09C8018AB039313
:104DD00019AB02931AAB01931BAB00931CAB1DAA3A
:104DE0004449123045F01EFB062854D000230A9394
:104DF0008AE03549204645F092FC00287FF464AFF4
:104E00003D49204645F08BFC002800F0478235499B
:104E1000204645F084FC002800F0428200230593E0
:104E200062E7002305935FE7002305935CE7002317
:104E300006931E466AE7002307937AE70023089348
:104E400087E70023089384E72B49204645F067FC59
:104E500010B1022309938BE71B49204645F05FFC04
:104E6000002814BF03230023099381E7002309933B
:104E700080E72249204645F052FCB0F1000818BFF7
:104E80004FF001084FEA480883E74FF0000880E739
:104E90001B4B0B9393E71D9B64331D931C9B013BA2
:104EA0001C9318A845F044FE0A902DE0584E0024AB
:104EB0002C04070838040708985500240F00002424
:104EC000E4040708F0040708000507080C050708B4
:104ED0009C810708380507083C040708305B070871
:104EE0004C0507082805070860050708700507082E
:104EF00084050708900507081C05070868050708CA
:104F00008051010000230A93B449204645F007FC74
:104F10000546002848D0B24945F001FC002839D0A8
:104F20004FF0020B0136F6B2AE49204645F0F7FBD2
:104F300000283CD00022189218AAAB49113045F045
:104F400071FA9DED188A0136F6B2A849204645F05F
:104F5000E6FB002800F0F980A549204645F0DFFB7C
:104F60000546002800F0F380A249204645F0D7FB13
:104F7000002800F0EE8000238DF83A309DF83A309A
:104F8000DBB2082B00F290810027DFF86492DFF893
:104F900098A224E09849284645F0C1FBB0F1000BE7
:104FA00018BF4FF0010BBDE74FF0000BBCE79FEDC2
:104FB000938ACAE79DF83A303EAA02EB830353F87E
:104FC0006C2C8F4B9A4234D89DF83A300133DBB2C7
:104FD0008DF83A309DF83A30DBB2082B2BD8494691
:104FE000284645F09CFB05460028EDD00023189389
:104FF0000D3518AA5146284645F014FA9DF83A3066
:105000003EAA02EB8303189A43F86C2C9DF83A7081
:10501000FFB2B8F1010FCDD0B8F1020FD4D19DF895
:105020003A303EAA02EB830353F86C3C754A934234
:10503000CAD900202EE66D49204645F070FB054692
:1050400000238DF83B309DF83B30DBB2082B36D87F
:10505000DFF8A0914FF0000ADFED6B8A0AE09DF8BF
:105060003B300133DBB28DF83B309DF83B30DBB297
:10507000082B24D84946284645F051FB0546002810
:10508000EDD0CDF860A0614945F049FBC51D18AAD7
:105090005549284645F0C6F99DF83B30DDED187AB4
:1050A0003EAA02EB830343ED0F7ABBF1010FD6D189
:1050B000F4EEE87AF1EE10FAD1DD0020EAE5082FEF
:1050C00000F2F0800136F6B206E000230A939FED6D
:1050D0004B8A0B931F469B464D49204645F01FFBCC
:1050E000002843D018AB039319AB02931AAB01937A
:1050F0001BAB00931CAB1DAA46490E3045F092F93C
:10510000062828D000254449204645F008FB002801
:1051100000F08C8018AB039319AB02931AAB019388
:105120001BAB00931CAB1DAA3A490C3045F07AF931
:10513000062845D00023394A116852680C988142EC
:105140000D998A4174DB0020A4E50027C4E70027FD
:10515000C2E70027C0E71D9B64331D931C9B013BE6
:105160001C9318A845F0E4FC0546CCE72C4D002222
:1051700013A9284618F0CDFF00220FA9284618F0E1
:10518000EEFF9DF84C301A939DF84D3019939DF821
:105190003E301B939DF83D309DF83F2064321D92B8
:1051A000013B1C9318A845F0C3FC054610901191D3
:1051B00010A845F0CAFA01461A4845F063F8A2E77C
:1051C0001D9B64331D931C9B013B1C9318A845F049
:1051D000AFFC03460C900D91ADE700BFD805070862
:1051E000EC050708F4050708040607080806070881
:1051F000200607082C060708F00507080000000035
:1052000080510100803A09000000A04244070708CD
:10521000AC06070890050708F4060708504E00245E
:10522000D4660124B80607089C810708274B2B4445
:10523000032E01D800202DE59DF8F700089A8DF87F
:105240008420079A8DF88520099A8DF887208DF89B
:1052500088808DF889B08DF88A700B9A2C92069A06
:10526000ADF8B4208DED2E8A059A389239953A938F
:105270000A9B3B93C0EBC000702221A9144B03EBA7
:10528000001046F086F9134845F06CF804F088FAEF
:105290000120FFE40020FDE40020FBE40020F9E40D
:1052A0000020F7E40020F5E40B49204645F037FAEA
:1052B000054600238DF83B309DF83B30DBB2082BD0
:1052C00001D80027C4E60027FCE600BF805101009A
:1052D00098550024E4070708080607082DE9F04F51
:1052E0002DED028BC5B0044600218DF80F11AD4B9A
:1052F000D970702227A845F0C5F9AB49204645F082
:105300000EFA88B300221E921EAAA8490C3045F05E
:1053100089F89DF8780000238DF80F319DF80F3142
:10532000DBB2012B2AD8A24A4FF6FF719DF80F314C
:10533000C3EBC30302EB03131B8E8B4216D09DF805
:105340000F31C3EBC30302EB03135B7883420DD031
:105350009DF80F310133DBB28DF80F319DF80F311D
:10536000DBB2012BE2D909E00020D4E7914B1B7896
:105370009DF80F21DBB2934200F021839DF80F319D
:10538000DBB2012B00F21D838B49204645F0C7F9A3
:10539000002800F0AC808949204645F0C0F900287B
:1053A00000F015838649204645F0B9F9002800F041
:1053B000B4808449204645F0B2F9002800F0B0805E
:1053C00000221E921EAA80490F3045F02BF81E9B2A
:1053D00008937E49204645F0A2F9002800F0A380FA
:1053E00000221E921EAA7149133045F01BF8BDF829
:1053F0007830069301256C49204645F090F9002845
:1054000000F0958000221E921EAA68490C3045F0DB
:1054100009F89DF8783007930135EDB26C492046C4
:1054200045F07DF9002800F085806A490B3045F091
:1054300076F9002800F081800135EDB2022309934E
:105440006549204645F06BF9002800F08B805A49E9
:10545000204645F064F9002872D001230B930135F2
:10546000EDB25E49204645F05AF9002800F08980E7
:105470005B49204645F053F9002876D04FF00108EB
:105480005849204645F04BF9002800F066815649FE
:10549000204645F044F9002876D000221E921EAA2C
:1054A00042490A3044F0BEFF1E9B0A9343492046FE
:1054B00045F035F90746002800F0A0801EAE2422F2
:1054C0000021304645F0DEF803961FAB029320AB77
:1054D000019321AB009322AB23AA444907F11000AA
:1054E00044F0A0FF062852D000230C9388E04049E6
:1054F000204645F014F940B13849204645F00FF9EF
:1055000000287FF44FAF00205CE22D49204645F093
:1055100006F900287FF44DAF54E20023089358E7C2
:105520000023089355E7002306931D4663E70023F5
:10553000079373E70023099382E7002309937FE72A
:105540002B49204645F0EBF810B102230B9386E778
:105550001B49204645F0E3F8002814BF032300232D
:105560000B937CE700230B937BE72249204645F011
:10557000D6F8B0F1000818BF4FF001084FEA48080C
:105580007EE74FF000087BE71B4B0A938EE7239BD7
:1055900064332393229B013B2293304645F0C8FAA3
:1055A0000C902DE0584E00242C04070838040708FE
:1055B000B85400240E000024E4040708F00407088F
:1055C000000507080C0507089C810708380507082F
:1055D0003C040708405B07084C0507082805070836
:1055E0006005070870050708840507080C08070808
:1055F0001C050708680507088051010000230C936B
:10560000A249204645F08BF80646002842D0A04922
:1056100045F085F8002834D0022305930135EDB21A
:105620009C49204645F07BF8002836D000221E9287
:105630001EAA9949113044F0F5FE9DED1E8A0135F0
:10564000EDB29649204645F06AF8002800F0CA807D
:105650009349204645F063F80646002800F0C580CF
:105660009049204645F05BF8002800F0C1800DF11C
:10567000A0090027DFF828A2DFF854B20D953D46B7
:1056800018E08949304645F04AF8031E18BF012347
:105690000593C3E700230593C2E79FED848AD0E713
:1056A000834B1E9A9A421FD81E9B49F8043F01372C
:1056B000092F1BD00495FDB25146304645F02FF816
:1056C000064630B300231E930D361EAA59463046B7
:1056D00044F0A8FEB8F1010FE2D0B8F1020FE3D117
:1056E0001E9B744A9342DFD900206BE104950D9D07
:1056F0006A49204645F013F8064635AF0DF1F80A21
:10570000DFF8D0914FF0000BDFED6B8A0D94059C14
:1057100006E00D9DECE71E9B47F8043B574518D06B
:105720004946304644F0FBFF064690B1CDF878B0CC
:1057300007361EAA5849304644F074FE012CEAD1BF
:10574000DDED1E7AF4EEE87AF1EE10FAE3DD0020EA
:1057500038E10D9C0135EDB206E000230C939FED7E
:10576000538A0A93049305935449204644F0D7FF83
:105770000746002861D01EAE24220021304644F0A6
:1057800081FF03961FAB029320AB019321AB0093E3
:1057900022AB23AA4A4907F10C0044F043FE062835
:1057A00029D000264749204644F0B9FF0746002883
:1057B00000F0C98015AC24220021204644F062FF8D
:1057C000039416AB029317AB019318AB009319AB7C
:1057D0001AAA3B4907F10A0044F024FE06287BD0B0
:1057E0000024B2E000230493BEE700230493BBE748
:1057F00000230493B8E7239B64332393229B013B4C
:105800002293304645F094F90646109011910023FA
:10581000159316931793189319931A93ADF86C3048
:1058200010A844F092FF0146192215A844F064FF25
:1058300015A9254844F026FDB4E7244E002215A9F9
:10584000304618F066FC002210A9304618F087FC9C
:1058500000232493259326939DF8543020939DF89C
:1058600055301F939DF856301E939DF8423021937A
:105870009DF84130013B22939DF8433064332393DC
:105880001EA845F055F906468CE700BFD805070865
:10589000EC050708F40507080406070808060708CA
:1058A000200607082C060708F0050708000000007E
:1058B00080510100803A09000000A042AC060708B0
:1058C0000C080708F406070824080708D466012412
:1058D0009C810708440707081A9B64331A93199B95
:1058E000013B1993204645F023F90446394F002225
:1058F00010A9384618F00DFC00220FA9384618F000
:105900002EFC00232493259326939DF8403020936A
:105910009DF841301F939DF842301E939DF83E3014
:1059200021939DF83D30013B22939DF83F30643335
:1059300023931EA845F0FCF8844206D8264844F07C
:1059400011FD00203EE0254C3444032D05D82946A6
:10595000234844F097FC002034E09DF80F01099B98
:105960008DF89C30079B8DF89D300B9B8DF89F30F8
:105970008DF8A080059B8DF8A130049B8DF8A23096
:105980000A9B3293069BADF8CC308DED348A089B90
:105990003E933F9640940C9B4193C0EBC000702215
:1059A00027A9104B03EB001045F0F3FD9DF80F11F4
:1059B0000D4844F067FC03F0F3FE012002E00020F4
:1059C00000E0002045B0BDEC028BBDE8F08F002068
:1059D000F8E700BFD46601244008070880510100A1
:1059E0009C080708B85400246C08070808B5002173
:1059F000084B19717022084844F044FE074B1B788D
:105A0000DBB2FF2B02D0054BFF221A70044B0022A1
:105A10001A7008BD584E0024485400240D0000247C
:105A20004D4E00242DE9F04F2DED028BB7B004460A
:105A3000702200211AA844F025FEAA49204644F00D
:105A40006EFE002800F0B8820022119211AAA64929
:105A50000F3044F0E7FCDDF844A0A44B5B685345ED
:105A600005D0002037B0BDEC028BBDE8F08FA04917
:105A7000204644F054FE002800F0978000F10B050A
:105A80009C49284644F04BFE002878D000230A9316
:105A900001269949204644F042FE002800F0898002
:105AA0000022119211AA9549133044F0BBFCBDF8B5
:105AB000443005930136F6B29149204644F02FFE5A
:105AC000002879D00022119211AA8C490C3044F0A0
:105AD000A9FC9DF8443006930136F6B28949204668
